{"contracts/OrphiCrowdFund.sol":{"OrphiCrowdFund":{"abi":[{"inputs":[{"internalType":"address","name":"target","type":"address"}],"name":"AddressEmptyCode","type":"error"},{"inputs":[{"internalType":"address","name":"implementation","type":"address"}],"name":"ERC1967InvalidImplementation","type":"error"},{"inputs":[],"name":"ERC1967NonPayable","type":"error"},{"inputs":[],"name":"EnforcedPause","type":"error"},{"inputs":[],"name":"ExpectedPause","type":"error"},{"inputs":[],"name":"FailedCall","type":"error"},{"inputs":[],"name":"InvalidInitialization","type":"error"},{"inputs":[],"name":"NotInitializing","type":"error"},{"inputs":[{"internalType":"address","name":"owner","type":"address"}],"name":"OwnableInvalidOwner","type":"error"},{"inputs":[{"internalType":"address","name":"account","type":"address"}],"name":"OwnableUnauthorizedAccount","type":"error"},{"inputs":[],"name":"ReentrancyGuardReentrantCall","type":"error"},{"inputs":[],"name":"UUPSUnauthorizedCallContext","type":"error"},{"inputs":[{"internalType":"bytes32","name":"slot","type":"bytes32"}],"name":"UUPSUnsupportedProxiableUUID","type":"error"},{"anonymous":false,"inputs":[{"indexed":true,"internalType":"address","name":"recipient","type":"address"},{"indexed":false,"internalType":"uint96","name":"amount","type":"uint96"},{"indexed":false,"internalType":"uint8","name":"bonusType","type":"uint8"}],"name":"BonusDistributed","type":"event"},{"anonymous":false,"inputs":[{"indexed":false,"internalType":"uint64","name":"version","type":"uint64"}],"name":"Initialized","type":"event"},{"anonymous":false,"inputs":[{"indexed":true,"internalType":"address","name":"previousOwner","type":"address"},{"indexed":true,"internalType":"address","name":"newOwner","type":"address"}],"name":"OwnershipTransferred","type":"event"},{"anonymous":false,"inputs":[{"indexed":true,"internalType":"address","name":"user","type":"address"},{"indexed":false,"internalType":"uint8","name":"newLevel","type":"uint8"},{"indexed":false,"internalType":"uint96","name":"amount","type":"uint96"}],"name":"PackageUpgraded","type":"event"},{"anonymous":false,"inputs":[{"indexed":false,"internalType":"address","name":"account","type":"address"}],"name":"Paused","type":"event"},{"anonymous":false,"inputs":[{"indexed":true,"internalType":"uint8","name":"poolType","type":"uint8"},{"indexed":false,"internalType":"uint96","name":"amount","type":"uint96"}],"name":"PoolDistributed","type":"event"},{"anonymous":false,"inputs":[{"indexed":false,"internalType":"address","name":"account","type":"address"}],"name":"Unpaused","type":"event"},{"anonymous":false,"inputs":[{"indexed":true,"internalType":"address","name":"implementation","type":"address"}],"name":"Upgraded","type":"event"},{"anonymous":false,"inputs":[{"indexed":true,"internalType":"address","name":"user","type":"address"},{"indexed":true,"internalType":"address","name":"referrer","type":"address"},{"indexed":false,"internalType":"uint8","name":"packageLevel","type":"uint8"},{"indexed":false,"internalType":"uint96","name":"amount","type":"uint96"}],"name":"UserRegistered","type":"event"},{"anonymous":false,"inputs":[{"indexed":true,"internalType":"address","name":"user","type":"address"},{"indexed":false,"internalType":"uint96","name":"amount","type":"uint96"}],"name":"Withdrawal","type":"event"},{"inputs":[],"name":"UPGRADE_INTERFACE_VERSION","outputs":[{"internalType":"string","name":"","type":"string"}],"stateMutability":"view","type":"function"},{"inputs":[{"internalType":"uint256","name":"","type":"uint256"}],"name":"adminIds","outputs":[{"internalType":"address","name":"","type":"address"}],"stateMutability":"view","type":"function"},{"inputs":[{"internalType":"address","name":"","type":"address"},{"internalType":"uint256","name":"","type":"uint256"}],"name":"binaryMatrix","outputs":[{"internalType":"address","name":"","type":"address"}],"stateMutability":"view","type":"function"},{"inputs":[{"internalType":"address","name":"user","type":"address"},{"internalType":"bool","name":"status","type":"bool"}],"name":"blacklistUser","outputs":[],"stateMutability":"nonpayable","type":"function"},{"inputs":[],"name":"clubPool","outputs":[{"internalType":"uint96","name":"balance","type":"uint96"},{"internalType":"uint32","name":"lastDistribution","type":"uint32"},{"internalType":"uint32","name":"interval","type":"uint32"}],"stateMutability":"view","type":"function"},{"inputs":[{"internalType":"address","name":"","type":"address"},{"internalType":"uint256","name":"","type":"uint256"}],"name":"directReferrals","outputs":[{"internalType":"address","name":"","type":"address"}],"stateMutability":"view","type":"function"},{"inputs":[],"name":"distributePools","outputs":[],"stateMutability":"nonpayable","type":"function"},{"inputs":[{"internalType":"uint256","name":"amount","type":"uint256"}],"name":"emergencyWithdraw","outputs":[],"stateMutability":"nonpayable","type":"function"},{"inputs":[{"internalType":"address","name":"user","type":"address"}],"name":"getBinaryMatrix","outputs":[{"internalType":"address[2]","name":"","type":"address[2]"}],"stateMutability":"view","type":"function"},{"inputs":[{"internalType":"address","name":"user","type":"address"}],"name":"getDirectReferrals","outputs":[{"internalType":"address[]","name":"","type":"address[]"}],"stateMutability":"view","type":"function"},{"inputs":[],"name":"getPoolBalances","outputs":[{"internalType":"uint96","name":"","type":"uint96"},{"internalType":"uint96","name":"","type":"uint96"},{"internalType":"uint96","name":"","type":"uint96"}],"stateMutability":"view","type":"function"},{"inputs":[{"internalType":"address","name":"user","type":"address"}],"name":"getUplineChain","outputs":[{"internalType":"address[30]","name":"","type":"address[30]"}],"stateMutability":"view","type":"function"},{"inputs":[{"internalType":"address","name":"user","type":"address"}],"name":"getUserInfo","outputs":[{"components":[{"internalType":"bool","name":"isRegistered","type":"bool"},{"internalType":"bool","name":"isBlacklisted","type":"bool"},{"internalType":"address","name":"referrer","type":"address"},{"internalType":"uint96","name":"balance","type":"uint96"},{"internalType":"uint96","name":"totalInvestment","type":"uint96"},{"internalType":"uint96","name":"totalEarnings","type":"uint96"},{"internalType":"uint96","name":"earningsCap","type":"uint96"},{"internalType":"uint32","name":"directReferrals","type":"uint32"},{"internalType":"uint32","name":"teamSize","type":"uint32"},{"internalType":"uint8","name":"packageLevel","type":"uint8"},{"internalType":"uint8","name":"rank","type":"uint8"},{"internalType":"uint8","name":"withdrawalRate","type":"uint8"}],"internalType":"struct OrphiCrowdFund.User","name":"","type":"tuple"}],"stateMutability":"view","type":"function"},{"inputs":[],"name":"helpPool","outputs":[{"internalType":"uint96","name":"balance","type":"uint96"},{"internalType":"uint32","name":"lastDistribution","type":"uint32"},{"internalType":"uint32","name":"interval","type":"uint32"}],"stateMutability":"view","type":"function"},{"inputs":[{"internalType":"address","name":"_usdt","type":"address"},{"internalType":"address","name":"_priceFeed","type":"address"},{"internalType":"address[16]","name":"_adminIds","type":"address[16]"}],"name":"initialize","outputs":[],"stateMutability":"nonpayable","type":"function"},{"inputs":[],"name":"leaderPool","outputs":[{"internalType":"uint96","name":"balance","type":"uint96"},{"internalType":"uint32","name":"lastDistribution","type":"uint32"},{"internalType":"uint32","name":"interval","type":"uint32"}],"stateMutability":"view","type":"function"},{"inputs":[],"name":"owner","outputs":[{"internalType":"address","name":"","type":"address"}],"stateMutability":"view","type":"function"},{"inputs":[{"internalType":"uint8","name":"","type":"uint8"}],"name":"packages","outputs":[{"internalType":"uint96","name":"price","type":"uint96"},{"internalType":"uint16","name":"directBonus","type":"uint16"},{"internalType":"uint16","name":"levelBonus","type":"uint16"},{"internalType":"uint16","name":"uplineBonus","type":"uint16"},{"internalType":"uint16","name":"leaderBonus","type":"uint16"},{"internalType":"uint16","name":"helpBonus","type":"uint16"},{"internalType":"uint16","name":"clubBonus","type":"uint16"}],"stateMutability":"view","type":"function"},{"inputs":[],"name":"paused","outputs":[{"internalType":"bool","name":"","type":"bool"}],"stateMutability":"view","type":"function"},{"inputs":[],"name":"priceFeed","outputs":[{"internalType":"contract IPriceFeed","name":"","type":"address"}],"stateMutability":"view","type":"function"},{"inputs":[],"name":"proxiableUUID","outputs":[{"internalType":"bytes32","name":"","type":"bytes32"}],"stateMutability":"view","type":"function"},{"inputs":[{"internalType":"uint256","name":"amount","type":"uint256"}],"name":"recoverUSDT","outputs":[],"stateMutability":"nonpayable","type":"function"},{"inputs":[{"internalType":"address","name":"referrer","type":"address"},{"internalType":"uint8","name":"packageLevel","type":"uint8"},{"internalType":"bool","name":"useUSDT","type":"bool"}],"name":"register","outputs":[],"stateMutability":"payable","type":"function"},{"inputs":[],"name":"renounceOwnership","outputs":[],"stateMutability":"nonpayable","type":"function"},{"inputs":[{"internalType":"address","name":"newOwner","type":"address"}],"name":"transferOwnership","outputs":[],"stateMutability":"nonpayable","type":"function"},{"inputs":[{"internalType":"address","name":"user","type":"address"},{"internalType":"uint8","name":"rank","type":"uint8"}],"name":"updateUserRank","outputs":[],"stateMutability":"nonpayable","type":"function"},{"inputs":[{"internalType":"address","name":"user","type":"address"},{"internalType":"uint8","name":"rate","type":"uint8"}],"name":"updateWithdrawalRate","outputs":[],"stateMutability":"nonpayable","type":"function"},{"inputs":[{"internalType":"uint8","name":"newLevel","type":"uint8"},{"internalType":"bool","name":"useUSDT","type":"bool"}],"name":"upgradePackage","outputs":[],"stateMutability":"payable","type":"function"},{"inputs":[{"internalType":"address","name":"newImplementation","type":"address"},{"internalType":"bytes","name":"data","type":"bytes"}],"name":"upgradeToAndCall","outputs":[],"stateMutability":"payable","type":"function"},{"inputs":[{"internalType":"address","name":"","type":"address"},{"internalType":"uint256","name":"","type":"uint256"}],"name":"uplineChain","outputs":[{"internalType":"address","name":"","type":"address"}],"stateMutability":"view","type":"function"},{"inputs":[],"name":"usdt","outputs":[{"internalType":"contract IERC20","name":"","type":"address"}],"stateMutability":"view","type":"function"},{"inputs":[{"internalType":"address","name":"","type":"address"}],"name":"users","outputs":[{"internalType":"bool","name":"isRegistered","type":"bool"},{"internalType":"bool","name":"isBlacklisted","type":"bool"},{"internalType":"address","name":"referrer","type":"address"},{"internalType":"uint96","name":"balance","type":"uint96"},{"internalType":"uint96","name":"totalInvestment","type":"uint96"},{"internalType":"uint96","name":"totalEarnings","type":"uint96"},{"internalType":"uint96","name":"earningsCap","type":"uint96"},{"internalType":"uint32","name":"directReferrals","type":"uint32"},{"internalType":"uint32","name":"teamSize","type":"uint32"},{"internalType":"uint8","name":"packageLevel","type":"uint8"},{"internalType":"uint8","name":"rank","type":"uint8"},{"internalType":"uint8","name":"withdrawalRate","type":"uint8"}],"stateMutability":"view","type":"function"},{"inputs":[{"internalType":"uint96","name":"amount","type":"uint96"}],"name":"withdraw","outputs":[],"stateMutability":"nonpayable","type":"function"},{"stateMutability":"payable","type":"receive"}],"evm":{"bytecode":{"linkReferences":{},"object":"60a0806040523461002a5730608052613b0d908161003082396080518181816114eb01526116200152f35b600080fdfe6080604052600436101561001b575b361561001957600080fd5b005b60003560e01c806305ad393514612d5b57806306defffb146120dd5780630e7bfadf146119f15780630ef5dcfd146119335780632d052432146118645780632f48ab7d1461183d5780634f1ef286146115a357806352375bb11461156557806352d1902d146114d05780635312ea8e1461146b57806355e14d22146114365780635c975abb146113f45780635dbc0297146111de5780636386c1c714610fe15780636c2db77b14610f9c578063715018a614610f21578063741bef1a14610efa57806388d844f414610eb557806388f24e0914610e0d5780638da5cb5b14610dc757806395979de614610b405780639740041e14610ae6578063a87430ba14610a16578063ad3cb1cc1461097a578063b317d69d146108cd578063cf7a7e6414610888578063d2c8e0e5146107d5578063dcbf77031461069d578063dee4dea014610357578063df76fe2914610287578063e4a1f4d114610206578063ee0da086146101b95763f2fde38b0361000e57346101b45760203660031901126101b4576100196101a7612db5565b6101af61399f565b61302d565b600080fd5b346101b45760403660031901126101b4576101d2612db5565b602435906001600160a01b03809116600052600460205260406000209160028110156101b457602092015416604051908152f35b346101b45760203660031901126101b45760ff610221612eb9565b16600052600160205260e060406000205461ffff604051916001600160601b0381168352818160601c166020840152818160701c166040840152818160801c166060840152818160901c166080840152818160a01c1660a084015260b01c1660c0820152f35b346101b45760403660031901126101b4576102a0612db5565b6102a8612ea9565b60009160005b60108110610329575b506001600160a01b0390836100199490156102fd575b6102d690612f78565b16600052600060205260036040600020019061ff0082549160081b169061ff001916179055565b507f9016d09d72d40fdae2fd8ceac6b6234c7706214fd39c1cd1e609a0528c19930054821633146102cd565b336001600160a01b0382600a01541614610345576001016102ae565b50600192506001600160a01b036102b7565b346101b4576020806003193601126101b457600435906001600160601b038083168084036101b4576103876130cb565b61038f613125565b3360005260008352604060002090815460ff9081808216918261068f575b50501561064b5760018301805493858516809411610607576103f26064876103df8660038396015460101c168c612ff6565b1604986103ec8a82613014565b95613014565b166001600160601b0319809516179055838216908115908115610497575b5050505050600092168092811561048e575b600080809381933390f115610482577f1dddbbe3387bb8b425be68ce12f5d8279ebcd18c7b1ccf5dcd2c8c3ab9cc050b906040519283523392a260017f9b779b17422d0df92223018b32b4d1fa46e071723d6817e2486d003becc55f0055005b6040513d6000823e3d90fd5b506108fc610422565b336000526000875280600360406000200154169460088610806105e4575b156105b457506001610530916104ca87613a02565b3360005260008a5260406000209160038301911660ff19825416179055016104f88588835460601c16612fdb565b77ffffffffffffffffffffffff000000000000000000000000196bffffffffffffffffffffffff60601b83549260601b169116179055565b8260021b916c03fffffffffffffffffffffffc831604600414171561059e576105949261058861058d9233600052600088526104f86bfffffffffffffffffffffffc6002604060002001921688835460601c16612fdb565b613a02565b90336133ab565b8380808080610410565b634e487b7160e01b600052601160045260246000fd5b94505050503360005260008452600160406000200191836105d9845493828516612fdb565b169116179055610594565b50816105ef87613a02565b166000526001885286604060002054168410156104b5565b6064876040519062461bcd60e51b82526004820152601460248201527f496e73756666696369656e742062616c616e63650000000000000000000000006044820152fd5b6064856040519062461bcd60e51b82526004820152600c60248201527f496e76616c6964207573657200000000000000000000000000000000000000006044820152fd5b60081c1615905081886103ad565b346101b45760403660031901126101b4576106b6612db5565b6106be612ea9565b6000805b601081106107af575b508015610777575b6106dc90612f78565b60ff81166046811015908161076b575b5015610727576001600160a01b036100199216600052600060205260036040600020019062ff000082549160101b169062ff00001916179055565b606460405162461bcd60e51b815260206004820152600c60248201527f496e76616c6964207261746500000000000000000000000000000000000000006044820152fd5b605091501115836106ec565b506106dc6001600160a01b037f9016d09d72d40fdae2fd8ceac6b6234c7706214fd39c1cd1e609a0528c1993005416331490506106d3565b336001600160a01b0382600a015416146107cb576001016106c2565b50506001836106cb565b346101b4576020806003193601126101b4576001600160a01b0390816107f9612db5565b1660005260028152604060002060405191828183549182815201908193600052826000209060005b8181106108725750505083610837910384612e87565b60405192818401908285525180915260408401929160005b82811061085c5785850386f35b835187168552938101939281019260010161084f565b8254881684529284019260019283019201610821565b346101b45760003660031901126101b457600754604080516001600160601b038316815263ffffffff606084811c8216602084015260809490941c1691810191909152f35b346101b4576020806003193601126101b4576108e7612db5565b90604051916108f583612e6a565b6103c080933690376001600160a01b0380911660005260036020526040600020916040519283826000915b601e8310610961575050505061093583612e6a565b60405192600090845b601e831061094a578686f35b83806001928785511681520192019201919061093e565b6001918291878654168152019301910190918390610920565b346101b45760003660031901126101b45760405161099781612e4e565b600581526020907f352e302e3000000000000000000000000000000000000000000000000000000060208201526040518092602082528251908160208401526000935b8285106109fd575050604092506000838284010152601f80199101168101030190f35b84810182015186860160400152938101938593506109da565b346101b45760203660031901126101b4576101806001600160a01b0380610a3b612db5565b16600052600060205260ff60406000209182549260018101546001600160601b03809160036002850154940154946040519787811615158952878160081c16151560208a015260101c166040880152818116606088015260601c16608086015280821660a08601528160601c1660c085015263ffffffff8160c01c1660e085015260e01c610100840152818116610120840152818160081c1661014084015260101c16610160820152f35b346101b45760403660031901126101b457610aff612db5565b602435906001600160a01b0380911660005260036020526040600020601e8310156101b457602092610b3091612ef4565b90549060031b1c16604051908152f35b60403660031901126101b457610b54612eb9565b610b5c612ec9565b610b646130cb565b610b6c613125565b610b79601a544311612f15565b43601a553360005260206000815260ff6040600020541615610d8357336000526000815260ff60406000205460081c16610d3f57336000526000815260ff600360406000200154169160ff841692831180610d34575b15610cf057610be06001918561317a565b923360005260008352604060002090600382019060ff198254161790550191610c1b6001600160601b03936104f88386835460601c16612fdb565b828116928160021b93806c03fffffffffffffffffffffffc8616046004149015171561059e577f08c55c9cdb3bcb948578fbc7d81c0f651db05b0fa6aa25a97bf61816997e9f34936104f8610c97926000610cc796338252526bfffffffffffffffffffffffc6002604060002001931690835460601c16612fdb565b610ca28482336133ab565b6040805160ff90951685526001600160601b0390911660208501523393918291820190565b0390a260017f9b779b17422d0df92223018b32b4d1fa46e071723d6817e2486d003becc55f0055005b6064826040519062461bcd60e51b82526004820152600f60248201527f496e76616c6964207570677261646500000000000000000000000000000000006044820152fd5b506008831115610bcf565b6064906040519062461bcd60e51b82526004820152600b60248201527f426c61636b6c69737465640000000000000000000000000000000000000000006044820152fd5b6064906040519062461bcd60e51b82526004820152600e60248201527f4e6f7420726567697374657265640000000000000000000000000000000000006044820152fd5b346101b45760003660031901126101b45760206001600160a01b037f9016d09d72d40fdae2fd8ceac6b6234c7706214fd39c1cd1e609a0528c1993005416604051908152f35b346101b4576020806003193601126101b457610e27612db5565b60408051610e3481612e4e565b3690376001600160a01b0380911660005260046020526040600020916040519283826000915b60028310610e9c5750505050610e6f83612e4e565b60405192600090845b60028310610e8557604086f35b838060019287855116815201920192019190610e78565b6001918291878654168152019301910190918390610e5a565b346101b45760003660031901126101b457600654604080516001600160601b038316815263ffffffff606084811c8216602084015260809490941c1691810191909152f35b346101b45760003660031901126101b45760206001600160a01b0360095416604051908152f35b346101b45760003660031901126101b457610f3a61399f565b60006001600160a01b037f9016d09d72d40fdae2fd8ceac6b6234c7706214fd39c1cd1e609a0528c1993008054906001600160a01b031982169055167f8be0079c531659141344cd1fd0a4f28419497f9722a3daafe3b4186f6b6457e08280a3005b346101b45760003660031901126101b457600554604080516001600160601b038316815263ffffffff606084811c8216602084015260809490941c1691810191909152f35b346101b45760203660031901126101b4576001600160a01b03611002612db5565b600061016060405161101381612e31565b8281528260208201528260408201528260608201528260808201528260a08201528260c08201528260e08201528261010082015282610120820152826101408201520152166000526000602052610180604060002060ff61016060405161107981612e31565b82600385549582871615158452828760081c16151560208501526001600160a01b038760101c1660408501526001600160601b036001820154818116606087015260601c16608085015260028101546001600160601b03811660a08601526001600160601b038160601c1660c086015263ffffffff8160c01c1660e086015260e01c6101008501520154818116610120840152818160081c1661014084015260101c1682820152826040519416151584526020810151151560208501526001600160a01b0360408201511660408501526001600160601b0360608201511660608501526001600160601b0360808201511660808501526001600160601b0360a08201511660a08501526001600160601b0360c08201511660c085015263ffffffff60e08201511660e085015263ffffffff6101008201511661010085015282610120820151166101208501528261014082015116610140850152015116610160820152f35b346101b45760003660031901126101b4576000805b601081106113ce575b508015611396575b61120d90612f78565b63ffffffff8042166005549060609183611230818360801c168284871c16612fc3565b16821015611338575b5060065483611251818360801c168284871c16612fc3565b168210156112da575b5060075492611272818560801c168286861c16612fc3565b16111561127b57005b63ffffffff60601b6fffffffffffffffffffffffffffffffff199160037f720f16148d6c70bef37c97275fd67d61483575c5f6f20dfd980d69c036a29d5460206040516001600160601b0388168152a242901b16911617600755600080f35b60027f720f16148d6c70bef37c97275fd67d61483575c5f6f20dfd980d69c036a29d5460206040516001600160601b0385168152a26fffffffffffffffffffffffffffffffff191642831b63ffffffff60601b16176006558361125a565b60017f720f16148d6c70bef37c97275fd67d61483575c5f6f20dfd980d69c036a29d5460206040516001600160601b0385168152a26fffffffffffffffffffffffffffffffff191642831b63ffffffff60601b161760055583611239565b5061120d6001600160a01b037f9016d09d72d40fdae2fd8ceac6b6234c7706214fd39c1cd1e609a0528c199300541633149050611204565b336001600160a01b0382600a015416146113ea576001016111f3565b50506001816111fc565b346101b45760003660031901126101b457602060ff7fcd5ed15c6e187e77e9aee88184c21f4f2182ab5827cb3b7e07fbedcd63f0330054166040519015158152f35b346101b45760203660031901126101b45760043560108110156101b4576001600160a01b03602091600a015416604051908152f35b346101b45760203660031901126101b457600080808060043561148c61399f565b6001600160a01b037f9016d09d72d40fdae2fd8ceac6b6234c7706214fd39c1cd1e609a0528c19930054168282156114c7575bf11561048257005b506108fc6114bf565b346101b45760003660031901126101b4576001600160a01b037f000000000000000000000000000000000000000000000000000000000000000016300361153b5760206040517f360894a13ba1a3210667c828492db98dca3e2076cc3735a920a3ca505d382bbc8152f35b60046040517fe07c8dba000000000000000000000000000000000000000000000000000000008152fd5b346101b45760003660031901126101b45760606001600160601b03806005541690806006541690600754169060405192835260208301526040820152f35b60403660031901126101b4576115b7612db5565b602490813567ffffffffffffffff81116101b457366023820112156101b45780600401356115e481612ed8565b926115f26040519485612e87565b81845260209182850193368783830101116101b45781600092888693018737860101526001600160a01b03807f00000000000000000000000000000000000000000000000000000000000000001680301490811561180f575b5061153b5761165861399f565b8116936040517f52d1902d0000000000000000000000000000000000000000000000000000000081528381600481895afa600091816117e0575b506116ae57868660405190634c9c8ce360e01b82526004820152fd5b8590877f360894a13ba1a3210667c828492db98dca3e2076cc3735a920a3ca505d382bbc918281036117b25750843b1561179c5750816001600160a01b0319825416179055604051907fbc7cd75a20ee27fd9adebab32041f755214dbc6bffa90cc0225b39da2e5c2d3b600080a2815115611768575060006100199481925190845af4903d1561175f573d61174281612ed8565b906117506040519283612e87565b8152600081943d92013e613a6d565b60609250613a6d565b93505050503461177457005b807fb398979f0000000000000000000000000000000000000000000000000000000060049252fd5b8260405190634c9c8ce360e01b82526004820152fd5b604051907faa1d49a40000000000000000000000000000000000000000000000000000000082526004820152fd5b9091508481813d8311611808575b6117f88183612e87565b810103126101b457519088611692565b503d6117ee565b9050817f360894a13ba1a3210667c828492db98dca3e2076cc3735a920a3ca505d382bbc541614158761164b565b346101b45760003660031901126101b45760206001600160a01b0360085416604051908152f35b346101b45760403660031901126101b45761187d612db5565b611885612ec9565b60009160005b60108110611905575b506001600160a01b0390836100199490156118d9575b6118b390612f78565b16600052600060205260406000209061ff00825491151560081b169061ff001916179055565b507f9016d09d72d40fdae2fd8ceac6b6234c7706214fd39c1cd1e609a0528c19930054821633146118aa565b336001600160a01b0382600a015416146119215760010161188b565b50600192506001600160a01b03611894565b346101b45760203660031901126101b45761194c61399f565b600060206001600160a01b0360448160085416917f9016d09d72d40fdae2fd8ceac6b6234c7706214fd39c1cd1e609a0528c199300541660405194859384927fa9059cbb000000000000000000000000000000000000000000000000000000008452600484015260043560248401525af18015610482576119c957005b6100199060203d6020116119ea575b6119e28183612e87565b810190612f60565b503d6119d8565b60603660031901126101b457611a05612db5565b611a0d612ea9565b6044359182151583036101b457611a226130cb565b611a2a613125565b611a37601a544311612f15565b43601a5533600052600060205260ff6040600020541661209957600160ff831610158061208b575b15612047576001600160a01b038116159283159384612026575b15611fe257611a88908361317a565b926001600160601b0384166c03fffffffffffffffffffffffc8560021b16046004146001600160601b03851615171561059e57604051611ac781612e31565b60018152600060208201526001600160a01b0383166040820152600060608201526001600160601b0385166080820152600060a08201526bfffffffffffffffffffffffc8560021b1660c0820152600060e0820152600061010082015260ff8416610120820152600061014082015260466101608201523360005260006020526040600020918151151560ff80198554169116178355611b8060208301511515849061ff00825491151560081b169061ff001916179055565b604082015175ffffffffffffffffffffffffffffffffffffffff00001975ffffffffffffffffffffffffffffffffffffffff000085549260101b169116178355611d5c6001840192611c316001600160601b03606083015116946001600160601b031995868254161781556001600160601b0360808401511677ffffffffffffffffffffffff000000000000000000000000196bffffffffffffffffffffffff60601b83549260601b169116179055565b60028501936001600160601b0360a08301511690855416178455611c966001600160601b0360c083015116859077ffffffffffffffffffffffff000000000000000000000000196bffffffffffffffffffffffff60601b83549260601b169116179055565b60e0810151845463ffffffff60c01b191660c09190911b63ffffffff60c01b1617845563ffffffff9361010082015181547bffffffffffffffffffffffffffffffffffffffffffffffffffffffff1660e09190911b7fffffffff00000000000000000000000000000000000000000000000000000000161790556101208101516003958601805461014084015161ffff1990911660ff9384161760089190911b61ff001617815591610160905b0151825462ff00001916911660101b62ff000016179055565b611de0575b50506001600160a01b037f71def7d796f49533ee52ddbc96692742dfdf822ce8b6e59e1102742a3a15cdfd91611d988486336133ab565b6040805160ff9590951685526001600160601b0395909516602085015216923392a360017f9b779b17422d0df92223018b32b4d1fa46e071723d6817e2486d003becc55f0055005b6001600160a01b038394929593166000526002602052604060002080549068010000000000000000821015611fcc5781611e22916001611e4094018155612dcb565b33906001600160a01b038084549260031b9316831b921b1916179055565b6001600160a01b0384166000526000602052600260406000200181815460c01c1691821461059e576001611e8e920163ffffffff60c01b1963ffffffff60c01b83549260c01b169116179055565b33600052600360205260406000206001600160a01b0384166001600160a01b031982541617905560015b60ff8116601e811015611f97573360005285602052604060002090600019019060ff821161059e576001600160a01b0391611ef291612ef4565b905490871b1c16600052846020526001600160a01b03604060002054168015611f565760ff91611f4f60019233600052611f30836040600020612ef4565b9091906001600160a01b038084549260031b9316831b921b1916179055565b0116611eb8565b5050917f71def7d796f49533ee52ddbc96692742dfdf822ce8b6e59e1102742a3a15cdfd9193506001600160a01b03905b611f9181336132bc565b91611d61565b5050917f71def7d796f49533ee52ddbc96692742dfdf822ce8b6e59e1102742a3a15cdfd9193506001600160a01b0390611f87565b634e487b7160e01b600052604160045260246000fd5b606460405162461bcd60e51b815260206004820152601060248201527f496e76616c6964207265666572726572000000000000000000000000000000006044820152fd5b506001600160a01b038216600052600060205260ff60406000205416611a79565b606460405162461bcd60e51b815260206004820152600f60248201527f496e76616c6964207061636b61676500000000000000000000000000000000006044820152fd5b50600860ff83161115611a5f565b606460405162461bcd60e51b815260206004820152601260248201527f416c7265616479207265676973746572656400000000000000000000000000006044820152fd5b346101b4576102403660031901126101b4576120f7612db5565b6024356001600160a01b0381168091036101b45736606312156101b4576040519061020082019267ffffffffffffffff9383811085821117611fcc57604052826102443681116101b4576044915b818310612d3b575050507ff0c57e16840df040f15088dc2f81fe391c3923bec73e23a9662efc9c229c6a005493841680159081612d2b575b6001149081612d21575b159081612d18575b50612cee576001600160a01b0390600167ffffffffffffffff198616177ff0c57e16840df040f15088dc2f81fe391c3923bec73e23a9662efc9c229c6a005560ff8560401c1615612caf575b6121e3613a14565b6121eb613a14565b6121f43361302d565b6121fc613a14565b612204613a14565b61220c613a14565b60017f9b779b17422d0df92223018b32b4d1fa46e071723d6817e2486d003becc55f0055612238613a14565b166001600160a01b031960085416176008556001600160a01b031960095416176009558060005b60108110612c9157505060405161227581612df9565b6801a055690d9db800008152610fa060208201526103e860408201526103e860608201526103e86080820152610bb860a08201526101f460c0820152600160005260016020526040600020906001600160601b038151169082549161ffff60901b61ffff60601b602084015160601b16604084015161ffff60701b61ffff60801b606087015160801b16926080870151956001600160c01b031961ffff60b01b60c061ffff60a01b60a08c015160a01b169a015160b01b16991617179160701b1617179160901b16171717905560405161234e81612df9565b6802b5e3af16b18800008152610fa060208201526103e860408201526103e860608201526103e86080820152610bb860a08201526101f460c0820152600260005260016020526040600020906001600160601b038151169082549161ffff60601b602083015160601b1661ffff60701b604084015160701b1661ffff60801b606085015160801b169161ffff60901b608086015160901b16936001600160c01b031961ffff60b01b60c061ffff60a01b60a08a015160a01b1698015160b01b16971617171717171717905560405161242581612df9565b68056bc75e2d631000008152610fa060208201526103e860408201526103e860608201526103e86080820152610bb860a08201526101f460c0820152600360005260016020526040600020906001600160601b038151169082549161ffff60601b602083015160601b1661ffff60701b604084015160701b1661ffff60801b606085015160801b169161ffff60901b608086015160901b16936001600160c01b031961ffff60b01b60c061ffff60a01b60a08a015160a01b1698015160b01b1697161717171717171790556040516124fc81612df9565b680ad78ebc5ac62000008152610fa060208201526103e860408201526103e860608201526103e86080820152610bb860a08201526101f460c0820152600460005260016020526040600020906001600160601b038151169082549161ffff60601b602083015160601b1661ffff60701b604084015160701b1661ffff60801b606085015160801b169161ffff60901b608086015160901b16936001600160c01b031961ffff60b01b60c061ffff60a01b60a08a015160a01b1698015160b01b1697161717171717171790556040516125d381612df9565b681043561a88293000008152610fa060208201526103e860408201526103e860608201526103e86080820152610bb860a08201526101f460c0820152600560005260016020526040600020906001600160601b038151169082549161ffff60601b602083015160601b1661ffff60701b604084015160701b1661ffff60801b606085015160801b169161ffff60901b608086015160901b16936001600160c01b031961ffff60b01b60c061ffff60a01b60a08a015160a01b1698015160b01b1697161717171717171790556040516126aa81612df9565b681b1ae4d6e2ef5000008152610fa060208201526103e860408201526103e860608201526103e86080820152610bb860a08201526101f460c0820152600660005260016020526040600020906001600160601b038151169082549161ffff60601b602083015160601b1661ffff60701b604084015160701b1661ffff60801b606085015160801b169161ffff60901b608086015160901b16936001600160c01b031961ffff60b01b60c061ffff60a01b60a08a015160a01b1698015160b01b16971617171717171717905560405161278181612df9565b683635c9adc5dea000008152610fa060208201526103e860408201526103e860608201526103e86080820152610bb860a08201526101f460c0820152600760005260016020526040600020906001600160601b038151169082549161ffff60601b602083015160601b1661ffff60701b604084015160701b1661ffff60801b606085015160801b169161ffff60901b608086015160901b16936001600160c01b031961ffff60b01b60c061ffff60a01b60a08a015160a01b1698015160b01b16971617171717171717905560405161285881612df9565b686c6b935b8bbd4000008152610fa060208201526103e860408201526103e860608201526103e86080820152610bb860a08201526101f460c0820152600860005260016020526040600020906001600160601b038151169082549161ffff60601b602083015160601b1661ffff60701b604084015160701b1661ffff60801b606085015160801b169161ffff60901b608086015160901b16936001600160c01b031961ffff60b01b60c061ffff60a01b60a08a015160a01b1698015160b01b16971617171717171717905572278d0000000000000000000000000000000000604062278d008163ffffffff4216815161295081612e15565b6000815281602082015262093a8094859101526001600160a01b03196005549463ffffffff60601b4260601b16958672093a80000000000000000000000000000000009384921617176005558380516129a881612e15565b600081528460208201520152846001600160a01b03196006541617176006558151906129d382612e15565b60008252602082015201526001600160a01b031960075416171760075560005b6010811015612c0657806001600160a01b03612a1160019385612f04565b5116612a1e575b016129f3565b612c01604051612a2d81612e31565b83815260006020820152600060408201526000606082015260006080820152600060a08201526001600160601b0360c0820152600060e082015260006101008201526008610120820152600561014082015260506101608201526001600160a01b03612a998487612f04565b5116600052600060205260ff61016060036040600020845115158480198354169116178155612ae160208601511515829061ff00825491151560081b169061ff001916179055565b6040850151815475ffffffffffffffffffffffffffffffffffffffff000060109290921b9190911675ffffffffffffffffffffffffffffffffffffffff000019909116178155606080860151898301805460808901516bffffffffffffffffffffffff60601b90851b81166001600160601b039485166001600160c01b0319909316929092179190911790915560a088015160c0808a015160e0808c01516101008d01517fffffffff00000000000000000000000000000000000000000000000000000000921b91909116921b63ffffffff60c01b16929094169390941b90911691909117171760028201556101208501519101805461014086015161ff0090861660081b1692851685199091161761ff00191691909117815592611d43565b612a18565b60ff8360401c1615612c1457005b68ff0000000000000000197ff0c57e16840df040f15088dc2f81fe391c3923bec73e23a9662efc9c229c6a0054167ff0c57e16840df040f15088dc2f81fe391c3923bec73e23a9662efc9c229c6a00557fc7f505b2f371ae2175ee4913f4499e1f2633a7b5936321eed1cdaeb6115181d2602060405160018152a1005b60019060206001600160a01b0384511693019281600a01550161225f565b68ffffffffffffffffff19851668010000000000000001177ff0c57e16840df040f15088dc2f81fe391c3923bec73e23a9662efc9c229c6a00556121db565b60046040517ff92ee8a9000000000000000000000000000000000000000000000000000000008152fd5b9050158561218f565b303b159150612187565b604086901c60ff1615915061217d565b82356001600160a01b03811681036101b457815260209283019201612145565b346101b45760403660031901126101b457612d74612db5565b602435906001600160a01b038091166000526002602052604060002080548310156101b457602092612da591612dcb565b9190546040519260031b1c168152f35b600435906001600160a01b03821682036101b457565b8054821015612de35760005260206000200190600090565b634e487b7160e01b600052603260045260246000fd5b60e0810190811067ffffffffffffffff821117611fcc57604052565b6060810190811067ffffffffffffffff821117611fcc57604052565b610180810190811067ffffffffffffffff821117611fcc57604052565b6040810190811067ffffffffffffffff821117611fcc57604052565b6103c0810190811067ffffffffffffffff821117611fcc57604052565b90601f8019910116810190811067ffffffffffffffff821117611fcc57604052565b6024359060ff821682036101b457565b6004359060ff821682036101b457565b6024359081151582036101b457565b67ffffffffffffffff8111611fcc57601f01601f191660200190565b601e821015612de3570190600090565b906010811015612de35760051b0190565b15612f1c57565b606460405162461bcd60e51b815260206004820152600e60248201527f4d45562070726f74656374696f6e0000000000000000000000000000000000006044820152fd5b908160209103126101b4575180151581036101b45790565b15612f7f57565b606460405162461bcd60e51b815260206004820152600e60248201527f4e6f7420617574686f72697a65640000000000000000000000000000000000006044820152fd5b91909163ffffffff8080941691160191821161059e57565b9190916001600160601b038080941691160191821161059e57565b9190916001600160601b038080941691160291821691820361059e57565b6001600160601b03918216908216039190821161059e57565b6001600160a01b0380911690811561309a577f9016d09d72d40fdae2fd8ceac6b6234c7706214fd39c1cd1e609a0528c199300805490836001600160a01b03198316179055167f8be0079c531659141344cd1fd0a4f28419497f9722a3daafe3b4186f6b6457e0600080a3565b60246040517f1e4fbdf700000000000000000000000000000000000000000000000000000000815260006004820152fd5b7f9b779b17422d0df92223018b32b4d1fa46e071723d6817e2486d003becc55f0060028154146130fb5760029055565b60046040517f3ee5aeb5000000000000000000000000000000000000000000000000000000008152fd5b60ff7fcd5ed15c6e187e77e9aee88184c21f4f2182ab5827cb3b7e07fbedcd63f03300541661315057565b60046040517fd93c0665000000000000000000000000000000000000000000000000000000008152fd5b60ff166000526020600181526001600160601b036040600020541691600014613266576000816001600160a01b03600854166064604051809481937f23b872dd0000000000000000000000000000000000000000000000000000000083523360048401523060248401528860448401525af190811561048257600091613249575b5015613205575090565b6064906040519062461bcd60e51b82526004820152601460248201527f55534454207472616e73666572206661696c65640000000000000000000000006044820152fd5b6132609150823d84116119ea576119e28183612e87565b386131fb565b662386f26fc100003410613278575090565b6064906040519062461bcd60e51b82526004820152601960248201527f4d696e696d756d20302e303120424e42207265717569726564000000000000006044820152fd5b6001600160a01b03808316600052600460205280604060002054161560001461331d575061330061331b926001600160a01b03166000526004602052604060002090565b906001600160a01b03166001600160a01b0319825416179055565b565b80600161333d856001600160a01b03166000526004602052604060002090565b0154166133835750600161336761331b936001600160a01b03166000526004602052604060002090565b01906001600160a01b03166001600160a01b0319825416179055565b6133a361331b936001600160a01b03166000526004602052604060002090565b5416906132bc565b92909160ff16600052600160205260406000209061ffff604051926133cf84612df9565b546001600160601b0381168452818160601c166020850152818160701c166040850152818160801c166060850152818160901c166080850152818160a01c1660a085015260b01c1660c08301526001600160a01b03841660005260006020526001600160a01b0360406000205460101c166138ae575b61ffff604083015116936001600160a01b03811660005260006020526001600160601b03612710816134896001600160a01b0360406000205460101c169888612ff6565b16041691604051938461014081011067ffffffffffffffff61014087011117611fcc57610140850160405261012c855260646020860152606460408601526032606086015260326080860152603260a0860152603260c0860152603260e0860152603261010086015260326101208601526000965b600a60ff891610808061389c575b15613683576001600160a01b038216600052600060205260406000205460ff81169081613674575b50613573575b506001600160a01b0316600052600060205260ff6001600160a01b0360406000205460101c16971660ff811461059e57600101966134fe565b15612de3576001600160a01b03906103e86001600160601b036135a461ffff611fe08d60051b168b01511689612ff6565b160482821660005260006020526040600020600290818101908154906001600160601b038216906135d58683612fdb565b6001600160601b03808560601c16911611156135f8575b5050505050509061353a565b6136278660016001600160601b039301938454948461361984828916612fdb565b168519809716179055612fdb565b1691161790556001600160601b036040519216825260208201527f2c93b07003bbb07c4d91a84e6628cde652fa94de37e653365f64ae9b3517bfe3604084841692a23880808080806135ec565b60ff915060081c161538613534565b505094935094509050601e6001600160601b03612710816136ac61ffff60608901511687612ff6565b1604160460005b601e60ff821610613762575050506127106001600160601b0361373e819361ffff60c08486816136e98560808d01511687612ff6565b16041697856136fd6005549a828c16612fdb565b168619809a161760055585878161371a8660a08601511688612ff6565b160416898761372e60065493828516612fdb565b1691161760065501511690612ff6565b160416906001600160601b0361375960075493828516612fdb565b16911617600755565b600160ff916001600160a01b038516600052600380602052846001600160a01b03613791846040600020612ef4565b905490841b1c169182151580613885575b8061386a575b6137b7575b50505001166136b3565b8260005260006020526040600020906002820180546001600160601b0381166137e08682612fdb565b6001600160601b03808460601c1691161115613800575b505050506137ad565b6001600160601b036138437f2c93b07003bbb07c4d91a84e6628cde652fa94de37e653365f64ae9b3517bfe3978b60409801938454948461361984828916612fdb565b1691161790558151906001600160601b03891682526020820152a2388481808080806137f7565b508260005260006020528560406000205460081c16156137a8565b5082600052600060205285604060002054166137a2565b506001600160a01b038216151561350c565b6001600160601b03612710816138cc61ffff60208701511687612ff6565b1604166001600160a01b03851660005260006020526001600160a01b0360406000205460101c169081600052604060002060028101918254926001600160601b0384169361391a8386612fdb565b6001600160601b03808360601c169116111561393c575b505050505050613445565b7f2c93b07003bbb07c4d91a84e6628cde652fa94de37e653365f64ae9b3517bfe3946001600160601b0361398185600160409801938454948461361984828916612fdb565b169116179055815190815260016020820152a2388080808080613931565b6001600160a01b037f9016d09d72d40fdae2fd8ceac6b6234c7706214fd39c1cd1e609a0528c199300541633036139d257565b60246040517f118cdaa7000000000000000000000000000000000000000000000000000000008152336004820152fd5b60ff60019116019060ff821161059e57565b60ff7ff0c57e16840df040f15088dc2f81fe391c3923bec73e23a9662efc9c229c6a005460401c1615613a4357565b60046040517fd7e6bcf8000000000000000000000000000000000000000000000000000000008152fd5b90613aac5750805115613a8257805190602001fd5b60046040517fd6bda275000000000000000000000000000000000000000000000000000000008152fd5b81511580613af7575b613abd575090565b6024906001600160a01b03604051917f9996b315000000000000000000000000000000000000000000000000000000008352166004820152fd5b50803b15613ab556fea164736f6c6343000816000a","opcodes":"PUSH1 0xA0 DUP1 PUSH1 0x40 MSTORE CALLVALUE PUSH2 0x2A JUMPI ADDRESS PUSH1 0x80 MSTORE PUSH2 0x3B0D SWAP1 DUP2 PUSH2 0x30 DUP3 CODECOPY PUSH1 0x80 MLOAD DUP2 DUP2 DUP2 PUSH2 0x14EB ADD MSTORE PUSH2 0x1620 ADD MSTORE RETURN JUMPDEST PUSH1 0x0 DUP1 REVERT INVALID PUSH1 0x80 PUSH1 0x40 MSTORE PUSH1 0x4 CALLDATASIZE LT ISZERO PUSH2 0x1B JUMPI JUMPDEST CALLDATASIZE ISZERO PUSH2 0x19 JUMPI PUSH1 0x0 DUP1 REVERT JUMPDEST STOP JUMPDEST PUSH1 0x0 CALLDATALOAD PUSH1 0xE0 SHR DUP1 PUSH4 0x5AD3935 EQ PUSH2 0x2D5B JUMPI DUP1 PUSH4 0x6DEFFFB EQ PUSH2 0x20DD JUMPI DUP1 PUSH4 0xE7BFADF EQ PUSH2 0x19F1 JUMPI DUP1 PUSH4 0xEF5DCFD EQ PUSH2 0x1933 JUMPI DUP1 PUSH4 0x2D052432 EQ PUSH2 0x1864 JUMPI DUP1 PUSH4 0x2F48AB7D EQ PUSH2 0x183D JUMPI DUP1 PUSH4 0x4F1EF286 EQ PUSH2 0x15A3 JUMPI DUP1 PUSH4 0x52375BB1 EQ PUSH2 0x1565 JUMPI DUP1 PUSH4 0x52D1902D EQ PUSH2 0x14D0 JUMPI DUP1 PUSH4 0x5312EA8E EQ PUSH2 0x146B JUMPI DUP1 PUSH4 0x55E14D22 EQ PUSH2 0x1436 JUMPI DUP1 PUSH4 0x5C975ABB EQ PUSH2 0x13F4 JUMPI DUP1 PUSH4 0x5DBC0297 EQ PUSH2 0x11DE JUMPI DUP1 PUSH4 0x6386C1C7 EQ PUSH2 0xFE1 JUMPI DUP1 PUSH4 0x6C2DB77B EQ PUSH2 0xF9C JUMPI DUP1 PUSH4 0x715018A6 EQ PUSH2 0xF21 JUMPI DUP1 PUSH4 0x741BEF1A EQ PUSH2 0xEFA JUMPI DUP1 PUSH4 0x88D844F4 EQ PUSH2 0xEB5 JUMPI DUP1 PUSH4 0x88F24E09 EQ PUSH2 0xE0D JUMPI DUP1 PUSH4 0x8DA5CB5B EQ PUSH2 0xDC7 JUMPI DUP1 PUSH4 0x95979DE6 EQ PUSH2 0xB40 JUMPI DUP1 PUSH4 0x9740041E EQ PUSH2 0xAE6 JUMPI DUP1 PUSH4 0xA87430BA EQ PUSH2 0xA16 JUMPI DUP1 PUSH4 0xAD3CB1CC EQ PUSH2 0x97A JUMPI DUP1 PUSH4 0xB317D69D EQ PUSH2 0x8CD JUMPI DUP1 PUSH4 0xCF7A7E64 EQ PUSH2 0x888 JUMPI DUP1 PUSH4 0xD2C8E0E5 EQ PUSH2 0x7D5 JUMPI DUP1 PUSH4 0xDCBF7703 EQ PUSH2 0x69D JUMPI DUP1 PUSH4 0xDEE4DEA0 EQ PUSH2 0x357 JUMPI DUP1 PUSH4 0xDF76FE29 EQ PUSH2 0x287 JUMPI DUP1 PUSH4 0xE4A1F4D1 EQ PUSH2 0x206 JUMPI DUP1 PUSH4 0xEE0DA086 EQ PUSH2 0x1B9 JUMPI PUSH4 0xF2FDE38B SUB PUSH2 0xE JUMPI CALLVALUE PUSH2 0x1B4 JUMPI PUSH1 0x20 CALLDATASIZE PUSH1 0x3 NOT ADD SLT PUSH2 0x1B4 JUMPI PUSH2 0x19 PUSH2 0x1A7 PUSH2 0x2DB5 JUMP JUMPDEST PUSH2 0x1AF PUSH2 0x399F JUMP JUMPDEST PUSH2 0x302D JUMP JUMPDEST PUSH1 0x0 DUP1 REVERT JUMPDEST CALLVALUE PUSH2 0x1B4 JUMPI PUSH1 0x40 CALLDATASIZE PUSH1 0x3 NOT ADD SLT PUSH2 0x1B4 JUMPI PUSH2 0x1D2 PUSH2 0x2DB5 JUMP JUMPDEST PUSH1 0x24 CALLDATALOAD SWAP1 PUSH1 0x1 PUSH1 0x1 PUSH1 0xA0 SHL SUB DUP1 SWAP2 AND PUSH1 0x0 MSTORE PUSH1 0x4 PUSH1 0x20 MSTORE PUSH1 0x40 PUSH1 0x0 KECCAK256 SWAP2 PUSH1 0x2 DUP2 LT ISZERO PUSH2 0x1B4 JUMPI PUSH1 0x20 SWAP3 ADD SLOAD AND PUSH1 0x40 MLOAD SWAP1 DUP2 MSTORE RETURN JUMPDEST CALLVALUE PUSH2 0x1B4 JUMPI PUSH1 0x20 CALLDATASIZE PUSH1 0x3 NOT ADD SLT PUSH2 0x1B4 JUMPI PUSH1 0xFF PUSH2 0x221 PUSH2 0x2EB9 JUMP JUMPDEST AND PUSH1 0x0 MSTORE PUSH1 0x1 PUSH1 0x20 MSTORE PUSH1 0xE0 PUSH1 0x40 PUSH1 0x0 KECCAK256 SLOAD PUSH2 0xFFFF PUSH1 0x40 MLOAD SWAP2 PUSH1 0x1 PUSH1 0x1 PUSH1 0x60 SHL SUB DUP2 AND DUP4 MSTORE DUP2 DUP2 PUSH1 0x60 SHR AND PUSH1 0x20 DUP5 ADD MSTORE DUP2 DUP2 PUSH1 0x70 SHR AND PUSH1 0x40 DUP5 ADD MSTORE DUP2 DUP2 PUSH1 0x80 SHR AND PUSH1 0x60 DUP5 ADD MSTORE DUP2 DUP2 PUSH1 0x90 SHR AND PUSH1 0x80 DUP5 ADD MSTORE DUP2 DUP2 PUSH1 0xA0 SHR AND PUSH1 0xA0 DUP5 ADD MSTORE PUSH1 0xB0 SHR AND PUSH1 0xC0 DUP3 ADD MSTORE RETURN JUMPDEST CALLVALUE PUSH2 0x1B4 JUMPI PUSH1 0x40 CALLDATASIZE PUSH1 0x3 NOT ADD SLT PUSH2 0x1B4 JUMPI PUSH2 0x2A0 PUSH2 0x2DB5 JUMP JUMPDEST PUSH2 0x2A8 PUSH2 0x2EA9 JUMP JUMPDEST PUSH1 0x0 SWAP2 PUSH1 0x0 JUMPDEST PUSH1 0x10 DUP2 LT PUSH2 0x329 JUMPI JUMPDEST POP PUSH1 0x1 PUSH1 0x1 PUSH1 0xA0 SHL SUB SWAP1 DUP4 PUSH2 0x19 SWAP5 SWAP1 ISZERO PUSH2 0x2FD JUMPI JUMPDEST PUSH2 0x2D6 SWAP1 PUSH2 0x2F78 JUMP JUMPDEST AND PUSH1 0x0 MSTORE PUSH1 0x0 PUSH1 0x20 MSTORE PUSH1 0x3 PUSH1 0x40 PUSH1 0x0 KECCAK256 ADD SWAP1 PUSH2 0xFF00 DUP3 SLOAD SWAP2 PUSH1 0x8 SHL AND SWAP1 PUSH2 0xFF00 NOT AND OR SWAP1 SSTORE JUMP JUMPDEST POP PUSH32 0x9016D09D72D40FDAE2FD8CEAC6B6234C7706214FD39C1CD1E609A0528C199300 SLOAD DUP3 AND CALLER EQ PUSH2 0x2CD JUMP JUMPDEST CALLER PUSH1 0x1 PUSH1 0x1 PUSH1 0xA0 SHL SUB DUP3 PUSH1 0xA ADD SLOAD AND EQ PUSH2 0x345 JUMPI PUSH1 0x1 ADD PUSH2 0x2AE JUMP JUMPDEST POP PUSH1 0x1 SWAP3 POP PUSH1 0x1 PUSH1 0x1 PUSH1 0xA0 SHL SUB PUSH2 0x2B7 JUMP JUMPDEST CALLVALUE PUSH2 0x1B4 JUMPI PUSH1 0x20 DUP1 PUSH1 0x3 NOT CALLDATASIZE ADD SLT PUSH2 0x1B4 JUMPI PUSH1 0x4 CALLDATALOAD SWAP1 PUSH1 0x1 PUSH1 0x1 PUSH1 0x60 SHL SUB DUP1 DUP4 AND DUP1 DUP5 SUB PUSH2 0x1B4 JUMPI PUSH2 0x387 PUSH2 0x30CB JUMP JUMPDEST PUSH2 0x38F PUSH2 0x3125 JUMP JUMPDEST CALLER PUSH1 0x0 MSTORE PUSH1 0x0 DUP4 MSTORE PUSH1 0x40 PUSH1 0x0 KECCAK256 SWAP1 DUP2 SLOAD PUSH1 0xFF SWAP1 DUP2 DUP1 DUP3 AND SWAP2 DUP3 PUSH2 0x68F JUMPI JUMPDEST POP POP ISZERO PUSH2 0x64B JUMPI PUSH1 0x1 DUP4 ADD DUP1 SLOAD SWAP4 DUP6 DUP6 AND DUP1 SWAP5 GT PUSH2 0x607 JUMPI PUSH2 0x3F2 PUSH1 0x64 DUP8 PUSH2 0x3DF DUP7 PUSH1 0x3 DUP4 SWAP7 ADD SLOAD PUSH1 0x10 SHR AND DUP13 PUSH2 0x2FF6 JUMP JUMPDEST AND DIV SWAP9 PUSH2 0x3EC DUP11 DUP3 PUSH2 0x3014 JUMP JUMPDEST SWAP6 PUSH2 0x3014 JUMP JUMPDEST AND PUSH1 0x1 PUSH1 0x1 PUSH1 0x60 SHL SUB NOT DUP1 SWAP6 AND OR SWAP1 SSTORE DUP4 DUP3 AND SWAP1 DUP2 ISZERO SWAP1 DUP2 ISZERO PUSH2 0x497 JUMPI JUMPDEST POP POP POP POP POP PUSH1 0x0 SWAP3 AND DUP1 SWAP3 DUP2 ISZERO PUSH2 0x48E JUMPI JUMPDEST PUSH1 0x0 DUP1 DUP1 SWAP4 DUP2 SWAP4 CALLER SWAP1 CALL ISZERO PUSH2 0x482 JUMPI PUSH32 0x1DDDBBE3387BB8B425BE68CE12F5D8279EBCD18C7B1CCF5DCD2C8C3AB9CC050B SWAP1 PUSH1 0x40 MLOAD SWAP3 DUP4 MSTORE CALLER SWAP3 LOG2 PUSH1 0x1 PUSH32 0x9B779B17422D0DF92223018B32B4D1FA46E071723D6817E2486D003BECC55F00 SSTORE STOP JUMPDEST PUSH1 0x40 MLOAD RETURNDATASIZE PUSH1 0x0 DUP3 RETURNDATACOPY RETURNDATASIZE SWAP1 REVERT JUMPDEST POP PUSH2 0x8FC PUSH2 0x422 JUMP JUMPDEST CALLER PUSH1 0x0 MSTORE PUSH1 0x0 DUP8 MSTORE DUP1 PUSH1 0x3 PUSH1 0x40 PUSH1 0x0 KECCAK256 ADD SLOAD AND SWAP5 PUSH1 0x8 DUP7 LT DUP1 PUSH2 0x5E4 JUMPI JUMPDEST ISZERO PUSH2 0x5B4 JUMPI POP PUSH1 0x1 PUSH2 0x530 SWAP2 PUSH2 0x4CA DUP8 PUSH2 0x3A02 JUMP JUMPDEST CALLER PUSH1 0x0 MSTORE PUSH1 0x0 DUP11 MSTORE PUSH1 0x40 PUSH1 0x0 KECCAK256 SWAP2 PUSH1 0x3 DUP4 ADD SWAP2 AND PUSH1 0xFF NOT DUP3 SLOAD AND OR SWAP1 SSTORE ADD PUSH2 0x4F8 DUP6 DUP9 DUP4 SLOAD PUSH1 0x60 SHR AND PUSH2 0x2FDB JUMP JUMPDEST PUSH24 0xFFFFFFFFFFFFFFFFFFFFFFFF000000000000000000000000 NOT PUSH12 0xFFFFFFFFFFFFFFFFFFFFFFFF PUSH1 0x60 SHL DUP4 SLOAD SWAP3 PUSH1 0x60 SHL AND SWAP2 AND OR SWAP1 SSTORE JUMP JUMPDEST DUP3 PUSH1 0x2 SHL SWAP2 PUSH13 0x3FFFFFFFFFFFFFFFFFFFFFFFC DUP4 AND DIV PUSH1 0x4 EQ OR ISZERO PUSH2 0x59E JUMPI PUSH2 0x594 SWAP3 PUSH2 0x588 PUSH2 0x58D SWAP3 CALLER PUSH1 0x0 MSTORE PUSH1 0x0 DUP9 MSTORE PUSH2 0x4F8 PUSH12 0xFFFFFFFFFFFFFFFFFFFFFFFC PUSH1 0x2 PUSH1 0x40 PUSH1 0x0 KECCAK256 ADD SWAP3 AND DUP9 DUP4 SLOAD PUSH1 0x60 SHR AND PUSH2 0x2FDB JUMP JUMPDEST PUSH2 0x3A02 JUMP JUMPDEST SWAP1 CALLER PUSH2 0x33AB JUMP JUMPDEST DUP4 DUP1 DUP1 DUP1 DUP1 PUSH2 0x410 JUMP JUMPDEST PUSH4 0x4E487B71 PUSH1 0xE0 SHL PUSH1 0x0 MSTORE PUSH1 0x11 PUSH1 0x4 MSTORE PUSH1 0x24 PUSH1 0x0 REVERT JUMPDEST SWAP5 POP POP POP POP CALLER PUSH1 0x0 MSTORE PUSH1 0x0 DUP5 MSTORE PUSH1 0x1 PUSH1 0x40 PUSH1 0x0 KECCAK256 ADD SWAP2 DUP4 PUSH2 0x5D9 DUP5 SLOAD SWAP4 DUP3 DUP6 AND PUSH2 0x2FDB JUMP JUMPDEST AND SWAP2 AND OR SWAP1 SSTORE PUSH2 0x594 JUMP JUMPDEST POP DUP2 PUSH2 0x5EF DUP8 PUSH2 0x3A02 JUMP JUMPDEST AND PUSH1 0x0 MSTORE PUSH1 0x1 DUP9 MSTORE DUP7 PUSH1 0x40 PUSH1 0x0 KECCAK256 SLOAD AND DUP5 LT ISZERO PUSH2 0x4B5 JUMP JUMPDEST PUSH1 0x64 DUP8 PUSH1 0x40 MLOAD SWAP1 PUSH3 0x461BCD PUSH1 0xE5 SHL DUP3 MSTORE PUSH1 0x4 DUP3 ADD MSTORE PUSH1 0x14 PUSH1 0x24 DUP3 ADD MSTORE PUSH32 0x496E73756666696369656E742062616C616E6365000000000000000000000000 PUSH1 0x44 DUP3 ADD MSTORE REVERT JUMPDEST PUSH1 0x64 DUP6 PUSH1 0x40 MLOAD SWAP1 PUSH3 0x461BCD PUSH1 0xE5 SHL DUP3 MSTORE PUSH1 0x4 DUP3 ADD MSTORE PUSH1 0xC PUSH1 0x24 DUP3 ADD MSTORE PUSH32 0x496E76616C696420757365720000000000000000000000000000000000000000 PUSH1 0x44 DUP3 ADD MSTORE REVERT JUMPDEST PUSH1 0x8 SHR AND ISZERO SWAP1 POP DUP2 DUP9 PUSH2 0x3AD JUMP JUMPDEST CALLVALUE PUSH2 0x1B4 JUMPI PUSH1 0x40 CALLDATASIZE PUSH1 0x3 NOT ADD SLT PUSH2 0x1B4 JUMPI PUSH2 0x6B6 PUSH2 0x2DB5 JUMP JUMPDEST PUSH2 0x6BE PUSH2 0x2EA9 JUMP JUMPDEST PUSH1 0x0 DUP1 JUMPDEST PUSH1 0x10 DUP2 LT PUSH2 0x7AF JUMPI JUMPDEST POP DUP1 ISZERO PUSH2 0x777 JUMPI JUMPDEST PUSH2 0x6DC SWAP1 PUSH2 0x2F78 JUMP JUMPDEST PUSH1 0xFF DUP2 AND PUSH1 0x46 DUP2 LT ISZERO SWAP1 DUP2 PUSH2 0x76B JUMPI JUMPDEST POP ISZERO PUSH2 0x727 JUMPI PUSH1 0x1 PUSH1 0x1 PUSH1 0xA0 SHL SUB PUSH2 0x19 SWAP3 AND PUSH1 0x0 MSTORE PUSH1 0x0 PUSH1 0x20 MSTORE PUSH1 0x3 PUSH1 0x40 PUSH1 0x0 KECCAK256 ADD SWAP1 PUSH3 0xFF0000 DUP3 SLOAD SWAP2 PUSH1 0x10 SHL AND SWAP1 PUSH3 0xFF0000 NOT AND OR SWAP1 SSTORE JUMP JUMPDEST PUSH1 0x64 PUSH1 0x40 MLOAD PUSH3 0x461BCD PUSH1 0xE5 SHL DUP2 MSTORE PUSH1 0x20 PUSH1 0x4 DUP3 ADD MSTORE PUSH1 0xC PUSH1 0x24 DUP3 ADD MSTORE PUSH32 0x496E76616C696420726174650000000000000000000000000000000000000000 PUSH1 0x44 DUP3 ADD MSTORE REVERT JUMPDEST PUSH1 0x50 SWAP2 POP GT ISZERO DUP4 PUSH2 0x6EC JUMP JUMPDEST POP PUSH2 0x6DC PUSH1 0x1 PUSH1 0x1 PUSH1 0xA0 SHL SUB PUSH32 0x9016D09D72D40FDAE2FD8CEAC6B6234C7706214FD39C1CD1E609A0528C199300 SLOAD AND CALLER EQ SWAP1 POP PUSH2 0x6D3 JUMP JUMPDEST CALLER PUSH1 0x1 PUSH1 0x1 PUSH1 0xA0 SHL SUB DUP3 PUSH1 0xA ADD SLOAD AND EQ PUSH2 0x7CB JUMPI PUSH1 0x1 ADD PUSH2 0x6C2 JUMP JUMPDEST POP POP PUSH1 0x1 DUP4 PUSH2 0x6CB JUMP JUMPDEST CALLVALUE PUSH2 0x1B4 JUMPI PUSH1 0x20 DUP1 PUSH1 0x3 NOT CALLDATASIZE ADD SLT PUSH2 0x1B4 JUMPI PUSH1 0x1 PUSH1 0x1 PUSH1 0xA0 SHL SUB SWAP1 DUP2 PUSH2 0x7F9 PUSH2 0x2DB5 JUMP JUMPDEST AND PUSH1 0x0 MSTORE PUSH1 0x2 DUP2 MSTORE PUSH1 0x40 PUSH1 0x0 KECCAK256 PUSH1 0x40 MLOAD SWAP2 DUP3 DUP2 DUP4 SLOAD SWAP2 DUP3 DUP2 MSTORE ADD SWAP1 DUP2 SWAP4 PUSH1 0x0 MSTORE DUP3 PUSH1 0x0 KECCAK256 SWAP1 PUSH1 0x0 JUMPDEST DUP2 DUP2 LT PUSH2 0x872 JUMPI POP POP POP DUP4 PUSH2 0x837 SWAP2 SUB DUP5 PUSH2 0x2E87 JUMP JUMPDEST PUSH1 0x40 MLOAD SWAP3 DUP2 DUP5 ADD SWAP1 DUP3 DUP6 MSTORE MLOAD DUP1 SWAP2 MSTORE PUSH1 0x40 DUP5 ADD SWAP3 SWAP2 PUSH1 0x0 JUMPDEST DUP3 DUP2 LT PUSH2 0x85C JUMPI DUP6 DUP6 SUB DUP7 RETURN JUMPDEST DUP4 MLOAD DUP8 AND DUP6 MSTORE SWAP4 DUP2 ADD SWAP4 SWAP3 DUP2 ADD SWAP3 PUSH1 0x1 ADD PUSH2 0x84F JUMP JUMPDEST DUP3 SLOAD DUP9 AND DUP5 MSTORE SWAP3 DUP5 ADD SWAP3 PUSH1 0x1 SWAP3 DUP4 ADD SWAP3 ADD PUSH2 0x821 JUMP JUMPDEST CALLVALUE PUSH2 0x1B4 JUMPI PUSH1 0x0 CALLDATASIZE PUSH1 0x3 NOT ADD SLT PUSH2 0x1B4 JUMPI PUSH1 0x7 SLOAD PUSH1 0x40 DUP1 MLOAD PUSH1 0x1 PUSH1 0x1 PUSH1 0x60 SHL SUB DUP4 AND DUP2 MSTORE PUSH4 0xFFFFFFFF PUSH1 0x60 DUP5 DUP2 SHR DUP3 AND PUSH1 0x20 DUP5 ADD MSTORE PUSH1 0x80 SWAP5 SWAP1 SWAP5 SHR AND SWAP2 DUP2 ADD SWAP2 SWAP1 SWAP2 MSTORE RETURN JUMPDEST CALLVALUE PUSH2 0x1B4 JUMPI PUSH1 0x20 DUP1 PUSH1 0x3 NOT CALLDATASIZE ADD SLT PUSH2 0x1B4 JUMPI PUSH2 0x8E7 PUSH2 0x2DB5 JUMP JUMPDEST SWAP1 PUSH1 0x40 MLOAD SWAP2 PUSH2 0x8F5 DUP4 PUSH2 0x2E6A JUMP JUMPDEST PUSH2 0x3C0 DUP1 SWAP4 CALLDATASIZE SWAP1 CALLDATACOPY PUSH1 0x1 PUSH1 0x1 PUSH1 0xA0 SHL SUB DUP1 SWAP2 AND PUSH1 0x0 MSTORE PUSH1 0x3 PUSH1 0x20 MSTORE PUSH1 0x40 PUSH1 0x0 KECCAK256 SWAP2 PUSH1 0x40 MLOAD SWAP3 DUP4 DUP3 PUSH1 0x0 SWAP2 JUMPDEST PUSH1 0x1E DUP4 LT PUSH2 0x961 JUMPI POP POP POP POP PUSH2 0x935 DUP4 PUSH2 0x2E6A JUMP JUMPDEST PUSH1 0x40 MLOAD SWAP3 PUSH1 0x0 SWAP1 DUP5 JUMPDEST PUSH1 0x1E DUP4 LT PUSH2 0x94A JUMPI DUP7 DUP7 RETURN JUMPDEST DUP4 DUP1 PUSH1 0x1 SWAP3 DUP8 DUP6 MLOAD AND DUP2 MSTORE ADD SWAP3 ADD SWAP3 ADD SWAP2 SWAP1 PUSH2 0x93E JUMP JUMPDEST PUSH1 0x1 SWAP2 DUP3 SWAP2 DUP8 DUP7 SLOAD AND DUP2 MSTORE ADD SWAP4 ADD SWAP2 ADD SWAP1 SWAP2 DUP4 SWAP1 PUSH2 0x920 JUMP JUMPDEST CALLVALUE PUSH2 0x1B4 JUMPI PUSH1 0x0 CALLDATASIZE PUSH1 0x3 NOT ADD SLT PUSH2 0x1B4 JUMPI PUSH1 0x40 MLOAD PUSH2 0x997 DUP2 PUSH2 0x2E4E JUMP JUMPDEST PUSH1 0x5 DUP2 MSTORE PUSH1 0x20 SWAP1 PUSH32 0x352E302E30000000000000000000000000000000000000000000000000000000 PUSH1 0x20 DUP3 ADD MSTORE PUSH1 0x40 MLOAD DUP1 SWAP3 PUSH1 0x20 DUP3 MSTORE DUP3 MLOAD SWAP1 DUP2 PUSH1 0x20 DUP5 ADD MSTORE PUSH1 0x0 SWAP4 JUMPDEST DUP3 DUP6 LT PUSH2 0x9FD JUMPI POP POP PUSH1 0x40 SWAP3 POP PUSH1 0x0 DUP4 DUP3 DUP5 ADD ADD MSTORE PUSH1 0x1F DUP1 NOT SWAP2 ADD AND DUP2 ADD SUB ADD SWAP1 RETURN JUMPDEST DUP5 DUP2 ADD DUP3 ADD MLOAD DUP7 DUP7 ADD PUSH1 0x40 ADD MSTORE SWAP4 DUP2 ADD SWAP4 DUP6 SWAP4 POP PUSH2 0x9DA JUMP JUMPDEST CALLVALUE PUSH2 0x1B4 JUMPI PUSH1 0x20 CALLDATASIZE PUSH1 0x3 NOT ADD SLT PUSH2 0x1B4 JUMPI PUSH2 0x180 PUSH1 0x1 PUSH1 0x1 PUSH1 0xA0 SHL SUB DUP1 PUSH2 0xA3B PUSH2 0x2DB5 JUMP JUMPDEST AND PUSH1 0x0 MSTORE PUSH1 0x0 PUSH1 0x20 MSTORE PUSH1 0xFF PUSH1 0x40 PUSH1 0x0 KECCAK256 SWAP2 DUP3 SLOAD SWAP3 PUSH1 0x1 DUP2 ADD SLOAD PUSH1 0x1 PUSH1 0x1 PUSH1 0x60 SHL SUB DUP1 SWAP2 PUSH1 0x3 PUSH1 0x2 DUP6 ADD SLOAD SWAP5 ADD SLOAD SWAP5 PUSH1 0x40 MLOAD SWAP8 DUP8 DUP2 AND ISZERO ISZERO DUP10 MSTORE DUP8 DUP2 PUSH1 0x8 SHR AND ISZERO ISZERO PUSH1 0x20 DUP11 ADD MSTORE PUSH1 0x10 SHR AND PUSH1 0x40 DUP9 ADD MSTORE DUP2 DUP2 AND PUSH1 0x60 DUP9 ADD MSTORE PUSH1 0x60 SHR AND PUSH1 0x80 DUP7 ADD MSTORE DUP1 DUP3 AND PUSH1 0xA0 DUP7 ADD MSTORE DUP2 PUSH1 0x60 SHR AND PUSH1 0xC0 DUP6 ADD MSTORE PUSH4 0xFFFFFFFF DUP2 PUSH1 0xC0 SHR AND PUSH1 0xE0 DUP6 ADD MSTORE PUSH1 0xE0 SHR PUSH2 0x100 DUP5 ADD MSTORE DUP2 DUP2 AND PUSH2 0x120 DUP5 ADD MSTORE DUP2 DUP2 PUSH1 0x8 SHR AND PUSH2 0x140 DUP5 ADD MSTORE PUSH1 0x10 SHR AND PUSH2 0x160 DUP3 ADD MSTORE RETURN JUMPDEST CALLVALUE PUSH2 0x1B4 JUMPI PUSH1 0x40 CALLDATASIZE PUSH1 0x3 NOT ADD SLT PUSH2 0x1B4 JUMPI PUSH2 0xAFF PUSH2 0x2DB5 JUMP JUMPDEST PUSH1 0x24 CALLDATALOAD SWAP1 PUSH1 0x1 PUSH1 0x1 PUSH1 0xA0 SHL SUB DUP1 SWAP2 AND PUSH1 0x0 MSTORE PUSH1 0x3 PUSH1 0x20 MSTORE PUSH1 0x40 PUSH1 0x0 KECCAK256 PUSH1 0x1E DUP4 LT ISZERO PUSH2 0x1B4 JUMPI PUSH1 0x20 SWAP3 PUSH2 0xB30 SWAP2 PUSH2 0x2EF4 JUMP JUMPDEST SWAP1 SLOAD SWAP1 PUSH1 0x3 SHL SHR AND PUSH1 0x40 MLOAD SWAP1 DUP2 MSTORE RETURN JUMPDEST PUSH1 0x40 CALLDATASIZE PUSH1 0x3 NOT ADD SLT PUSH2 0x1B4 JUMPI PUSH2 0xB54 PUSH2 0x2EB9 JUMP JUMPDEST PUSH2 0xB5C PUSH2 0x2EC9 JUMP JUMPDEST PUSH2 0xB64 PUSH2 0x30CB JUMP JUMPDEST PUSH2 0xB6C PUSH2 0x3125 JUMP JUMPDEST PUSH2 0xB79 PUSH1 0x1A SLOAD NUMBER GT PUSH2 0x2F15 JUMP JUMPDEST NUMBER PUSH1 0x1A SSTORE CALLER PUSH1 0x0 MSTORE PUSH1 0x20 PUSH1 0x0 DUP2 MSTORE PUSH1 0xFF PUSH1 0x40 PUSH1 0x0 KECCAK256 SLOAD AND ISZERO PUSH2 0xD83 JUMPI CALLER PUSH1 0x0 MSTORE PUSH1 0x0 DUP2 MSTORE PUSH1 0xFF PUSH1 0x40 PUSH1 0x0 KECCAK256 SLOAD PUSH1 0x8 SHR AND PUSH2 0xD3F JUMPI CALLER PUSH1 0x0 MSTORE PUSH1 0x0 DUP2 MSTORE PUSH1 0xFF PUSH1 0x3 PUSH1 0x40 PUSH1 0x0 KECCAK256 ADD SLOAD AND SWAP2 PUSH1 0xFF DUP5 AND SWAP3 DUP4 GT DUP1 PUSH2 0xD34 JUMPI JUMPDEST ISZERO PUSH2 0xCF0 JUMPI PUSH2 0xBE0 PUSH1 0x1 SWAP2 DUP6 PUSH2 0x317A JUMP JUMPDEST SWAP3 CALLER PUSH1 0x0 MSTORE PUSH1 0x0 DUP4 MSTORE PUSH1 0x40 PUSH1 0x0 KECCAK256 SWAP1 PUSH1 0x3 DUP3 ADD SWAP1 PUSH1 0xFF NOT DUP3 SLOAD AND OR SWAP1 SSTORE ADD SWAP2 PUSH2 0xC1B PUSH1 0x1 PUSH1 0x1 PUSH1 0x60 SHL SUB SWAP4 PUSH2 0x4F8 DUP4 DUP7 DUP4 SLOAD PUSH1 0x60 SHR AND PUSH2 0x2FDB JUMP JUMPDEST DUP3 DUP2 AND SWAP3 DUP2 PUSH1 0x2 SHL SWAP4 DUP1 PUSH13 0x3FFFFFFFFFFFFFFFFFFFFFFFC DUP7 AND DIV PUSH1 0x4 EQ SWAP1 ISZERO OR ISZERO PUSH2 0x59E JUMPI PUSH32 0x8C55C9CDB3BCB948578FBC7D81C0F651DB05B0FA6AA25A97BF61816997E9F34 SWAP4 PUSH2 0x4F8 PUSH2 0xC97 SWAP3 PUSH1 0x0 PUSH2 0xCC7 SWAP7 CALLER DUP3 MSTORE MSTORE PUSH12 0xFFFFFFFFFFFFFFFFFFFFFFFC PUSH1 0x2 PUSH1 0x40 PUSH1 0x0 KECCAK256 ADD SWAP4 AND SWAP1 DUP4 SLOAD PUSH1 0x60 SHR AND PUSH2 0x2FDB JUMP JUMPDEST PUSH2 0xCA2 DUP5 DUP3 CALLER PUSH2 0x33AB JUMP JUMPDEST PUSH1 0x40 DUP1 MLOAD PUSH1 0xFF SWAP1 SWAP6 AND DUP6 MSTORE PUSH1 0x1 PUSH1 0x1 PUSH1 0x60 SHL SUB SWAP1 SWAP2 AND PUSH1 0x20 DUP6 ADD MSTORE CALLER SWAP4 SWAP2 DUP3 SWAP2 DUP3 ADD SWAP1 JUMP JUMPDEST SUB SWAP1 LOG2 PUSH1 0x1 PUSH32 0x9B779B17422D0DF92223018B32B4D1FA46E071723D6817E2486D003BECC55F00 SSTORE STOP JUMPDEST PUSH1 0x64 DUP3 PUSH1 0x40 MLOAD SWAP1 PUSH3 0x461BCD PUSH1 0xE5 SHL DUP3 MSTORE PUSH1 0x4 DUP3 ADD MSTORE PUSH1 0xF PUSH1 0x24 DUP3 ADD MSTORE PUSH32 0x496E76616C696420757067726164650000000000000000000000000000000000 PUSH1 0x44 DUP3 ADD MSTORE REVERT JUMPDEST POP PUSH1 0x8 DUP4 GT ISZERO PUSH2 0xBCF JUMP JUMPDEST PUSH1 0x64 SWAP1 PUSH1 0x40 MLOAD SWAP1 PUSH3 0x461BCD PUSH1 0xE5 SHL DUP3 MSTORE PUSH1 0x4 DUP3 ADD MSTORE PUSH1 0xB PUSH1 0x24 DUP3 ADD MSTORE PUSH32 0x426C61636B6C6973746564000000000000000000000000000000000000000000 PUSH1 0x44 DUP3 ADD MSTORE REVERT JUMPDEST PUSH1 0x64 SWAP1 PUSH1 0x40 MLOAD SWAP1 PUSH3 0x461BCD PUSH1 0xE5 SHL DUP3 MSTORE PUSH1 0x4 DUP3 ADD MSTORE PUSH1 0xE PUSH1 0x24 DUP3 ADD MSTORE PUSH32 0x4E6F742072656769737465726564000000000000000000000000000000000000 PUSH1 0x44 DUP3 ADD MSTORE REVERT JUMPDEST CALLVALUE PUSH2 0x1B4 JUMPI PUSH1 0x0 CALLDATASIZE PUSH1 0x3 NOT ADD SLT PUSH2 0x1B4 JUMPI PUSH1 0x20 PUSH1 0x1 PUSH1 0x1 PUSH1 0xA0 SHL SUB PUSH32 0x9016D09D72D40FDAE2FD8CEAC6B6234C7706214FD39C1CD1E609A0528C199300 SLOAD AND PUSH1 0x40 MLOAD SWAP1 DUP2 MSTORE RETURN JUMPDEST CALLVALUE PUSH2 0x1B4 JUMPI PUSH1 0x20 DUP1 PUSH1 0x3 NOT CALLDATASIZE ADD SLT PUSH2 0x1B4 JUMPI PUSH2 0xE27 PUSH2 0x2DB5 JUMP JUMPDEST PUSH1 0x40 DUP1 MLOAD PUSH2 0xE34 DUP2 PUSH2 0x2E4E JUMP JUMPDEST CALLDATASIZE SWAP1 CALLDATACOPY PUSH1 0x1 PUSH1 0x1 PUSH1 0xA0 SHL SUB DUP1 SWAP2 AND PUSH1 0x0 MSTORE PUSH1 0x4 PUSH1 0x20 MSTORE PUSH1 0x40 PUSH1 0x0 KECCAK256 SWAP2 PUSH1 0x40 MLOAD SWAP3 DUP4 DUP3 PUSH1 0x0 SWAP2 JUMPDEST PUSH1 0x2 DUP4 LT PUSH2 0xE9C JUMPI POP POP POP POP PUSH2 0xE6F DUP4 PUSH2 0x2E4E JUMP JUMPDEST PUSH1 0x40 MLOAD SWAP3 PUSH1 0x0 SWAP1 DUP5 JUMPDEST PUSH1 0x2 DUP4 LT PUSH2 0xE85 JUMPI PUSH1 0x40 DUP7 RETURN JUMPDEST DUP4 DUP1 PUSH1 0x1 SWAP3 DUP8 DUP6 MLOAD AND DUP2 MSTORE ADD SWAP3 ADD SWAP3 ADD SWAP2 SWAP1 PUSH2 0xE78 JUMP JUMPDEST PUSH1 0x1 SWAP2 DUP3 SWAP2 DUP8 DUP7 SLOAD AND DUP2 MSTORE ADD SWAP4 ADD SWAP2 ADD SWAP1 SWAP2 DUP4 SWAP1 PUSH2 0xE5A JUMP JUMPDEST CALLVALUE PUSH2 0x1B4 JUMPI PUSH1 0x0 CALLDATASIZE PUSH1 0x3 NOT ADD SLT PUSH2 0x1B4 JUMPI PUSH1 0x6 SLOAD PUSH1 0x40 DUP1 MLOAD PUSH1 0x1 PUSH1 0x1 PUSH1 0x60 SHL SUB DUP4 AND DUP2 MSTORE PUSH4 0xFFFFFFFF PUSH1 0x60 DUP5 DUP2 SHR DUP3 AND PUSH1 0x20 DUP5 ADD MSTORE PUSH1 0x80 SWAP5 SWAP1 SWAP5 SHR AND SWAP2 DUP2 ADD SWAP2 SWAP1 SWAP2 MSTORE RETURN JUMPDEST CALLVALUE PUSH2 0x1B4 JUMPI PUSH1 0x0 CALLDATASIZE PUSH1 0x3 NOT ADD SLT PUSH2 0x1B4 JUMPI PUSH1 0x20 PUSH1 0x1 PUSH1 0x1 PUSH1 0xA0 SHL SUB PUSH1 0x9 SLOAD AND PUSH1 0x40 MLOAD SWAP1 DUP2 MSTORE RETURN JUMPDEST CALLVALUE PUSH2 0x1B4 JUMPI PUSH1 0x0 CALLDATASIZE PUSH1 0x3 NOT ADD SLT PUSH2 0x1B4 JUMPI PUSH2 0xF3A PUSH2 0x399F JUMP JUMPDEST PUSH1 0x0 PUSH1 0x1 PUSH1 0x1 PUSH1 0xA0 SHL SUB PUSH32 0x9016D09D72D40FDAE2FD8CEAC6B6234C7706214FD39C1CD1E609A0528C199300 DUP1 SLOAD SWAP1 PUSH1 0x1 PUSH1 0x1 PUSH1 0xA0 SHL SUB NOT DUP3 AND SWAP1 SSTORE AND PUSH32 0x8BE0079C531659141344CD1FD0A4F28419497F9722A3DAAFE3B4186F6B6457E0 DUP3 DUP1 LOG3 STOP JUMPDEST CALLVALUE PUSH2 0x1B4 JUMPI PUSH1 0x0 CALLDATASIZE PUSH1 0x3 NOT ADD SLT PUSH2 0x1B4 JUMPI PUSH1 0x5 SLOAD PUSH1 0x40 DUP1 MLOAD PUSH1 0x1 PUSH1 0x1 PUSH1 0x60 SHL SUB DUP4 AND DUP2 MSTORE PUSH4 0xFFFFFFFF PUSH1 0x60 DUP5 DUP2 SHR DUP3 AND PUSH1 0x20 DUP5 ADD MSTORE PUSH1 0x80 SWAP5 SWAP1 SWAP5 SHR AND SWAP2 DUP2 ADD SWAP2 SWAP1 SWAP2 MSTORE RETURN JUMPDEST CALLVALUE PUSH2 0x1B4 JUMPI PUSH1 0x20 CALLDATASIZE PUSH1 0x3 NOT ADD SLT PUSH2 0x1B4 JUMPI PUSH1 0x1 PUSH1 0x1 PUSH1 0xA0 SHL SUB PUSH2 0x1002 PUSH2 0x2DB5 JUMP JUMPDEST PUSH1 0x0 PUSH2 0x160 PUSH1 0x40 MLOAD PUSH2 0x1013 DUP2 PUSH2 0x2E31 JUMP JUMPDEST DUP3 DUP2 MSTORE DUP3 PUSH1 0x20 DUP3 ADD MSTORE DUP3 PUSH1 0x40 DUP3 ADD MSTORE DUP3 PUSH1 0x60 DUP3 ADD MSTORE DUP3 PUSH1 0x80 DUP3 ADD MSTORE DUP3 PUSH1 0xA0 DUP3 ADD MSTORE DUP3 PUSH1 0xC0 DUP3 ADD MSTORE DUP3 PUSH1 0xE0 DUP3 ADD MSTORE DUP3 PUSH2 0x100 DUP3 ADD MSTORE DUP3 PUSH2 0x120 DUP3 ADD MSTORE DUP3 PUSH2 0x140 DUP3 ADD MSTORE ADD MSTORE AND PUSH1 0x0 MSTORE PUSH1 0x0 PUSH1 0x20 MSTORE PUSH2 0x180 PUSH1 0x40 PUSH1 0x0 KECCAK256 PUSH1 0xFF PUSH2 0x160 PUSH1 0x40 MLOAD PUSH2 0x1079 DUP2 PUSH2 0x2E31 JUMP JUMPDEST DUP3 PUSH1 0x3 DUP6 SLOAD SWAP6 DUP3 DUP8 AND ISZERO ISZERO DUP5 MSTORE DUP3 DUP8 PUSH1 0x8 SHR AND ISZERO ISZERO PUSH1 0x20 DUP6 ADD MSTORE PUSH1 0x1 PUSH1 0x1 PUSH1 0xA0 SHL SUB DUP8 PUSH1 0x10 SHR AND PUSH1 0x40 DUP6 ADD MSTORE PUSH1 0x1 PUSH1 0x1 PUSH1 0x60 SHL SUB PUSH1 0x1 DUP3 ADD SLOAD DUP2 DUP2 AND PUSH1 0x60 DUP8 ADD MSTORE PUSH1 0x60 SHR AND PUSH1 0x80 DUP6 ADD MSTORE PUSH1 0x2 DUP2 ADD SLOAD PUSH1 0x1 PUSH1 0x1 PUSH1 0x60 SHL SUB DUP2 AND PUSH1 0xA0 DUP7 ADD MSTORE PUSH1 0x1 PUSH1 0x1 PUSH1 0x60 SHL SUB DUP2 PUSH1 0x60 SHR AND PUSH1 0xC0 DUP7 ADD MSTORE PUSH4 0xFFFFFFFF DUP2 PUSH1 0xC0 SHR AND PUSH1 0xE0 DUP7 ADD MSTORE PUSH1 0xE0 SHR PUSH2 0x100 DUP6 ADD MSTORE ADD SLOAD DUP2 DUP2 AND PUSH2 0x120 DUP5 ADD MSTORE DUP2 DUP2 PUSH1 0x8 SHR AND PUSH2 0x140 DUP5 ADD MSTORE PUSH1 0x10 SHR AND DUP3 DUP3 ADD MSTORE DUP3 PUSH1 0x40 MLOAD SWAP5 AND ISZERO ISZERO DUP5 MSTORE PUSH1 0x20 DUP2 ADD MLOAD ISZERO ISZERO PUSH1 0x20 DUP6 ADD MSTORE PUSH1 0x1 PUSH1 0x1 PUSH1 0xA0 SHL SUB PUSH1 0x40 DUP3 ADD MLOAD AND PUSH1 0x40 DUP6 ADD MSTORE PUSH1 0x1 PUSH1 0x1 PUSH1 0x60 SHL SUB PUSH1 0x60 DUP3 ADD MLOAD AND PUSH1 0x60 DUP6 ADD MSTORE PUSH1 0x1 PUSH1 0x1 PUSH1 0x60 SHL SUB PUSH1 0x80 DUP3 ADD MLOAD AND PUSH1 0x80 DUP6 ADD MSTORE PUSH1 0x1 PUSH1 0x1 PUSH1 0x60 SHL SUB PUSH1 0xA0 DUP3 ADD MLOAD AND PUSH1 0xA0 DUP6 ADD MSTORE PUSH1 0x1 PUSH1 0x1 PUSH1 0x60 SHL SUB PUSH1 0xC0 DUP3 ADD MLOAD AND PUSH1 0xC0 DUP6 ADD MSTORE PUSH4 0xFFFFFFFF PUSH1 0xE0 DUP3 ADD MLOAD AND PUSH1 0xE0 DUP6 ADD MSTORE PUSH4 0xFFFFFFFF PUSH2 0x100 DUP3 ADD MLOAD AND PUSH2 0x100 DUP6 ADD MSTORE DUP3 PUSH2 0x120 DUP3 ADD MLOAD AND PUSH2 0x120 DUP6 ADD MSTORE DUP3 PUSH2 0x140 DUP3 ADD MLOAD AND PUSH2 0x140 DUP6 ADD MSTORE ADD MLOAD AND PUSH2 0x160 DUP3 ADD MSTORE RETURN JUMPDEST CALLVALUE PUSH2 0x1B4 JUMPI PUSH1 0x0 CALLDATASIZE PUSH1 0x3 NOT ADD SLT PUSH2 0x1B4 JUMPI PUSH1 0x0 DUP1 JUMPDEST PUSH1 0x10 DUP2 LT PUSH2 0x13CE JUMPI JUMPDEST POP DUP1 ISZERO PUSH2 0x1396 JUMPI JUMPDEST PUSH2 0x120D SWAP1 PUSH2 0x2F78 JUMP JUMPDEST PUSH4 0xFFFFFFFF DUP1 TIMESTAMP AND PUSH1 0x5 SLOAD SWAP1 PUSH1 0x60 SWAP2 DUP4 PUSH2 0x1230 DUP2 DUP4 PUSH1 0x80 SHR AND DUP3 DUP5 DUP8 SHR AND PUSH2 0x2FC3 JUMP JUMPDEST AND DUP3 LT ISZERO PUSH2 0x1338 JUMPI JUMPDEST POP PUSH1 0x6 SLOAD DUP4 PUSH2 0x1251 DUP2 DUP4 PUSH1 0x80 SHR AND DUP3 DUP5 DUP8 SHR AND PUSH2 0x2FC3 JUMP JUMPDEST AND DUP3 LT ISZERO PUSH2 0x12DA JUMPI JUMPDEST POP PUSH1 0x7 SLOAD SWAP3 PUSH2 0x1272 DUP2 DUP6 PUSH1 0x80 SHR AND DUP3 DUP7 DUP7 SHR AND PUSH2 0x2FC3 JUMP JUMPDEST AND GT ISZERO PUSH2 0x127B JUMPI STOP JUMPDEST PUSH4 0xFFFFFFFF PUSH1 0x60 SHL PUSH16 0xFFFFFFFFFFFFFFFFFFFFFFFFFFFFFFFF NOT SWAP2 PUSH1 0x3 PUSH32 0x720F16148D6C70BEF37C97275FD67D61483575C5F6F20DFD980D69C036A29D54 PUSH1 0x20 PUSH1 0x40 MLOAD PUSH1 0x1 PUSH1 0x1 PUSH1 0x60 SHL SUB DUP9 AND DUP2 MSTORE LOG2 TIMESTAMP SWAP1 SHL AND SWAP2 AND OR PUSH1 0x7 SSTORE PUSH1 0x0 DUP1 RETURN JUMPDEST PUSH1 0x2 PUSH32 0x720F16148D6C70BEF37C97275FD67D61483575C5F6F20DFD980D69C036A29D54 PUSH1 0x20 PUSH1 0x40 MLOAD PUSH1 0x1 PUSH1 0x1 PUSH1 0x60 SHL SUB DUP6 AND DUP2 MSTORE LOG2 PUSH16 0xFFFFFFFFFFFFFFFFFFFFFFFFFFFFFFFF NOT AND TIMESTAMP DUP4 SHL PUSH4 0xFFFFFFFF PUSH1 0x60 SHL AND OR PUSH1 0x6 SSTORE DUP4 PUSH2 0x125A JUMP JUMPDEST PUSH1 0x1 PUSH32 0x720F16148D6C70BEF37C97275FD67D61483575C5F6F20DFD980D69C036A29D54 PUSH1 0x20 PUSH1 0x40 MLOAD PUSH1 0x1 PUSH1 0x1 PUSH1 0x60 SHL SUB DUP6 AND DUP2 MSTORE LOG2 PUSH16 0xFFFFFFFFFFFFFFFFFFFFFFFFFFFFFFFF NOT AND TIMESTAMP DUP4 SHL PUSH4 0xFFFFFFFF PUSH1 0x60 SHL AND OR PUSH1 0x5 SSTORE DUP4 PUSH2 0x1239 JUMP JUMPDEST POP PUSH2 0x120D PUSH1 0x1 PUSH1 0x1 PUSH1 0xA0 SHL SUB PUSH32 0x9016D09D72D40FDAE2FD8CEAC6B6234C7706214FD39C1CD1E609A0528C199300 SLOAD AND CALLER EQ SWAP1 POP PUSH2 0x1204 JUMP JUMPDEST CALLER PUSH1 0x1 PUSH1 0x1 PUSH1 0xA0 SHL SUB DUP3 PUSH1 0xA ADD SLOAD AND EQ PUSH2 0x13EA JUMPI PUSH1 0x1 ADD PUSH2 0x11F3 JUMP JUMPDEST POP POP PUSH1 0x1 DUP2 PUSH2 0x11FC JUMP JUMPDEST CALLVALUE PUSH2 0x1B4 JUMPI PUSH1 0x0 CALLDATASIZE PUSH1 0x3 NOT ADD SLT PUSH2 0x1B4 JUMPI PUSH1 0x20 PUSH1 0xFF PUSH32 0xCD5ED15C6E187E77E9AEE88184C21F4F2182AB5827CB3B7E07FBEDCD63F03300 SLOAD AND PUSH1 0x40 MLOAD SWAP1 ISZERO ISZERO DUP2 MSTORE RETURN JUMPDEST CALLVALUE PUSH2 0x1B4 JUMPI PUSH1 0x20 CALLDATASIZE PUSH1 0x3 NOT ADD SLT PUSH2 0x1B4 JUMPI PUSH1 0x4 CALLDATALOAD PUSH1 0x10 DUP2 LT ISZERO PUSH2 0x1B4 JUMPI PUSH1 0x1 PUSH1 0x1 PUSH1 0xA0 SHL SUB PUSH1 0x20 SWAP2 PUSH1 0xA ADD SLOAD AND PUSH1 0x40 MLOAD SWAP1 DUP2 MSTORE RETURN JUMPDEST CALLVALUE PUSH2 0x1B4 JUMPI PUSH1 0x20 CALLDATASIZE PUSH1 0x3 NOT ADD SLT PUSH2 0x1B4 JUMPI PUSH1 0x0 DUP1 DUP1 DUP1 PUSH1 0x4 CALLDATALOAD PUSH2 0x148C PUSH2 0x399F JUMP JUMPDEST PUSH1 0x1 PUSH1 0x1 PUSH1 0xA0 SHL SUB PUSH32 0x9016D09D72D40FDAE2FD8CEAC6B6234C7706214FD39C1CD1E609A0528C199300 SLOAD AND DUP3 DUP3 ISZERO PUSH2 0x14C7 JUMPI JUMPDEST CALL ISZERO PUSH2 0x482 JUMPI STOP JUMPDEST POP PUSH2 0x8FC PUSH2 0x14BF JUMP JUMPDEST CALLVALUE PUSH2 0x1B4 JUMPI PUSH1 0x0 CALLDATASIZE PUSH1 0x3 NOT ADD SLT PUSH2 0x1B4 JUMPI PUSH1 0x1 PUSH1 0x1 PUSH1 0xA0 SHL SUB PUSH32 0x0 AND ADDRESS SUB PUSH2 0x153B JUMPI PUSH1 0x20 PUSH1 0x40 MLOAD PUSH32 0x360894A13BA1A3210667C828492DB98DCA3E2076CC3735A920A3CA505D382BBC DUP2 MSTORE RETURN JUMPDEST PUSH1 0x4 PUSH1 0x40 MLOAD PUSH32 0xE07C8DBA00000000000000000000000000000000000000000000000000000000 DUP2 MSTORE REVERT JUMPDEST CALLVALUE PUSH2 0x1B4 JUMPI PUSH1 0x0 CALLDATASIZE PUSH1 0x3 NOT ADD SLT PUSH2 0x1B4 JUMPI PUSH1 0x60 PUSH1 0x1 PUSH1 0x1 PUSH1 0x60 SHL SUB DUP1 PUSH1 0x5 SLOAD AND SWAP1 DUP1 PUSH1 0x6 SLOAD AND SWAP1 PUSH1 0x7 SLOAD AND SWAP1 PUSH1 0x40 MLOAD SWAP3 DUP4 MSTORE PUSH1 0x20 DUP4 ADD MSTORE PUSH1 0x40 DUP3 ADD MSTORE RETURN JUMPDEST PUSH1 0x40 CALLDATASIZE PUSH1 0x3 NOT ADD SLT PUSH2 0x1B4 JUMPI PUSH2 0x15B7 PUSH2 0x2DB5 JUMP JUMPDEST PUSH1 0x24 SWAP1 DUP2 CALLDATALOAD PUSH8 0xFFFFFFFFFFFFFFFF DUP2 GT PUSH2 0x1B4 JUMPI CALLDATASIZE PUSH1 0x23 DUP3 ADD SLT ISZERO PUSH2 0x1B4 JUMPI DUP1 PUSH1 0x4 ADD CALLDATALOAD PUSH2 0x15E4 DUP2 PUSH2 0x2ED8 JUMP JUMPDEST SWAP3 PUSH2 0x15F2 PUSH1 0x40 MLOAD SWAP5 DUP6 PUSH2 0x2E87 JUMP JUMPDEST DUP2 DUP5 MSTORE PUSH1 0x20 SWAP2 DUP3 DUP6 ADD SWAP4 CALLDATASIZE DUP8 DUP4 DUP4 ADD ADD GT PUSH2 0x1B4 JUMPI DUP2 PUSH1 0x0 SWAP3 DUP9 DUP7 SWAP4 ADD DUP8 CALLDATACOPY DUP7 ADD ADD MSTORE PUSH1 0x1 PUSH1 0x1 PUSH1 0xA0 SHL SUB DUP1 PUSH32 0x0 AND DUP1 ADDRESS EQ SWAP1 DUP2 ISZERO PUSH2 0x180F JUMPI JUMPDEST POP PUSH2 0x153B JUMPI PUSH2 0x1658 PUSH2 0x399F JUMP JUMPDEST DUP2 AND SWAP4 PUSH1 0x40 MLOAD PUSH32 0x52D1902D00000000000000000000000000000000000000000000000000000000 DUP2 MSTORE DUP4 DUP2 PUSH1 0x4 DUP2 DUP10 GAS STATICCALL PUSH1 0x0 SWAP2 DUP2 PUSH2 0x17E0 JUMPI JUMPDEST POP PUSH2 0x16AE JUMPI DUP7 DUP7 PUSH1 0x40 MLOAD SWAP1 PUSH4 0x4C9C8CE3 PUSH1 0xE0 SHL DUP3 MSTORE PUSH1 0x4 DUP3 ADD MSTORE REVERT JUMPDEST DUP6 SWAP1 DUP8 PUSH32 0x360894A13BA1A3210667C828492DB98DCA3E2076CC3735A920A3CA505D382BBC SWAP2 DUP3 DUP2 SUB PUSH2 0x17B2 JUMPI POP DUP5 EXTCODESIZE ISZERO PUSH2 0x179C JUMPI POP DUP2 PUSH1 0x1 PUSH1 0x1 PUSH1 0xA0 SHL SUB NOT DUP3 SLOAD AND OR SWAP1 SSTORE PUSH1 0x40 MLOAD SWAP1 PUSH32 0xBC7CD75A20EE27FD9ADEBAB32041F755214DBC6BFFA90CC0225B39DA2E5C2D3B PUSH1 0x0 DUP1 LOG2 DUP2 MLOAD ISZERO PUSH2 0x1768 JUMPI POP PUSH1 0x0 PUSH2 0x19 SWAP5 DUP2 SWAP3 MLOAD SWAP1 DUP5 GAS DELEGATECALL SWAP1 RETURNDATASIZE ISZERO PUSH2 0x175F JUMPI RETURNDATASIZE PUSH2 0x1742 DUP2 PUSH2 0x2ED8 JUMP JUMPDEST SWAP1 PUSH2 0x1750 PUSH1 0x40 MLOAD SWAP3 DUP4 PUSH2 0x2E87 JUMP JUMPDEST DUP2 MSTORE PUSH1 0x0 DUP2 SWAP5 RETURNDATASIZE SWAP3 ADD RETURNDATACOPY PUSH2 0x3A6D JUMP JUMPDEST PUSH1 0x60 SWAP3 POP PUSH2 0x3A6D JUMP JUMPDEST SWAP4 POP POP POP POP CALLVALUE PUSH2 0x1774 JUMPI STOP JUMPDEST DUP1 PUSH32 0xB398979F00000000000000000000000000000000000000000000000000000000 PUSH1 0x4 SWAP3 MSTORE REVERT JUMPDEST DUP3 PUSH1 0x40 MLOAD SWAP1 PUSH4 0x4C9C8CE3 PUSH1 0xE0 SHL DUP3 MSTORE PUSH1 0x4 DUP3 ADD MSTORE REVERT JUMPDEST PUSH1 0x40 MLOAD SWAP1 PUSH32 0xAA1D49A400000000000000000000000000000000000000000000000000000000 DUP3 MSTORE PUSH1 0x4 DUP3 ADD MSTORE REVERT JUMPDEST SWAP1 SWAP2 POP DUP5 DUP2 DUP2 RETURNDATASIZE DUP4 GT PUSH2 0x1808 JUMPI JUMPDEST PUSH2 0x17F8 DUP2 DUP4 PUSH2 0x2E87 JUMP JUMPDEST DUP2 ADD SUB SLT PUSH2 0x1B4 JUMPI MLOAD SWAP1 DUP9 PUSH2 0x1692 JUMP JUMPDEST POP RETURNDATASIZE PUSH2 0x17EE JUMP JUMPDEST SWAP1 POP DUP2 PUSH32 0x360894A13BA1A3210667C828492DB98DCA3E2076CC3735A920A3CA505D382BBC SLOAD AND EQ ISZERO DUP8 PUSH2 0x164B JUMP JUMPDEST CALLVALUE PUSH2 0x1B4 JUMPI PUSH1 0x0 CALLDATASIZE PUSH1 0x3 NOT ADD SLT PUSH2 0x1B4 JUMPI PUSH1 0x20 PUSH1 0x1 PUSH1 0x1 PUSH1 0xA0 SHL SUB PUSH1 0x8 SLOAD AND PUSH1 0x40 MLOAD SWAP1 DUP2 MSTORE RETURN JUMPDEST CALLVALUE PUSH2 0x1B4 JUMPI PUSH1 0x40 CALLDATASIZE PUSH1 0x3 NOT ADD SLT PUSH2 0x1B4 JUMPI PUSH2 0x187D PUSH2 0x2DB5 JUMP JUMPDEST PUSH2 0x1885 PUSH2 0x2EC9 JUMP JUMPDEST PUSH1 0x0 SWAP2 PUSH1 0x0 JUMPDEST PUSH1 0x10 DUP2 LT PUSH2 0x1905 JUMPI JUMPDEST POP PUSH1 0x1 PUSH1 0x1 PUSH1 0xA0 SHL SUB SWAP1 DUP4 PUSH2 0x19 SWAP5 SWAP1 ISZERO PUSH2 0x18D9 JUMPI JUMPDEST PUSH2 0x18B3 SWAP1 PUSH2 0x2F78 JUMP JUMPDEST AND PUSH1 0x0 MSTORE PUSH1 0x0 PUSH1 0x20 MSTORE PUSH1 0x40 PUSH1 0x0 KECCAK256 SWAP1 PUSH2 0xFF00 DUP3 SLOAD SWAP2 ISZERO ISZERO PUSH1 0x8 SHL AND SWAP1 PUSH2 0xFF00 NOT AND OR SWAP1 SSTORE JUMP JUMPDEST POP PUSH32 0x9016D09D72D40FDAE2FD8CEAC6B6234C7706214FD39C1CD1E609A0528C199300 SLOAD DUP3 AND CALLER EQ PUSH2 0x18AA JUMP JUMPDEST CALLER PUSH1 0x1 PUSH1 0x1 PUSH1 0xA0 SHL SUB DUP3 PUSH1 0xA ADD SLOAD AND EQ PUSH2 0x1921 JUMPI PUSH1 0x1 ADD PUSH2 0x188B JUMP JUMPDEST POP PUSH1 0x1 SWAP3 POP PUSH1 0x1 PUSH1 0x1 PUSH1 0xA0 SHL SUB PUSH2 0x1894 JUMP JUMPDEST CALLVALUE PUSH2 0x1B4 JUMPI PUSH1 0x20 CALLDATASIZE PUSH1 0x3 NOT ADD SLT PUSH2 0x1B4 JUMPI PUSH2 0x194C PUSH2 0x399F JUMP JUMPDEST PUSH1 0x0 PUSH1 0x20 PUSH1 0x1 PUSH1 0x1 PUSH1 0xA0 SHL SUB PUSH1 0x44 DUP2 PUSH1 0x8 SLOAD AND SWAP2 PUSH32 0x9016D09D72D40FDAE2FD8CEAC6B6234C7706214FD39C1CD1E609A0528C199300 SLOAD AND PUSH1 0x40 MLOAD SWAP5 DUP6 SWAP4 DUP5 SWAP3 PUSH32 0xA9059CBB00000000000000000000000000000000000000000000000000000000 DUP5 MSTORE PUSH1 0x4 DUP5 ADD MSTORE PUSH1 0x4 CALLDATALOAD PUSH1 0x24 DUP5 ADD MSTORE GAS CALL DUP1 ISZERO PUSH2 0x482 JUMPI PUSH2 0x19C9 JUMPI STOP JUMPDEST PUSH2 0x19 SWAP1 PUSH1 0x20 RETURNDATASIZE PUSH1 0x20 GT PUSH2 0x19EA JUMPI JUMPDEST PUSH2 0x19E2 DUP2 DUP4 PUSH2 0x2E87 JUMP JUMPDEST DUP2 ADD SWAP1 PUSH2 0x2F60 JUMP JUMPDEST POP RETURNDATASIZE PUSH2 0x19D8 JUMP JUMPDEST PUSH1 0x60 CALLDATASIZE PUSH1 0x3 NOT ADD SLT PUSH2 0x1B4 JUMPI PUSH2 0x1A05 PUSH2 0x2DB5 JUMP JUMPDEST PUSH2 0x1A0D PUSH2 0x2EA9 JUMP JUMPDEST PUSH1 0x44 CALLDATALOAD SWAP2 DUP3 ISZERO ISZERO DUP4 SUB PUSH2 0x1B4 JUMPI PUSH2 0x1A22 PUSH2 0x30CB JUMP JUMPDEST PUSH2 0x1A2A PUSH2 0x3125 JUMP JUMPDEST PUSH2 0x1A37 PUSH1 0x1A SLOAD NUMBER GT PUSH2 0x2F15 JUMP JUMPDEST NUMBER PUSH1 0x1A SSTORE CALLER PUSH1 0x0 MSTORE PUSH1 0x0 PUSH1 0x20 MSTORE PUSH1 0xFF PUSH1 0x40 PUSH1 0x0 KECCAK256 SLOAD AND PUSH2 0x2099 JUMPI PUSH1 0x1 PUSH1 0xFF DUP4 AND LT ISZERO DUP1 PUSH2 0x208B JUMPI JUMPDEST ISZERO PUSH2 0x2047 JUMPI PUSH1 0x1 PUSH1 0x1 PUSH1 0xA0 SHL SUB DUP2 AND ISZERO SWAP3 DUP4 ISZERO SWAP4 DUP5 PUSH2 0x2026 JUMPI JUMPDEST ISZERO PUSH2 0x1FE2 JUMPI PUSH2 0x1A88 SWAP1 DUP4 PUSH2 0x317A JUMP JUMPDEST SWAP3 PUSH1 0x1 PUSH1 0x1 PUSH1 0x60 SHL SUB DUP5 AND PUSH13 0x3FFFFFFFFFFFFFFFFFFFFFFFC DUP6 PUSH1 0x2 SHL AND DIV PUSH1 0x4 EQ PUSH1 0x1 PUSH1 0x1 PUSH1 0x60 SHL SUB DUP6 AND ISZERO OR ISZERO PUSH2 0x59E JUMPI PUSH1 0x40 MLOAD PUSH2 0x1AC7 DUP2 PUSH2 0x2E31 JUMP JUMPDEST PUSH1 0x1 DUP2 MSTORE PUSH1 0x0 PUSH1 0x20 DUP3 ADD MSTORE PUSH1 0x1 PUSH1 0x1 PUSH1 0xA0 SHL SUB DUP4 AND PUSH1 0x40 DUP3 ADD MSTORE PUSH1 0x0 PUSH1 0x60 DUP3 ADD MSTORE PUSH1 0x1 PUSH1 0x1 PUSH1 0x60 SHL SUB DUP6 AND PUSH1 0x80 DUP3 ADD MSTORE PUSH1 0x0 PUSH1 0xA0 DUP3 ADD MSTORE PUSH12 0xFFFFFFFFFFFFFFFFFFFFFFFC DUP6 PUSH1 0x2 SHL AND PUSH1 0xC0 DUP3 ADD MSTORE PUSH1 0x0 PUSH1 0xE0 DUP3 ADD MSTORE PUSH1 0x0 PUSH2 0x100 DUP3 ADD MSTORE PUSH1 0xFF DUP5 AND PUSH2 0x120 DUP3 ADD MSTORE PUSH1 0x0 PUSH2 0x140 DUP3 ADD MSTORE PUSH1 0x46 PUSH2 0x160 DUP3 ADD MSTORE CALLER PUSH1 0x0 MSTORE PUSH1 0x0 PUSH1 0x20 MSTORE PUSH1 0x40 PUSH1 0x0 KECCAK256 SWAP2 DUP2 MLOAD ISZERO ISZERO PUSH1 0xFF DUP1 NOT DUP6 SLOAD AND SWAP2 AND OR DUP4 SSTORE PUSH2 0x1B80 PUSH1 0x20 DUP4 ADD MLOAD ISZERO ISZERO DUP5 SWAP1 PUSH2 0xFF00 DUP3 SLOAD SWAP2 ISZERO ISZERO PUSH1 0x8 SHL AND SWAP1 PUSH2 0xFF00 NOT AND OR SWAP1 SSTORE JUMP JUMPDEST PUSH1 0x40 DUP3 ADD MLOAD PUSH22 0xFFFFFFFFFFFFFFFFFFFFFFFFFFFFFFFFFFFFFFFF0000 NOT PUSH22 0xFFFFFFFFFFFFFFFFFFFFFFFFFFFFFFFFFFFFFFFF0000 DUP6 SLOAD SWAP3 PUSH1 0x10 SHL AND SWAP2 AND OR DUP4 SSTORE PUSH2 0x1D5C PUSH1 0x1 DUP5 ADD SWAP3 PUSH2 0x1C31 PUSH1 0x1 PUSH1 0x1 PUSH1 0x60 SHL SUB PUSH1 0x60 DUP4 ADD MLOAD AND SWAP5 PUSH1 0x1 PUSH1 0x1 PUSH1 0x60 SHL SUB NOT SWAP6 DUP7 DUP3 SLOAD AND OR DUP2 SSTORE PUSH1 0x1 PUSH1 0x1 PUSH1 0x60 SHL SUB PUSH1 0x80 DUP5 ADD MLOAD AND PUSH24 0xFFFFFFFFFFFFFFFFFFFFFFFF000000000000000000000000 NOT PUSH12 0xFFFFFFFFFFFFFFFFFFFFFFFF PUSH1 0x60 SHL DUP4 SLOAD SWAP3 PUSH1 0x60 SHL AND SWAP2 AND OR SWAP1 SSTORE JUMP JUMPDEST PUSH1 0x2 DUP6 ADD SWAP4 PUSH1 0x1 PUSH1 0x1 PUSH1 0x60 SHL SUB PUSH1 0xA0 DUP4 ADD MLOAD AND SWAP1 DUP6 SLOAD AND OR DUP5 SSTORE PUSH2 0x1C96 PUSH1 0x1 PUSH1 0x1 PUSH1 0x60 SHL SUB PUSH1 0xC0 DUP4 ADD MLOAD AND DUP6 SWAP1 PUSH24 0xFFFFFFFFFFFFFFFFFFFFFFFF000000000000000000000000 NOT PUSH12 0xFFFFFFFFFFFFFFFFFFFFFFFF PUSH1 0x60 SHL DUP4 SLOAD SWAP3 PUSH1 0x60 SHL AND SWAP2 AND OR SWAP1 SSTORE JUMP JUMPDEST PUSH1 0xE0 DUP2 ADD MLOAD DUP5 SLOAD PUSH4 0xFFFFFFFF PUSH1 0xC0 SHL NOT AND PUSH1 0xC0 SWAP2 SWAP1 SWAP2 SHL PUSH4 0xFFFFFFFF PUSH1 0xC0 SHL AND OR DUP5 SSTORE PUSH4 0xFFFFFFFF SWAP4 PUSH2 0x100 DUP3 ADD MLOAD DUP2 SLOAD PUSH28 0xFFFFFFFFFFFFFFFFFFFFFFFFFFFFFFFFFFFFFFFFFFFFFFFFFFFFFFFF AND PUSH1 0xE0 SWAP2 SWAP1 SWAP2 SHL PUSH32 0xFFFFFFFF00000000000000000000000000000000000000000000000000000000 AND OR SWAP1 SSTORE PUSH2 0x120 DUP2 ADD MLOAD PUSH1 0x3 SWAP6 DUP7 ADD DUP1 SLOAD PUSH2 0x140 DUP5 ADD MLOAD PUSH2 0xFFFF NOT SWAP1 SWAP2 AND PUSH1 0xFF SWAP4 DUP5 AND OR PUSH1 0x8 SWAP2 SWAP1 SWAP2 SHL PUSH2 0xFF00 AND OR DUP2 SSTORE SWAP2 PUSH2 0x160 SWAP1 JUMPDEST ADD MLOAD DUP3 SLOAD PUSH3 0xFF0000 NOT AND SWAP2 AND PUSH1 0x10 SHL PUSH3 0xFF0000 AND OR SWAP1 SSTORE JUMP JUMPDEST PUSH2 0x1DE0 JUMPI JUMPDEST POP POP PUSH1 0x1 PUSH1 0x1 PUSH1 0xA0 SHL SUB PUSH32 0x71DEF7D796F49533EE52DDBC96692742DFDF822CE8B6E59E1102742A3A15CDFD SWAP2 PUSH2 0x1D98 DUP5 DUP7 CALLER PUSH2 0x33AB JUMP JUMPDEST PUSH1 0x40 DUP1 MLOAD PUSH1 0xFF SWAP6 SWAP1 SWAP6 AND DUP6 MSTORE PUSH1 0x1 PUSH1 0x1 PUSH1 0x60 SHL SUB SWAP6 SWAP1 SWAP6 AND PUSH1 0x20 DUP6 ADD MSTORE AND SWAP3 CALLER SWAP3 LOG3 PUSH1 0x1 PUSH32 0x9B779B17422D0DF92223018B32B4D1FA46E071723D6817E2486D003BECC55F00 SSTORE STOP JUMPDEST PUSH1 0x1 PUSH1 0x1 PUSH1 0xA0 SHL SUB DUP4 SWAP5 SWAP3 SWAP6 SWAP4 AND PUSH1 0x0 MSTORE PUSH1 0x2 PUSH1 0x20 MSTORE PUSH1 0x40 PUSH1 0x0 KECCAK256 DUP1 SLOAD SWAP1 PUSH9 0x10000000000000000 DUP3 LT ISZERO PUSH2 0x1FCC JUMPI DUP2 PUSH2 0x1E22 SWAP2 PUSH1 0x1 PUSH2 0x1E40 SWAP5 ADD DUP2 SSTORE PUSH2 0x2DCB JUMP JUMPDEST CALLER SWAP1 PUSH1 0x1 PUSH1 0x1 PUSH1 0xA0 SHL SUB DUP1 DUP5 SLOAD SWAP3 PUSH1 0x3 SHL SWAP4 AND DUP4 SHL SWAP3 SHL NOT AND OR SWAP1 SSTORE JUMP JUMPDEST PUSH1 0x1 PUSH1 0x1 PUSH1 0xA0 SHL SUB DUP5 AND PUSH1 0x0 MSTORE PUSH1 0x0 PUSH1 0x20 MSTORE PUSH1 0x2 PUSH1 0x40 PUSH1 0x0 KECCAK256 ADD DUP2 DUP2 SLOAD PUSH1 0xC0 SHR AND SWAP2 DUP3 EQ PUSH2 0x59E JUMPI PUSH1 0x1 PUSH2 0x1E8E SWAP3 ADD PUSH4 0xFFFFFFFF PUSH1 0xC0 SHL NOT PUSH4 0xFFFFFFFF PUSH1 0xC0 SHL DUP4 SLOAD SWAP3 PUSH1 0xC0 SHL AND SWAP2 AND OR SWAP1 SSTORE JUMP JUMPDEST CALLER PUSH1 0x0 MSTORE PUSH1 0x3 PUSH1 0x20 MSTORE PUSH1 0x40 PUSH1 0x0 KECCAK256 PUSH1 0x1 PUSH1 0x1 PUSH1 0xA0 SHL SUB DUP5 AND PUSH1 0x1 PUSH1 0x1 PUSH1 0xA0 SHL SUB NOT DUP3 SLOAD AND OR SWAP1 SSTORE PUSH1 0x1 JUMPDEST PUSH1 0xFF DUP2 AND PUSH1 0x1E DUP2 LT ISZERO PUSH2 0x1F97 JUMPI CALLER PUSH1 0x0 MSTORE DUP6 PUSH1 0x20 MSTORE PUSH1 0x40 PUSH1 0x0 KECCAK256 SWAP1 PUSH1 0x0 NOT ADD SWAP1 PUSH1 0xFF DUP3 GT PUSH2 0x59E JUMPI PUSH1 0x1 PUSH1 0x1 PUSH1 0xA0 SHL SUB SWAP2 PUSH2 0x1EF2 SWAP2 PUSH2 0x2EF4 JUMP JUMPDEST SWAP1 SLOAD SWAP1 DUP8 SHL SHR AND PUSH1 0x0 MSTORE DUP5 PUSH1 0x20 MSTORE PUSH1 0x1 PUSH1 0x1 PUSH1 0xA0 SHL SUB PUSH1 0x40 PUSH1 0x0 KECCAK256 SLOAD AND DUP1 ISZERO PUSH2 0x1F56 JUMPI PUSH1 0xFF SWAP2 PUSH2 0x1F4F PUSH1 0x1 SWAP3 CALLER PUSH1 0x0 MSTORE PUSH2 0x1F30 DUP4 PUSH1 0x40 PUSH1 0x0 KECCAK256 PUSH2 0x2EF4 JUMP JUMPDEST SWAP1 SWAP2 SWAP1 PUSH1 0x1 PUSH1 0x1 PUSH1 0xA0 SHL SUB DUP1 DUP5 SLOAD SWAP3 PUSH1 0x3 SHL SWAP4 AND DUP4 SHL SWAP3 SHL NOT AND OR SWAP1 SSTORE JUMP JUMPDEST ADD AND PUSH2 0x1EB8 JUMP JUMPDEST POP POP SWAP2 PUSH32 0x71DEF7D796F49533EE52DDBC96692742DFDF822CE8B6E59E1102742A3A15CDFD SWAP2 SWAP4 POP PUSH1 0x1 PUSH1 0x1 PUSH1 0xA0 SHL SUB SWAP1 JUMPDEST PUSH2 0x1F91 DUP2 CALLER PUSH2 0x32BC JUMP JUMPDEST SWAP2 PUSH2 0x1D61 JUMP JUMPDEST POP POP SWAP2 PUSH32 0x71DEF7D796F49533EE52DDBC96692742DFDF822CE8B6E59E1102742A3A15CDFD SWAP2 SWAP4 POP PUSH1 0x1 PUSH1 0x1 PUSH1 0xA0 SHL SUB SWAP1 PUSH2 0x1F87 JUMP JUMPDEST PUSH4 0x4E487B71 PUSH1 0xE0 SHL PUSH1 0x0 MSTORE PUSH1 0x41 PUSH1 0x4 MSTORE PUSH1 0x24 PUSH1 0x0 REVERT JUMPDEST PUSH1 0x64 PUSH1 0x40 MLOAD PUSH3 0x461BCD PUSH1 0xE5 SHL DUP2 MSTORE PUSH1 0x20 PUSH1 0x4 DUP3 ADD MSTORE PUSH1 0x10 PUSH1 0x24 DUP3 ADD MSTORE PUSH32 0x496E76616C696420726566657272657200000000000000000000000000000000 PUSH1 0x44 DUP3 ADD MSTORE REVERT JUMPDEST POP PUSH1 0x1 PUSH1 0x1 PUSH1 0xA0 SHL SUB DUP3 AND PUSH1 0x0 MSTORE PUSH1 0x0 PUSH1 0x20 MSTORE PUSH1 0xFF PUSH1 0x40 PUSH1 0x0 KECCAK256 SLOAD AND PUSH2 0x1A79 JUMP JUMPDEST PUSH1 0x64 PUSH1 0x40 MLOAD PUSH3 0x461BCD PUSH1 0xE5 SHL DUP2 MSTORE PUSH1 0x20 PUSH1 0x4 DUP3 ADD MSTORE PUSH1 0xF PUSH1 0x24 DUP3 ADD MSTORE PUSH32 0x496E76616C6964207061636B6167650000000000000000000000000000000000 PUSH1 0x44 DUP3 ADD MSTORE REVERT JUMPDEST POP PUSH1 0x8 PUSH1 0xFF DUP4 AND GT ISZERO PUSH2 0x1A5F JUMP JUMPDEST PUSH1 0x64 PUSH1 0x40 MLOAD PUSH3 0x461BCD PUSH1 0xE5 SHL DUP2 MSTORE PUSH1 0x20 PUSH1 0x4 DUP3 ADD MSTORE PUSH1 0x12 PUSH1 0x24 DUP3 ADD MSTORE PUSH32 0x416C726561647920726567697374657265640000000000000000000000000000 PUSH1 0x44 DUP3 ADD MSTORE REVERT JUMPDEST CALLVALUE PUSH2 0x1B4 JUMPI PUSH2 0x240 CALLDATASIZE PUSH1 0x3 NOT ADD SLT PUSH2 0x1B4 JUMPI PUSH2 0x20F7 PUSH2 0x2DB5 JUMP JUMPDEST PUSH1 0x24 CALLDATALOAD PUSH1 0x1 PUSH1 0x1 PUSH1 0xA0 SHL SUB DUP2 AND DUP1 SWAP2 SUB PUSH2 0x1B4 JUMPI CALLDATASIZE PUSH1 0x63 SLT ISZERO PUSH2 0x1B4 JUMPI PUSH1 0x40 MLOAD SWAP1 PUSH2 0x200 DUP3 ADD SWAP3 PUSH8 0xFFFFFFFFFFFFFFFF SWAP4 DUP4 DUP2 LT DUP6 DUP3 GT OR PUSH2 0x1FCC JUMPI PUSH1 0x40 MSTORE DUP3 PUSH2 0x244 CALLDATASIZE DUP2 GT PUSH2 0x1B4 JUMPI PUSH1 0x44 SWAP2 JUMPDEST DUP2 DUP4 LT PUSH2 0x2D3B JUMPI POP POP POP PUSH32 0xF0C57E16840DF040F15088DC2F81FE391C3923BEC73E23A9662EFC9C229C6A00 SLOAD SWAP4 DUP5 AND DUP1 ISZERO SWAP1 DUP2 PUSH2 0x2D2B JUMPI JUMPDEST PUSH1 0x1 EQ SWAP1 DUP2 PUSH2 0x2D21 JUMPI JUMPDEST ISZERO SWAP1 DUP2 PUSH2 0x2D18 JUMPI JUMPDEST POP PUSH2 0x2CEE JUMPI PUSH1 0x1 PUSH1 0x1 PUSH1 0xA0 SHL SUB SWAP1 PUSH1 0x1 PUSH8 0xFFFFFFFFFFFFFFFF NOT DUP7 AND OR PUSH32 0xF0C57E16840DF040F15088DC2F81FE391C3923BEC73E23A9662EFC9C229C6A00 SSTORE PUSH1 0xFF DUP6 PUSH1 0x40 SHR AND ISZERO PUSH2 0x2CAF JUMPI JUMPDEST PUSH2 0x21E3 PUSH2 0x3A14 JUMP JUMPDEST PUSH2 0x21EB PUSH2 0x3A14 JUMP JUMPDEST PUSH2 0x21F4 CALLER PUSH2 0x302D JUMP JUMPDEST PUSH2 0x21FC PUSH2 0x3A14 JUMP JUMPDEST PUSH2 0x2204 PUSH2 0x3A14 JUMP JUMPDEST PUSH2 0x220C PUSH2 0x3A14 JUMP JUMPDEST PUSH1 0x1 PUSH32 0x9B779B17422D0DF92223018B32B4D1FA46E071723D6817E2486D003BECC55F00 SSTORE PUSH2 0x2238 PUSH2 0x3A14 JUMP JUMPDEST AND PUSH1 0x1 PUSH1 0x1 PUSH1 0xA0 SHL SUB NOT PUSH1 0x8 SLOAD AND OR PUSH1 0x8 SSTORE PUSH1 0x1 PUSH1 0x1 PUSH1 0xA0 SHL SUB NOT PUSH1 0x9 SLOAD AND OR PUSH1 0x9 SSTORE DUP1 PUSH1 0x0 JUMPDEST PUSH1 0x10 DUP2 LT PUSH2 0x2C91 JUMPI POP POP PUSH1 0x40 MLOAD PUSH2 0x2275 DUP2 PUSH2 0x2DF9 JUMP JUMPDEST PUSH9 0x1A055690D9DB80000 DUP2 MSTORE PUSH2 0xFA0 PUSH1 0x20 DUP3 ADD MSTORE PUSH2 0x3E8 PUSH1 0x40 DUP3 ADD MSTORE PUSH2 0x3E8 PUSH1 0x60 DUP3 ADD MSTORE PUSH2 0x3E8 PUSH1 0x80 DUP3 ADD MSTORE PUSH2 0xBB8 PUSH1 0xA0 DUP3 ADD MSTORE PUSH2 0x1F4 PUSH1 0xC0 DUP3 ADD MSTORE PUSH1 0x1 PUSH1 0x0 MSTORE PUSH1 0x1 PUSH1 0x20 MSTORE PUSH1 0x40 PUSH1 0x0 KECCAK256 SWAP1 PUSH1 0x1 PUSH1 0x1 PUSH1 0x60 SHL SUB DUP2 MLOAD AND SWAP1 DUP3 SLOAD SWAP2 PUSH2 0xFFFF PUSH1 0x90 SHL PUSH2 0xFFFF PUSH1 0x60 SHL PUSH1 0x20 DUP5 ADD MLOAD PUSH1 0x60 SHL AND PUSH1 0x40 DUP5 ADD MLOAD PUSH2 0xFFFF PUSH1 0x70 SHL PUSH2 0xFFFF PUSH1 0x80 SHL PUSH1 0x60 DUP8 ADD MLOAD PUSH1 0x80 SHL AND SWAP3 PUSH1 0x80 DUP8 ADD MLOAD SWAP6 PUSH1 0x1 PUSH1 0x1 PUSH1 0xC0 SHL SUB NOT PUSH2 0xFFFF PUSH1 0xB0 SHL PUSH1 0xC0 PUSH2 0xFFFF PUSH1 0xA0 SHL PUSH1 0xA0 DUP13 ADD MLOAD PUSH1 0xA0 SHL AND SWAP11 ADD MLOAD PUSH1 0xB0 SHL AND SWAP10 AND OR OR SWAP2 PUSH1 0x70 SHL AND OR OR SWAP2 PUSH1 0x90 SHL AND OR OR OR SWAP1 SSTORE PUSH1 0x40 MLOAD PUSH2 0x234E DUP2 PUSH2 0x2DF9 JUMP JUMPDEST PUSH9 0x2B5E3AF16B1880000 DUP2 MSTORE PUSH2 0xFA0 PUSH1 0x20 DUP3 ADD MSTORE PUSH2 0x3E8 PUSH1 0x40 DUP3 ADD MSTORE PUSH2 0x3E8 PUSH1 0x60 DUP3 ADD MSTORE PUSH2 0x3E8 PUSH1 0x80 DUP3 ADD MSTORE PUSH2 0xBB8 PUSH1 0xA0 DUP3 ADD MSTORE PUSH2 0x1F4 PUSH1 0xC0 DUP3 ADD MSTORE PUSH1 0x2 PUSH1 0x0 MSTORE PUSH1 0x1 PUSH1 0x20 MSTORE PUSH1 0x40 PUSH1 0x0 KECCAK256 SWAP1 PUSH1 0x1 PUSH1 0x1 PUSH1 0x60 SHL SUB DUP2 MLOAD AND SWAP1 DUP3 SLOAD SWAP2 PUSH2 0xFFFF PUSH1 0x60 SHL PUSH1 0x20 DUP4 ADD MLOAD PUSH1 0x60 SHL AND PUSH2 0xFFFF PUSH1 0x70 SHL PUSH1 0x40 DUP5 ADD MLOAD PUSH1 0x70 SHL AND PUSH2 0xFFFF PUSH1 0x80 SHL PUSH1 0x60 DUP6 ADD MLOAD PUSH1 0x80 SHL AND SWAP2 PUSH2 0xFFFF PUSH1 0x90 SHL PUSH1 0x80 DUP7 ADD MLOAD PUSH1 0x90 SHL AND SWAP4 PUSH1 0x1 PUSH1 0x1 PUSH1 0xC0 SHL SUB NOT PUSH2 0xFFFF PUSH1 0xB0 SHL PUSH1 0xC0 PUSH2 0xFFFF PUSH1 0xA0 SHL PUSH1 0xA0 DUP11 ADD MLOAD PUSH1 0xA0 SHL AND SWAP9 ADD MLOAD PUSH1 0xB0 SHL AND SWAP8 AND OR OR OR OR OR OR OR SWAP1 SSTORE PUSH1 0x40 MLOAD PUSH2 0x2425 DUP2 PUSH2 0x2DF9 JUMP JUMPDEST PUSH9 0x56BC75E2D63100000 DUP2 MSTORE PUSH2 0xFA0 PUSH1 0x20 DUP3 ADD MSTORE PUSH2 0x3E8 PUSH1 0x40 DUP3 ADD MSTORE PUSH2 0x3E8 PUSH1 0x60 DUP3 ADD MSTORE PUSH2 0x3E8 PUSH1 0x80 DUP3 ADD MSTORE PUSH2 0xBB8 PUSH1 0xA0 DUP3 ADD MSTORE PUSH2 0x1F4 PUSH1 0xC0 DUP3 ADD MSTORE PUSH1 0x3 PUSH1 0x0 MSTORE PUSH1 0x1 PUSH1 0x20 MSTORE PUSH1 0x40 PUSH1 0x0 KECCAK256 SWAP1 PUSH1 0x1 PUSH1 0x1 PUSH1 0x60 SHL SUB DUP2 MLOAD AND SWAP1 DUP3 SLOAD SWAP2 PUSH2 0xFFFF PUSH1 0x60 SHL PUSH1 0x20 DUP4 ADD MLOAD PUSH1 0x60 SHL AND PUSH2 0xFFFF PUSH1 0x70 SHL PUSH1 0x40 DUP5 ADD MLOAD PUSH1 0x70 SHL AND PUSH2 0xFFFF PUSH1 0x80 SHL PUSH1 0x60 DUP6 ADD MLOAD PUSH1 0x80 SHL AND SWAP2 PUSH2 0xFFFF PUSH1 0x90 SHL PUSH1 0x80 DUP7 ADD MLOAD PUSH1 0x90 SHL AND SWAP4 PUSH1 0x1 PUSH1 0x1 PUSH1 0xC0 SHL SUB NOT PUSH2 0xFFFF PUSH1 0xB0 SHL PUSH1 0xC0 PUSH2 0xFFFF PUSH1 0xA0 SHL PUSH1 0xA0 DUP11 ADD MLOAD PUSH1 0xA0 SHL AND SWAP9 ADD MLOAD PUSH1 0xB0 SHL AND SWAP8 AND OR OR OR OR OR OR OR SWAP1 SSTORE PUSH1 0x40 MLOAD PUSH2 0x24FC DUP2 PUSH2 0x2DF9 JUMP JUMPDEST PUSH9 0xAD78EBC5AC6200000 DUP2 MSTORE PUSH2 0xFA0 PUSH1 0x20 DUP3 ADD MSTORE PUSH2 0x3E8 PUSH1 0x40 DUP3 ADD MSTORE PUSH2 0x3E8 PUSH1 0x60 DUP3 ADD MSTORE PUSH2 0x3E8 PUSH1 0x80 DUP3 ADD MSTORE PUSH2 0xBB8 PUSH1 0xA0 DUP3 ADD MSTORE PUSH2 0x1F4 PUSH1 0xC0 DUP3 ADD MSTORE PUSH1 0x4 PUSH1 0x0 MSTORE PUSH1 0x1 PUSH1 0x20 MSTORE PUSH1 0x40 PUSH1 0x0 KECCAK256 SWAP1 PUSH1 0x1 PUSH1 0x1 PUSH1 0x60 SHL SUB DUP2 MLOAD AND SWAP1 DUP3 SLOAD SWAP2 PUSH2 0xFFFF PUSH1 0x60 SHL PUSH1 0x20 DUP4 ADD MLOAD PUSH1 0x60 SHL AND PUSH2 0xFFFF PUSH1 0x70 SHL PUSH1 0x40 DUP5 ADD MLOAD PUSH1 0x70 SHL AND PUSH2 0xFFFF PUSH1 0x80 SHL PUSH1 0x60 DUP6 ADD MLOAD PUSH1 0x80 SHL AND SWAP2 PUSH2 0xFFFF PUSH1 0x90 SHL PUSH1 0x80 DUP7 ADD MLOAD PUSH1 0x90 SHL AND SWAP4 PUSH1 0x1 PUSH1 0x1 PUSH1 0xC0 SHL SUB NOT PUSH2 0xFFFF PUSH1 0xB0 SHL PUSH1 0xC0 PUSH2 0xFFFF PUSH1 0xA0 SHL PUSH1 0xA0 DUP11 ADD MLOAD PUSH1 0xA0 SHL AND SWAP9 ADD MLOAD PUSH1 0xB0 SHL AND SWAP8 AND OR OR OR OR OR OR OR SWAP1 SSTORE PUSH1 0x40 MLOAD PUSH2 0x25D3 DUP2 PUSH2 0x2DF9 JUMP JUMPDEST PUSH9 0x1043561A8829300000 DUP2 MSTORE PUSH2 0xFA0 PUSH1 0x20 DUP3 ADD MSTORE PUSH2 0x3E8 PUSH1 0x40 DUP3 ADD MSTORE PUSH2 0x3E8 PUSH1 0x60 DUP3 ADD MSTORE PUSH2 0x3E8 PUSH1 0x80 DUP3 ADD MSTORE PUSH2 0xBB8 PUSH1 0xA0 DUP3 ADD MSTORE PUSH2 0x1F4 PUSH1 0xC0 DUP3 ADD MSTORE PUSH1 0x5 PUSH1 0x0 MSTORE PUSH1 0x1 PUSH1 0x20 MSTORE PUSH1 0x40 PUSH1 0x0 KECCAK256 SWAP1 PUSH1 0x1 PUSH1 0x1 PUSH1 0x60 SHL SUB DUP2 MLOAD AND SWAP1 DUP3 SLOAD SWAP2 PUSH2 0xFFFF PUSH1 0x60 SHL PUSH1 0x20 DUP4 ADD MLOAD PUSH1 0x60 SHL AND PUSH2 0xFFFF PUSH1 0x70 SHL PUSH1 0x40 DUP5 ADD MLOAD PUSH1 0x70 SHL AND PUSH2 0xFFFF PUSH1 0x80 SHL PUSH1 0x60 DUP6 ADD MLOAD PUSH1 0x80 SHL AND SWAP2 PUSH2 0xFFFF PUSH1 0x90 SHL PUSH1 0x80 DUP7 ADD MLOAD PUSH1 0x90 SHL AND SWAP4 PUSH1 0x1 PUSH1 0x1 PUSH1 0xC0 SHL SUB NOT PUSH2 0xFFFF PUSH1 0xB0 SHL PUSH1 0xC0 PUSH2 0xFFFF PUSH1 0xA0 SHL PUSH1 0xA0 DUP11 ADD MLOAD PUSH1 0xA0 SHL AND SWAP9 ADD MLOAD PUSH1 0xB0 SHL AND SWAP8 AND OR OR OR OR OR OR OR SWAP1 SSTORE PUSH1 0x40 MLOAD PUSH2 0x26AA DUP2 PUSH2 0x2DF9 JUMP JUMPDEST PUSH9 0x1B1AE4D6E2EF500000 DUP2 MSTORE PUSH2 0xFA0 PUSH1 0x20 DUP3 ADD MSTORE PUSH2 0x3E8 PUSH1 0x40 DUP3 ADD MSTORE PUSH2 0x3E8 PUSH1 0x60 DUP3 ADD MSTORE PUSH2 0x3E8 PUSH1 0x80 DUP3 ADD MSTORE PUSH2 0xBB8 PUSH1 0xA0 DUP3 ADD MSTORE PUSH2 0x1F4 PUSH1 0xC0 DUP3 ADD MSTORE PUSH1 0x6 PUSH1 0x0 MSTORE PUSH1 0x1 PUSH1 0x20 MSTORE PUSH1 0x40 PUSH1 0x0 KECCAK256 SWAP1 PUSH1 0x1 PUSH1 0x1 PUSH1 0x60 SHL SUB DUP2 MLOAD AND SWAP1 DUP3 SLOAD SWAP2 PUSH2 0xFFFF PUSH1 0x60 SHL PUSH1 0x20 DUP4 ADD MLOAD PUSH1 0x60 SHL AND PUSH2 0xFFFF PUSH1 0x70 SHL PUSH1 0x40 DUP5 ADD MLOAD PUSH1 0x70 SHL AND PUSH2 0xFFFF PUSH1 0x80 SHL PUSH1 0x60 DUP6 ADD MLOAD PUSH1 0x80 SHL AND SWAP2 PUSH2 0xFFFF PUSH1 0x90 SHL PUSH1 0x80 DUP7 ADD MLOAD PUSH1 0x90 SHL AND SWAP4 PUSH1 0x1 PUSH1 0x1 PUSH1 0xC0 SHL SUB NOT PUSH2 0xFFFF PUSH1 0xB0 SHL PUSH1 0xC0 PUSH2 0xFFFF PUSH1 0xA0 SHL PUSH1 0xA0 DUP11 ADD MLOAD PUSH1 0xA0 SHL AND SWAP9 ADD MLOAD PUSH1 0xB0 SHL AND SWAP8 AND OR OR OR OR OR OR OR SWAP1 SSTORE PUSH1 0x40 MLOAD PUSH2 0x2781 DUP2 PUSH2 0x2DF9 JUMP JUMPDEST PUSH9 0x3635C9ADC5DEA00000 DUP2 MSTORE PUSH2 0xFA0 PUSH1 0x20 DUP3 ADD MSTORE PUSH2 0x3E8 PUSH1 0x40 DUP3 ADD MSTORE PUSH2 0x3E8 PUSH1 0x60 DUP3 ADD MSTORE PUSH2 0x3E8 PUSH1 0x80 DUP3 ADD MSTORE PUSH2 0xBB8 PUSH1 0xA0 DUP3 ADD MSTORE PUSH2 0x1F4 PUSH1 0xC0 DUP3 ADD MSTORE PUSH1 0x7 PUSH1 0x0 MSTORE PUSH1 0x1 PUSH1 0x20 MSTORE PUSH1 0x40 PUSH1 0x0 KECCAK256 SWAP1 PUSH1 0x1 PUSH1 0x1 PUSH1 0x60 SHL SUB DUP2 MLOAD AND SWAP1 DUP3 SLOAD SWAP2 PUSH2 0xFFFF PUSH1 0x60 SHL PUSH1 0x20 DUP4 ADD MLOAD PUSH1 0x60 SHL AND PUSH2 0xFFFF PUSH1 0x70 SHL PUSH1 0x40 DUP5 ADD MLOAD PUSH1 0x70 SHL AND PUSH2 0xFFFF PUSH1 0x80 SHL PUSH1 0x60 DUP6 ADD MLOAD PUSH1 0x80 SHL AND SWAP2 PUSH2 0xFFFF PUSH1 0x90 SHL PUSH1 0x80 DUP7 ADD MLOAD PUSH1 0x90 SHL AND SWAP4 PUSH1 0x1 PUSH1 0x1 PUSH1 0xC0 SHL SUB NOT PUSH2 0xFFFF PUSH1 0xB0 SHL PUSH1 0xC0 PUSH2 0xFFFF PUSH1 0xA0 SHL PUSH1 0xA0 DUP11 ADD MLOAD PUSH1 0xA0 SHL AND SWAP9 ADD MLOAD PUSH1 0xB0 SHL AND SWAP8 AND OR OR OR OR OR OR OR SWAP1 SSTORE PUSH1 0x40 MLOAD PUSH2 0x2858 DUP2 PUSH2 0x2DF9 JUMP JUMPDEST PUSH9 0x6C6B935B8BBD400000 DUP2 MSTORE PUSH2 0xFA0 PUSH1 0x20 DUP3 ADD MSTORE PUSH2 0x3E8 PUSH1 0x40 DUP3 ADD MSTORE PUSH2 0x3E8 PUSH1 0x60 DUP3 ADD MSTORE PUSH2 0x3E8 PUSH1 0x80 DUP3 ADD MSTORE PUSH2 0xBB8 PUSH1 0xA0 DUP3 ADD MSTORE PUSH2 0x1F4 PUSH1 0xC0 DUP3 ADD MSTORE PUSH1 0x8 PUSH1 0x0 MSTORE PUSH1 0x1 PUSH1 0x20 MSTORE PUSH1 0x40 PUSH1 0x0 KECCAK256 SWAP1 PUSH1 0x1 PUSH1 0x1 PUSH1 0x60 SHL SUB DUP2 MLOAD AND SWAP1 DUP3 SLOAD SWAP2 PUSH2 0xFFFF PUSH1 0x60 SHL PUSH1 0x20 DUP4 ADD MLOAD PUSH1 0x60 SHL AND PUSH2 0xFFFF PUSH1 0x70 SHL PUSH1 0x40 DUP5 ADD MLOAD PUSH1 0x70 SHL AND PUSH2 0xFFFF PUSH1 0x80 SHL PUSH1 0x60 DUP6 ADD MLOAD PUSH1 0x80 SHL AND SWAP2 PUSH2 0xFFFF PUSH1 0x90 SHL PUSH1 0x80 DUP7 ADD MLOAD PUSH1 0x90 SHL AND SWAP4 PUSH1 0x1 PUSH1 0x1 PUSH1 0xC0 SHL SUB NOT PUSH2 0xFFFF PUSH1 0xB0 SHL PUSH1 0xC0 PUSH2 0xFFFF PUSH1 0xA0 SHL PUSH1 0xA0 DUP11 ADD MLOAD PUSH1 0xA0 SHL AND SWAP9 ADD MLOAD PUSH1 0xB0 SHL AND SWAP8 AND OR OR OR OR OR OR OR SWAP1 SSTORE PUSH19 0x278D0000000000000000000000000000000000 PUSH1 0x40 PUSH3 0x278D00 DUP2 PUSH4 0xFFFFFFFF TIMESTAMP AND DUP2 MLOAD PUSH2 0x2950 DUP2 PUSH2 0x2E15 JUMP JUMPDEST PUSH1 0x0 DUP2 MSTORE DUP2 PUSH1 0x20 DUP3 ADD MSTORE PUSH3 0x93A80 SWAP5 DUP6 SWAP2 ADD MSTORE PUSH1 0x1 PUSH1 0x1 PUSH1 0xA0 SHL SUB NOT PUSH1 0x5 SLOAD SWAP5 PUSH4 0xFFFFFFFF PUSH1 0x60 SHL TIMESTAMP PUSH1 0x60 SHL AND SWAP6 DUP7 PUSH19 0x93A8000000000000000000000000000000000 SWAP4 DUP5 SWAP3 AND OR OR PUSH1 0x5 SSTORE DUP4 DUP1 MLOAD PUSH2 0x29A8 DUP2 PUSH2 0x2E15 JUMP JUMPDEST PUSH1 0x0 DUP2 MSTORE DUP5 PUSH1 0x20 DUP3 ADD MSTORE ADD MSTORE DUP5 PUSH1 0x1 PUSH1 0x1 PUSH1 0xA0 SHL SUB NOT PUSH1 0x6 SLOAD AND OR OR PUSH1 0x6 SSTORE DUP2 MLOAD SWAP1 PUSH2 0x29D3 DUP3 PUSH2 0x2E15 JUMP JUMPDEST PUSH1 0x0 DUP3 MSTORE PUSH1 0x20 DUP3 ADD MSTORE ADD MSTORE PUSH1 0x1 PUSH1 0x1 PUSH1 0xA0 SHL SUB NOT PUSH1 0x7 SLOAD AND OR OR PUSH1 0x7 SSTORE PUSH1 0x0 JUMPDEST PUSH1 0x10 DUP2 LT ISZERO PUSH2 0x2C06 JUMPI DUP1 PUSH1 0x1 PUSH1 0x1 PUSH1 0xA0 SHL SUB PUSH2 0x2A11 PUSH1 0x1 SWAP4 DUP6 PUSH2 0x2F04 JUMP JUMPDEST MLOAD AND PUSH2 0x2A1E JUMPI JUMPDEST ADD PUSH2 0x29F3 JUMP JUMPDEST PUSH2 0x2C01 PUSH1 0x40 MLOAD PUSH2 0x2A2D DUP2 PUSH2 0x2E31 JUMP JUMPDEST DUP4 DUP2 MSTORE PUSH1 0x0 PUSH1 0x20 DUP3 ADD MSTORE PUSH1 0x0 PUSH1 0x40 DUP3 ADD MSTORE PUSH1 0x0 PUSH1 0x60 DUP3 ADD MSTORE PUSH1 0x0 PUSH1 0x80 DUP3 ADD MSTORE PUSH1 0x0 PUSH1 0xA0 DUP3 ADD MSTORE PUSH1 0x1 PUSH1 0x1 PUSH1 0x60 SHL SUB PUSH1 0xC0 DUP3 ADD MSTORE PUSH1 0x0 PUSH1 0xE0 DUP3 ADD MSTORE PUSH1 0x0 PUSH2 0x100 DUP3 ADD MSTORE PUSH1 0x8 PUSH2 0x120 DUP3 ADD MSTORE PUSH1 0x5 PUSH2 0x140 DUP3 ADD MSTORE PUSH1 0x50 PUSH2 0x160 DUP3 ADD MSTORE PUSH1 0x1 PUSH1 0x1 PUSH1 0xA0 SHL SUB PUSH2 0x2A99 DUP5 DUP8 PUSH2 0x2F04 JUMP JUMPDEST MLOAD AND PUSH1 0x0 MSTORE PUSH1 0x0 PUSH1 0x20 MSTORE PUSH1 0xFF PUSH2 0x160 PUSH1 0x3 PUSH1 0x40 PUSH1 0x0 KECCAK256 DUP5 MLOAD ISZERO ISZERO DUP5 DUP1 NOT DUP4 SLOAD AND SWAP2 AND OR DUP2 SSTORE PUSH2 0x2AE1 PUSH1 0x20 DUP7 ADD MLOAD ISZERO ISZERO DUP3 SWAP1 PUSH2 0xFF00 DUP3 SLOAD SWAP2 ISZERO ISZERO PUSH1 0x8 SHL AND SWAP1 PUSH2 0xFF00 NOT AND OR SWAP1 SSTORE JUMP JUMPDEST PUSH1 0x40 DUP6 ADD MLOAD DUP2 SLOAD PUSH22 0xFFFFFFFFFFFFFFFFFFFFFFFFFFFFFFFFFFFFFFFF0000 PUSH1 0x10 SWAP3 SWAP1 SWAP3 SHL SWAP2 SWAP1 SWAP2 AND PUSH22 0xFFFFFFFFFFFFFFFFFFFFFFFFFFFFFFFFFFFFFFFF0000 NOT SWAP1 SWAP2 AND OR DUP2 SSTORE PUSH1 0x60 DUP1 DUP7 ADD MLOAD DUP10 DUP4 ADD DUP1 SLOAD PUSH1 0x80 DUP10 ADD MLOAD PUSH12 0xFFFFFFFFFFFFFFFFFFFFFFFF PUSH1 0x60 SHL SWAP1 DUP6 SHL DUP2 AND PUSH1 0x1 PUSH1 0x1 PUSH1 0x60 SHL SUB SWAP5 DUP6 AND PUSH1 0x1 PUSH1 0x1 PUSH1 0xC0 SHL SUB NOT SWAP1 SWAP4 AND SWAP3 SWAP1 SWAP3 OR SWAP2 SWAP1 SWAP2 OR SWAP1 SWAP2 SSTORE PUSH1 0xA0 DUP9 ADD MLOAD PUSH1 0xC0 DUP1 DUP11 ADD MLOAD PUSH1 0xE0 DUP1 DUP13 ADD MLOAD PUSH2 0x100 DUP14 ADD MLOAD PUSH32 0xFFFFFFFF00000000000000000000000000000000000000000000000000000000 SWAP3 SHL SWAP2 SWAP1 SWAP2 AND SWAP3 SHL PUSH4 0xFFFFFFFF PUSH1 0xC0 SHL AND SWAP3 SWAP1 SWAP5 AND SWAP4 SWAP1 SWAP5 SHL SWAP1 SWAP2 AND SWAP2 SWAP1 SWAP2 OR OR OR PUSH1 0x2 DUP3 ADD SSTORE PUSH2 0x120 DUP6 ADD MLOAD SWAP2 ADD DUP1 SLOAD PUSH2 0x140 DUP7 ADD MLOAD PUSH2 0xFF00 SWAP1 DUP7 AND PUSH1 0x8 SHL AND SWAP3 DUP6 AND DUP6 NOT SWAP1 SWAP2 AND OR PUSH2 0xFF00 NOT AND SWAP2 SWAP1 SWAP2 OR DUP2 SSTORE SWAP3 PUSH2 0x1D43 JUMP JUMPDEST PUSH2 0x2A18 JUMP JUMPDEST PUSH1 0xFF DUP4 PUSH1 0x40 SHR AND ISZERO PUSH2 0x2C14 JUMPI STOP JUMPDEST PUSH9 0xFF0000000000000000 NOT PUSH32 0xF0C57E16840DF040F15088DC2F81FE391C3923BEC73E23A9662EFC9C229C6A00 SLOAD AND PUSH32 0xF0C57E16840DF040F15088DC2F81FE391C3923BEC73E23A9662EFC9C229C6A00 SSTORE PUSH32 0xC7F505B2F371AE2175EE4913F4499E1F2633A7B5936321EED1CDAEB6115181D2 PUSH1 0x20 PUSH1 0x40 MLOAD PUSH1 0x1 DUP2 MSTORE LOG1 STOP JUMPDEST PUSH1 0x1 SWAP1 PUSH1 0x20 PUSH1 0x1 PUSH1 0x1 PUSH1 0xA0 SHL SUB DUP5 MLOAD AND SWAP4 ADD SWAP3 DUP2 PUSH1 0xA ADD SSTORE ADD PUSH2 0x225F JUMP JUMPDEST PUSH9 0xFFFFFFFFFFFFFFFFFF NOT DUP6 AND PUSH9 0x10000000000000001 OR PUSH32 0xF0C57E16840DF040F15088DC2F81FE391C3923BEC73E23A9662EFC9C229C6A00 SSTORE PUSH2 0x21DB JUMP JUMPDEST PUSH1 0x4 PUSH1 0x40 MLOAD PUSH32 0xF92EE8A900000000000000000000000000000000000000000000000000000000 DUP2 MSTORE REVERT JUMPDEST SWAP1 POP ISZERO DUP6 PUSH2 0x218F JUMP JUMPDEST ADDRESS EXTCODESIZE ISZERO SWAP2 POP PUSH2 0x2187 JUMP JUMPDEST PUSH1 0x40 DUP7 SWAP1 SHR PUSH1 0xFF AND ISZERO SWAP2 POP PUSH2 0x217D JUMP JUMPDEST DUP3 CALLDATALOAD PUSH1 0x1 PUSH1 0x1 PUSH1 0xA0 SHL SUB DUP2 AND DUP2 SUB PUSH2 0x1B4 JUMPI DUP2 MSTORE PUSH1 0x20 SWAP3 DUP4 ADD SWAP3 ADD PUSH2 0x2145 JUMP JUMPDEST CALLVALUE PUSH2 0x1B4 JUMPI PUSH1 0x40 CALLDATASIZE PUSH1 0x3 NOT ADD SLT PUSH2 0x1B4 JUMPI PUSH2 0x2D74 PUSH2 0x2DB5 JUMP JUMPDEST PUSH1 0x24 CALLDATALOAD SWAP1 PUSH1 0x1 PUSH1 0x1 PUSH1 0xA0 SHL SUB DUP1 SWAP2 AND PUSH1 0x0 MSTORE PUSH1 0x2 PUSH1 0x20 MSTORE PUSH1 0x40 PUSH1 0x0 KECCAK256 DUP1 SLOAD DUP4 LT ISZERO PUSH2 0x1B4 JUMPI PUSH1 0x20 SWAP3 PUSH2 0x2DA5 SWAP2 PUSH2 0x2DCB JUMP JUMPDEST SWAP2 SWAP1 SLOAD PUSH1 0x40 MLOAD SWAP3 PUSH1 0x3 SHL SHR AND DUP2 MSTORE RETURN JUMPDEST PUSH1 0x4 CALLDATALOAD SWAP1 PUSH1 0x1 PUSH1 0x1 PUSH1 0xA0 SHL SUB DUP3 AND DUP3 SUB PUSH2 0x1B4 JUMPI JUMP JUMPDEST DUP1 SLOAD DUP3 LT ISZERO PUSH2 0x2DE3 JUMPI PUSH1 0x0 MSTORE PUSH1 0x20 PUSH1 0x0 KECCAK256 ADD SWAP1 PUSH1 0x0 SWAP1 JUMP JUMPDEST PUSH4 0x4E487B71 PUSH1 0xE0 SHL PUSH1 0x0 MSTORE PUSH1 0x32 PUSH1 0x4 MSTORE PUSH1 0x24 PUSH1 0x0 REVERT JUMPDEST PUSH1 0xE0 DUP2 ADD SWAP1 DUP2 LT PUSH8 0xFFFFFFFFFFFFFFFF DUP3 GT OR PUSH2 0x1FCC JUMPI PUSH1 0x40 MSTORE JUMP JUMPDEST PUSH1 0x60 DUP2 ADD SWAP1 DUP2 LT PUSH8 0xFFFFFFFFFFFFFFFF DUP3 GT OR PUSH2 0x1FCC JUMPI PUSH1 0x40 MSTORE JUMP JUMPDEST PUSH2 0x180 DUP2 ADD SWAP1 DUP2 LT PUSH8 0xFFFFFFFFFFFFFFFF DUP3 GT OR PUSH2 0x1FCC JUMPI PUSH1 0x40 MSTORE JUMP JUMPDEST PUSH1 0x40 DUP2 ADD SWAP1 DUP2 LT PUSH8 0xFFFFFFFFFFFFFFFF DUP3 GT OR PUSH2 0x1FCC JUMPI PUSH1 0x40 MSTORE JUMP JUMPDEST PUSH2 0x3C0 DUP2 ADD SWAP1 DUP2 LT PUSH8 0xFFFFFFFFFFFFFFFF DUP3 GT OR PUSH2 0x1FCC JUMPI PUSH1 0x40 MSTORE JUMP JUMPDEST SWAP1 PUSH1 0x1F DUP1 NOT SWAP2 ADD AND DUP2 ADD SWAP1 DUP2 LT PUSH8 0xFFFFFFFFFFFFFFFF DUP3 GT OR PUSH2 0x1FCC JUMPI PUSH1 0x40 MSTORE JUMP JUMPDEST PUSH1 0x24 CALLDATALOAD SWAP1 PUSH1 0xFF DUP3 AND DUP3 SUB PUSH2 0x1B4 JUMPI JUMP JUMPDEST PUSH1 0x4 CALLDATALOAD SWAP1 PUSH1 0xFF DUP3 AND DUP3 SUB PUSH2 0x1B4 JUMPI JUMP JUMPDEST PUSH1 0x24 CALLDATALOAD SWAP1 DUP2 ISZERO ISZERO DUP3 SUB PUSH2 0x1B4 JUMPI JUMP JUMPDEST PUSH8 0xFFFFFFFFFFFFFFFF DUP2 GT PUSH2 0x1FCC JUMPI PUSH1 0x1F ADD PUSH1 0x1F NOT AND PUSH1 0x20 ADD SWAP1 JUMP JUMPDEST PUSH1 0x1E DUP3 LT ISZERO PUSH2 0x2DE3 JUMPI ADD SWAP1 PUSH1 0x0 SWAP1 JUMP JUMPDEST SWAP1 PUSH1 0x10 DUP2 LT ISZERO PUSH2 0x2DE3 JUMPI PUSH1 0x5 SHL ADD SWAP1 JUMP JUMPDEST ISZERO PUSH2 0x2F1C JUMPI JUMP JUMPDEST PUSH1 0x64 PUSH1 0x40 MLOAD PUSH3 0x461BCD PUSH1 0xE5 SHL DUP2 MSTORE PUSH1 0x20 PUSH1 0x4 DUP3 ADD MSTORE PUSH1 0xE PUSH1 0x24 DUP3 ADD MSTORE PUSH32 0x4D45562070726F74656374696F6E000000000000000000000000000000000000 PUSH1 0x44 DUP3 ADD MSTORE REVERT JUMPDEST SWAP1 DUP2 PUSH1 0x20 SWAP2 SUB SLT PUSH2 0x1B4 JUMPI MLOAD DUP1 ISZERO ISZERO DUP2 SUB PUSH2 0x1B4 JUMPI SWAP1 JUMP JUMPDEST ISZERO PUSH2 0x2F7F JUMPI JUMP JUMPDEST PUSH1 0x64 PUSH1 0x40 MLOAD PUSH3 0x461BCD PUSH1 0xE5 SHL DUP2 MSTORE PUSH1 0x20 PUSH1 0x4 DUP3 ADD MSTORE PUSH1 0xE PUSH1 0x24 DUP3 ADD MSTORE PUSH32 0x4E6F7420617574686F72697A6564000000000000000000000000000000000000 PUSH1 0x44 DUP3 ADD MSTORE REVERT JUMPDEST SWAP2 SWAP1 SWAP2 PUSH4 0xFFFFFFFF DUP1 DUP1 SWAP5 AND SWAP2 AND ADD SWAP2 DUP3 GT PUSH2 0x59E JUMPI JUMP JUMPDEST SWAP2 SWAP1 SWAP2 PUSH1 0x1 PUSH1 0x1 PUSH1 0x60 SHL SUB DUP1 DUP1 SWAP5 AND SWAP2 AND ADD SWAP2 DUP3 GT PUSH2 0x59E JUMPI JUMP JUMPDEST SWAP2 SWAP1 SWAP2 PUSH1 0x1 PUSH1 0x1 PUSH1 0x60 SHL SUB DUP1 DUP1 SWAP5 AND SWAP2 AND MUL SWAP2 DUP3 AND SWAP2 DUP3 SUB PUSH2 0x59E JUMPI JUMP JUMPDEST PUSH1 0x1 PUSH1 0x1 PUSH1 0x60 SHL SUB SWAP2 DUP3 AND SWAP1 DUP3 AND SUB SWAP2 SWAP1 DUP3 GT PUSH2 0x59E JUMPI JUMP JUMPDEST PUSH1 0x1 PUSH1 0x1 PUSH1 0xA0 SHL SUB DUP1 SWAP2 AND SWAP1 DUP2 ISZERO PUSH2 0x309A JUMPI PUSH32 0x9016D09D72D40FDAE2FD8CEAC6B6234C7706214FD39C1CD1E609A0528C199300 DUP1 SLOAD SWAP1 DUP4 PUSH1 0x1 PUSH1 0x1 PUSH1 0xA0 SHL SUB NOT DUP4 AND OR SWAP1 SSTORE AND PUSH32 0x8BE0079C531659141344CD1FD0A4F28419497F9722A3DAAFE3B4186F6B6457E0 PUSH1 0x0 DUP1 LOG3 JUMP JUMPDEST PUSH1 0x24 PUSH1 0x40 MLOAD PUSH32 0x1E4FBDF700000000000000000000000000000000000000000000000000000000 DUP2 MSTORE PUSH1 0x0 PUSH1 0x4 DUP3 ADD MSTORE REVERT JUMPDEST PUSH32 0x9B779B17422D0DF92223018B32B4D1FA46E071723D6817E2486D003BECC55F00 PUSH1 0x2 DUP2 SLOAD EQ PUSH2 0x30FB JUMPI PUSH1 0x2 SWAP1 SSTORE JUMP JUMPDEST PUSH1 0x4 PUSH1 0x40 MLOAD PUSH32 0x3EE5AEB500000000000000000000000000000000000000000000000000000000 DUP2 MSTORE REVERT JUMPDEST PUSH1 0xFF PUSH32 0xCD5ED15C6E187E77E9AEE88184C21F4F2182AB5827CB3B7E07FBEDCD63F03300 SLOAD AND PUSH2 0x3150 JUMPI JUMP JUMPDEST PUSH1 0x4 PUSH1 0x40 MLOAD PUSH32 0xD93C066500000000000000000000000000000000000000000000000000000000 DUP2 MSTORE REVERT JUMPDEST PUSH1 0xFF AND PUSH1 0x0 MSTORE PUSH1 0x20 PUSH1 0x1 DUP2 MSTORE PUSH1 0x1 PUSH1 0x1 PUSH1 0x60 SHL SUB PUSH1 0x40 PUSH1 0x0 KECCAK256 SLOAD AND SWAP2 PUSH1 0x0 EQ PUSH2 0x3266 JUMPI PUSH1 0x0 DUP2 PUSH1 0x1 PUSH1 0x1 PUSH1 0xA0 SHL SUB PUSH1 0x8 SLOAD AND PUSH1 0x64 PUSH1 0x40 MLOAD DUP1 SWAP5 DUP2 SWAP4 PUSH32 0x23B872DD00000000000000000000000000000000000000000000000000000000 DUP4 MSTORE CALLER PUSH1 0x4 DUP5 ADD MSTORE ADDRESS PUSH1 0x24 DUP5 ADD MSTORE DUP9 PUSH1 0x44 DUP5 ADD MSTORE GAS CALL SWAP1 DUP2 ISZERO PUSH2 0x482 JUMPI PUSH1 0x0 SWAP2 PUSH2 0x3249 JUMPI JUMPDEST POP ISZERO PUSH2 0x3205 JUMPI POP SWAP1 JUMP JUMPDEST PUSH1 0x64 SWAP1 PUSH1 0x40 MLOAD SWAP1 PUSH3 0x461BCD PUSH1 0xE5 SHL DUP3 MSTORE PUSH1 0x4 DUP3 ADD MSTORE PUSH1 0x14 PUSH1 0x24 DUP3 ADD MSTORE PUSH32 0x55534454207472616E73666572206661696C6564000000000000000000000000 PUSH1 0x44 DUP3 ADD MSTORE REVERT JUMPDEST PUSH2 0x3260 SWAP2 POP DUP3 RETURNDATASIZE DUP5 GT PUSH2 0x19EA JUMPI PUSH2 0x19E2 DUP2 DUP4 PUSH2 0x2E87 JUMP JUMPDEST CODESIZE PUSH2 0x31FB JUMP JUMPDEST PUSH7 0x2386F26FC10000 CALLVALUE LT PUSH2 0x3278 JUMPI POP SWAP1 JUMP JUMPDEST PUSH1 0x64 SWAP1 PUSH1 0x40 MLOAD SWAP1 PUSH3 0x461BCD PUSH1 0xE5 SHL DUP3 MSTORE PUSH1 0x4 DUP3 ADD MSTORE PUSH1 0x19 PUSH1 0x24 DUP3 ADD MSTORE PUSH32 0x4D696E696D756D20302E303120424E4220726571756972656400000000000000 PUSH1 0x44 DUP3 ADD MSTORE REVERT JUMPDEST PUSH1 0x1 PUSH1 0x1 PUSH1 0xA0 SHL SUB DUP1 DUP4 AND PUSH1 0x0 MSTORE PUSH1 0x4 PUSH1 0x20 MSTORE DUP1 PUSH1 0x40 PUSH1 0x0 KECCAK256 SLOAD AND ISZERO PUSH1 0x0 EQ PUSH2 0x331D JUMPI POP PUSH2 0x3300 PUSH2 0x331B SWAP3 PUSH1 0x1 PUSH1 0x1 PUSH1 0xA0 SHL SUB AND PUSH1 0x0 MSTORE PUSH1 0x4 PUSH1 0x20 MSTORE PUSH1 0x40 PUSH1 0x0 KECCAK256 SWAP1 JUMP JUMPDEST SWAP1 PUSH1 0x1 PUSH1 0x1 PUSH1 0xA0 SHL SUB AND PUSH1 0x1 PUSH1 0x1 PUSH1 0xA0 SHL SUB NOT DUP3 SLOAD AND OR SWAP1 SSTORE JUMP JUMPDEST JUMP JUMPDEST DUP1 PUSH1 0x1 PUSH2 0x333D DUP6 PUSH1 0x1 PUSH1 0x1 PUSH1 0xA0 SHL SUB AND PUSH1 0x0 MSTORE PUSH1 0x4 PUSH1 0x20 MSTORE PUSH1 0x40 PUSH1 0x0 KECCAK256 SWAP1 JUMP JUMPDEST ADD SLOAD AND PUSH2 0x3383 JUMPI POP PUSH1 0x1 PUSH2 0x3367 PUSH2 0x331B SWAP4 PUSH1 0x1 PUSH1 0x1 PUSH1 0xA0 SHL SUB AND PUSH1 0x0 MSTORE PUSH1 0x4 PUSH1 0x20 MSTORE PUSH1 0x40 PUSH1 0x0 KECCAK256 SWAP1 JUMP JUMPDEST ADD SWAP1 PUSH1 0x1 PUSH1 0x1 PUSH1 0xA0 SHL SUB AND PUSH1 0x1 PUSH1 0x1 PUSH1 0xA0 SHL SUB NOT DUP3 SLOAD AND OR SWAP1 SSTORE JUMP JUMPDEST PUSH2 0x33A3 PUSH2 0x331B SWAP4 PUSH1 0x1 PUSH1 0x1 PUSH1 0xA0 SHL SUB AND PUSH1 0x0 MSTORE PUSH1 0x4 PUSH1 0x20 MSTORE PUSH1 0x40 PUSH1 0x0 KECCAK256 SWAP1 JUMP JUMPDEST SLOAD AND SWAP1 PUSH2 0x32BC JUMP JUMPDEST SWAP3 SWAP1 SWAP2 PUSH1 0xFF AND PUSH1 0x0 MSTORE PUSH1 0x1 PUSH1 0x20 MSTORE PUSH1 0x40 PUSH1 0x0 KECCAK256 SWAP1 PUSH2 0xFFFF PUSH1 0x40 MLOAD SWAP3 PUSH2 0x33CF DUP5 PUSH2 0x2DF9 JUMP JUMPDEST SLOAD PUSH1 0x1 PUSH1 0x1 PUSH1 0x60 SHL SUB DUP2 AND DUP5 MSTORE DUP2 DUP2 PUSH1 0x60 SHR AND PUSH1 0x20 DUP6 ADD MSTORE DUP2 DUP2 PUSH1 0x70 SHR AND PUSH1 0x40 DUP6 ADD MSTORE DUP2 DUP2 PUSH1 0x80 SHR AND PUSH1 0x60 DUP6 ADD MSTORE DUP2 DUP2 PUSH1 0x90 SHR AND PUSH1 0x80 DUP6 ADD MSTORE DUP2 DUP2 PUSH1 0xA0 SHR AND PUSH1 0xA0 DUP6 ADD MSTORE PUSH1 0xB0 SHR AND PUSH1 0xC0 DUP4 ADD MSTORE PUSH1 0x1 PUSH1 0x1 PUSH1 0xA0 SHL SUB DUP5 AND PUSH1 0x0 MSTORE PUSH1 0x0 PUSH1 0x20 MSTORE PUSH1 0x1 PUSH1 0x1 PUSH1 0xA0 SHL SUB PUSH1 0x40 PUSH1 0x0 KECCAK256 SLOAD PUSH1 0x10 SHR AND PUSH2 0x38AE JUMPI JUMPDEST PUSH2 0xFFFF PUSH1 0x40 DUP4 ADD MLOAD AND SWAP4 PUSH1 0x1 PUSH1 0x1 PUSH1 0xA0 SHL SUB DUP2 AND PUSH1 0x0 MSTORE PUSH1 0x0 PUSH1 0x20 MSTORE PUSH1 0x1 PUSH1 0x1 PUSH1 0x60 SHL SUB PUSH2 0x2710 DUP2 PUSH2 0x3489 PUSH1 0x1 PUSH1 0x1 PUSH1 0xA0 SHL SUB PUSH1 0x40 PUSH1 0x0 KECCAK256 SLOAD PUSH1 0x10 SHR AND SWAP9 DUP9 PUSH2 0x2FF6 JUMP JUMPDEST AND DIV AND SWAP2 PUSH1 0x40 MLOAD SWAP4 DUP5 PUSH2 0x140 DUP2 ADD LT PUSH8 0xFFFFFFFFFFFFFFFF PUSH2 0x140 DUP8 ADD GT OR PUSH2 0x1FCC JUMPI PUSH2 0x140 DUP6 ADD PUSH1 0x40 MSTORE PUSH2 0x12C DUP6 MSTORE PUSH1 0x64 PUSH1 0x20 DUP7 ADD MSTORE PUSH1 0x64 PUSH1 0x40 DUP7 ADD MSTORE PUSH1 0x32 PUSH1 0x60 DUP7 ADD MSTORE PUSH1 0x32 PUSH1 0x80 DUP7 ADD MSTORE PUSH1 0x32 PUSH1 0xA0 DUP7 ADD MSTORE PUSH1 0x32 PUSH1 0xC0 DUP7 ADD MSTORE PUSH1 0x32 PUSH1 0xE0 DUP7 ADD MSTORE PUSH1 0x32 PUSH2 0x100 DUP7 ADD MSTORE PUSH1 0x32 PUSH2 0x120 DUP7 ADD MSTORE PUSH1 0x0 SWAP7 JUMPDEST PUSH1 0xA PUSH1 0xFF DUP10 AND LT DUP1 DUP1 PUSH2 0x389C JUMPI JUMPDEST ISZERO PUSH2 0x3683 JUMPI PUSH1 0x1 PUSH1 0x1 PUSH1 0xA0 SHL SUB DUP3 AND PUSH1 0x0 MSTORE PUSH1 0x0 PUSH1 0x20 MSTORE PUSH1 0x40 PUSH1 0x0 KECCAK256 SLOAD PUSH1 0xFF DUP2 AND SWAP1 DUP2 PUSH2 0x3674 JUMPI JUMPDEST POP PUSH2 0x3573 JUMPI JUMPDEST POP PUSH1 0x1 PUSH1 0x1 PUSH1 0xA0 SHL SUB AND PUSH1 0x0 MSTORE PUSH1 0x0 PUSH1 0x20 MSTORE PUSH1 0xFF PUSH1 0x1 PUSH1 0x1 PUSH1 0xA0 SHL SUB PUSH1 0x40 PUSH1 0x0 KECCAK256 SLOAD PUSH1 0x10 SHR AND SWAP8 AND PUSH1 0xFF DUP2 EQ PUSH2 0x59E JUMPI PUSH1 0x1 ADD SWAP7 PUSH2 0x34FE JUMP JUMPDEST ISZERO PUSH2 0x2DE3 JUMPI PUSH1 0x1 PUSH1 0x1 PUSH1 0xA0 SHL SUB SWAP1 PUSH2 0x3E8 PUSH1 0x1 PUSH1 0x1 PUSH1 0x60 SHL SUB PUSH2 0x35A4 PUSH2 0xFFFF PUSH2 0x1FE0 DUP14 PUSH1 0x5 SHL AND DUP12 ADD MLOAD AND DUP10 PUSH2 0x2FF6 JUMP JUMPDEST AND DIV DUP3 DUP3 AND PUSH1 0x0 MSTORE PUSH1 0x0 PUSH1 0x20 MSTORE PUSH1 0x40 PUSH1 0x0 KECCAK256 PUSH1 0x2 SWAP1 DUP2 DUP2 ADD SWAP1 DUP2 SLOAD SWAP1 PUSH1 0x1 PUSH1 0x1 PUSH1 0x60 SHL SUB DUP3 AND SWAP1 PUSH2 0x35D5 DUP7 DUP4 PUSH2 0x2FDB JUMP JUMPDEST PUSH1 0x1 PUSH1 0x1 PUSH1 0x60 SHL SUB DUP1 DUP6 PUSH1 0x60 SHR AND SWAP2 AND GT ISZERO PUSH2 0x35F8 JUMPI JUMPDEST POP POP POP POP POP POP SWAP1 PUSH2 0x353A JUMP JUMPDEST PUSH2 0x3627 DUP7 PUSH1 0x1 PUSH1 0x1 PUSH1 0x1 PUSH1 0x60 SHL SUB SWAP4 ADD SWAP4 DUP5 SLOAD SWAP5 DUP5 PUSH2 0x3619 DUP5 DUP3 DUP10 AND PUSH2 0x2FDB JUMP JUMPDEST AND DUP6 NOT DUP1 SWAP8 AND OR SWAP1 SSTORE PUSH2 0x2FDB JUMP JUMPDEST AND SWAP2 AND OR SWAP1 SSTORE PUSH1 0x1 PUSH1 0x1 PUSH1 0x60 SHL SUB PUSH1 0x40 MLOAD SWAP3 AND DUP3 MSTORE PUSH1 0x20 DUP3 ADD MSTORE PUSH32 0x2C93B07003BBB07C4D91A84E6628CDE652FA94DE37E653365F64AE9B3517BFE3 PUSH1 0x40 DUP5 DUP5 AND SWAP3 LOG2 CODESIZE DUP1 DUP1 DUP1 DUP1 DUP1 PUSH2 0x35EC JUMP JUMPDEST PUSH1 0xFF SWAP2 POP PUSH1 0x8 SHR AND ISZERO CODESIZE PUSH2 0x3534 JUMP JUMPDEST POP POP SWAP5 SWAP4 POP SWAP5 POP SWAP1 POP PUSH1 0x1E PUSH1 0x1 PUSH1 0x1 PUSH1 0x60 SHL SUB PUSH2 0x2710 DUP2 PUSH2 0x36AC PUSH2 0xFFFF PUSH1 0x60 DUP10 ADD MLOAD AND DUP8 PUSH2 0x2FF6 JUMP JUMPDEST AND DIV AND DIV PUSH1 0x0 JUMPDEST PUSH1 0x1E PUSH1 0xFF DUP3 AND LT PUSH2 0x3762 JUMPI POP POP POP PUSH2 0x2710 PUSH1 0x1 PUSH1 0x1 PUSH1 0x60 SHL SUB PUSH2 0x373E DUP2 SWAP4 PUSH2 0xFFFF PUSH1 0xC0 DUP5 DUP7 DUP2 PUSH2 0x36E9 DUP6 PUSH1 0x80 DUP14 ADD MLOAD AND DUP8 PUSH2 0x2FF6 JUMP JUMPDEST AND DIV AND SWAP8 DUP6 PUSH2 0x36FD PUSH1 0x5 SLOAD SWAP11 DUP3 DUP13 AND PUSH2 0x2FDB JUMP JUMPDEST AND DUP7 NOT DUP1 SWAP11 AND OR PUSH1 0x5 SSTORE DUP6 DUP8 DUP2 PUSH2 0x371A DUP7 PUSH1 0xA0 DUP7 ADD MLOAD AND DUP9 PUSH2 0x2FF6 JUMP JUMPDEST AND DIV AND DUP10 DUP8 PUSH2 0x372E PUSH1 0x6 SLOAD SWAP4 DUP3 DUP6 AND PUSH2 0x2FDB JUMP JUMPDEST AND SWAP2 AND OR PUSH1 0x6 SSTORE ADD MLOAD AND SWAP1 PUSH2 0x2FF6 JUMP JUMPDEST AND DIV AND SWAP1 PUSH1 0x1 PUSH1 0x1 PUSH1 0x60 SHL SUB PUSH2 0x3759 PUSH1 0x7 SLOAD SWAP4 DUP3 DUP6 AND PUSH2 0x2FDB JUMP JUMPDEST AND SWAP2 AND OR PUSH1 0x7 SSTORE JUMP JUMPDEST PUSH1 0x1 PUSH1 0xFF SWAP2 PUSH1 0x1 PUSH1 0x1 PUSH1 0xA0 SHL SUB DUP6 AND PUSH1 0x0 MSTORE PUSH1 0x3 DUP1 PUSH1 0x20 MSTORE DUP5 PUSH1 0x1 PUSH1 0x1 PUSH1 0xA0 SHL SUB PUSH2 0x3791 DUP5 PUSH1 0x40 PUSH1 0x0 KECCAK256 PUSH2 0x2EF4 JUMP JUMPDEST SWAP1 SLOAD SWAP1 DUP5 SHL SHR AND SWAP2 DUP3 ISZERO ISZERO DUP1 PUSH2 0x3885 JUMPI JUMPDEST DUP1 PUSH2 0x386A JUMPI JUMPDEST PUSH2 0x37B7 JUMPI JUMPDEST POP POP POP ADD AND PUSH2 0x36B3 JUMP JUMPDEST DUP3 PUSH1 0x0 MSTORE PUSH1 0x0 PUSH1 0x20 MSTORE PUSH1 0x40 PUSH1 0x0 KECCAK256 SWAP1 PUSH1 0x2 DUP3 ADD DUP1 SLOAD PUSH1 0x1 PUSH1 0x1 PUSH1 0x60 SHL SUB DUP2 AND PUSH2 0x37E0 DUP7 DUP3 PUSH2 0x2FDB JUMP JUMPDEST PUSH1 0x1 PUSH1 0x1 PUSH1 0x60 SHL SUB DUP1 DUP5 PUSH1 0x60 SHR AND SWAP2 AND GT ISZERO PUSH2 0x3800 JUMPI JUMPDEST POP POP POP POP PUSH2 0x37AD JUMP JUMPDEST PUSH1 0x1 PUSH1 0x1 PUSH1 0x60 SHL SUB PUSH2 0x3843 PUSH32 0x2C93B07003BBB07C4D91A84E6628CDE652FA94DE37E653365F64AE9B3517BFE3 SWAP8 DUP12 PUSH1 0x40 SWAP9 ADD SWAP4 DUP5 SLOAD SWAP5 DUP5 PUSH2 0x3619 DUP5 DUP3 DUP10 AND PUSH2 0x2FDB JUMP JUMPDEST AND SWAP2 AND OR SWAP1 SSTORE DUP2 MLOAD SWAP1 PUSH1 0x1 PUSH1 0x1 PUSH1 0x60 SHL SUB DUP10 AND DUP3 MSTORE PUSH1 0x20 DUP3 ADD MSTORE LOG2 CODESIZE DUP5 DUP2 DUP1 DUP1 DUP1 DUP1 PUSH2 0x37F7 JUMP JUMPDEST POP DUP3 PUSH1 0x0 MSTORE PUSH1 0x0 PUSH1 0x20 MSTORE DUP6 PUSH1 0x40 PUSH1 0x0 KECCAK256 SLOAD PUSH1 0x8 SHR AND ISZERO PUSH2 0x37A8 JUMP JUMPDEST POP DUP3 PUSH1 0x0 MSTORE PUSH1 0x0 PUSH1 0x20 MSTORE DUP6 PUSH1 0x40 PUSH1 0x0 KECCAK256 SLOAD AND PUSH2 0x37A2 JUMP JUMPDEST POP PUSH1 0x1 PUSH1 0x1 PUSH1 0xA0 SHL SUB DUP3 AND ISZERO ISZERO PUSH2 0x350C JUMP JUMPDEST PUSH1 0x1 PUSH1 0x1 PUSH1 0x60 SHL SUB PUSH2 0x2710 DUP2 PUSH2 0x38CC PUSH2 0xFFFF PUSH1 0x20 DUP8 ADD MLOAD AND DUP8 PUSH2 0x2FF6 JUMP JUMPDEST AND DIV AND PUSH1 0x1 PUSH1 0x1 PUSH1 0xA0 SHL SUB DUP6 AND PUSH1 0x0 MSTORE PUSH1 0x0 PUSH1 0x20 MSTORE PUSH1 0x1 PUSH1 0x1 PUSH1 0xA0 SHL SUB PUSH1 0x40 PUSH1 0x0 KECCAK256 SLOAD PUSH1 0x10 SHR AND SWAP1 DUP2 PUSH1 0x0 MSTORE PUSH1 0x40 PUSH1 0x0 KECCAK256 PUSH1 0x2 DUP2 ADD SWAP2 DUP3 SLOAD SWAP3 PUSH1 0x1 PUSH1 0x1 PUSH1 0x60 SHL SUB DUP5 AND SWAP4 PUSH2 0x391A DUP4 DUP7 PUSH2 0x2FDB JUMP JUMPDEST PUSH1 0x1 PUSH1 0x1 PUSH1 0x60 SHL SUB DUP1 DUP4 PUSH1 0x60 SHR AND SWAP2 AND GT ISZERO PUSH2 0x393C JUMPI JUMPDEST POP POP POP POP POP POP PUSH2 0x3445 JUMP JUMPDEST PUSH32 0x2C93B07003BBB07C4D91A84E6628CDE652FA94DE37E653365F64AE9B3517BFE3 SWAP5 PUSH1 0x1 PUSH1 0x1 PUSH1 0x60 SHL SUB PUSH2 0x3981 DUP6 PUSH1 0x1 PUSH1 0x40 SWAP9 ADD SWAP4 DUP5 SLOAD SWAP5 DUP5 PUSH2 0x3619 DUP5 DUP3 DUP10 AND PUSH2 0x2FDB JUMP JUMPDEST AND SWAP2 AND OR SWAP1 SSTORE DUP2 MLOAD SWAP1 DUP2 MSTORE PUSH1 0x1 PUSH1 0x20 DUP3 ADD MSTORE LOG2 CODESIZE DUP1 DUP1 DUP1 DUP1 DUP1 PUSH2 0x3931 JUMP JUMPDEST PUSH1 0x1 PUSH1 0x1 PUSH1 0xA0 SHL SUB PUSH32 0x9016D09D72D40FDAE2FD8CEAC6B6234C7706214FD39C1CD1E609A0528C199300 SLOAD AND CALLER SUB PUSH2 0x39D2 JUMPI JUMP JUMPDEST PUSH1 0x24 PUSH1 0x40 MLOAD PUSH32 0x118CDAA700000000000000000000000000000000000000000000000000000000 DUP2 MSTORE CALLER PUSH1 0x4 DUP3 ADD MSTORE REVERT JUMPDEST PUSH1 0xFF PUSH1 0x1 SWAP2 AND ADD SWAP1 PUSH1 0xFF DUP3 GT PUSH2 0x59E JUMPI JUMP JUMPDEST PUSH1 0xFF PUSH32 0xF0C57E16840DF040F15088DC2F81FE391C3923BEC73E23A9662EFC9C229C6A00 SLOAD PUSH1 0x40 SHR AND ISZERO PUSH2 0x3A43 JUMPI JUMP JUMPDEST PUSH1 0x4 PUSH1 0x40 MLOAD PUSH32 0xD7E6BCF800000000000000000000000000000000000000000000000000000000 DUP2 MSTORE REVERT JUMPDEST SWAP1 PUSH2 0x3AAC JUMPI POP DUP1 MLOAD ISZERO PUSH2 0x3A82 JUMPI DUP1 MLOAD SWAP1 PUSH1 0x20 ADD REVERT JUMPDEST PUSH1 0x4 PUSH1 0x40 MLOAD PUSH32 0xD6BDA27500000000000000000000000000000000000000000000000000000000 DUP2 MSTORE REVERT JUMPDEST DUP2 MLOAD ISZERO DUP1 PUSH2 0x3AF7 JUMPI JUMPDEST PUSH2 0x3ABD JUMPI POP SWAP1 JUMP JUMPDEST PUSH1 0x24 SWAP1 PUSH1 0x1 PUSH1 0x1 PUSH1 0xA0 SHL SUB PUSH1 0x40 MLOAD SWAP2 PUSH32 0x9996B31500000000000000000000000000000000000000000000000000000000 DUP4 MSTORE AND PUSH1 0x4 DUP3 ADD MSTORE REVERT JUMPDEST POP DUP1 EXTCODESIZE ISZERO PUSH2 0x3AB5 JUMP INVALID LOG1 PUSH5 0x736F6C6343 STOP ADDMOD AND STOP EXP "},"methodIdentifiers":{"UPGRADE_INTERFACE_VERSION()":"ad3cb1cc","adminIds(uint256)":"55e14d22","binaryMatrix(address,uint256)":"ee0da086","blacklistUser(address,bool)":"2d052432","clubPool()":"cf7a7e64","directReferrals(address,uint256)":"05ad3935","distributePools()":"5dbc0297","emergencyWithdraw(uint256)":"5312ea8e","getBinaryMatrix(address)":"88f24e09","getDirectReferrals(address)":"d2c8e0e5","getPoolBalances()":"52375bb1","getUplineChain(address)":"b317d69d","getUserInfo(address)":"6386c1c7","helpPool()":"88d844f4","initialize(address,address,address[16])":"06defffb","leaderPool()":"6c2db77b","owner()":"8da5cb5b","packages(uint8)":"e4a1f4d1","paused()":"5c975abb","priceFeed()":"741bef1a","proxiableUUID()":"52d1902d","recoverUSDT(uint256)":"0ef5dcfd","register(address,uint8,bool)":"0e7bfadf","renounceOwnership()":"715018a6","transferOwnership(address)":"f2fde38b","updateUserRank(address,uint8)":"df76fe29","updateWithdrawalRate(address,uint8)":"dcbf7703","upgradePackage(uint8,bool)":"95979de6","upgradeToAndCall(address,bytes)":"4f1ef286","uplineChain(address,uint256)":"9740041e","usdt()":"2f48ab7d","users(address)":"a87430ba","withdraw(uint96)":"dee4dea0"}},"storageLayout":{"storage":[{"astId":1882,"contract":"contracts/OrphiCrowdFund.sol:OrphiCrowdFund","label":"users","offset":0,"slot":"0","type":"t_mapping(t_address,t_struct(User)1855_storage)"},{"astId":1887,"contract":"contracts/OrphiCrowdFund.sol:OrphiCrowdFund","label":"packages","offset":0,"slot":"1","type":"t_mapping(t_uint8,t_struct(Package)1870_storage)"},{"astId":1892,"contract":"contracts/OrphiCrowdFund.sol:OrphiCrowdFund","label":"directReferrals","offset":0,"slot":"2","type":"t_mapping(t_address,t_array(t_address)dyn_storage)"},{"astId":1898,"contract":"contracts/OrphiCrowdFund.sol:OrphiCrowdFund","label":"uplineChain","offset":0,"slot":"3","type":"t_mapping(t_address,t_array(t_address)30_storage)"},{"astId":1904,"contract":"contracts/OrphiCrowdFund.sol:OrphiCrowdFund","label":"binaryMatrix","offset":0,"slot":"4","type":"t_mapping(t_address,t_array(t_address)2_storage)"},{"astId":1907,"contract":"contracts/OrphiCrowdFund.sol:OrphiCrowdFund","label":"leaderPool","offset":0,"slot":"5","type":"t_struct(Pool)1877_storage"},{"astId":1910,"contract":"contracts/OrphiCrowdFund.sol:OrphiCrowdFund","label":"helpPool","offset":0,"slot":"6","type":"t_struct(Pool)1877_storage"},{"astId":1913,"contract":"contracts/OrphiCrowdFund.sol:OrphiCrowdFund","label":"clubPool","offset":0,"slot":"7","type":"t_struct(Pool)1877_storage"},{"astId":1916,"contract":"contracts/OrphiCrowdFund.sol:OrphiCrowdFund","label":"usdt","offset":0,"slot":"8","type":"t_contract(IERC20)1392"},{"astId":1919,"contract":"contracts/OrphiCrowdFund.sol:OrphiCrowdFund","label":"priceFeed","offset":0,"slot":"9","type":"t_contract(IPriceFeed)1820"},{"astId":1923,"contract":"contracts/OrphiCrowdFund.sol:OrphiCrowdFund","label":"adminIds","offset":0,"slot":"10","type":"t_array(t_address)16_storage"},{"astId":1931,"contract":"contracts/OrphiCrowdFund.sol:OrphiCrowdFund","label":"lastTxBlock","offset":0,"slot":"26","type":"t_uint256"}],"types":{"t_address":{"encoding":"inplace","label":"address","numberOfBytes":"20"},"t_array(t_address)16_storage":{"base":"t_address","encoding":"inplace","label":"address[16]","numberOfBytes":"512"},"t_array(t_address)2_storage":{"base":"t_address","encoding":"inplace","label":"address[2]","numberOfBytes":"64"},"t_array(t_address)30_storage":{"base":"t_address","encoding":"inplace","label":"address[30]","numberOfBytes":"960"},"t_array(t_address)dyn_storage":{"base":"t_address","encoding":"dynamic_array","label":"address[]","numberOfBytes":"32"},"t_bool":{"encoding":"inplace","label":"bool","numberOfBytes":"1"},"t_contract(IERC20)1392":{"encoding":"inplace","label":"contract IERC20","numberOfBytes":"20"},"t_contract(IPriceFeed)1820":{"encoding":"inplace","label":"contract IPriceFeed","numberOfBytes":"20"},"t_mapping(t_address,t_array(t_address)2_storage)":{"encoding":"mapping","key":"t_address","label":"mapping(address => address[2])","numberOfBytes":"32","value":"t_array(t_address)2_storage"},"t_mapping(t_address,t_array(t_address)30_storage)":{"encoding":"mapping","key":"t_address","label":"mapping(address => address[30])","numberOfBytes":"32","value":"t_array(t_address)30_storage"},"t_mapping(t_address,t_array(t_address)dyn_storage)":{"encoding":"mapping","key":"t_address","label":"mapping(address => address[])","numberOfBytes":"32","value":"t_array(t_address)dyn_storage"},"t_mapping(t_address,t_struct(User)1855_storage)":{"encoding":"mapping","key":"t_address","label":"mapping(address => struct OrphiCrowdFund.User)","numberOfBytes":"32","value":"t_struct(User)1855_storage"},"t_mapping(t_uint8,t_struct(Package)1870_storage)":{"encoding":"mapping","key":"t_uint8","label":"mapping(uint8 => struct OrphiCrowdFund.Package)","numberOfBytes":"32","value":"t_struct(Package)1870_storage"},"t_struct(Package)1870_storage":{"encoding":"inplace","label":"struct OrphiCrowdFund.Package","members":[{"astId":1857,"contract":"contracts/OrphiCrowdFund.sol:OrphiCrowdFund","label":"price","offset":0,"slot":"0","type":"t_uint96"},{"astId":1859,"contract":"contracts/OrphiCrowdFund.sol:OrphiCrowdFund","label":"directBonus","offset":12,"slot":"0","type":"t_uint16"},{"astId":1861,"contract":"contracts/OrphiCrowdFund.sol:OrphiCrowdFund","label":"levelBonus","offset":14,"slot":"0","type":"t_uint16"},{"astId":1863,"contract":"contracts/OrphiCrowdFund.sol:OrphiCrowdFund","label":"uplineBonus","offset":16,"slot":"0","type":"t_uint16"},{"astId":1865,"contract":"contracts/OrphiCrowdFund.sol:OrphiCrowdFund","label":"leaderBonus","offset":18,"slot":"0","type":"t_uint16"},{"astId":1867,"contract":"contracts/OrphiCrowdFund.sol:OrphiCrowdFund","label":"helpBonus","offset":20,"slot":"0","type":"t_uint16"},{"astId":1869,"contract":"contracts/OrphiCrowdFund.sol:OrphiCrowdFund","label":"clubBonus","offset":22,"slot":"0","type":"t_uint16"}],"numberOfBytes":"32"},"t_struct(Pool)1877_storage":{"encoding":"inplace","label":"struct OrphiCrowdFund.Pool","members":[{"astId":1872,"contract":"contracts/OrphiCrowdFund.sol:OrphiCrowdFund","label":"balance","offset":0,"slot":"0","type":"t_uint96"},{"astId":1874,"contract":"contracts/OrphiCrowdFund.sol:OrphiCrowdFund","label":"lastDistribution","offset":12,"slot":"0","type":"t_uint32"},{"astId":1876,"contract":"contracts/OrphiCrowdFund.sol:OrphiCrowdFund","label":"interval","offset":16,"slot":"0","type":"t_uint32"}],"numberOfBytes":"32"},"t_struct(User)1855_storage":{"encoding":"inplace","label":"struct OrphiCrowdFund.User","members":[{"astId":1832,"contract":"contracts/OrphiCrowdFund.sol:OrphiCrowdFund","label":"isRegistered","offset":0,"slot":"0","type":"t_bool"},{"astId":1834,"contract":"contracts/OrphiCrowdFund.sol:OrphiCrowdFund","label":"isBlacklisted","offset":1,"slot":"0","type":"t_bool"},{"astId":1836,"contract":"contracts/OrphiCrowdFund.sol:OrphiCrowdFund","label":"referrer","offset":2,"slot":"0","type":"t_address"},{"astId":1838,"contract":"contracts/OrphiCrowdFund.sol:OrphiCrowdFund","label":"balance","offset":0,"slot":"1","type":"t_uint96"},{"astId":1840,"contract":"contracts/OrphiCrowdFund.sol:OrphiCrowdFund","label":"totalInvestment","offset":12,"slot":"1","type":"t_uint96"},{"astId":1842,"contract":"contracts/OrphiCrowdFund.sol:OrphiCrowdFund","label":"totalEarnings","offset":0,"slot":"2","type":"t_uint96"},{"astId":1844,"contract":"contracts/OrphiCrowdFund.sol:OrphiCrowdFund","label":"earningsCap","offset":12,"slot":"2","type":"t_uint96"},{"astId":1846,"contract":"contracts/OrphiCrowdFund.sol:OrphiCrowdFund","label":"directReferrals","offset":24,"slot":"2","type":"t_uint32"},{"astId":1848,"contract":"contracts/OrphiCrowdFund.sol:OrphiCrowdFund","label":"teamSize","offset":28,"slot":"2","type":"t_uint32"},{"astId":1850,"contract":"contracts/OrphiCrowdFund.sol:OrphiCrowdFund","label":"packageLevel","offset":0,"slot":"3","type":"t_uint8"},{"astId":1852,"contract":"contracts/OrphiCrowdFund.sol:OrphiCrowdFund","label":"rank","offset":1,"slot":"3","type":"t_uint8"},{"astId":1854,"contract":"contracts/OrphiCrowdFund.sol:OrphiCrowdFund","label":"withdrawalRate","offset":2,"slot":"3","type":"t_uint8"}],"numberOfBytes":"128"},"t_uint16":{"encoding":"inplace","label":"uint16","numberOfBytes":"2"},"t_uint256":{"encoding":"inplace","label":"uint256","numberOfBytes":"32"},"t_uint32":{"encoding":"inplace","label":"uint32","numberOfBytes":"4"},"t_uint8":{"encoding":"inplace","label":"uint8","numberOfBytes":"1"},"t_uint96":{"encoding":"inplace","label":"uint96","numberOfBytes":"12"}}}}}}