{"contracts/mocks/MockPriceFeed.sol":{"MockPriceFeed":{"abi":[{"inputs":[],"name":"latestRoundData","outputs":[{"internalType":"uint80","name":"roundId","type":"uint80"},{"internalType":"int256","name":"answer","type":"int256"},{"internalType":"uint256","name":"startedAt","type":"uint256"},{"internalType":"uint256","name":"updatedAt","type":"uint256"},{"internalType":"uint80","name":"answeredInRound","type":"uint80"}],"stateMutability":"view","type":"function"},{"inputs":[{"internalType":"int256","name":"_price","type":"int256"}],"name":"setPrice","outputs":[],"stateMutability":"nonpayable","type":"function"}],"evm":{"bytecode":{"linkReferences":{},"object":"6080806040523461001e576406fc23ac00600055608e90816100248239f35b600080fdfe6080806040526004361015601257600080fd5b600090813560e01c8063f7a308061460665763feaf968c14603257600080fd5b346062578160031936011260625760a0915460018252602082015242604082015242606082015260016080820152f35b5080fd5b8234607e576020366003190112607e57600435815580f35b80fdfea164736f6c6343000816000a","opcodes":"PUSH1 0x80 DUP1 PUSH1 0x40 MSTORE CALLVALUE PUSH2 0x1E JUMPI PUSH5 0x6FC23AC00 PUSH1 0x0 SSTORE PUSH1 0x8E SWAP1 DUP2 PUSH2 0x24 DUP3 CODECOPY RETURN JUMPDEST PUSH1 0x0 DUP1 REVERT INVALID PUSH1 0x80 DUP1 PUSH1 0x40 MSTORE PUSH1 0x4 CALLDATASIZE LT ISZERO PUSH1 0x12 JUMPI PUSH1 0x0 DUP1 REVERT JUMPDEST PUSH1 0x0 SWAP1 DUP2 CALLDATALOAD PUSH1 0xE0 SHR DUP1 PUSH4 0xF7A30806 EQ PUSH1 0x66 JUMPI PUSH4 0xFEAF968C EQ PUSH1 0x32 JUMPI PUSH1 0x0 DUP1 REVERT JUMPDEST CALLVALUE PUSH1 0x62 JUMPI DUP2 PUSH1 0x3 NOT CALLDATASIZE ADD SLT PUSH1 0x62 JUMPI PUSH1 0xA0 SWAP2 SLOAD PUSH1 0x1 DUP3 MSTORE PUSH1 0x20 DUP3 ADD MSTORE TIMESTAMP PUSH1 0x40 DUP3 ADD MSTORE TIMESTAMP PUSH1 0x60 DUP3 ADD MSTORE PUSH1 0x1 PUSH1 0x80 DUP3 ADD MSTORE RETURN JUMPDEST POP DUP1 REVERT JUMPDEST DUP3 CALLVALUE PUSH1 0x7E JUMPI PUSH1 0x20 CALLDATASIZE PUSH1 0x3 NOT ADD SLT PUSH1 0x7E JUMPI PUSH1 0x4 CALLDATALOAD DUP2 SSTORE DUP1 RETURN JUMPDEST DUP1 REVERT INVALID LOG1 PUSH5 0x736F6C6343 STOP ADDMOD AND STOP EXP "},"methodIdentifiers":{"latestRoundData()":"feaf968c","setPrice(int256)":"f7a30806"}},"storageLayout":{"storage":[{"astId":4,"contract":"contracts/mocks/MockPriceFeed.sol:MockPriceFeed","label":"price","offset":0,"slot":"0","type":"t_int256"}],"types":{"t_int256":{"encoding":"inplace","label":"int256","numberOfBytes":"32"}}}}}}