{
  "_format": "hh-sol-artifact-1",
  "contractName": "MockUSDT",
  "sourceName": "contracts/MockUSDT.sol",
  "abi": [
    {
      "inputs": [],
      "stateMutability": "nonpayable",
      "type": "constructor"
    },
    {
      "inputs": [
        {
          "internalType": "address",
          "name": "spender",
          "type": "address"
        },
        {
          "internalType": "uint256",
          "name": "allowance",
          "type": "uint256"
        },
        {
          "internalType": "uint256",
          "name": "needed",
          "type": "uint256"
        }
      ],
      "name": "ERC20InsufficientAllowance",
      "type": "error"
    },
    {
      "inputs": [
        {
          "internalType": "address",
          "name": "sender",
          "type": "address"
        },
        {
          "internalType": "uint256",
          "name": "balance",
          "type": "uint256"
        },
        {
          "internalType": "uint256",
          "name": "needed",
          "type": "uint256"
        }
      ],
      "name": "ERC20InsufficientBalance",
      "type": "error"
    },
    {
      "inputs": [
        {
          "internalType": "address",
          "name": "approver",
          "type": "address"
        }
      ],
      "name": "ERC20InvalidApprover",
      "type": "error"
    },
    {
      "inputs": [
        {
          "internalType": "address",
          "name": "receiver",
          "type": "address"
        }
      ],
      "name": "ERC20InvalidReceiver",
      "type": "error"
    },
    {
      "inputs": [
        {
          "internalType": "address",
          "name": "sender",
          "type": "address"
        }
      ],
      "name": "ERC20InvalidSender",
      "type": "error"
    },
    {
      "inputs": [
        {
          "internalType": "address",
          "name": "spender",
          "type": "address"
        }
      ],
      "name": "ERC20InvalidSpender",
      "type": "error"
    },
    {
      "inputs": [
        {
          "internalType": "address",
          "name": "owner",
          "type": "address"
        }
      ],
      "name": "OwnableInvalidOwner",
      "type": "error"
    },
    {
      "inputs": [
        {
          "internalType": "address",
          "name": "account",
          "type": "address"
        }
      ],
      "name": "OwnableUnauthorizedAccount",
      "type": "error"
    },
    {
      "anonymous": false,
      "inputs": [
        {
          "indexed": true,
          "internalType": "address",
          "name": "owner",
          "type": "address"
        },
        {
          "indexed": true,
          "internalType": "address",
          "name": "spender",
          "type": "address"
        },
        {
          "indexed": false,
          "internalType": "uint256",
          "name": "value",
          "type": "uint256"
        }
      ],
      "name": "Approval",
      "type": "event"
    },
    {
      "anonymous": false,
      "inputs": [
        {
          "indexed": true,
          "internalType": "address",
          "name": "previousOwner",
          "type": "address"
        },
        {
          "indexed": true,
          "internalType": "address",
          "name": "newOwner",
          "type": "address"
        }
      ],
      "name": "OwnershipTransferred",
      "type": "event"
    },
    {
      "anonymous": false,
      "inputs": [
        {
          "indexed": true,
          "internalType": "address",
          "name": "from",
          "type": "address"
        },
        {
          "indexed": true,
          "internalType": "address",
          "name": "to",
          "type": "address"
        },
        {
          "indexed": false,
          "internalType": "uint256",
          "name": "value",
          "type": "uint256"
        }
      ],
      "name": "Transfer",
      "type": "event"
    },
    {
      "inputs": [
        {
          "internalType": "address",
          "name": "owner",
          "type": "address"
        },
        {
          "internalType": "address",
          "name": "spender",
          "type": "address"
        }
      ],
      "name": "allowance",
      "outputs": [
        {
          "internalType": "uint256",
          "name": "",
          "type": "uint256"
        }
      ],
      "stateMutability": "view",
      "type": "function"
    },
    {
      "inputs": [
        {
          "internalType": "address",
          "name": "spender",
          "type": "address"
        },
        {
          "internalType": "uint256",
          "name": "value",
          "type": "uint256"
        }
      ],
      "name": "approve",
      "outputs": [
        {
          "internalType": "bool",
          "name": "",
          "type": "bool"
        }
      ],
      "stateMutability": "nonpayable",
      "type": "function"
    },
    {
      "inputs": [
        {
          "internalType": "address",
          "name": "account",
          "type": "address"
        }
      ],
      "name": "balanceOf",
      "outputs": [
        {
          "internalType": "uint256",
          "name": "",
          "type": "uint256"
        }
      ],
      "stateMutability": "view",
      "type": "function"
    },
    {
      "inputs": [
        {
          "internalType": "uint256",
          "name": "amount",
          "type": "uint256"
        }
      ],
      "name": "burn",
      "outputs": [],
      "stateMutability": "nonpayable",
      "type": "function"
    },
    {
      "inputs": [],
      "name": "decimals",
      "outputs": [
        {
          "internalType": "uint8",
          "name": "",
          "type": "uint8"
        }
      ],
      "stateMutability": "view",
      "type": "function"
    },
    {
      "inputs": [
        {
          "internalType": "address",
          "name": "to",
          "type": "address"
        },
        {
          "internalType": "uint256",
          "name": "amount",
          "type": "uint256"
        }
      ],
      "name": "faucet",
      "outputs": [],
      "stateMutability": "nonpayable",
      "type": "function"
    },
    {
      "inputs": [
        {
          "internalType": "address",
          "name": "to",
          "type": "address"
        },
        {
          "internalType": "uint256",
          "name": "amount",
          "type": "uint256"
        }
      ],
      "name": "mint",
      "outputs": [],
      "stateMutability": "nonpayable",
      "type": "function"
    },
    {
      "inputs": [],
      "name": "name",
      "outputs": [
        {
          "internalType": "string",
          "name": "",
          "type": "string"
        }
      ],
      "stateMutability": "view",
      "type": "function"
    },
    {
      "inputs": [],
      "name": "owner",
      "outputs": [
        {
          "internalType": "address",
          "name": "",
          "type": "address"
        }
      ],
      "stateMutability": "view",
      "type": "function"
    },
    {
      "inputs": [],
      "name": "renounceOwnership",
      "outputs": [],
      "stateMutability": "nonpayable",
      "type": "function"
    },
    {
      "inputs": [],
      "name": "symbol",
      "outputs": [
        {
          "internalType": "string",
          "name": "",
          "type": "string"
        }
      ],
      "stateMutability": "view",
      "type": "function"
    },
    {
      "inputs": [],
      "name": "totalSupply",
      "outputs": [
        {
          "internalType": "uint256",
          "name": "",
          "type": "uint256"
        }
      ],
      "stateMutability": "view",
      "type": "function"
    },
    {
      "inputs": [
        {
          "internalType": "address",
          "name": "to",
          "type": "address"
        },
        {
          "internalType": "uint256",
          "name": "value",
          "type": "uint256"
        }
      ],
      "name": "transfer",
      "outputs": [
        {
          "internalType": "bool",
          "name": "",
          "type": "bool"
        }
      ],
      "stateMutability": "nonpayable",
      "type": "function"
    },
    {
      "inputs": [
        {
          "internalType": "address",
          "name": "from",
          "type": "address"
        },
        {
          "internalType": "address",
          "name": "to",
          "type": "address"
        },
        {
          "internalType": "uint256",
          "name": "value",
          "type": "uint256"
        }
      ],
      "name": "transferFrom",
      "outputs": [
        {
          "internalType": "bool",
          "name": "",
          "type": "bool"
        }
      ],
      "stateMutability": "nonpayable",
      "type": "function"
    },
    {
      "inputs": [
        {
          "internalType": "address",
          "name": "newOwner",
          "type": "address"
        }
      ],
      "name": "transferOwnership",
      "outputs": [],
      "stateMutability": "nonpayable",
      "type": "function"
    }
  ],
  "bytecode": "0x60803462000446576040906001600160401b039080830182811182821017620004305783526009815260209068135bd8dac81554d11560ba1b828201528351928484018481108282111762000430578552600493848152631554d11560e21b8482015282518281116200041b576003918254916001958684811c9416801562000410575b88851014620003fb578190601f94858111620003a5575b5088908583116001146200033e5760009262000332575b505060001982861b1c191690861b1783555b80519384116200031d5786548581811c9116801562000312575b87821014620002fd57828111620002b2575b508591841160011462000247579383949184926000956200023b575b50501b92600019911b1c19161782555b3315620002245760055460ff90336001600160a01b0382167f8be0079c531659141344cd1fd0a4f28419497f9722a3daafe3b4186f6b6457e0600080a36001600160a81b0319163360a083811b199190911691909117600960a11b176005819055901c16604d81116200020f57600a0a91620f42409280840293840403620001fa5760025490838201809211620001fa57506000917fddf252ad1be2c89b69c2b068fc378daa952ba7f163c4a11628f55a4df523b3ef9160025533835282815284832084815401905584519384523393a3516109ab90816200044c8239f35b601190634e487b7160e01b6000525260246000fd5b601183634e487b7160e01b6000525260246000fd5b5060006024925191631e4fbdf760e01b8352820152fd5b0151935038806200010b565b9190601f198416928760005284876000209460005b89898383106200029a57505050106200027f575b50505050811b0182556200011b565b01519060f884600019921b161c191690553880808062000270565b8686015189559097019694850194889350016200025c565b87600052866000208380870160051c820192898810620002f3575b0160051c019086905b828110620002e6575050620000ef565b60008155018690620002d6565b92508192620002cd565b602288634e487b7160e01b6000525260246000fd5b90607f1690620000dd565b604187634e487b7160e01b6000525260246000fd5b015190503880620000b1565b90889350601f19831691876000528a6000209260005b8c8282106200038e575050841162000375575b505050811b018355620000c3565b015160001983881b60f8161c1916905538808062000367565b8385015186558c9790950194938401930162000354565b90915085600052886000208580850160051c8201928b8610620003f1575b918a91869594930160051c01915b828110620003e15750506200009a565b600081558594508a9101620003d1565b92508192620003c3565b602289634e487b7160e01b6000525260246000fd5b93607f169362000083565b604186634e487b7160e01b6000525260246000fd5b634e487b7160e01b600052604160045260246000fd5b600080fdfe6080604081815260048036101561001557600080fd5b600092833560e01c90816306fdde031461066b57508063095ea7b3146105c257806318160ddd146105a357806323b872dd146104be578063313ce5671461049957806340c10f191461045b57806342966c68146103c157806370a082311461038a578063715018a61461033c5780637b56c2b2146102ed5780638da5cb5b146102c457806395d89b41146101c0578063a9059cbb1461018f578063dd62ed3e146101425763f2fde38b146100c857600080fd5b3461013e57602036600319011261013e576100e161078d565b906100ea610893565b6001600160a01b03918216928315610128575050600580546001600160a01b031981168417909155166000805160206109368339815191528380a380f35b51631e4fbdf760e01b8152908101849052602490fd5b8280fd5b50503461018b578060031936011261018b578060209261016061078d565b6101686107a8565b6001600160a01b0391821683526001865283832091168252845220549051908152f35b5080fd5b50503461018b578060031936011261018b576020906101b96101af61078d565b60243590336107dc565b5160018152f35b5091903461018b578160031936011261018b5780519082845460018160011c90600183169283156102ba575b60209384841081146102a75783885290811561028b5750600114610253575b505050829003601f01601f19168201926001600160401b03841183851017610240575082918261023c925282610744565b0390f35b634e487b7160e01b815260418552602490fd5b919250868652828620918387935b838510610277575050505083010138808061020b565b805488860183015293019284908201610261565b60ff1916878501525050151560051b840101905038808061020b565b634e487b7160e01b895260228a52602489fd5b91607f16916101ec565b50503461018b578160031936011261018b5760055490516001600160a01b039091168152602090f35b503461013e578160031936011261013e5761030661078d565b916001600160a01b038316156103265783610323602435856108bf565b80f35b5163ec442f0560e01b8152908101839052602490fd5b8334610387578060031936011261038757610355610893565b600580546001600160a01b0319811690915581906001600160a01b03166000805160206109368339815191528280a380f35b80fd5b50503461018b57602036600319011261018b5760209181906001600160a01b036103b261078d565b16815280845220549051908152f35b5091903461018b57602036600319011261018b57823590331561044557338352826020528083205493828510610424575081839433855284602052038184205581600254036002555190815260008051602061095683398151915260203392a380f35b6104418386935193849363391434e360e21b8552339085016107be565b0390fd5b51634b637e8f60e11b8152808401839052602490fd5b503461013e578160031936011261013e5761047461078d565b9161047d610893565b6001600160a01b038316156103265783610323602435856108bf565b50503461018b578160031936011261018b5760209060ff60055460a01c169051908152f35b508234610387576060366003190112610387576104d961078d565b6104e16107a8565b916044359360018060a01b03831680835260016020528683203384526020528683205491600019831061051d575b6020886101b98989896107dc565b86831061058557811561056e573315610557575082526001602090815286832033845281529186902090859003905582906101b98761050f565b8751634a1406b160e11b8152908101849052602490fd5b875163e602df0560e01b8152908101849052602490fd5b9050610441868851938493637dc7a0d960e11b8552339085016107be565b50503461018b578160031936011261018b576020906002549051908152f35b503461013e578160031936011261013e576105db61078d565b602435903315610654576001600160a01b031691821561063d57508083602095338152600187528181208582528752205582519081527f8c5be1e5ebec7d5bd14f71427d1e84f3dd0314c0f7b2291e5b200ac8c7c3b925843392a35160018152f35b8351634a1406b160e11b8152908101859052602490fd5b835163e602df0560e01b8152808401869052602490fd5b849150833461013e578260031936011261013e578260035460018160011c906001831692831561073a575b60209384841081146102a75783885290811561071e57506001146106e557505050829003601f01601f19168201926001600160401b03841183851017610240575082918261023c925282610744565b91925060038652828620918387935b83851061070a575050505083010185808061020b565b8054888601830152930192849082016106f4565b60ff1916878501525050151560051b840101905085808061020b565b91607f1691610696565b6020808252825181830181905290939260005b82811061077957505060409293506000838284010152601f8019910116010190565b818101860151848201604001528501610757565b600435906001600160a01b03821682036107a357565b600080fd5b602435906001600160a01b03821682036107a357565b604091949392606082019560018060a01b0316825260208201520152565b916001600160a01b0380841692831561087a5716928315610861576000908382528160205260408220549083821061084457509160408282600080516020610956833981519152958760209652828652038282205586815220818154019055604051908152a3565b6104418460405193849363391434e360e21b8552600485016107be565b60405163ec442f0560e01b815260006004820152602490fd5b604051634b637e8f60e11b815260006004820152602490fd5b6005546001600160a01b031633036108a757565b60405163118cdaa760e01b8152336004820152602490fd5b6002549082820180921161091f576002919091556001600160a01b031690600090600080516020610956833981519152906020908461090a5780600254036002555b604051908152a3565b84845283825260408420818154019055610901565b634e487b7160e01b600052601160045260246000fdfe8be0079c531659141344cd1fd0a4f28419497f9722a3daafe3b4186f6b6457e0ddf252ad1be2c89b69c2b068fc378daa952ba7f163c4a11628f55a4df523b3efa264697066735822122062c132131c7d43ade15b8adf44d22eddb968128da4d28d3b7eaa537db2929d0964736f6c63430008160033",
  "linkReferences": {},
  "deployedLinkReferences": {}
}