{
  "_format": "hh-sol-artifact-1",
  "contractName": "MockUSDT",
  "sourceName": "contracts/MockUSDT.sol",
  "abi": [
    {
      "inputs": [],
      "stateMutability": "nonpayable",
      "type": "constructor"
    },
    {
      "inputs": [
        {
          "internalType": "address",
          "name": "spender",
          "type": "address"
        },
        {
          "internalType": "uint256",
          "name": "allowance",
          "type": "uint256"
        },
        {
          "internalType": "uint256",
          "name": "needed",
          "type": "uint256"
        }
      ],
      "name": "ERC20InsufficientAllowance",
      "type": "error"
    },
    {
      "inputs": [
        {
          "internalType": "address",
          "name": "sender",
          "type": "address"
        },
        {
          "internalType": "uint256",
          "name": "balance",
          "type": "uint256"
        },
        {
          "internalType": "uint256",
          "name": "needed",
          "type": "uint256"
        }
      ],
      "name": "ERC20InsufficientBalance",
      "type": "error"
    },
    {
      "inputs": [
        {
          "internalType": "address",
          "name": "approver",
          "type": "address"
        }
      ],
      "name": "ERC20InvalidApprover",
      "type": "error"
    },
    {
      "inputs": [
        {
          "internalType": "address",
          "name": "receiver",
          "type": "address"
        }
      ],
      "name": "ERC20InvalidReceiver",
      "type": "error"
    },
    {
      "inputs": [
        {
          "internalType": "address",
          "name": "sender",
          "type": "address"
        }
      ],
      "name": "ERC20InvalidSender",
      "type": "error"
    },
    {
      "inputs": [
        {
          "internalType": "address",
          "name": "spender",
          "type": "address"
        }
      ],
      "name": "ERC20InvalidSpender",
      "type": "error"
    },
    {
      "anonymous": false,
      "inputs": [
        {
          "indexed": true,
          "internalType": "address",
          "name": "owner",
          "type": "address"
        },
        {
          "indexed": true,
          "internalType": "address",
          "name": "spender",
          "type": "address"
        },
        {
          "indexed": false,
          "internalType": "uint256",
          "name": "value",
          "type": "uint256"
        }
      ],
      "name": "Approval",
      "type": "event"
    },
    {
      "anonymous": false,
      "inputs": [
        {
          "indexed": true,
          "internalType": "address",
          "name": "from",
          "type": "address"
        },
        {
          "indexed": true,
          "internalType": "address",
          "name": "to",
          "type": "address"
        },
        {
          "indexed": false,
          "internalType": "uint256",
          "name": "value",
          "type": "uint256"
        }
      ],
      "name": "Transfer",
      "type": "event"
    },
    {
      "inputs": [
        {
          "internalType": "address",
          "name": "owner",
          "type": "address"
        },
        {
          "internalType": "address",
          "name": "spender",
          "type": "address"
        }
      ],
      "name": "allowance",
      "outputs": [
        {
          "internalType": "uint256",
          "name": "",
          "type": "uint256"
        }
      ],
      "stateMutability": "view",
      "type": "function"
    },
    {
      "inputs": [
        {
          "internalType": "address",
          "name": "spender",
          "type": "address"
        },
        {
          "internalType": "uint256",
          "name": "value",
          "type": "uint256"
        }
      ],
      "name": "approve",
      "outputs": [
        {
          "internalType": "bool",
          "name": "",
          "type": "bool"
        }
      ],
      "stateMutability": "nonpayable",
      "type": "function"
    },
    {
      "inputs": [
        {
          "internalType": "address",
          "name": "account",
          "type": "address"
        }
      ],
      "name": "balanceOf",
      "outputs": [
        {
          "internalType": "uint256",
          "name": "",
          "type": "uint256"
        }
      ],
      "stateMutability": "view",
      "type": "function"
    },
    {
      "inputs": [],
      "name": "decimals",
      "outputs": [
        {
          "internalType": "uint8",
          "name": "",
          "type": "uint8"
        }
      ],
      "stateMutability": "view",
      "type": "function"
    },
    {
      "inputs": [],
      "name": "faucet",
      "outputs": [],
      "stateMutability": "nonpayable",
      "type": "function"
    },
    {
      "inputs": [
        {
          "internalType": "address",
          "name": "to",
          "type": "address"
        },
        {
          "internalType": "uint256",
          "name": "amount",
          "type": "uint256"
        }
      ],
      "name": "mint",
      "outputs": [],
      "stateMutability": "nonpayable",
      "type": "function"
    },
    {
      "inputs": [],
      "name": "name",
      "outputs": [
        {
          "internalType": "string",
          "name": "",
          "type": "string"
        }
      ],
      "stateMutability": "view",
      "type": "function"
    },
    {
      "inputs": [],
      "name": "symbol",
      "outputs": [
        {
          "internalType": "string",
          "name": "",
          "type": "string"
        }
      ],
      "stateMutability": "view",
      "type": "function"
    },
    {
      "inputs": [],
      "name": "totalSupply",
      "outputs": [
        {
          "internalType": "uint256",
          "name": "",
          "type": "uint256"
        }
      ],
      "stateMutability": "view",
      "type": "function"
    },
    {
      "inputs": [
        {
          "internalType": "address",
          "name": "to",
          "type": "address"
        },
        {
          "internalType": "uint256",
          "name": "value",
          "type": "uint256"
        }
      ],
      "name": "transfer",
      "outputs": [
        {
          "internalType": "bool",
          "name": "",
          "type": "bool"
        }
      ],
      "stateMutability": "nonpayable",
      "type": "function"
    },
    {
      "inputs": [
        {
          "internalType": "address",
          "name": "from",
          "type": "address"
        },
        {
          "internalType": "address",
          "name": "to",
          "type": "address"
        },
        {
          "internalType": "uint256",
          "name": "value",
          "type": "uint256"
        }
      ],
      "name": "transferFrom",
      "outputs": [
        {
          "internalType": "bool",
          "name": "",
          "type": "bool"
        }
      ],
      "stateMutability": "nonpayable",
      "type": "function"
    }
  ],
  "bytecode": "0x608034620003c7576040906001600160401b039080830182811182821017620003b1578352600f81526020906e135bd8dac815195d1a195c881554d1608a1b8282015283519284840184811082821117620003b1578552600493848152631554d11560e21b8482015282518281116200039c576003918254916001958684811c9416801562000391575b888510146200037c578190601f9485811162000326575b508890858311600114620002bf57600092620002b3575b505060001982861b1c191690861b1783555b80519384116200029e5786548581811c9116801562000293575b878210146200027e5782811162000233575b5085918411600114620001c857938394918492600095620001bc575b50501b92600019911b1c19161782555b3315620001a55760025469d3c21bcecceda1000000928382018092116200019057506000917fddf252ad1be2c89b69c2b068fc378daa952ba7f163c4a11628f55a4df523b3ef9160025533835282815284832084815401905584519384523393a3516107fa9081620003cd8239f35b601190634e487b7160e01b6000525260246000fd5b506000602492519163ec442f0560e01b8352820152fd5b01519350388062000111565b9190601f198416928760005284876000209460005b89898383106200021b575050501062000200575b50505050811b01825562000121565b01519060f884600019921b161c1916905538808080620001f1565b868601518955909701969485019488935001620001dd565b87600052866000208380870160051c82019289881062000274575b0160051c019086905b82811062000267575050620000f5565b6000815501869062000257565b925081926200024e565b602288634e487b7160e01b6000525260246000fd5b90607f1690620000e3565b604187634e487b7160e01b6000525260246000fd5b015190503880620000b7565b90889350601f19831691876000528a6000209260005b8c8282106200030f5750508411620002f6575b505050811b018355620000c9565b015160001983881b60f8161c19169055388080620002e8565b8385015186558c97909501949384019301620002d5565b90915085600052886000208580850160051c8201928b861062000372575b918a91869594930160051c01915b82811062000362575050620000a0565b600081558594508a910162000352565b9250819262000344565b602289634e487b7160e01b6000525260246000fd5b93607f169362000089565b604186634e487b7160e01b6000525260246000fd5b634e487b7160e01b600052604160045260246000fd5b600080fdfe608060408181526004908136101561001657600080fd5b600092833560e01c90816306fdde031461059157508063095ea7b3146104e757806318160ddd146104c857806323b872dd146103d2578063313ce567146103b657806340c10f191461031057806370a08231146102d957806395d89b41146101b7578063a9059cbb14610186578063dd62ed3e146101395763de5f72fd1461009d57600080fd5b34610135578260031936011261013557331561012057600254683635c9adc5dea000009283820180921161010d57506002553383528260205280832082815401905551908152817fddf252ad1be2c89b69c2b068fc378daa952ba7f163c4a11628f55a4df523b3ef60203393a380f35b634e487b7160e01b855260119052602484fd5b91602492519163ec442f0560e01b8352820152fd5b8280fd5b838234610182578060031936011261018257806020926101576106b5565b61015f6106d0565b6001600160a01b0391821683526001865283832091168252845220549051908152f35b5080fd5b8382346101825780600319360112610182576020906101b06101a66106b5565b60243590336106e6565b5160018152f35b5082903461018257816003193601126101825780519082845460018160011c90600183169283156102cf575b60209384841081146102bc578388529081156102a0575060011461024b575b505050829003601f01601f191682019267ffffffffffffffff841183851017610238575082918261023492528261066c565b0390f35b634e487b7160e01b815260418552602490fd5b8787529192508591837f8a35acfbc15ff81a39ae7d344fd709f28e8600b4aa8c65c6b64bfe7fe36bd19b5b83851061028c5750505050830101858080610202565b805488860183015293019284908201610276565b60ff1916878501525050151560051b8401019050858080610202565b634e487b7160e01b895260228a52602489fd5b91607f16916101e3565b8382346101825760203660031901126101825760209181906001600160a01b036103016106b5565b16815280845220549051908152f35b50346101355780600319360112610135576103296106b5565b6001600160a01b031691602435919083156103a1576002549083820180921161038e575084927fddf252ad1be2c89b69c2b068fc378daa952ba7f163c4a11628f55a4df523b3ef9260209260025585855284835280852082815401905551908152a380f35b634e487b7160e01b865260119052602485fd5b84602492519163ec442f0560e01b8352820152fd5b8382346101825781600319360112610182576020905160128152f35b5091346104c55760603660031901126104c5576103ed6106b5565b6103f56106d0565b916044359360018060a01b038316808352600160205286832033845260205286832054916000198310610431575b6020886101b08989896106e6565b86831061049957811561048257331561046b575082526001602090815286832033845281529186902090859003905582906101b038610423565b8751634a1406b160e11b8152908101849052602490fd5b875163e602df0560e01b8152908101849052602490fd5b8751637dc7a0d960e11b8152339181019182526020820193909352604081018790528291506060010390fd5b80fd5b8382346101825781600319360112610182576020906002549051908152f35b5090346101355781600319360112610135576105016106b5565b60243590331561057a576001600160a01b031691821561056357508083602095338152600187528181208582528752205582519081527f8c5be1e5ebec7d5bd14f71427d1e84f3dd0314c0f7b2291e5b200ac8c7c3b925843392a35160018152f35b8351634a1406b160e11b8152908101859052602490fd5b835163e602df0560e01b8152808401869052602490fd5b90508391346101355782600319360112610135578260035460018160011c9060018316928315610662575b60209384841081146102bc578388529081156102a0575060011461060c57505050829003601f01601f191682019267ffffffffffffffff841183851017610238575082918261023492528261066c565b600387529192508591837fc2575a0e9e593c00f959f8c92f12db2869c3395a3b0502d05e2516446f71f85b5b83851061064e5750505050830101858080610202565b805488860183015293019284908201610638565b91607f16916105bc565b6020808252825181830181905290939260005b8281106106a157505060409293506000838284010152601f8019910116010190565b81810186015184820160400152850161067f565b600435906001600160a01b03821682036106cb57565b600080fd5b602435906001600160a01b03821682036106cb57565b916001600160a01b038084169283156107ab57169283156107925760009083825281602052604082205490838210610760575091604082827fddf252ad1be2c89b69c2b068fc378daa952ba7f163c4a11628f55a4df523b3ef958760209652828652038282205586815220818154019055604051908152a3565b60405163391434e360e21b81526001600160a01b03919091166004820152602481019190915260448101839052606490fd5b60405163ec442f0560e01b815260006004820152602490fd5b604051634b637e8f60e11b815260006004820152602490fdfea26469706673582212202c4eaa52468fc08300c3c24c702abeb51ae483a62fbf443f413f1b58cb04948064736f6c63430008160033",
  "linkReferences": {},
  "deployedLinkReferences": {}
}