{
  "_format": "hh-sol-artifact-1",
  "contractName": "ConstantsLib",
  "sourceName": "contracts/libraries/ConstantsLib.sol",
  "abi": [
    {
      "inputs": [],
      "name": "getAdminFeeRate",
      "outputs": [
        {
          "internalType": "uint256",
          "name": "",
          "type": "uint256"
        }
      ],
      "stateMutability": "pure",
      "type": "function"
    },
    {
      "inputs": [],
      "name": "getBasisPoints",
      "outputs": [
        {
          "internalType": "uint256",
          "name": "",
          "type": "uint256"
        }
      ],
      "stateMutability": "pure",
      "type": "function"
    },
    {
      "inputs": [],
      "name": "getEarningsMultiplier",
      "outputs": [
        {
          "internalType": "uint256",
          "name": "",
          "type": "uint256"
        }
      ],
      "stateMutability": "pure",
      "type": "function"
    }
  ],
  "bytecode": "0x608080604052346100195760bd908161001f823930815050f35b600080fdfe6080806040526004361015601257600080fd5b600090813560e01c90816310b19d3914606d5750806397a18e5f1460565763c78a0c0f14603e57600080fd5b80600319360112605357602060405160048152f35b80fd5b508060031936011260535760206040516127108152f35b905081600319360112608357806101f460209252f35b5080fdfea26469706673582212200a385b58dece526e1349acb5050211cc5d1aa075f6dd67dd295292027c9c855f64736f6c63430008160033",
  "linkReferences": {},
  "deployedLinkReferences": {}
}