{
  "_format": "hh-sol-artifact-1",
  "contractName": "MockPriceOracle",
  "sourceName": "contracts/MockPriceOracle.sol",
  "abi": [
    {
      "inputs": [],
      "stateMutability": "nonpayable",
      "type": "constructor"
    },
    {
      "inputs": [
        {
          "internalType": "address",
          "name": "",
          "type": "address"
        }
      ],
      "name": "getPrice",
      "outputs": [
        {
          "internalType": "uint256",
          "name": "",
          "type": "uint256"
        }
      ],
      "stateMutability": "view",
      "type": "function"
    },
    {
      "inputs": [],
      "name": "healthy",
      "outputs": [
        {
          "internalType": "bool",
          "name": "",
          "type": "bool"
        }
      ],
      "stateMutability": "view",
      "type": "function"
    },
    {
      "inputs": [],
      "name": "isHealthy",
      "outputs": [
        {
          "internalType": "bool",
          "name": "",
          "type": "bool"
        }
      ],
      "stateMutability": "view",
      "type": "function"
    },
    {
      "inputs": [],
      "name": "price",
      "outputs": [
        {
          "internalType": "uint256",
          "name": "",
          "type": "uint256"
        }
      ],
      "stateMutability": "view",
      "type": "function"
    },
    {
      "inputs": [
        {
          "internalType": "bool",
          "name": "_isHealthy",
          "type": "bool"
        }
      ],
      "name": "setHealthy",
      "outputs": [],
      "stateMutability": "nonpayable",
      "type": "function"
    },
    {
      "inputs": [
        {
          "internalType": "uint256",
          "name": "_newPrice",
          "type": "uint256"
        }
      ],
      "name": "setPrice",
      "outputs": [],
      "stateMutability": "nonpayable",
      "type": "function"
    }
  ],
  "bytecode": "0x6080806040523461002e57670de0b6b3a7640000600055600160ff198154161760015561016390816100348239f35b600080fdfe608080604052600436101561001357600080fd5b600090813560e01c90816341976e09146100f3575080637560fdd11461009957806391b7f5ed146100d9578063a035b1fe146100bc578063e4020804146100995763e4dc2dd21461006357600080fd5b34610096576020366003190112610096576004358015158091036100925760ff80196001541691161760015580f35b5080fd5b80fd5b5034610096578060031936011261009657602060ff600154166040519015158152f35b503461009657806003193601126100965760209054604051908152f35b503461009657602036600319011261009657600435815580f35b9050346100925760203660031901126100925760043573ffffffffffffffffffffffffffffffffffffffff81160361009257602091548152f3fea2646970667358221220a580173ce5350b932fa00ca4dcd2bd7e06ff6d4595856381435897281242d58564736f6c63430008160033",
  "linkReferences": {},
  "deployedLinkReferences": {}
}