{
  "_format": "hh-sol-artifact-1",
  "contractName": "MockPriceOracle",
  "sourceName": "contracts/MockPriceOracle.sol",
  "abi": [
    {
      "inputs": [],
      "stateMutability": "nonpayable",
      "type": "constructor"
    },
    {
      "inputs": [],
      "name": "decimals",
      "outputs": [
        {
          "internalType": "uint8",
          "name": "",
          "type": "uint8"
        }
      ],
      "stateMutability": "view",
      "type": "function"
    },
    {
      "inputs": [],
      "name": "getPrice",
      "outputs": [
        {
          "internalType": "int256",
          "name": "",
          "type": "int256"
        }
      ],
      "stateMutability": "view",
      "type": "function"
    },
    {
      "inputs": [],
      "name": "lastUpdate",
      "outputs": [
        {
          "internalType": "uint256",
          "name": "",
          "type": "uint256"
        }
      ],
      "stateMutability": "view",
      "type": "function"
    },
    {
      "inputs": [
        {
          "internalType": "int256",
          "name": "newPrice",
          "type": "int256"
        }
      ],
      "name": "setPrice",
      "outputs": [],
      "stateMutability": "nonpayable",
      "type": "function"
    }
  ],
  "bytecode": "0x6080806040523461002f57640df847580060005542600155600860ff19600254161760025560f490816100358239f35b600080fdfe6080806040526004361015601257600080fd5b600090813560e01c908163313ce56714609d5750806398d5fdca146082578063c04637111460665763f7a3080614604857600080fd5b34606357602036600319011260635760043581554260015580f35b80fd5b5034606357806003193601126063576020600154604051908152f35b50346063578060031936011260635760209054604051908152f35b90503460ba578160031936011260ba5760209060ff600254168152f35b5080fdfea26469706673582212204f135d0597197ac3b25f2ff8e3181cae9fc284daf4ac2815b8709249d773a91c64736f6c63430008160033",
  "linkReferences": {},
  "deployedLinkReferences": {}
}