{
  "_format": "hh-sol-artifact-1",
  "contractName": "OrphiCommissions",
  "sourceName": "contracts/core/OrphiCommissions.sol",
  "abi": [
    {
      "inputs": [
        {
          "internalType": "address",
          "name": "_paymentToken",
          "type": "address"
        },
        {
          "internalType": "address",
          "name": "_adminReserve",
          "type": "address"
        },
        {
          "internalType": "address",
          "name": "_initialOwner",
          "type": "address"
        }
      ],
      "stateMutability": "nonpayable",
      "type": "constructor"
    },
    {
      "inputs": [
        {
          "internalType": "address",
          "name": "owner",
          "type": "address"
        }
      ],
      "name": "OwnableInvalidOwner",
      "type": "error"
    },
    {
      "inputs": [
        {
          "internalType": "address",
          "name": "account",
          "type": "address"
        }
      ],
      "name": "OwnableUnauthorizedAccount",
      "type": "error"
    },
    {
      "inputs": [],
      "name": "ReentrancyGuardReentrantCall",
      "type": "error"
    },
    {
      "inputs": [
        {
          "internalType": "address",
          "name": "token",
          "type": "address"
        }
      ],
      "name": "SafeERC20FailedOperation",
      "type": "error"
    },
    {
      "anonymous": false,
      "inputs": [
        {
          "indexed": true,
          "internalType": "address",
          "name": "user",
          "type": "address"
        },
        {
          "indexed": false,
          "internalType": "uint256",
          "name": "totalAmount",
          "type": "uint256"
        },
        {
          "indexed": false,
          "internalType": "uint256",
          "name": "sponsorAmount",
          "type": "uint256"
        },
        {
          "indexed": false,
          "internalType": "uint256",
          "name": "levelAmount",
          "type": "uint256"
        },
        {
          "indexed": false,
          "internalType": "uint256",
          "name": "uplineAmount",
          "type": "uint256"
        },
        {
          "indexed": false,
          "internalType": "uint256",
          "name": "poolAmount",
          "type": "uint256"
        },
        {
          "indexed": false,
          "internalType": "uint256",
          "name": "timestamp",
          "type": "uint256"
        }
      ],
      "name": "CommissionDistributed",
      "type": "event"
    },
    {
      "anonymous": false,
      "inputs": [
        {
          "indexed": true,
          "internalType": "address",
          "name": "recipient",
          "type": "address"
        },
        {
          "indexed": true,
          "internalType": "address",
          "name": "user",
          "type": "address"
        },
        {
          "indexed": false,
          "internalType": "uint256",
          "name": "level",
          "type": "uint256"
        },
        {
          "indexed": false,
          "internalType": "uint256",
          "name": "amount",
          "type": "uint256"
        },
        {
          "indexed": false,
          "internalType": "uint256",
          "name": "timestamp",
          "type": "uint256"
        }
      ],
      "name": "LevelBonusPaid",
      "type": "event"
    },
    {
      "anonymous": false,
      "inputs": [
        {
          "indexed": true,
          "internalType": "address",
          "name": "previousOwner",
          "type": "address"
        },
        {
          "indexed": true,
          "internalType": "address",
          "name": "newOwner",
          "type": "address"
        }
      ],
      "name": "OwnershipTransferred",
      "type": "event"
    },
    {
      "anonymous": false,
      "inputs": [
        {
          "indexed": true,
          "internalType": "address",
          "name": "sponsor",
          "type": "address"
        },
        {
          "indexed": true,
          "internalType": "address",
          "name": "user",
          "type": "address"
        },
        {
          "indexed": false,
          "internalType": "uint256",
          "name": "amount",
          "type": "uint256"
        },
        {
          "indexed": false,
          "internalType": "uint256",
          "name": "timestamp",
          "type": "uint256"
        }
      ],
      "name": "SponsorCommissionPaid",
      "type": "event"
    },
    {
      "anonymous": false,
      "inputs": [
        {
          "indexed": true,
          "internalType": "address",
          "name": "recipient",
          "type": "address"
        },
        {
          "indexed": true,
          "internalType": "address",
          "name": "user",
          "type": "address"
        },
        {
          "indexed": false,
          "internalType": "uint256",
          "name": "level",
          "type": "uint256"
        },
        {
          "indexed": false,
          "internalType": "uint256",
          "name": "amount",
          "type": "uint256"
        },
        {
          "indexed": false,
          "internalType": "uint256",
          "name": "timestamp",
          "type": "uint256"
        }
      ],
      "name": "UplineBonusPaid",
      "type": "event"
    },
    {
      "anonymous": false,
      "inputs": [
        {
          "indexed": true,
          "internalType": "address",
          "name": "user",
          "type": "address"
        },
        {
          "indexed": false,
          "internalType": "uint256",
          "name": "totalEarnings",
          "type": "uint256"
        },
        {
          "indexed": false,
          "internalType": "uint256",
          "name": "cap",
          "type": "uint256"
        },
        {
          "indexed": false,
          "internalType": "uint256",
          "name": "timestamp",
          "type": "uint256"
        }
      ],
      "name": "UserCapped",
      "type": "event"
    },
    {
      "inputs": [],
      "name": "BASIS_POINTS",
      "outputs": [
        {
          "internalType": "uint256",
          "name": "",
          "type": "uint256"
        }
      ],
      "stateMutability": "view",
      "type": "function"
    },
    {
      "inputs": [],
      "name": "EARNINGS_MULTIPLIER",
      "outputs": [
        {
          "internalType": "uint256",
          "name": "",
          "type": "uint256"
        }
      ],
      "stateMutability": "view",
      "type": "function"
    },
    {
      "inputs": [
        {
          "internalType": "uint256",
          "name": "",
          "type": "uint256"
        }
      ],
      "name": "LEVEL_PERCENTAGES",
      "outputs": [
        {
          "internalType": "uint256",
          "name": "",
          "type": "uint256"
        }
      ],
      "stateMutability": "view",
      "type": "function"
    },
    {
      "inputs": [],
      "name": "MAX_UPLINE_LEVELS",
      "outputs": [
        {
          "internalType": "uint256",
          "name": "",
          "type": "uint256"
        }
      ],
      "stateMutability": "view",
      "type": "function"
    },
    {
      "inputs": [],
      "name": "adminReserve",
      "outputs": [
        {
          "internalType": "address",
          "name": "",
          "type": "address"
        }
      ],
      "stateMutability": "view",
      "type": "function"
    },
    {
      "inputs": [],
      "name": "defaultTier",
      "outputs": [
        {
          "internalType": "uint256",
          "name": "sponsorRate",
          "type": "uint256"
        },
        {
          "internalType": "uint256",
          "name": "levelBonusRate",
          "type": "uint256"
        },
        {
          "internalType": "uint256",
          "name": "uplineRate",
          "type": "uint256"
        },
        {
          "internalType": "uint256",
          "name": "leaderRate",
          "type": "uint256"
        },
        {
          "internalType": "uint256",
          "name": "helpPoolRate",
          "type": "uint256"
        }
      ],
      "stateMutability": "view",
      "type": "function"
    },
    {
      "inputs": [
        {
          "internalType": "address",
          "name": "_user",
          "type": "address"
        },
        {
          "internalType": "uint256",
          "name": "_totalAmount",
          "type": "uint256"
        }
      ],
      "name": "distributeCommissions",
      "outputs": [
        {
          "internalType": "uint256",
          "name": "",
          "type": "uint256"
        }
      ],
      "stateMutability": "nonpayable",
      "type": "function"
    },
    {
      "inputs": [
        {
          "internalType": "address",
          "name": "_token",
          "type": "address"
        },
        {
          "internalType": "uint256",
          "name": "_amount",
          "type": "uint256"
        }
      ],
      "name": "emergencyWithdraw",
      "outputs": [],
      "stateMutability": "nonpayable",
      "type": "function"
    },
    {
      "inputs": [
        {
          "internalType": "address",
          "name": "_user",
          "type": "address"
        }
      ],
      "name": "getTotalUserEarnings",
      "outputs": [
        {
          "internalType": "uint256",
          "name": "",
          "type": "uint256"
        }
      ],
      "stateMutability": "view",
      "type": "function"
    },
    {
      "inputs": [
        {
          "internalType": "address",
          "name": "_user",
          "type": "address"
        }
      ],
      "name": "getUserCommissionInfo",
      "outputs": [
        {
          "internalType": "uint256",
          "name": "totalSponsorEarned",
          "type": "uint256"
        },
        {
          "internalType": "uint256",
          "name": "totalLevelEarned",
          "type": "uint256"
        },
        {
          "internalType": "uint256",
          "name": "totalUplineEarned",
          "type": "uint256"
        },
        {
          "internalType": "uint256",
          "name": "totalLeaderEarned",
          "type": "uint256"
        },
        {
          "internalType": "uint256",
          "name": "totalHelpPoolEarned",
          "type": "uint256"
        },
        {
          "internalType": "uint256",
          "name": "withdrawableAmount",
          "type": "uint256"
        },
        {
          "internalType": "bool",
          "name": "isCapped",
          "type": "bool"
        },
        {
          "internalType": "uint256",
          "name": "totalInvested",
          "type": "uint256"
        },
        {
          "internalType": "uint256",
          "name": "earningsCap",
          "type": "uint256"
        }
      ],
      "stateMutability": "view",
      "type": "function"
    },
    {
      "inputs": [
        {
          "internalType": "address",
          "name": "_user",
          "type": "address"
        }
      ],
      "name": "getWithdrawalRate",
      "outputs": [
        {
          "internalType": "uint256",
          "name": "",
          "type": "uint256"
        }
      ],
      "stateMutability": "view",
      "type": "function"
    },
    {
      "inputs": [],
      "name": "matrixContract",
      "outputs": [
        {
          "internalType": "address",
          "name": "",
          "type": "address"
        }
      ],
      "stateMutability": "view",
      "type": "function"
    },
    {
      "inputs": [],
      "name": "owner",
      "outputs": [
        {
          "internalType": "address",
          "name": "",
          "type": "address"
        }
      ],
      "stateMutability": "view",
      "type": "function"
    },
    {
      "inputs": [],
      "name": "paymentToken",
      "outputs": [
        {
          "internalType": "contract IERC20",
          "name": "",
          "type": "address"
        }
      ],
      "stateMutability": "view",
      "type": "function"
    },
    {
      "inputs": [],
      "name": "poolContract",
      "outputs": [
        {
          "internalType": "address",
          "name": "",
          "type": "address"
        }
      ],
      "stateMutability": "view",
      "type": "function"
    },
    {
      "inputs": [
        {
          "internalType": "address",
          "name": "_user",
          "type": "address"
        },
        {
          "internalType": "address",
          "name": "_sponsor",
          "type": "address"
        },
        {
          "internalType": "uint256",
          "name": "_packageLevel",
          "type": "uint256"
        },
        {
          "internalType": "uint256",
          "name": "_investmentAmount",
          "type": "uint256"
        }
      ],
      "name": "registerUser",
      "outputs": [],
      "stateMutability": "nonpayable",
      "type": "function"
    },
    {
      "inputs": [],
      "name": "renounceOwnership",
      "outputs": [],
      "stateMutability": "nonpayable",
      "type": "function"
    },
    {
      "inputs": [
        {
          "components": [
            {
              "internalType": "uint256",
              "name": "sponsorRate",
              "type": "uint256"
            },
            {
              "internalType": "uint256",
              "name": "levelBonusRate",
              "type": "uint256"
            },
            {
              "internalType": "uint256",
              "name": "uplineRate",
              "type": "uint256"
            },
            {
              "internalType": "uint256",
              "name": "leaderRate",
              "type": "uint256"
            },
            {
              "internalType": "uint256",
              "name": "helpPoolRate",
              "type": "uint256"
            }
          ],
          "internalType": "struct OrphiCommissions.CommissionTier",
          "name": "_tier",
          "type": "tuple"
        }
      ],
      "name": "setCommissionTier",
      "outputs": [],
      "stateMutability": "nonpayable",
      "type": "function"
    },
    {
      "inputs": [
        {
          "internalType": "address",
          "name": "_matrixContract",
          "type": "address"
        }
      ],
      "name": "setMatrixContract",
      "outputs": [],
      "stateMutability": "nonpayable",
      "type": "function"
    },
    {
      "inputs": [
        {
          "internalType": "address",
          "name": "_poolContract",
          "type": "address"
        }
      ],
      "name": "setPoolContract",
      "outputs": [],
      "stateMutability": "nonpayable",
      "type": "function"
    },
    {
      "inputs": [
        {
          "internalType": "address",
          "name": "newOwner",
          "type": "address"
        }
      ],
      "name": "transferOwnership",
      "outputs": [],
      "stateMutability": "nonpayable",
      "type": "function"
    },
    {
      "inputs": [
        {
          "internalType": "address",
          "name": "",
          "type": "address"
        }
      ],
      "name": "userCommissions",
      "outputs": [
        {
          "internalType": "uint256",
          "name": "totalSponsorEarned",
          "type": "uint256"
        },
        {
          "internalType": "uint256",
          "name": "totalLevelEarned",
          "type": "uint256"
        },
        {
          "internalType": "uint256",
          "name": "totalUplineEarned",
          "type": "uint256"
        },
        {
          "internalType": "uint256",
          "name": "totalLeaderEarned",
          "type": "uint256"
        },
        {
          "internalType": "uint256",
          "name": "totalHelpPoolEarned",
          "type": "uint256"
        },
        {
          "internalType": "uint256",
          "name": "withdrawableAmount",
          "type": "uint256"
        },
        {
          "internalType": "bool",
          "name": "isCapped",
          "type": "bool"
        },
        {
          "internalType": "uint256",
          "name": "totalInvested",
          "type": "uint256"
        },
        {
          "internalType": "uint256",
          "name": "earningsCap",
          "type": "uint256"
        }
      ],
      "stateMutability": "view",
      "type": "function"
    },
    {
      "inputs": [
        {
          "internalType": "address",
          "name": "",
          "type": "address"
        }
      ],
      "name": "userDirectSponsors",
      "outputs": [
        {
          "internalType": "uint256",
          "name": "",
          "type": "uint256"
        }
      ],
      "stateMutability": "view",
      "type": "function"
    },
    {
      "inputs": [
        {
          "internalType": "address",
          "name": "",
          "type": "address"
        }
      ],
      "name": "userPackageLevel",
      "outputs": [
        {
          "internalType": "uint256",
          "name": "",
          "type": "uint256"
        }
      ],
      "stateMutability": "view",
      "type": "function"
    },
    {
      "inputs": [
        {
          "internalType": "address",
          "name": "",
          "type": "address"
        }
      ],
      "name": "userSponsor",
      "outputs": [
        {
          "internalType": "address",
          "name": "",
          "type": "address"
        }
      ],
      "stateMutability": "view",
      "type": "function"
    }
  ],
  "bytecode": "0x6080346200028c57601f620015b538819003918201601f19168301926001600160401b0392909183851183861017620002915781606092849260409788528339810103126200028c576200005381620002a7565b906020928462000065858401620002a7565b926001600160a01b039182916200007d9101620002a7565b169384156200027457600080546001600160a01b031980821688178355969084167f8be0079c531659141344cd1fd0a4f28419497f9722a3daafe3b4186f6b6457e08380a36001936001805588519461014086018681108382111762000260578a5261012c8652606495868a820152868b8201528660608201528660808201528660a0820152603260c0820152603260e082015260326101008201526032610120820152835b600a8110620002495750505088519160a0830191838310908311176200023557508392916080918a52610fa08082526103e891828b820152828c820152826060820152610bb89384910152601055806011558060125560135560145516928315620001f25716938415620001b257505081600c541617600c55600d541617600d55516112f89081620002bd8239f35b85519062461bcd60e51b82526004820152601560248201527f496e76616c69642061646d696e207265736572766500000000000000000000006044820152fd5b865162461bcd60e51b815260048101879052601560248201527f496e76616c6964207061796d656e7420746f6b656e000000000000000000000060448201528390fd5b634e487b7160e01b81526041600452602490fd5b815161ffff166002820155908a0190820162000123565b634e487b7160e01b84526041600452602484fd5b8651631e4fbdf760e01b815260006004820152602490fd5b600080fd5b634e487b7160e01b600052604160045260246000fd5b51906001600160a01b03821682036200028c5756fe608080604052600436101561001357600080fd5b60003560e01c908163039af1f314610f16575080630e70ca1514610edb578063196b6b7814610ea15780631973cd941461036d5780631a8824a614610e675780633013ce2914610e405780633769a00414610d3257806340205a8c14610d0f57806353ddde7814610ce357806359c3f3e014610c595780635f07494614610c2e5780636ca0046d14610c12578063715018a614610bb957806375003aa1146105315780638501014a146104a757806388d52ef7146104805780638da5cb5b1461045957806395ccea671461041a57806396263dd21461036d578063ca32b7c414610276578063cdab7a961461025a578063cf60dfc01461021a578063e1f1c4a7146101fd578063e9983c74146101d65763f2fde38b1461013257600080fd5b346101d15760203660031901126101d15761014b610f3a565b610153611057565b6001600160a01b038091169081156101a057600054826001600160a01b0319821617600055167f8be0079c531659141344cd1fd0a4f28419497f9722a3daafe3b4186f6b6457e0600080a3005b60246040517f1e4fbdf700000000000000000000000000000000000000000000000000000000815260006004820152fd5b600080fd5b346101d15760003660031901126101d15760206001600160a01b03600d5416604051908152f35b346101d15760003660031901126101d15760206040516127108152f35b346101d15760003660031901126101d15760a060105460115460125460135490601454926040519485526020850152604084015260608301526080820152f35b346101d15760003660031901126101d1576020604051601e8152f35b346101d15760a03660031901126101d15760405160a0810181811067ffffffffffffffff82111761035757604052600435815260208101602435815260408201604435815260608301916064358352608084019360843585526102d7611057565b6127106102f86102f06102f06102f08551875190610ff7565b875190610ff7565b03610313575160105551601155516012555160135551601455005b606460405162461bcd60e51b815260206004820152601860248201527f496e76616c696420746965722070657263656e746167657300000000000000006044820152fd5b634e487b7160e01b600052604160045260246000fd5b346101d15760203660031901126101d1576001600160a01b0361038e610f3a565b166000526015602052604060002080546104166001830154926002810154906003810154600482015460058301549060ff600685015416926008600786015495015495604051998a998a95926101009794919a9998959261012088019b8852602088015260408701526060860152608085015260a0840152151560c083015260e08201520152565b0390f35b346101d15760403660031901126101d157610457610436610f3a565b61043e611057565b6001600160a01b03906024359180600d541691166111f1565b005b346101d15760003660031901126101d15760206001600160a01b0360005416604051908152f35b346101d15760003660031901126101d15760206001600160a01b03600f5416604051908152f35b346101d15760203660031901126101d1576001600160a01b036104c8610f3a565b6104d0611057565b1680156104ed576001600160a01b0319600e541617600e55600080f35b606460405162461bcd60e51b815260206004820152601760248201527f496e76616c6964206d617472697820636f6e74726163740000000000000000006044820152fd5b346101d15760403660031901126101d15761054a610f3a565b6105606001600160a01b03600e54163314610f50565b600260015414610b8f57600260015560243515610b4b57612710610588601054602435610f9b565b0461271061059a601154602435610f9b565b04916127106105ad601254602435610f9b565b04926127106105c0601354602435610f9b565b04906127106105d3601454602435610f9b565b046105de858561109b565b946001600160a01b03851660005260166020526001600160a01b0360406000205416966000946000985b6001600160a01b038116151580610b41575b1561080f576001600160a01b038116600052601560205260ff6006604060002001541615610672575b6001600160a01b0316600052601660205261066c6001600160a01b036040600020541699610fae565b98610608565b95600a8a10156107f95761070b6127106106908c6002015489610f9b565b0480926001600160a01b038a1660005260156020526040600020600581016106b9848254610ff7565b90556106c48b611004565b906008810154918c83821015806107ea575b610781575b9150506001600160a01b0391501660005260156020526001604060002001610704838254610ff7565b9055610ff7565b9660018b018b1161076b576040805160018d018152602081019390935242908301526001600160a01b039189831690828416907f4fa23ba4d86ba4ecaf06a5e2576c9fb01b3beb684fb3434a275b6f33ddb7d2dd90606090a39050610643565b634e487b7160e01b600052601160045260246000fd5b6107de6001600160a01b039260067ff042cc01e3f06ac1dfaf9be93bed160025276fcf1c026b1fe84f45b1c8fd2d989501600160ff1982541617905560405193849316954291846040919493926060820195825260208201520152565b0390a28d80808c6106db565b5060ff600684015416156106d6565b634e487b7160e01b600052603260045260246000fd5b5061082f85896108238a96989799836111e4565b80610b19575b50610ff7565b946001600160a01b03841660005260166020526001600160a01b0360406000205416946000976000965b6001600160a01b038116151580610b0f575b15610a15576001600160a01b0381166000526015602052604060002060068101549060ff8216156108c8575b50506001600160a01b031660005260166020526108c26001600160a01b036040600020541697610fae565b96610859565b9081600561093c949d93016108e1601e8b048254610ff7565b90556108ec8d611004565b908d6008820154938484101580610a0a575b6109a1575b509150506001600160a01b0391501660005260156020526002604060002001610930601e89048254610ff7565b9055601e870490610ff7565b9860018801881161076b576040805160018a018152601e8804602082015242918101919091526001600160a01b03919088831690828416907fe40d00d8557ca8327730a521600d274e2f181f838c0f1a096992f67ce920972a90606090a3908b610897565b7ff042cc01e3f06ac1dfaf9be93bed160025276fcf1c026b1fe84f45b1c8fd2d98936001600160a01b0393600660016109fd9460ff19161791015560405193849316954291846040919493926060820195825260208201520152565b0390a28b80808d81610903565b5060ff8116156108fe565b506001600160a01b03867fe2313d79e46d5622c32385e0e296a6a91c81bb441ee074afa7ff2495c83c76ad9387610aa760c095610a658f9b8f610a5a60209e836111e4565b80610af55750610ff7565b600f54871615610ad957610aa190610a9188600c54168d610a8b868c600f541692610ff7565b916111f1565b610a9b838d610ff7565b90610ff7565b99610ff7565b916040519760243589528a8901526040880152606087015260808601524260a08601521692a260018055604051908152f35b610aa190610a9188600c54168d610a8b868c600d541692610ff7565b610b09908a600c54168b600d5416906111f1565b8e610829565b50601e881061086b565b610b3b906001600160a01b03600c54166001600160a01b03600d5416906111f1565b89610829565b50600a8a1061061a565b606460405162461bcd60e51b815260206004820152600e60248201527f496e76616c696420616d6f756e740000000000000000000000000000000000006044820152fd5b60046040517f3ee5aeb5000000000000000000000000000000000000000000000000000000008152fd5b346101d15760003660031901126101d157610bd2611057565b60006001600160a01b0381546001600160a01b031981168355167f8be0079c531659141344cd1fd0a4f28419497f9722a3daafe3b4186f6b6457e08280a3005b346101d15760003660031901126101d157602060405160048152f35b346101d15760203660031901126101d1576020610c51610c4c610f3a565b611004565b604051908152f35b346101d15760203660031901126101d1576001600160a01b03610c7a610f3a565b610c82611057565b168015610c9f576001600160a01b0319600f541617600f55600080f35b606460405162461bcd60e51b815260206004820152601560248201527f496e76616c696420706f6f6c20636f6e747261637400000000000000000000006044820152fd5b346101d15760203660031901126101d157600435600a8110156101d15760209060020154604051908152f35b346101d15760203660031901126101d1576020610c51610d2d610f3a565b610fbd565b346101d15760803660031901126101d157610d4b610f3a565b602435906001600160a01b038083168093036101d15760643591610d7482600e54163314610f50565b168015610dfc5760005260166020526040600020826001600160a01b03198254161790556017602052604435604060002055601560205260406000208160078201558160021b918083046004149015171561076b5760069160088201550160ff19815416905580610de157005b60005260186020526040600020610df88154610fae565b9055005b606460405162461bcd60e51b815260206004820152601460248201527f496e76616c6964207573657220616464726573730000000000000000000000006044820152fd5b346101d15760003660031901126101d15760206001600160a01b03600c5416604051908152f35b346101d15760203660031901126101d1576001600160a01b03610e88610f3a565b1660005260186020526020604060002054604051908152f35b346101d15760203660031901126101d1576001600160a01b03610ec2610f3a565b1660005260176020526020604060002054604051908152f35b346101d15760203660031901126101d15760206001600160a01b0380610eff610f3a565b166000526016825260406000205416604051908152f35b346101d15760003660031901126101d1576020906001600160a01b03600e54168152f35b600435906001600160a01b03821682036101d157565b15610f5757565b606460405162461bcd60e51b815260206004820152601460248201527f4f6e6c79206d617472697820636f6e74726163740000000000000000000000006044820152fd5b8181029291811591840414171561076b57565b600019811461076b5760010190565b6001600160a01b031660009081526018602052604090205460148110610fe45750611f4090565b600511610ff157611d4c90565b611b5890565b9190820180921161076b57565b6001600160a01b031660005260156020526110546040600020600461104b6110406110358454600186015490610ff7565b600285015490610ff7565b600384015490610ff7565b91015490610ff7565b90565b6001600160a01b0360005416330361106b57565b60246040517f118cdaa7000000000000000000000000000000000000000000000000000000008152336004820152fd5b6001600160a01b0380911690600082815260166020526040908483838320541693841580156111cc575b6111b2575050908082847f9543c198605e9aa3aabda3fadbd58cb975993bee28cb488b2679d1407f2fdbef94526015602052848282206005810161110a8a8254610ff7565b905561111582611004565b600882015480821015806111a3575b611150575b505050815260156020522061113f868254610ff7565b90558051858152426020820152a390565b600692909201805460ff19166001179055845190815260208101919091524260408201527ff042cc01e3f06ac1dfaf9be93bed160025276fcf1c026b1fe84f45b1c8fd2d9890606090a284388080611129565b5060ff60068401541615611124565b9250925050611054925080600c541690600d5416906111f1565b50848352601560205260ff60068585200154166110c5565b9190820391821161076b57565b916040519060208201907fa9059cbb0000000000000000000000000000000000000000000000000000000082526001600160a01b038094166024840152604483015260448252608082019082821067ffffffffffffffff83111761035757602092600092604052519082865af1156112b6576000513d6112ad57508082163b155b61127a575050565b60249250604051917f5274afe7000000000000000000000000000000000000000000000000000000008352166004820152fd5b60011415611272565b6040513d6000823e3d90fdfea26469706673582212205d4a11e74939bbfade792f6c7dd9f2f5fd31fe6b3ad217d3de1c5670c815d8d264736f6c63430008160033",
  "linkReferences": {},
  "deployedLinkReferences": {}
}