{
  "_format": "hh-sol-artifact-1",
  "contractName": "OrphiCommissions",
  "sourceName": "contracts/core/OrphiCommissions.sol",
  "abi": [
    {
      "inputs": [
        {
          "internalType": "address",
          "name": "_paymentToken",
          "type": "address"
        },
        {
          "internalType": "address",
          "name": "_adminReserve",
          "type": "address"
        },
        {
          "internalType": "address",
          "name": "_initialOwner",
          "type": "address"
        }
      ],
      "stateMutability": "nonpayable",
      "type": "constructor"
    },
    {
      "inputs": [
        {
          "internalType": "address",
          "name": "owner",
          "type": "address"
        }
      ],
      "name": "OwnableInvalidOwner",
      "type": "error"
    },
    {
      "inputs": [
        {
          "internalType": "address",
          "name": "account",
          "type": "address"
        }
      ],
      "name": "OwnableUnauthorizedAccount",
      "type": "error"
    },
    {
      "inputs": [],
      "name": "ReentrancyGuardReentrantCall",
      "type": "error"
    },
    {
      "inputs": [
        {
          "internalType": "address",
          "name": "token",
          "type": "address"
        }
      ],
      "name": "SafeERC20FailedOperation",
      "type": "error"
    },
    {
      "anonymous": false,
      "inputs": [
        {
          "indexed": true,
          "internalType": "address",
          "name": "user",
          "type": "address"
        },
        {
          "indexed": false,
          "internalType": "uint256",
          "name": "totalAmount",
          "type": "uint256"
        },
        {
          "indexed": false,
          "internalType": "uint256",
          "name": "sponsorAmount",
          "type": "uint256"
        },
        {
          "indexed": false,
          "internalType": "uint256",
          "name": "levelAmount",
          "type": "uint256"
        },
        {
          "indexed": false,
          "internalType": "uint256",
          "name": "uplineAmount",
          "type": "uint256"
        },
        {
          "indexed": false,
          "internalType": "uint256",
          "name": "poolAmount",
          "type": "uint256"
        },
        {
          "indexed": false,
          "internalType": "uint256",
          "name": "timestamp",
          "type": "uint256"
        }
      ],
      "name": "CommissionDistributed",
      "type": "event"
    },
    {
      "anonymous": false,
      "inputs": [
        {
          "indexed": true,
          "internalType": "address",
          "name": "user",
          "type": "address"
        },
        {
          "indexed": false,
          "internalType": "uint256",
          "name": "amount",
          "type": "uint256"
        },
        {
          "indexed": true,
          "internalType": "uint8",
          "name": "poolType",
          "type": "uint8"
        },
        {
          "indexed": false,
          "internalType": "uint256",
          "name": "timestamp",
          "type": "uint256"
        }
      ],
      "name": "EarningsCredited",
      "type": "event"
    },
    {
      "anonymous": false,
      "inputs": [
        {
          "indexed": true,
          "internalType": "address",
          "name": "recipient",
          "type": "address"
        },
        {
          "indexed": true,
          "internalType": "address",
          "name": "user",
          "type": "address"
        },
        {
          "indexed": false,
          "internalType": "uint256",
          "name": "level",
          "type": "uint256"
        },
        {
          "indexed": false,
          "internalType": "uint256",
          "name": "amount",
          "type": "uint256"
        },
        {
          "indexed": false,
          "internalType": "uint256",
          "name": "timestamp",
          "type": "uint256"
        }
      ],
      "name": "LevelBonusPaid",
      "type": "event"
    },
    {
      "anonymous": false,
      "inputs": [
        {
          "indexed": true,
          "internalType": "address",
          "name": "previousOwner",
          "type": "address"
        },
        {
          "indexed": true,
          "internalType": "address",
          "name": "newOwner",
          "type": "address"
        }
      ],
      "name": "OwnershipTransferred",
      "type": "event"
    },
    {
      "anonymous": false,
      "inputs": [
        {
          "indexed": true,
          "internalType": "address",
          "name": "sponsor",
          "type": "address"
        },
        {
          "indexed": true,
          "internalType": "address",
          "name": "user",
          "type": "address"
        },
        {
          "indexed": false,
          "internalType": "uint256",
          "name": "amount",
          "type": "uint256"
        },
        {
          "indexed": false,
          "internalType": "uint256",
          "name": "timestamp",
          "type": "uint256"
        }
      ],
      "name": "SponsorCommissionPaid",
      "type": "event"
    },
    {
      "anonymous": false,
      "inputs": [
        {
          "indexed": true,
          "internalType": "address",
          "name": "recipient",
          "type": "address"
        },
        {
          "indexed": true,
          "internalType": "address",
          "name": "user",
          "type": "address"
        },
        {
          "indexed": false,
          "internalType": "uint256",
          "name": "level",
          "type": "uint256"
        },
        {
          "indexed": false,
          "internalType": "uint256",
          "name": "amount",
          "type": "uint256"
        },
        {
          "indexed": false,
          "internalType": "uint256",
          "name": "timestamp",
          "type": "uint256"
        }
      ],
      "name": "UplineBonusPaid",
      "type": "event"
    },
    {
      "anonymous": false,
      "inputs": [
        {
          "indexed": true,
          "internalType": "address",
          "name": "user",
          "type": "address"
        },
        {
          "indexed": false,
          "internalType": "uint256",
          "name": "totalEarnings",
          "type": "uint256"
        },
        {
          "indexed": false,
          "internalType": "uint256",
          "name": "cap",
          "type": "uint256"
        },
        {
          "indexed": false,
          "internalType": "uint256",
          "name": "timestamp",
          "type": "uint256"
        }
      ],
      "name": "UserCapped",
      "type": "event"
    },
    {
      "inputs": [],
      "name": "BASIS_POINTS",
      "outputs": [
        {
          "internalType": "uint256",
          "name": "",
          "type": "uint256"
        }
      ],
      "stateMutability": "view",
      "type": "function"
    },
    {
      "inputs": [],
      "name": "EARNINGS_MULTIPLIER",
      "outputs": [
        {
          "internalType": "uint256",
          "name": "",
          "type": "uint256"
        }
      ],
      "stateMutability": "view",
      "type": "function"
    },
    {
      "inputs": [
        {
          "internalType": "uint256",
          "name": "",
          "type": "uint256"
        }
      ],
      "name": "LEVEL_PERCENTAGES",
      "outputs": [
        {
          "internalType": "uint256",
          "name": "",
          "type": "uint256"
        }
      ],
      "stateMutability": "view",
      "type": "function"
    },
    {
      "inputs": [],
      "name": "MAX_UPLINE_LEVELS",
      "outputs": [
        {
          "internalType": "uint256",
          "name": "",
          "type": "uint256"
        }
      ],
      "stateMutability": "view",
      "type": "function"
    },
    {
      "inputs": [],
      "name": "adminReserve",
      "outputs": [
        {
          "internalType": "address",
          "name": "",
          "type": "address"
        }
      ],
      "stateMutability": "view",
      "type": "function"
    },
    {
      "inputs": [],
      "name": "defaultTier",
      "outputs": [
        {
          "internalType": "uint256",
          "name": "sponsorRate",
          "type": "uint256"
        },
        {
          "internalType": "uint256",
          "name": "levelBonusRate",
          "type": "uint256"
        },
        {
          "internalType": "uint256",
          "name": "uplineRate",
          "type": "uint256"
        },
        {
          "internalType": "uint256",
          "name": "leaderRate",
          "type": "uint256"
        },
        {
          "internalType": "uint256",
          "name": "helpPoolRate",
          "type": "uint256"
        }
      ],
      "stateMutability": "view",
      "type": "function"
    },
    {
      "inputs": [
        {
          "internalType": "address",
          "name": "_user",
          "type": "address"
        },
        {
          "internalType": "uint256",
          "name": "_totalAmount",
          "type": "uint256"
        }
      ],
      "name": "distributeCommissions",
      "outputs": [
        {
          "internalType": "uint256",
          "name": "",
          "type": "uint256"
        }
      ],
      "stateMutability": "nonpayable",
      "type": "function"
    },
    {
      "inputs": [
        {
          "internalType": "address",
          "name": "_token",
          "type": "address"
        },
        {
          "internalType": "uint256",
          "name": "_amount",
          "type": "uint256"
        }
      ],
      "name": "emergencyWithdraw",
      "outputs": [],
      "stateMutability": "nonpayable",
      "type": "function"
    },
    {
      "inputs": [
        {
          "internalType": "address",
          "name": "_user",
          "type": "address"
        }
      ],
      "name": "getTotalUserEarnings",
      "outputs": [
        {
          "internalType": "uint256",
          "name": "",
          "type": "uint256"
        }
      ],
      "stateMutability": "view",
      "type": "function"
    },
    {
      "inputs": [
        {
          "internalType": "address",
          "name": "_user",
          "type": "address"
        }
      ],
      "name": "getUserCommissionInfo",
      "outputs": [
        {
          "internalType": "uint256",
          "name": "totalSponsorEarned",
          "type": "uint256"
        },
        {
          "internalType": "uint256",
          "name": "totalLevelEarned",
          "type": "uint256"
        },
        {
          "internalType": "uint256",
          "name": "totalUplineEarned",
          "type": "uint256"
        },
        {
          "internalType": "uint256",
          "name": "totalLeaderEarned",
          "type": "uint256"
        },
        {
          "internalType": "uint256",
          "name": "totalHelpPoolEarned",
          "type": "uint256"
        },
        {
          "internalType": "uint256",
          "name": "withdrawableAmount",
          "type": "uint256"
        },
        {
          "internalType": "bool",
          "name": "isCapped",
          "type": "bool"
        },
        {
          "internalType": "uint256",
          "name": "totalInvested",
          "type": "uint256"
        },
        {
          "internalType": "uint256",
          "name": "earningsCap",
          "type": "uint256"
        }
      ],
      "stateMutability": "view",
      "type": "function"
    },
    {
      "inputs": [
        {
          "internalType": "address",
          "name": "_user",
          "type": "address"
        }
      ],
      "name": "getWithdrawalRate",
      "outputs": [
        {
          "internalType": "uint256",
          "name": "",
          "type": "uint256"
        }
      ],
      "stateMutability": "view",
      "type": "function"
    },
    {
      "inputs": [],
      "name": "matrixContract",
      "outputs": [
        {
          "internalType": "address",
          "name": "",
          "type": "address"
        }
      ],
      "stateMutability": "view",
      "type": "function"
    },
    {
      "inputs": [],
      "name": "owner",
      "outputs": [
        {
          "internalType": "address",
          "name": "",
          "type": "address"
        }
      ],
      "stateMutability": "view",
      "type": "function"
    },
    {
      "inputs": [],
      "name": "paymentToken",
      "outputs": [
        {
          "internalType": "contract IERC20",
          "name": "",
          "type": "address"
        }
      ],
      "stateMutability": "view",
      "type": "function"
    },
    {
      "inputs": [],
      "name": "poolContract",
      "outputs": [
        {
          "internalType": "address",
          "name": "",
          "type": "address"
        }
      ],
      "stateMutability": "view",
      "type": "function"
    },
    {
      "inputs": [
        {
          "internalType": "address",
          "name": "_user",
          "type": "address"
        },
        {
          "internalType": "address",
          "name": "_sponsor",
          "type": "address"
        },
        {
          "internalType": "uint256",
          "name": "_packageLevel",
          "type": "uint256"
        },
        {
          "internalType": "uint256",
          "name": "_investmentAmount",
          "type": "uint256"
        }
      ],
      "name": "registerUser",
      "outputs": [],
      "stateMutability": "nonpayable",
      "type": "function"
    },
    {
      "inputs": [],
      "name": "renounceOwnership",
      "outputs": [],
      "stateMutability": "nonpayable",
      "type": "function"
    },
    {
      "inputs": [
        {
          "components": [
            {
              "internalType": "uint256",
              "name": "sponsorRate",
              "type": "uint256"
            },
            {
              "internalType": "uint256",
              "name": "levelBonusRate",
              "type": "uint256"
            },
            {
              "internalType": "uint256",
              "name": "uplineRate",
              "type": "uint256"
            },
            {
              "internalType": "uint256",
              "name": "leaderRate",
              "type": "uint256"
            },
            {
              "internalType": "uint256",
              "name": "helpPoolRate",
              "type": "uint256"
            }
          ],
          "internalType": "struct OrphiCommissions.CommissionTier",
          "name": "_tier",
          "type": "tuple"
        }
      ],
      "name": "setCommissionTier",
      "outputs": [],
      "stateMutability": "nonpayable",
      "type": "function"
    },
    {
      "inputs": [
        {
          "internalType": "address",
          "name": "_matrixContract",
          "type": "address"
        }
      ],
      "name": "setMatrixContract",
      "outputs": [],
      "stateMutability": "nonpayable",
      "type": "function"
    },
    {
      "inputs": [
        {
          "internalType": "address",
          "name": "_poolContract",
          "type": "address"
        }
      ],
      "name": "setPoolContract",
      "outputs": [],
      "stateMutability": "nonpayable",
      "type": "function"
    },
    {
      "inputs": [
        {
          "internalType": "address",
          "name": "newOwner",
          "type": "address"
        }
      ],
      "name": "transferOwnership",
      "outputs": [],
      "stateMutability": "nonpayable",
      "type": "function"
    },
    {
      "inputs": [
        {
          "internalType": "address",
          "name": "",
          "type": "address"
        }
      ],
      "name": "userCommissions",
      "outputs": [
        {
          "internalType": "uint256",
          "name": "totalSponsorEarned",
          "type": "uint256"
        },
        {
          "internalType": "uint256",
          "name": "totalLevelEarned",
          "type": "uint256"
        },
        {
          "internalType": "uint256",
          "name": "totalUplineEarned",
          "type": "uint256"
        },
        {
          "internalType": "uint256",
          "name": "totalLeaderEarned",
          "type": "uint256"
        },
        {
          "internalType": "uint256",
          "name": "totalHelpPoolEarned",
          "type": "uint256"
        },
        {
          "internalType": "uint256",
          "name": "withdrawableAmount",
          "type": "uint256"
        },
        {
          "internalType": "bool",
          "name": "isCapped",
          "type": "bool"
        },
        {
          "internalType": "uint256",
          "name": "totalInvested",
          "type": "uint256"
        },
        {
          "internalType": "uint256",
          "name": "earningsCap",
          "type": "uint256"
        }
      ],
      "stateMutability": "view",
      "type": "function"
    },
    {
      "inputs": [
        {
          "internalType": "address",
          "name": "",
          "type": "address"
        }
      ],
      "name": "userDirectSponsors",
      "outputs": [
        {
          "internalType": "uint256",
          "name": "",
          "type": "uint256"
        }
      ],
      "stateMutability": "view",
      "type": "function"
    },
    {
      "inputs": [
        {
          "internalType": "address",
          "name": "",
          "type": "address"
        }
      ],
      "name": "userPackageLevel",
      "outputs": [
        {
          "internalType": "uint256",
          "name": "",
          "type": "uint256"
        }
      ],
      "stateMutability": "view",
      "type": "function"
    },
    {
      "inputs": [
        {
          "internalType": "address",
          "name": "",
          "type": "address"
        }
      ],
      "name": "userSponsor",
      "outputs": [
        {
          "internalType": "address",
          "name": "",
          "type": "address"
        }
      ],
      "stateMutability": "view",
      "type": "function"
    }
  ],
  "bytecode": "0x6080346200028c57601f6200160538819003918201601f19168301926001600160401b0392909183851183861017620002915781606092849260409788528339810103126200028c576200005381620002a7565b906020928462000065858401620002a7565b926001600160a01b039182916200007d9101620002a7565b169384156200027457600080546001600160a01b031980821688178355969084167f8be0079c531659141344cd1fd0a4f28419497f9722a3daafe3b4186f6b6457e08380a36001936001805588519461014086018681108382111762000260578a5261012c8652606495868a820152868b8201528660608201528660808201528660a0820152603260c0820152603260e082015260326101008201526032610120820152835b600a8110620002495750505088519160a0830191838310908311176200023557508392916080918a52610fa08082526103e891828b820152828c820152826060820152610bb89384910152601055806011558060125560135560145516928315620001f25716938415620001b257505081600c541617600c55600d541617600d55516113489081620002bd8239f35b85519062461bcd60e51b82526004820152601560248201527f496e76616c69642061646d696e207265736572766500000000000000000000006044820152fd5b865162461bcd60e51b815260048101879052601560248201527f496e76616c6964207061796d656e7420746f6b656e000000000000000000000060448201528390fd5b634e487b7160e01b81526041600452602490fd5b815161ffff166002820155908a0190820162000123565b634e487b7160e01b84526041600452602484fd5b8651631e4fbdf760e01b815260006004820152602490fd5b600080fd5b634e487b7160e01b600052604160045260246000fd5b51906001600160a01b03821682036200028c5756fe608080604052600436101561001357600080fd5b60003560e01c908163039af1f314610d8e575080630e70ca1514610d53578063196b6b7814610d195780631973cd941461033f5780631a8824a614610cdf5780633013ce2914610cb65780633769a00414610bb057806340205a8c14610b8d57806353ddde7814610b6157806359c3f3e014610ade5780635f07494614610a6b5780636ca0046d14610a4f578063715018a614610a0857806375003aa1146105025780638501014a1461047d57806388d52ef7146104545780638da5cb5b1461042b57806395ccea67146103ec57806396263dd21461033f578063ca32b7c41461024d578063cdab7a9614610231578063cf60dfc0146101f1578063e1f1c4a7146101d4578063e9983c74146101ab5763f2fde38b1461013257600080fd5b346101a65760203660031901126101a65761014b610db2565b610153610e74565b6001600160a01b0390811690811561018d576000548260018060a01b0319821617600055166000805160206112f3833981519152600080a3005b604051631e4fbdf760e01b815260006004820152602490fd5b600080fd5b346101a65760003660031901126101a657600d546040516001600160a01b039091168152602090f35b346101a65760003660031901126101a65760206040516127108152f35b346101a65760003660031901126101a65760a060105460115460125460135490601454926040519485526020850152604084015260608301526080820152f35b346101a65760003660031901126101a6576020604051601e8152f35b346101a65760a03660031901126101a65760405160a081016001600160401b0381118282101761032957604052600435815260208101602435815260408201604435815260608301916064358352608084019360843585526102ad610e74565b6127106102ce6102c66102c66102c68551875190610e67565b875190610e67565b036102e9575160105551601155516012555160135551601455005b60405162461bcd60e51b8152602060048201526018602482015277496e76616c696420746965722070657263656e746167657360401b6044820152606490fd5b634e487b7160e01b600052604160045260246000fd5b346101a65760203660031901126101a6576001600160a01b03610360610db2565b166000526015602052604060002080546103e86001830154926002810154906003810154600482015460058301549060ff600685015416926008600786015495015495604051998a998a95926101009794919a9998959261012088019b8852602088015260408701526060860152608085015260a0840152151560c083015260e08201520152565b0390f35b346101a65760403660031901126101a657610429610408610db2565b610410610e74565b600d54602435916001600160a01b039182169116610f7d565b005b346101a65760003660031901126101a6576000546040516001600160a01b039091168152602090f35b346101a65760003660031901126101a657600f546040516001600160a01b039091168152602090f35b346101a65760203660031901126101a657610496610db2565b61049e610e74565b6001600160a01b031680156104c357600e80546001600160a01b031916919091179055005b60405162461bcd60e51b8152602060048201526017602482015276125b9d985b1a59081b585d1c9a5e0818dbdb9d1c9858dd604a1b6044820152606490fd5b346101a65760403660031901126101a65761051b610db2565b61053060018060a01b03600e54163314610dc8565b6002600154146109f6576002600155602435156109c057612710610558601054602435610e0b565b0461271061056a601154602435610e0b565b049161271061057d601254602435610e0b565b0490612710610590601354602435610e0b565b04936127106105a3601454602435610e0b565b04926105af8584610ea0565b9460018060a01b038416600052601660205260018060a01b0360406000205416946000976000965b6001600160a01b0381161515806109b6575b1561071b576001600160a01b03811660009081526015602052604090206006015460ff161561063e575b6001600160a01b03908116600090815260166020526040902054169661063890610e1e565b966105d7565b600a8810156107055761069361271061065b8a6002015489610e0b565b04809b610668828561101e565b60018060a01b0384166000526015602052600160406000200161068c838254610e67565b9055610e67565b996001890189116106ef57604051907f4fa23ba4d86ba4ecaf06a5e2576c9fb01b3beb684fb3434a275b6f33ddb7d2dd60018060a01b038a1692806106e78d60018060a01b03881695600142920184610f5a565b0390a3610613565b634e487b7160e01b600052601160045260246000fd5b634e487b7160e01b600052603260045260246000fd5b508491869161073b848b61072f8e83610f70565b80610993575b50610e67565b6001600160a01b0384811660009081526016602052604081205492979096879591939092165b6001600160a01b038116151580610989575b1561086d5760018060a01b03811660005260158060205260ff60066040600020015416156107c8575b506001600160a01b0390811660009081526016602052604090205416966107c290610e1e565b96610761565b9561080c91966107db601e8d0489611126565b60018060a01b0388166000526020526002604060002001610800601e8d048254610e67565b9055601e8b0490610e67565b946001880188116106ef5789887fe40d00d8557ca8327730a521600d274e2f181f838c0f1a096992f67ce920972a6040518061086460018060a01b038d169560018060a01b038816956001601e429304910184610f5a565b0390a38a61079c565b50857fe2313d79e46d5622c32385e0e296a6a91c81bb441ee074afa7ff2495c83c76ad928a61090760c0946108b4838e6108a960209d83610f70565b806109665750610e67565b600f546001600160a01b03161561094057600c54600f5461090192916108f1916001600160a01b0391821691166108eb868f610e67565b91610f7d565b6108fb838c610e67565b90610e67565b98610e67565b91604051966024358852898801526040870152606086015260808501524260a085015260018060a01b031692a260018055604051908152f35b600c54600d5461090192916108f1916001600160a01b0391821691166108eb868f610e67565b600c54600d5461098392916001600160a01b039182169116610f7d565b8d610735565b50601e8810610773565b600c54600d546109b092916001600160a01b039182169116610f7d565b89610735565b50600a88106105e9565b60405162461bcd60e51b815260206004820152600e60248201526d125b9d985b1a5908185b5bdd5b9d60921b6044820152606490fd5b604051633ee5aeb560e01b8152600490fd5b346101a65760003660031901126101a657610a21610e74565b600080546001600160a01b0319811682556001600160a01b03166000805160206112f38339815191528280a3005b346101a65760003660031901126101a657602060405160048152f35b346101a65760203660031901126101a6576001600160a01b03610a8c610db2565b1660005260156020526020610ad660406000206004610acd610ac2610ab78454600186015490610e67565b600285015490610e67565b600384015490610e67565b91015490610e67565b604051908152f35b346101a65760203660031901126101a657610af7610db2565b610aff610e74565b6001600160a01b03168015610b2457600f80546001600160a01b031916919091179055005b60405162461bcd60e51b8152602060048201526015602482015274125b9d985b1a59081c1bdbdb0818dbdb9d1c9858dd605a1b6044820152606490fd5b346101a65760203660031901126101a657600435600a8110156101a65760209060020154604051908152f35b346101a65760203660031901126101a6576020610ad6610bab610db2565b610e2d565b346101a65760803660031901126101a657610bc9610db2565b6024356001600160a01b0381811692918390036101a65760643591610bf382600e54163314610dc8565b168015610c7a57600052601660205260406000208260018060a01b03198254161790556017602052604435604060002055601560205260406000208160078201558160021b91808304600414901517156106ef5760069160088201550160ff19815416905580610c5f57005b60005260186020526040600020610c768154610e1e565b9055005b60405162461bcd60e51b8152602060048201526014602482015273496e76616c69642075736572206164647265737360601b6044820152606490fd5b346101a65760003660031901126101a657600c546040516001600160a01b039091168152602090f35b346101a65760203660031901126101a6576001600160a01b03610d00610db2565b1660005260186020526020604060002054604051908152f35b346101a65760203660031901126101a6576001600160a01b03610d3a610db2565b1660005260176020526020604060002054604051908152f35b346101a65760203660031901126101a65760206001600160a01b0380610d77610db2565b166000526016825260406000205416604051908152f35b346101a65760003660031901126101a657600e546001600160a01b03168152602090f35b600435906001600160a01b03821682036101a657565b15610dcf57565b60405162461bcd60e51b815260206004820152601460248201527313db9b1e481b585d1c9a5e0818dbdb9d1c9858dd60621b6044820152606490fd5b818102929181159184041417156106ef57565b60001981146106ef5760010190565b6001600160a01b031660009081526018602052604090205460148110610e545750611f4090565b600511610e6157611d4c90565b611b5890565b919082018092116106ef57565b6000546001600160a01b03163303610e8857565b60405163118cdaa760e01b8152336004820152602490fd5b6001600160a01b03908116600081815260166020526040812054919291821691849083158015610f41575b610f25575090610edd604092846111fc565b828152601560205220610ef1848254610e67565b90557f9543c198605e9aa3aabda3fadbd58cb975993bee28cb488b2679d1407f2fdbef60408051858152426020820152a390565b91509150610f3e925080600c541690600d541690610f7d565b90565b50838352601560205260ff600660408520015416610ecb565b6040919493926060820195825260208201520152565b919082039182116106ef57565b60405163a9059cbb60e01b602082019081526001600160a01b039384166024830152604480830195909552938152909260808201906001600160401b0382118383101761032957602092600092604052519082865af115611012576000513d61100957508082163b155b610fef575050565b604051635274afe760e01b81529116600482015260249150fd5b60011415610fe7565b6040513d6000823e3d90fd5b6001600160a01b031660008181526015602052604090206006810180549193919060ff821661111f5782855490600187015461105a8184610e67565b61106960028a01548092610e67565b9161109161107c60038c01548095610e67565b9461108c60048d01548097610e67565b610e67565b9460088b01548096116110e4575b5050505050505050806110b157505050565b60406000805160206112d3833981519152916005600195016110d4828254610e67565b90558151908152426020820152a3565b6001969798509261108c61110a96959361108c61108c9461110497610e67565b90610f70565b9260ff1916179055388080808080808061109f565b5050505050565b6001600160a01b031660008181526015602052604090206006810180549193919060ff821661111f578285549060018701546111628184610e67565b61117160028a01548092610e67565b9161118461107c60038c01548095610e67565b9460088b01548096116111c7575b5050505050505050806111a457505050565b60406000805160206112d3833981519152916005600295016110d4828254610e67565b6001969798509261108c6111e796959361108c61108c9461110497610e67565b9260ff19161790553880808080808080611192565b6001600160a01b031660008181526015602052604090206006810180549193919060ff821661111f578285549060018701546112388184610e67565b61124760028a01548092610e67565b9161125a61107c60038c01548095610e67565b9460088b015480961161129d575b50505050505050508061127a57505050565b60406000805160206112d3833981519152916005600095016110d4828254610e67565b6001969798509261108c6112bd96959361108c61108c9461110497610e67565b9260ff1916179055388080808080808061126856feb01d1756fb98a05b7a3e67c826b3df1323c0456c221e91dd516322232f16ef698be0079c531659141344cd1fd0a4f28419497f9722a3daafe3b4186f6b6457e0a2646970667358221220999cda2c03258d25df3ddd5b86a25011071e89ff73c986b0b350b6b83fe2b8c564736f6c63430008160033",
  "linkReferences": {},
  "deployedLinkReferences": {}
}