{
  "_format": "hh-sol-artifact-1",
  "contractName": "OrphiCrowdFundV4UltraSecure",
  "sourceName": "contracts/OrphiCrowdFundV4UltraSecure.sol",
  "abi": [
    {
      "inputs": [
        {
          "internalType": "address",
          "name": "_token",
          "type": "address"
        },
        {
          "internalType": "address",
          "name": "_trezorAdmin",
          "type": "address"
        }
      ],
      "stateMutability": "nonpayable",
      "type": "constructor"
    },
    {
      "inputs": [],
      "name": "EnforcedPause",
      "type": "error"
    },
    {
      "inputs": [],
      "name": "ExpectedPause",
      "type": "error"
    },
    {
      "inputs": [],
      "name": "InsufficientUplineChain",
      "type": "error"
    },
    {
      "inputs": [],
      "name": "InvalidMatrixPosition",
      "type": "error"
    },
    {
      "inputs": [],
      "name": "MaxUsersReached",
      "type": "error"
    },
    {
      "inputs": [],
      "name": "OverflowDetected",
      "type": "error"
    },
    {
      "inputs": [
        {
          "internalType": "address",
          "name": "owner",
          "type": "address"
        }
      ],
      "name": "OwnableInvalidOwner",
      "type": "error"
    },
    {
      "inputs": [
        {
          "internalType": "address",
          "name": "account",
          "type": "address"
        }
      ],
      "name": "OwnableUnauthorizedAccount",
      "type": "error"
    },
    {
      "inputs": [],
      "name": "RateLimitExceeded",
      "type": "error"
    },
    {
      "inputs": [],
      "name": "ReentrancyGuardReentrantCall",
      "type": "error"
    },
    {
      "inputs": [
        {
          "internalType": "address",
          "name": "token",
          "type": "address"
        }
      ],
      "name": "SafeERC20FailedOperation",
      "type": "error"
    },
    {
      "inputs": [],
      "name": "SecurityViolationError",
      "type": "error"
    },
    {
      "inputs": [],
      "name": "SystemLockedError",
      "type": "error"
    },
    {
      "anonymous": false,
      "inputs": [
        {
          "indexed": true,
          "internalType": "address",
          "name": "user",
          "type": "address"
        },
        {
          "indexed": false,
          "internalType": "string",
          "name": "reason",
          "type": "string"
        },
        {
          "indexed": false,
          "internalType": "uint256",
          "name": "timestamp",
          "type": "uint256"
        }
      ],
      "name": "AddressBlacklisted",
      "type": "event"
    },
    {
      "anonymous": false,
      "inputs": [
        {
          "indexed": true,
          "internalType": "address",
          "name": "user",
          "type": "address"
        },
        {
          "indexed": false,
          "internalType": "uint256",
          "name": "timestamp",
          "type": "uint256"
        }
      ],
      "name": "AddressRemovedFromBlacklist",
      "type": "event"
    },
    {
      "anonymous": false,
      "inputs": [
        {
          "indexed": true,
          "internalType": "address",
          "name": "user",
          "type": "address"
        },
        {
          "indexed": false,
          "internalType": "uint256",
          "name": "timestamp",
          "type": "uint256"
        }
      ],
      "name": "AddressRemovedFromWhitelist",
      "type": "event"
    },
    {
      "anonymous": false,
      "inputs": [
        {
          "indexed": true,
          "internalType": "address",
          "name": "user",
          "type": "address"
        },
        {
          "indexed": false,
          "internalType": "uint256",
          "name": "timestamp",
          "type": "uint256"
        }
      ],
      "name": "AddressWhitelisted",
      "type": "event"
    },
    {
      "anonymous": false,
      "inputs": [
        {
          "indexed": false,
          "internalType": "bool",
          "name": "enabled",
          "type": "bool"
        },
        {
          "indexed": false,
          "internalType": "uint16[3]",
          "name": "shares",
          "type": "uint16[3]"
        },
        {
          "indexed": false,
          "internalType": "uint256",
          "name": "minAmount",
          "type": "uint256"
        },
        {
          "indexed": false,
          "internalType": "uint32",
          "name": "cooldown",
          "type": "uint32"
        }
      ],
      "name": "AutoCompoundConfigured",
      "type": "event"
    },
    {
      "anonymous": false,
      "inputs": [
        {
          "indexed": false,
          "internalType": "uint256",
          "name": "gasLimit",
          "type": "uint256"
        },
        {
          "indexed": false,
          "internalType": "uint32",
          "name": "maxUsersPerDistribution",
          "type": "uint32"
        },
        {
          "indexed": false,
          "internalType": "uint256",
          "name": "timestamp",
          "type": "uint256"
        }
      ],
      "name": "AutomationConfigUpdated",
      "type": "event"
    },
    {
      "anonymous": false,
      "inputs": [
        {
          "indexed": false,
          "internalType": "bool",
          "name": "enabled",
          "type": "bool"
        },
        {
          "indexed": false,
          "internalType": "uint256",
          "name": "timestamp",
          "type": "uint256"
        }
      ],
      "name": "AutomationEnabled",
      "type": "event"
    },
    {
      "anonymous": false,
      "inputs": [
        {
          "indexed": false,
          "internalType": "bool",
          "name": "enabled",
          "type": "bool"
        },
        {
          "indexed": false,
          "internalType": "uint256[5]",
          "name": "limits",
          "type": "uint256[5]"
        },
        {
          "indexed": false,
          "internalType": "uint256",
          "name": "threshold",
          "type": "uint256"
        },
        {
          "indexed": false,
          "internalType": "uint256",
          "name": "cooldown",
          "type": "uint256"
        }
      ],
      "name": "CircuitBreakerConfigured",
      "type": "event"
    },
    {
      "anonymous": false,
      "inputs": [
        {
          "indexed": false,
          "internalType": "uint256",
          "name": "timestamp",
          "type": "uint256"
        }
      ],
      "name": "CircuitBreakerReset",
      "type": "event"
    },
    {
      "anonymous": false,
      "inputs": [
        {
          "indexed": false,
          "internalType": "string",
          "name": "reason",
          "type": "string"
        },
        {
          "indexed": false,
          "internalType": "uint256",
          "name": "value",
          "type": "uint256"
        },
        {
          "indexed": false,
          "internalType": "uint256",
          "name": "limit",
          "type": "uint256"
        },
        {
          "indexed": false,
          "internalType": "uint256",
          "name": "timestamp",
          "type": "uint256"
        }
      ],
      "name": "CircuitBreakerTripped",
      "type": "event"
    },
    {
      "anonymous": false,
      "inputs": [
        {
          "indexed": true,
          "internalType": "address",
          "name": "member",
          "type": "address"
        },
        {
          "indexed": false,
          "internalType": "uint256",
          "name": "timestamp",
          "type": "uint256"
        }
      ],
      "name": "ClubMemberAdded",
      "type": "event"
    },
    {
      "anonymous": false,
      "inputs": [
        {
          "indexed": false,
          "internalType": "uint32",
          "name": "distributionInterval",
          "type": "uint32"
        },
        {
          "indexed": false,
          "internalType": "uint256",
          "name": "timestamp",
          "type": "uint256"
        }
      ],
      "name": "ClubPoolCreated",
      "type": "event"
    },
    {
      "anonymous": false,
      "inputs": [
        {
          "indexed": false,
          "internalType": "uint256",
          "name": "amount",
          "type": "uint256"
        },
        {
          "indexed": false,
          "internalType": "uint16",
          "name": "members",
          "type": "uint16"
        },
        {
          "indexed": false,
          "internalType": "uint256",
          "name": "timestamp",
          "type": "uint256"
        }
      ],
      "name": "ClubPoolDistributed",
      "type": "event"
    },
    {
      "anonymous": false,
      "inputs": [
        {
          "indexed": false,
          "internalType": "uint8",
          "name": "poolType",
          "type": "uint8"
        },
        {
          "indexed": false,
          "internalType": "uint256",
          "name": "amount",
          "type": "uint256"
        },
        {
          "indexed": false,
          "internalType": "uint32",
          "name": "usersProcessed",
          "type": "uint32"
        },
        {
          "indexed": false,
          "internalType": "uint256",
          "name": "timestamp",
          "type": "uint256"
        }
      ],
      "name": "DistributionCompleted",
      "type": "event"
    },
    {
      "anonymous": false,
      "inputs": [
        {
          "indexed": false,
          "internalType": "uint8",
          "name": "poolType",
          "type": "uint8"
        },
        {
          "indexed": false,
          "internalType": "uint32",
          "name": "startId",
          "type": "uint32"
        },
        {
          "indexed": false,
          "internalType": "uint32",
          "name": "endId",
          "type": "uint32"
        },
        {
          "indexed": false,
          "internalType": "uint256",
          "name": "timestamp",
          "type": "uint256"
        }
      ],
      "name": "DistributionStarted",
      "type": "event"
    },
    {
      "anonymous": false,
      "inputs": [
        {
          "indexed": true,
          "internalType": "address",
          "name": "user",
          "type": "address"
        },
        {
          "indexed": false,
          "internalType": "uint256",
          "name": "totalEarnings",
          "type": "uint256"
        }
      ],
      "name": "EarningsCapReached",
      "type": "event"
    },
    {
      "anonymous": false,
      "inputs": [
        {
          "indexed": true,
          "internalType": "address",
          "name": "user",
          "type": "address"
        },
        {
          "indexed": false,
          "internalType": "uint256",
          "name": "amount",
          "type": "uint256"
        },
        {
          "indexed": false,
          "internalType": "uint256",
          "name": "timestamp",
          "type": "uint256"
        }
      ],
      "name": "EarningsCompounded",
      "type": "event"
    },
    {
      "anonymous": false,
      "inputs": [
        {
          "indexed": false,
          "internalType": "bool",
          "name": "required",
          "type": "bool"
        },
        {
          "indexed": false,
          "internalType": "uint256",
          "name": "timestamp",
          "type": "uint256"
        }
      ],
      "name": "KYCRequirementUpdated",
      "type": "event"
    },
    {
      "anonymous": false,
      "inputs": [
        {
          "indexed": true,
          "internalType": "address",
          "name": "user",
          "type": "address"
        },
        {
          "indexed": false,
          "internalType": "uint256",
          "name": "timestamp",
          "type": "uint256"
        }
      ],
      "name": "KYCVerified",
      "type": "event"
    },
    {
      "anonymous": false,
      "inputs": [
        {
          "indexed": true,
          "internalType": "address",
          "name": "user",
          "type": "address"
        },
        {
          "indexed": false,
          "internalType": "uint8",
          "name": "oldRank",
          "type": "uint8"
        },
        {
          "indexed": false,
          "internalType": "uint256",
          "name": "inactivityPeriod",
          "type": "uint256"
        }
      ],
      "name": "LeaderDemoted",
      "type": "event"
    },
    {
      "anonymous": false,
      "inputs": [
        {
          "indexed": true,
          "internalType": "address",
          "name": "user",
          "type": "address"
        },
        {
          "indexed": false,
          "internalType": "uint8",
          "name": "oldRank",
          "type": "uint8"
        },
        {
          "indexed": false,
          "internalType": "uint8",
          "name": "newRank",
          "type": "uint8"
        },
        {
          "indexed": false,
          "internalType": "uint256",
          "name": "timestamp",
          "type": "uint256"
        }
      ],
      "name": "LeaderRankChanged",
      "type": "event"
    },
    {
      "anonymous": false,
      "inputs": [
        {
          "indexed": false,
          "internalType": "uint256",
          "name": "amount",
          "type": "uint256"
        },
        {
          "indexed": false,
          "internalType": "uint32",
          "name": "recipients",
          "type": "uint32"
        },
        {
          "indexed": false,
          "internalType": "uint256",
          "name": "timestamp",
          "type": "uint256"
        }
      ],
      "name": "LeftoverDistributed",
      "type": "event"
    },
    {
      "anonymous": false,
      "inputs": [
        {
          "indexed": true,
          "internalType": "address",
          "name": "user",
          "type": "address"
        },
        {
          "indexed": true,
          "internalType": "uint32",
          "name": "userId",
          "type": "uint32"
        },
        {
          "indexed": false,
          "internalType": "uint32",
          "name": "matrixPosition",
          "type": "uint32"
        },
        {
          "indexed": true,
          "internalType": "address",
          "name": "parent",
          "type": "address"
        }
      ],
      "name": "MatrixPlacement",
      "type": "event"
    },
    {
      "anonymous": false,
      "inputs": [
        {
          "indexed": false,
          "internalType": "uint256",
          "name": "amount",
          "type": "uint256"
        },
        {
          "indexed": false,
          "internalType": "uint16[3]",
          "name": "poolShares",
          "type": "uint16[3]"
        },
        {
          "indexed": false,
          "internalType": "uint256",
          "name": "timestamp",
          "type": "uint256"
        }
      ],
      "name": "OverflowDistributed",
      "type": "event"
    },
    {
      "anonymous": false,
      "inputs": [
        {
          "indexed": false,
          "internalType": "string",
          "name": "operation",
          "type": "string"
        },
        {
          "indexed": false,
          "internalType": "uint256",
          "name": "value",
          "type": "uint256"
        },
        {
          "indexed": false,
          "internalType": "uint256",
          "name": "limit",
          "type": "uint256"
        }
      ],
      "name": "OverflowProtection",
      "type": "event"
    },
    {
      "anonymous": false,
      "inputs": [
        {
          "indexed": true,
          "internalType": "address",
          "name": "previousOwner",
          "type": "address"
        },
        {
          "indexed": true,
          "internalType": "address",
          "name": "newOwner",
          "type": "address"
        }
      ],
      "name": "OwnershipTransferred",
      "type": "event"
    },
    {
      "anonymous": false,
      "inputs": [
        {
          "indexed": false,
          "internalType": "address",
          "name": "account",
          "type": "address"
        }
      ],
      "name": "Paused",
      "type": "event"
    },
    {
      "anonymous": false,
      "inputs": [
        {
          "indexed": true,
          "internalType": "uint8",
          "name": "poolType",
          "type": "uint8"
        },
        {
          "indexed": false,
          "internalType": "uint256",
          "name": "amount",
          "type": "uint256"
        },
        {
          "indexed": false,
          "internalType": "uint32",
          "name": "timestamp",
          "type": "uint32"
        }
      ],
      "name": "PoolDistributed",
      "type": "event"
    },
    {
      "anonymous": false,
      "inputs": [
        {
          "indexed": true,
          "internalType": "address",
          "name": "user",
          "type": "address"
        },
        {
          "indexed": false,
          "internalType": "string",
          "name": "violation",
          "type": "string"
        },
        {
          "indexed": false,
          "internalType": "uint256",
          "name": "timestamp",
          "type": "uint256"
        }
      ],
      "name": "SecurityViolation",
      "type": "event"
    },
    {
      "anonymous": false,
      "inputs": [
        {
          "indexed": false,
          "internalType": "string",
          "name": "reason",
          "type": "string"
        },
        {
          "indexed": false,
          "internalType": "uint256",
          "name": "timestamp",
          "type": "uint256"
        }
      ],
      "name": "SystemLocked",
      "type": "event"
    },
    {
      "anonymous": false,
      "inputs": [
        {
          "indexed": false,
          "internalType": "uint256",
          "name": "timestamp",
          "type": "uint256"
        }
      ],
      "name": "SystemUnlocked",
      "type": "event"
    },
    {
      "anonymous": false,
      "inputs": [
        {
          "indexed": false,
          "internalType": "string",
          "name": "metric",
          "type": "string"
        },
        {
          "indexed": false,
          "internalType": "uint256",
          "name": "value",
          "type": "uint256"
        },
        {
          "indexed": false,
          "internalType": "uint256",
          "name": "limit",
          "type": "uint256"
        },
        {
          "indexed": false,
          "internalType": "uint256",
          "name": "timestamp",
          "type": "uint256"
        }
      ],
      "name": "ThresholdExceeded",
      "type": "event"
    },
    {
      "anonymous": false,
      "inputs": [
        {
          "indexed": false,
          "internalType": "address",
          "name": "account",
          "type": "address"
        }
      ],
      "name": "Unpaused",
      "type": "event"
    },
    {
      "anonymous": false,
      "inputs": [
        {
          "indexed": true,
          "internalType": "address",
          "name": "user",
          "type": "address"
        },
        {
          "indexed": true,
          "internalType": "uint32",
          "name": "id",
          "type": "uint32"
        },
        {
          "indexed": true,
          "internalType": "address",
          "name": "sponsor",
          "type": "address"
        },
        {
          "indexed": false,
          "internalType": "uint16",
          "name": "tier",
          "type": "uint16"
        }
      ],
      "name": "UserRegistered",
      "type": "event"
    },
    {
      "anonymous": false,
      "inputs": [
        {
          "indexed": false,
          "internalType": "bool",
          "name": "enabled",
          "type": "bool"
        },
        {
          "indexed": false,
          "internalType": "uint256",
          "name": "timestamp",
          "type": "uint256"
        }
      ],
      "name": "WhitelistModeToggled",
      "type": "event"
    },
    {
      "anonymous": false,
      "inputs": [
        {
          "indexed": true,
          "internalType": "address",
          "name": "user",
          "type": "address"
        },
        {
          "indexed": false,
          "internalType": "uint256",
          "name": "amount",
          "type": "uint256"
        },
        {
          "indexed": false,
          "internalType": "uint256",
          "name": "timestamp",
          "type": "uint256"
        }
      ],
      "name": "Withdrawal",
      "type": "event"
    },
    {
      "anonymous": false,
      "inputs": [
        {
          "indexed": false,
          "internalType": "uint256",
          "name": "limit",
          "type": "uint256"
        },
        {
          "indexed": false,
          "internalType": "uint256",
          "name": "timestamp",
          "type": "uint256"
        }
      ],
      "name": "WithdrawalLimitUpdated",
      "type": "event"
    },
    {
      "inputs": [],
      "name": "MAX_WITHDRAWAL_PER_TX",
      "outputs": [
        {
          "internalType": "uint256",
          "name": "",
          "type": "uint256"
        }
      ],
      "stateMutability": "view",
      "type": "function"
    },
    {
      "inputs": [],
      "name": "REGISTRATION_COOLDOWN",
      "outputs": [
        {
          "internalType": "uint256",
          "name": "",
          "type": "uint256"
        }
      ],
      "stateMutability": "view",
      "type": "function"
    },
    {
      "inputs": [
        {
          "internalType": "string",
          "name": "reason",
          "type": "string"
        }
      ],
      "name": "activateEmergencyMode",
      "outputs": [],
      "stateMutability": "nonpayable",
      "type": "function"
    },
    {
      "inputs": [
        {
          "internalType": "address",
          "name": "user",
          "type": "address"
        }
      ],
      "name": "addToWhitelist",
      "outputs": [],
      "stateMutability": "nonpayable",
      "type": "function"
    },
    {
      "inputs": [],
      "name": "admin",
      "outputs": [
        {
          "internalType": "address",
          "name": "",
          "type": "address"
        }
      ],
      "stateMutability": "view",
      "type": "function"
    },
    {
      "inputs": [],
      "name": "autoCompoundConfig",
      "outputs": [
        {
          "internalType": "bool",
          "name": "enabled",
          "type": "bool"
        },
        {
          "internalType": "uint16",
          "name": "levelPoolShare",
          "type": "uint16"
        },
        {
          "internalType": "uint16",
          "name": "uplinePoolShare",
          "type": "uint16"
        },
        {
          "internalType": "uint16",
          "name": "ghpPoolShare",
          "type": "uint16"
        },
        {
          "internalType": "uint256",
          "name": "minCompoundAmount",
          "type": "uint256"
        },
        {
          "internalType": "uint32",
          "name": "compoundingCooldown",
          "type": "uint32"
        }
      ],
      "stateMutability": "view",
      "type": "function"
    },
    {
      "inputs": [],
      "name": "autoConfig",
      "outputs": [
        {
          "internalType": "bool",
          "name": "enabled",
          "type": "bool"
        },
        {
          "internalType": "uint32",
          "name": "maxUsersPerDistribution",
          "type": "uint32"
        },
        {
          "internalType": "uint32",
          "name": "lastProcessedId",
          "type": "uint32"
        },
        {
          "internalType": "bool",
          "name": "isDistributing",
          "type": "bool"
        },
        {
          "internalType": "uint256",
          "name": "gasLimitConfig",
          "type": "uint256"
        }
      ],
      "stateMutability": "view",
      "type": "function"
    },
    {
      "inputs": [
        {
          "internalType": "address[]",
          "name": "addresses",
          "type": "address[]"
        },
        {
          "internalType": "string",
          "name": "reason",
          "type": "string"
        }
      ],
      "name": "batchBlacklistAddresses",
      "outputs": [],
      "stateMutability": "nonpayable",
      "type": "function"
    },
    {
      "inputs": [
        {
          "internalType": "address[]",
          "name": "addresses",
          "type": "address[]"
        }
      ],
      "name": "batchWhitelistAddresses",
      "outputs": [],
      "stateMutability": "nonpayable",
      "type": "function"
    },
    {
      "inputs": [
        {
          "internalType": "address",
          "name": "user",
          "type": "address"
        },
        {
          "internalType": "string",
          "name": "reason",
          "type": "string"
        }
      ],
      "name": "blacklistAddress",
      "outputs": [],
      "stateMutability": "nonpayable",
      "type": "function"
    },
    {
      "inputs": [
        {
          "internalType": "address",
          "name": "",
          "type": "address"
        }
      ],
      "name": "blacklistReasons",
      "outputs": [
        {
          "internalType": "string",
          "name": "",
          "type": "string"
        }
      ],
      "stateMutability": "view",
      "type": "function"
    },
    {
      "inputs": [
        {
          "internalType": "address",
          "name": "",
          "type": "address"
        }
      ],
      "name": "blacklistTimestamp",
      "outputs": [
        {
          "internalType": "uint256",
          "name": "",
          "type": "uint256"
        }
      ],
      "stateMutability": "view",
      "type": "function"
    },
    {
      "inputs": [
        {
          "internalType": "address",
          "name": "",
          "type": "address"
        }
      ],
      "name": "blacklistedAddresses",
      "outputs": [
        {
          "internalType": "bool",
          "name": "",
          "type": "bool"
        }
      ],
      "stateMutability": "view",
      "type": "function"
    },
    {
      "inputs": [
        {
          "internalType": "bytes",
          "name": "",
          "type": "bytes"
        }
      ],
      "name": "checkUpkeep",
      "outputs": [
        {
          "internalType": "bool",
          "name": "upkeepNeeded",
          "type": "bool"
        },
        {
          "internalType": "bytes",
          "name": "performData",
          "type": "bytes"
        }
      ],
      "stateMutability": "view",
      "type": "function"
    },
    {
      "inputs": [],
      "name": "circuitBreakerConfig",
      "outputs": [
        {
          "internalType": "bool",
          "name": "enabled",
          "type": "bool"
        },
        {
          "internalType": "uint256",
          "name": "maxDailyRegistrations",
          "type": "uint256"
        },
        {
          "internalType": "uint256",
          "name": "maxDailyWithdrawals",
          "type": "uint256"
        },
        {
          "internalType": "uint256",
          "name": "maxSingleWithdrawal",
          "type": "uint256"
        },
        {
          "internalType": "uint256",
          "name": "maxDailyVolume",
          "type": "uint256"
        },
        {
          "internalType": "uint256",
          "name": "consecutiveFailureThreshold",
          "type": "uint256"
        },
        {
          "internalType": "uint256",
          "name": "cooldownPeriod",
          "type": "uint256"
        }
      ],
      "stateMutability": "view",
      "type": "function"
    },
    {
      "inputs": [],
      "name": "circuitBreakerTripped",
      "outputs": [
        {
          "internalType": "bool",
          "name": "",
          "type": "bool"
        }
      ],
      "stateMutability": "view",
      "type": "function"
    },
    {
      "inputs": [
        {
          "internalType": "address",
          "name": "",
          "type": "address"
        }
      ],
      "name": "clubMembers",
      "outputs": [
        {
          "internalType": "bool",
          "name": "",
          "type": "bool"
        }
      ],
      "stateMutability": "view",
      "type": "function"
    },
    {
      "inputs": [],
      "name": "clubPool",
      "outputs": [
        {
          "internalType": "uint64",
          "name": "balance",
          "type": "uint64"
        },
        {
          "internalType": "uint32",
          "name": "lastDistributionTime",
          "type": "uint32"
        },
        {
          "internalType": "uint32",
          "name": "distributionInterval",
          "type": "uint32"
        },
        {
          "internalType": "uint16",
          "name": "memberCount",
          "type": "uint16"
        },
        {
          "internalType": "bool",
          "name": "active",
          "type": "bool"
        }
      ],
      "stateMutability": "view",
      "type": "function"
    },
    {
      "inputs": [
        {
          "internalType": "bool",
          "name": "_enabled",
          "type": "bool"
        },
        {
          "internalType": "uint16",
          "name": "_levelShare",
          "type": "uint16"
        },
        {
          "internalType": "uint16",
          "name": "_uplineShare",
          "type": "uint16"
        },
        {
          "internalType": "uint16",
          "name": "_ghpShare",
          "type": "uint16"
        },
        {
          "internalType": "uint256",
          "name": "_minAmount",
          "type": "uint256"
        },
        {
          "internalType": "uint32",
          "name": "_cooldown",
          "type": "uint32"
        }
      ],
      "name": "configureAutoCompound",
      "outputs": [],
      "stateMutability": "nonpayable",
      "type": "function"
    },
    {
      "inputs": [
        {
          "internalType": "bool",
          "name": "_enabled",
          "type": "bool"
        },
        {
          "internalType": "uint256",
          "name": "_maxDailyRegistrations",
          "type": "uint256"
        },
        {
          "internalType": "uint256",
          "name": "_maxDailyWithdrawals",
          "type": "uint256"
        },
        {
          "internalType": "uint256",
          "name": "_maxSingleWithdrawal",
          "type": "uint256"
        },
        {
          "internalType": "uint256",
          "name": "_maxDailyVolume",
          "type": "uint256"
        },
        {
          "internalType": "uint256",
          "name": "_failureThreshold",
          "type": "uint256"
        },
        {
          "internalType": "uint256",
          "name": "_cooldownPeriod",
          "type": "uint256"
        }
      ],
      "name": "configureCircuitBreaker",
      "outputs": [],
      "stateMutability": "nonpayable",
      "type": "function"
    },
    {
      "inputs": [],
      "name": "consecutiveFailures",
      "outputs": [
        {
          "internalType": "uint256",
          "name": "",
          "type": "uint256"
        }
      ],
      "stateMutability": "view",
      "type": "function"
    },
    {
      "inputs": [
        {
          "internalType": "uint256",
          "name": "",
          "type": "uint256"
        }
      ],
      "name": "dailyRegistrations",
      "outputs": [
        {
          "internalType": "uint256",
          "name": "",
          "type": "uint256"
        }
      ],
      "stateMutability": "view",
      "type": "function"
    },
    {
      "inputs": [
        {
          "internalType": "uint256",
          "name": "",
          "type": "uint256"
        }
      ],
      "name": "dailyVolume",
      "outputs": [
        {
          "internalType": "uint256",
          "name": "",
          "type": "uint256"
        }
      ],
      "stateMutability": "view",
      "type": "function"
    },
    {
      "inputs": [
        {
          "internalType": "address",
          "name": "",
          "type": "address"
        }
      ],
      "name": "dailyWithdrawalAmount",
      "outputs": [
        {
          "internalType": "uint256",
          "name": "",
          "type": "uint256"
        }
      ],
      "stateMutability": "view",
      "type": "function"
    },
    {
      "inputs": [
        {
          "internalType": "uint256",
          "name": "",
          "type": "uint256"
        }
      ],
      "name": "dailyWithdrawalCount",
      "outputs": [
        {
          "internalType": "uint256",
          "name": "",
          "type": "uint256"
        }
      ],
      "stateMutability": "view",
      "type": "function"
    },
    {
      "inputs": [],
      "name": "deactivateEmergencyMode",
      "outputs": [],
      "stateMutability": "nonpayable",
      "type": "function"
    },
    {
      "inputs": [],
      "name": "distributeLeftovers",
      "outputs": [],
      "stateMutability": "nonpayable",
      "type": "function"
    },
    {
      "inputs": [],
      "name": "emergencyFee",
      "outputs": [
        {
          "internalType": "uint256",
          "name": "",
          "type": "uint256"
        }
      ],
      "stateMutability": "view",
      "type": "function"
    },
    {
      "inputs": [],
      "name": "emergencyMode",
      "outputs": [
        {
          "internalType": "bool",
          "name": "",
          "type": "bool"
        }
      ],
      "stateMutability": "view",
      "type": "function"
    },
    {
      "inputs": [],
      "name": "emergencyWithdraw",
      "outputs": [],
      "stateMutability": "nonpayable",
      "type": "function"
    },
    {
      "inputs": [
        {
          "internalType": "bool",
          "name": "enabled",
          "type": "bool"
        }
      ],
      "name": "enableAutomation",
      "outputs": [],
      "stateMutability": "nonpayable",
      "type": "function"
    },
    {
      "inputs": [
        {
          "internalType": "address",
          "name": "user",
          "type": "address"
        }
      ],
      "name": "getAutoCompoundStats",
      "outputs": [
        {
          "internalType": "uint256",
          "name": "totalCompoundedAmount",
          "type": "uint256"
        },
        {
          "internalType": "uint256",
          "name": "lastCompoundTimestamp",
          "type": "uint256"
        },
        {
          "internalType": "bool",
          "name": "canCompoundNow",
          "type": "bool"
        },
        {
          "internalType": "uint256",
          "name": "nextCompoundTime",
          "type": "uint256"
        }
      ],
      "stateMutability": "view",
      "type": "function"
    },
    {
      "inputs": [
        {
          "internalType": "address",
          "name": "user",
          "type": "address"
        }
      ],
      "name": "getBlacklistInfo",
      "outputs": [
        {
          "internalType": "bool",
          "name": "isBlacklisted",
          "type": "bool"
        },
        {
          "internalType": "string",
          "name": "reason",
          "type": "string"
        },
        {
          "internalType": "uint256",
          "name": "timestamp",
          "type": "uint256"
        }
      ],
      "stateMutability": "view",
      "type": "function"
    },
    {
      "inputs": [],
      "name": "getCircuitBreakerStatus",
      "outputs": [
        {
          "internalType": "bool",
          "name": "enabled",
          "type": "bool"
        },
        {
          "internalType": "bool",
          "name": "tripped",
          "type": "bool"
        },
        {
          "internalType": "uint256",
          "name": "consecutiveFailureCount",
          "type": "uint256"
        },
        {
          "internalType": "uint256",
          "name": "lastFailure",
          "type": "uint256"
        },
        {
          "internalType": "uint256",
          "name": "nextResetTime",
          "type": "uint256"
        }
      ],
      "stateMutability": "view",
      "type": "function"
    },
    {
      "inputs": [],
      "name": "getDailyMetrics",
      "outputs": [
        {
          "internalType": "uint256",
          "name": "todayRegistrations",
          "type": "uint256"
        },
        {
          "internalType": "uint256",
          "name": "todayWithdrawals",
          "type": "uint256"
        },
        {
          "internalType": "uint256",
          "name": "todayVolume",
          "type": "uint256"
        },
        {
          "internalType": "uint256",
          "name": "userWithdrawalsToday",
          "type": "uint256"
        }
      ],
      "stateMutability": "view",
      "type": "function"
    },
    {
      "inputs": [
        {
          "internalType": "address",
          "name": "user",
          "type": "address"
        }
      ],
      "name": "isAddressRestricted",
      "outputs": [
        {
          "internalType": "bool",
          "name": "",
          "type": "bool"
        }
      ],
      "stateMutability": "view",
      "type": "function"
    },
    {
      "inputs": [],
      "name": "kycRequired",
      "outputs": [
        {
          "internalType": "bool",
          "name": "",
          "type": "bool"
        }
      ],
      "stateMutability": "view",
      "type": "function"
    },
    {
      "inputs": [
        {
          "internalType": "address",
          "name": "",
          "type": "address"
        }
      ],
      "name": "kycTimestamp",
      "outputs": [
        {
          "internalType": "uint256",
          "name": "",
          "type": "uint256"
        }
      ],
      "stateMutability": "view",
      "type": "function"
    },
    {
      "inputs": [
        {
          "internalType": "address",
          "name": "",
          "type": "address"
        }
      ],
      "name": "kycVerified",
      "outputs": [
        {
          "internalType": "bool",
          "name": "",
          "type": "bool"
        }
      ],
      "stateMutability": "view",
      "type": "function"
    },
    {
      "inputs": [
        {
          "internalType": "address",
          "name": "",
          "type": "address"
        }
      ],
      "name": "lastCompoundTime",
      "outputs": [
        {
          "internalType": "uint256",
          "name": "",
          "type": "uint256"
        }
      ],
      "stateMutability": "view",
      "type": "function"
    },
    {
      "inputs": [
        {
          "internalType": "address",
          "name": "",
          "type": "address"
        }
      ],
      "name": "lastDailyReset",
      "outputs": [
        {
          "internalType": "uint256",
          "name": "",
          "type": "uint256"
        }
      ],
      "stateMutability": "view",
      "type": "function"
    },
    {
      "inputs": [],
      "name": "lastFailureTime",
      "outputs": [
        {
          "internalType": "uint256",
          "name": "",
          "type": "uint256"
        }
      ],
      "stateMutability": "view",
      "type": "function"
    },
    {
      "inputs": [
        {
          "internalType": "address",
          "name": "",
          "type": "address"
        }
      ],
      "name": "lastWithdrawalTime",
      "outputs": [
        {
          "internalType": "uint256",
          "name": "",
          "type": "uint256"
        }
      ],
      "stateMutability": "view",
      "type": "function"
    },
    {
      "inputs": [
        {
          "internalType": "uint32",
          "name": "",
          "type": "uint32"
        },
        {
          "internalType": "uint256",
          "name": "",
          "type": "uint256"
        }
      ],
      "name": "matrix",
      "outputs": [
        {
          "internalType": "uint32",
          "name": "",
          "type": "uint32"
        }
      ],
      "stateMutability": "view",
      "type": "function"
    },
    {
      "inputs": [
        {
          "internalType": "uint32",
          "name": "",
          "type": "uint32"
        }
      ],
      "name": "matrixParent",
      "outputs": [
        {
          "internalType": "uint32",
          "name": "",
          "type": "uint32"
        }
      ],
      "stateMutability": "view",
      "type": "function"
    },
    {
      "inputs": [],
      "name": "owner",
      "outputs": [
        {
          "internalType": "address",
          "name": "",
          "type": "address"
        }
      ],
      "stateMutability": "view",
      "type": "function"
    },
    {
      "inputs": [
        {
          "internalType": "uint256",
          "name": "",
          "type": "uint256"
        }
      ],
      "name": "packages",
      "outputs": [
        {
          "internalType": "uint64",
          "name": "",
          "type": "uint64"
        }
      ],
      "stateMutability": "view",
      "type": "function"
    },
    {
      "inputs": [],
      "name": "paused",
      "outputs": [
        {
          "internalType": "bool",
          "name": "",
          "type": "bool"
        }
      ],
      "stateMutability": "view",
      "type": "function"
    },
    {
      "inputs": [
        {
          "internalType": "bytes",
          "name": "performData",
          "type": "bytes"
        }
      ],
      "name": "performUpkeep",
      "outputs": [],
      "stateMutability": "nonpayable",
      "type": "function"
    },
    {
      "inputs": [],
      "name": "pools",
      "outputs": [
        {
          "internalType": "uint64",
          "name": "sponsor",
          "type": "uint64"
        },
        {
          "internalType": "uint64",
          "name": "level",
          "type": "uint64"
        },
        {
          "internalType": "uint64",
          "name": "upline",
          "type": "uint64"
        },
        {
          "internalType": "uint64",
          "name": "leader",
          "type": "uint64"
        },
        {
          "internalType": "uint64",
          "name": "ghp",
          "type": "uint64"
        },
        {
          "internalType": "uint64",
          "name": "leftover",
          "type": "uint64"
        }
      ],
      "stateMutability": "view",
      "type": "function"
    },
    {
      "inputs": [
        {
          "internalType": "address",
          "name": "sponsor",
          "type": "address"
        },
        {
          "internalType": "uint16",
          "name": "tier",
          "type": "uint16"
        }
      ],
      "name": "register",
      "outputs": [],
      "stateMutability": "nonpayable",
      "type": "function"
    },
    {
      "inputs": [
        {
          "internalType": "address",
          "name": "",
          "type": "address"
        }
      ],
      "name": "registrationCooldown",
      "outputs": [
        {
          "internalType": "uint256",
          "name": "",
          "type": "uint256"
        }
      ],
      "stateMutability": "view",
      "type": "function"
    },
    {
      "inputs": [
        {
          "internalType": "address",
          "name": "user",
          "type": "address"
        }
      ],
      "name": "removeFromBlacklist",
      "outputs": [],
      "stateMutability": "nonpayable",
      "type": "function"
    },
    {
      "inputs": [
        {
          "internalType": "address",
          "name": "user",
          "type": "address"
        }
      ],
      "name": "removeFromWhitelist",
      "outputs": [],
      "stateMutability": "nonpayable",
      "type": "function"
    },
    {
      "inputs": [],
      "name": "renounceOwnership",
      "outputs": [],
      "stateMutability": "nonpayable",
      "type": "function"
    },
    {
      "inputs": [],
      "name": "resetCircuitBreaker",
      "outputs": [],
      "stateMutability": "nonpayable",
      "type": "function"
    },
    {
      "inputs": [
        {
          "internalType": "address[]",
          "name": "userList",
          "type": "address[]"
        },
        {
          "internalType": "bool",
          "name": "status",
          "type": "bool"
        }
      ],
      "name": "setBatchKYCStatus",
      "outputs": [],
      "stateMutability": "nonpayable",
      "type": "function"
    },
    {
      "inputs": [
        {
          "internalType": "bool",
          "name": "required",
          "type": "bool"
        }
      ],
      "name": "setKYCRequirement",
      "outputs": [],
      "stateMutability": "nonpayable",
      "type": "function"
    },
    {
      "inputs": [
        {
          "internalType": "address",
          "name": "user",
          "type": "address"
        },
        {
          "internalType": "bool",
          "name": "status",
          "type": "bool"
        }
      ],
      "name": "setKYCStatus",
      "outputs": [],
      "stateMutability": "nonpayable",
      "type": "function"
    },
    {
      "inputs": [
        {
          "internalType": "uint256",
          "name": "limit",
          "type": "uint256"
        }
      ],
      "name": "setWithdrawalLimit",
      "outputs": [],
      "stateMutability": "nonpayable",
      "type": "function"
    },
    {
      "inputs": [],
      "name": "state",
      "outputs": [
        {
          "internalType": "uint32",
          "name": "totalUsers",
          "type": "uint32"
        },
        {
          "internalType": "uint32",
          "name": "lastUserId",
          "type": "uint32"
        },
        {
          "internalType": "uint32",
          "name": "lastGHPTime",
          "type": "uint32"
        },
        {
          "internalType": "uint32",
          "name": "lastLeaderTime",
          "type": "uint32"
        },
        {
          "internalType": "uint32",
          "name": "lastSecurityCheck",
          "type": "uint32"
        },
        {
          "internalType": "bool",
          "name": "automationOn",
          "type": "bool"
        },
        {
          "internalType": "bool",
          "name": "systemLocked",
          "type": "bool"
        },
        {
          "internalType": "uint96",
          "name": "totalVolume",
          "type": "uint96"
        }
      ],
      "stateMutability": "view",
      "type": "function"
    },
    {
      "inputs": [
        {
          "internalType": "address",
          "name": "user",
          "type": "address"
        },
        {
          "internalType": "uint8",
          "name": "level",
          "type": "uint8"
        }
      ],
      "name": "suspendUser",
      "outputs": [],
      "stateMutability": "nonpayable",
      "type": "function"
    },
    {
      "inputs": [],
      "name": "toggleWhitelistMode",
      "outputs": [],
      "stateMutability": "nonpayable",
      "type": "function"
    },
    {
      "inputs": [],
      "name": "token",
      "outputs": [
        {
          "internalType": "contract IERC20",
          "name": "",
          "type": "address"
        }
      ],
      "stateMutability": "view",
      "type": "function"
    },
    {
      "inputs": [
        {
          "internalType": "address",
          "name": "",
          "type": "address"
        }
      ],
      "name": "totalCompounded",
      "outputs": [
        {
          "internalType": "uint256",
          "name": "",
          "type": "uint256"
        }
      ],
      "stateMutability": "view",
      "type": "function"
    },
    {
      "inputs": [
        {
          "internalType": "address",
          "name": "newOwner",
          "type": "address"
        }
      ],
      "name": "transferOwnership",
      "outputs": [],
      "stateMutability": "nonpayable",
      "type": "function"
    },
    {
      "inputs": [],
      "name": "trezorAdmin",
      "outputs": [
        {
          "internalType": "address",
          "name": "",
          "type": "address"
        }
      ],
      "stateMutability": "view",
      "type": "function"
    },
    {
      "inputs": [
        {
          "internalType": "uint256",
          "name": "gasLimit",
          "type": "uint256"
        },
        {
          "internalType": "uint32",
          "name": "maxUsers",
          "type": "uint32"
        }
      ],
      "name": "updateAutomationConfig",
      "outputs": [],
      "stateMutability": "nonpayable",
      "type": "function"
    },
    {
      "inputs": [
        {
          "internalType": "uint32",
          "name": "",
          "type": "uint32"
        }
      ],
      "name": "userAddress",
      "outputs": [
        {
          "internalType": "address",
          "name": "",
          "type": "address"
        }
      ],
      "stateMutability": "view",
      "type": "function"
    },
    {
      "inputs": [
        {
          "internalType": "address",
          "name": "",
          "type": "address"
        }
      ],
      "name": "userDailyWithdrawals",
      "outputs": [
        {
          "internalType": "uint256",
          "name": "",
          "type": "uint256"
        }
      ],
      "stateMutability": "view",
      "type": "function"
    },
    {
      "inputs": [
        {
          "internalType": "address",
          "name": "",
          "type": "address"
        }
      ],
      "name": "users",
      "outputs": [
        {
          "internalType": "uint32",
          "name": "id",
          "type": "uint32"
        },
        {
          "internalType": "uint32",
          "name": "teamSize",
          "type": "uint32"
        },
        {
          "internalType": "uint16",
          "name": "directCount",
          "type": "uint16"
        },
        {
          "internalType": "uint16",
          "name": "packageTier",
          "type": "uint16"
        },
        {
          "internalType": "uint32",
          "name": "matrixPos",
          "type": "uint32"
        },
        {
          "internalType": "uint64",
          "name": "totalEarnings",
          "type": "uint64"
        },
        {
          "internalType": "uint64",
          "name": "withdrawable",
          "type": "uint64"
        },
        {
          "internalType": "uint32",
          "name": "sponsor",
          "type": "uint32"
        },
        {
          "internalType": "uint32",
          "name": "lastActivity",
          "type": "uint32"
        },
        {
          "internalType": "bool",
          "name": "isCapped",
          "type": "bool"
        },
        {
          "internalType": "bool",
          "name": "isKYCVerified",
          "type": "bool"
        },
        {
          "internalType": "uint8",
          "name": "leaderRank",
          "type": "uint8"
        },
        {
          "internalType": "uint8",
          "name": "suspensionLevel",
          "type": "uint8"
        }
      ],
      "stateMutability": "view",
      "type": "function"
    },
    {
      "inputs": [],
      "name": "whitelistMode",
      "outputs": [
        {
          "internalType": "bool",
          "name": "",
          "type": "bool"
        }
      ],
      "stateMutability": "view",
      "type": "function"
    },
    {
      "inputs": [
        {
          "internalType": "address",
          "name": "",
          "type": "address"
        }
      ],
      "name": "whitelistedAddresses",
      "outputs": [
        {
          "internalType": "bool",
          "name": "",
          "type": "bool"
        }
      ],
      "stateMutability": "view",
      "type": "function"
    },
    {
      "inputs": [],
      "name": "withdraw",
      "outputs": [],
      "stateMutability": "nonpayable",
      "type": "function"
    },
    {
      "inputs": [],
      "name": "withdrawalLimit",
      "outputs": [
        {
          "internalType": "uint256",
          "name": "",
          "type": "uint256"
        }
      ],
      "stateMutability": "view",
      "type": "function"
    }
  ],
  "bytecode": "0x6101806040526305f5e10060e0908152630bebc20061010052631dcd650061012052633b9aca00610140526377359400610160526200004390600b906005620004e2565b506015805460ff199081166001179091556402540be40060165560178054821690556103e86018556024805482169055600060308190556031556032805490911690553480156200009357600080fd5b5060405162006ee138038062006ee1833981016040819052620000b691620005bf565b3380620000dd57604051631e4fbdf760e01b81526000600482015260240160405180910390fd5b620000e88162000492565b5060018081905550816001600160a01b03166080816001600160a01b031681525050806001600160a01b031660c0816001600160a01b031681525050604051806101a00160405280600163ffffffff168152602001600063ffffffff168152602001600061ffff168152602001600561ffff168152602001600163ffffffff16815260200160006001600160401b0316815260200160006001600160401b03168152602001600063ffffffff1681526020014263ffffffff168152602001600015158152602001600115158152602001600060ff168152602001600060ff1681525060076000806001600160a01b03166001600160a01b0316815260200190815260200160002060008201518160000160006101000a81548163ffffffff021916908363ffffffff16021790555060208201518160000160046101000a81548163ffffffff021916908363ffffffff16021790555060408201518160000160086101000a81548161ffff021916908361ffff160217905550606082015181600001600a6101000a81548161ffff021916908361ffff160217905550608082015181600001600c6101000a81548163ffffffff021916908363ffffffff16021790555060a08201518160000160106101000a8154816001600160401b0302191690836001600160401b0316021790555060c08201518160000160186101000a8154816001600160401b0302191690836001600160401b0316021790555060e08201518160010160006101000a81548163ffffffff021916908363ffffffff1602179055506101008201518160010160046101000a81548163ffffffff021916908363ffffffff1602179055506101208201518160010160086101000a81548160ff0219169083151502179055506101408201518160010160096101000a81548160ff02191690831515021790555061016082015181600101600a6101000a81548160ff021916908360ff16021790555061018082015181600101600b6101000a81548160ff021916908360ff160217905550905050600060086000600163ffffffff16815260200190815260200160002060006101000a8154816001600160a01b0302191690836001600160a01b031602179055506001600360000160006101000a81548163ffffffff021916908363ffffffff1602179055506001600360000160046101000a81548163ffffffff021916908363ffffffff16021790555042600360000160106101000a81548163ffffffff021916908363ffffffff1602179055505050620005f7565b600080546001600160a01b038381166001600160a01b0319831681178455604051919092169283917f8be0079c531659141344cd1fd0a4f28419497f9722a3daafe3b4186f6b6457e09190a35050565b600283019183908215620005795791602002820160005b838211156200054257835183826101000a8154816001600160401b03021916908363ffffffff1602179055509260200192600801602081600701049283019260010302620004f9565b8015620005775782816101000a8154906001600160401b03021916905560080160208160070104928301926001030262000542565b505b50620005879291506200058b565b5090565b5b808211156200058757600081556001016200058c565b80516001600160a01b0381168114620005ba57600080fd5b919050565b60008060408385031215620005d357600080fd5b620005de83620005a2565b9150620005ee60208401620005a2565b90509250929050565b60805160a05160c0516167ef620006f26000396000818161052901528181610f1c01528181611161015281816113d7015281816115b0015281816116da015281816117840152818161183701528181611901015281816119ea01528181611f2d01528181611ff1015281816123190152818161240d015281816126c00152818161275d015281816127f4015281816128cf01528181612bb901528181612caf0152818161304a0152818161317d01526132c1015260008181610ea20152818161198601528181611fb40152612f95015260008181610eef01528181612f3f01528181612f73015281816137d70152613d8101526167ef6000f3fe608060405234801561001057600080fd5b50600436106104495760003560e01c80638ee0211e11610241578063cf7a7e641161013b578063e33f571b116100c3578063f038ce7511610087578063f038ce7514610e20578063f2fde38b14610e8a578063f851a44014610e9d578063fbed520814610ec4578063fc0c546a14610eea57600080fd5b8063e33f571b14610d43578063e43252d714610d4c578063e4967b0b14610d5f578063e9b143c614610ddb578063eb8c8d4114610dee57600080fd5b8063d92413481161010a578063d924134814610c97578063db2e21bc14610cb7578063db44877b14610cbf578063dd89acf314610cdf578063de5f8d9314610d3b57600080fd5b8063cf7a7e6414610b94578063d07e90a314610c1c578063d4c3813814610c55578063d5749d4214610c7557600080fd5b8063ab5e16e3116101c9578063c124a2471161018d578063c124a247146109fe578063c19d93fb14610a11578063c216212a14610ac7578063c5c51dca14610af2578063ceb0a16f14610b7457600080fd5b8063ab5e16e314610995578063af3eaabd146109a8578063b0ff6383146109c8578063b834324e146109d1578063b9699091146109f157600080fd5b8063a3f569ae11610210578063a3f569ae1461080a578063a5410a661461081d578063a6db8d2f14610840578063a87430ba14610853578063aa3ddbbf1461098257600080fd5b80638ee0211e146107d25780639296530b146107da578063943ca3b9146107e257806399b20eaf1461080257600080fd5b8063584b236c1161035257806371f8fa04116102da5780637ddfe78d1161029e5780637ddfe78d1461075a578063827715031461076357806387371c171461078b5780638ab1d681146107ae5780638da5cb5b146107c157600080fd5b806371f8fa04146106cc57806372be8d8d146106df57806375f1c8e5146106f25780637813d7821461071a5780637bb3c0be1461073a57600080fd5b80636b36f995116103215780636b36f995146106545780636b8fbdc4146106745780636e04ff0d1461069657806370c757ec146106b7578063715018a6146106c457600080fd5b8063584b236c1461061a5780635a0768ce146106235780635a6e435d146106365780635c975abb1461064957600080fd5b8063277d3d54116103d55780634de5120e116103a45780634de5120e146105ae5780634f57b437146105ce578063537df3b6146105e157806355bba86e146105f4578063576da8271461060757600080fd5b8063277d3d54146105605780632957d848146105805780633ccfd60b146105935780634585e33b1461059b57600080fd5b806318531d771161041c57806318531d77146104eb57806319568118146104f85780631cad69541461050457806321d3af9a14610524578063247bb06f1461054b57600080fd5b806306c933d81461044e578063078fac75146104865780630905f560146104c75780630b6a577d146104d4575b600080fd5b61047161045c366004615d6c565b60216020526000908152604090205460ff1681565b60405190151581526020015b60405180910390f35b6104af610494366004615da2565b6008602052600090815260409020546001600160a01b031681565b6040516001600160a01b03909116815260200161047d565b6017546104719060ff1681565b6104dd60185481565b60405190815260200161047d565b6032546104719060ff1681565b6104dd64012a05f20081565b6104dd610512366004615d6c565b60146020526000908152604090205481565b6104af7f000000000000000000000000000000000000000000000000000000000000000081565b61055e610559366004615ddf565b610f11565b005b6104dd61056e366004615d6c565b601e6020526000908152604090205481565b61055e61058e366004615e90565b611156565b61055e6112ff565b61055e6105a9366004615f12565b611379565b6104dd6105bc366004615d6c565b600f6020526000908152604090205481565b61055e6105dc366004615f47565b6113cc565b61055e6105ef366004615d6c565b6115a5565b61055e610602366004615f9a565b6116cf565b61055e610615366004615fb5565b611779565b6104dd60305481565b61055e610631366004615fe1565b61182c565b61055e610644366004615ffa565b6118f6565b60025460ff16610471565b6104dd610662366004615d6c565b60106020526000908152604090205481565b610687610682366004615d6c565b611c0c565b60405161047d939291906160ab565b6106a96106a4366004615f12565b611cdb565b60405161047d9291906160d6565b6024546104719060ff1681565b61055e611f10565b61055e6106da3660046160f9565b611f22565b61055e6106ed36600461614b565b61215d565b610705610700366004616175565b6121e3565b60405163ffffffff909116815260200161047d565b6104dd610728366004615d6c565b60116020526000908152604090205481565b61074d610748366004615d6c565b612222565b60405161047d919061619f565b6104dd60165481565b61076b6122bc565b60408051948552602085019390935291830152606082015260800161047d565b610471610799366004615d6c565b600e6020526000908152604090205460ff1681565b61055e6107bc366004615d6c565b61230e565b6000546001600160a01b03166104af565b61055e612402565b61055e6126b5565b6104dd6107f0366004615fe1565b602e6020526000908152604090205481565b61055e612752565b61055e6108183660046161b2565b6127e9565b61047161082b366004615d6c565b60136020526000908152604090205460ff1681565b61055e61084e3660046161dc565b6128c4565b6108fa610861366004615d6c565b6007602052600090815260409020805460019091015463ffffffff80831692600160201b80820483169361ffff600160401b808504821695600160501b80870490931695600160601b81048216956001600160401b03600160801b8304811696600160c01b9093041694828416949183049093169260ff918304821692600160481b8104831692918104821691600160581b909104168d565b6040805163ffffffff9e8f1681529c8e1660208e015261ffff9b8c16908d01529890991660608b0152958a1660808a01526001600160401b0394851660a08a01529290931660c0880152871660e0870152951661010085015293151561012084015292151561014083015260ff9081166101608301529091166101808201526101a00161047d565b61055e610990366004615f9a565b612bae565b6104716109a3366004615d6c565b612c3c565b6104dd6109b6366004615d6c565b60236020526000908152604090205481565b6104dd610e1081565b6104dd6109df366004615fe1565b602d6020526000908152604090205481565b6015546104719060ff1681565b61055e610a0c366004615f12565b612ca4565b600354600454610a6f9163ffffffff80821692600160201b8304821692600160401b8104831692600160601b8204811692600160801b83049091169160ff600160a01b8204811692600160a81b90920416906001600160601b031688565b6040805163ffffffff998a16815297891660208901529588169587019590955292861660608601529416608084015292151560a083015291151560c08201526001600160601b0390911660e08201526101000161047d565b610ada610ad5366004615fe1565b612d47565b6040516001600160401b03909116815260200161047d565b600554600654610b32916001600160401b0380821692600160401b808404831693600160801b8104841693600160c01b9091048116928082169290041686565b604080516001600160401b03978816815295871660208701529386169385019390935290841660608401528316608083015290911660a082015260c00161047d565b6104dd610b82366004615d6c565b60126020526000908152604090205481565b600d54610bda906001600160401b0381169063ffffffff600160401b8204811691600160601b81049091169061ffff600160801b8204169060ff600160901b9091041685565b604080516001600160401b0396909616865263ffffffff9485166020870152929093169184019190915261ffff1660608301521515608082015260a00161047d565b610c2f610c2a366004615d6c565b612d7a565b60408051948552602085019390935290151591830191909152606082015260800161047d565b6104dd610c63366004615d6c565b602f6020526000908152604090205481565b610471610c83366004615d6c565b602080526000908152604090205460ff1681565b6104dd610ca5366004615d6c565b601f6020526000908152604090205481565b61055e612dd4565b6104dd610ccd366004615fe1565b602c6020526000908152604090205481565b602554602654602754602854602954602a54602b54610d049660ff1695949392919087565b6040805197151588526020880196909652948601939093526060850191909152608084015260a083015260c082015260e00161047d565b61055e61303f565b6104dd60315481565b61055e610d5a366004615d6c565b613172565b601b54601c54601d54610d9b9260ff81169261ffff610100830481169363010000008404821693600160281b9004909116919063ffffffff1686565b60408051961515875261ffff95861660208801529385169386019390935292166060840152608083019190915263ffffffff1660a082015260c00161047d565b61055e610de9366004616240565b6132b6565b610df6613418565b6040805195151586529315156020860152928401919091526060830152608082015260a00161047d565b601954601a54610e559160ff8082169263ffffffff6101008404811693600160281b810490911692600160481b909104169085565b60408051951515865263ffffffff9485166020870152929093169184019190915215156060830152608082015260a00161047d565b61055e610e98366004615d6c565b613457565b6104af7f000000000000000000000000000000000000000000000000000000000000000081565b610705610ed2366004615da2565b600a6020526000908152604090205463ffffffff1681565b6104af7f000000000000000000000000000000000000000000000000000000000000000081565b336001600160a01b037f00000000000000000000000000000000000000000000000000000000000000001614610f625760405162461bcd60e51b8152600401610f599061626a565b60405180910390fd5b82610f6d85876162b7565b610f7791906162b7565b61ffff1661271014610fc45760405162461bcd60e51b8152602060048201526016602482015275536861726573206d75737420657175616c203130302560501b6044820152606401610f59565b629896808210156110105760405162461bcd60e51b81526020600482015260166024820152754d696e696d756d20616d6f756e7420746f6f206c6f7760501b6044820152606401610f59565b610e108163ffffffff16101561105d5760405162461bcd60e51b815260206004820152601260248201527110dbdbdb191bdddb881d1bdbc81cda1bdc9d60721b6044820152606401610f59565b6040805160c08101825287151580825261ffff88811660208085018290528983168587018190529289166060808701829052608087018a905263ffffffff891660a0909701879052601b805462ffffff191662ffff00199097169690961761010085021766ffffffff00000019166301000000860266ffff0000000000191617600160281b830217909555601c899055601d805463ffffffff1916909617909555855193840186529083528201528083019190915290517fb2b519101e1d82586226414d7a6d1d01a536cde463d2b6285af49ba5b0a963e59161114691899190869086906162d9565b60405180910390a1505050505050565b336001600160a01b037f0000000000000000000000000000000000000000000000000000000000000000161461119e5760405162461bcd60e51b8152600401610f599061626a565b60005b818110156112fa5760008383838181106111bd576111bd61632b565b90506020020160208101906111d29190615d6c565b6001600160a01b03161415801561122e5750602160008484848181106111fa576111fa61632b565b905060200201602081019061120f9190615d6c565b6001600160a01b0316815260208101919091526040016000205460ff16155b156112f25760016021600085858581811061124b5761124b61632b565b90506020020160208101906112609190615d6c565b6001600160a01b031681526020810191909152604001600020805460ff191691151591909117905582828281811061129a5761129a61632b565b90506020020160208101906112af9190615d6c565b6001600160a01b03167fa11cc21b0ad957c5712c33442823fc681b65eff6b567cd247273afd1fe2e6478426040516112e991815260200190565b60405180910390a25b6001016111a1565b505050565b611307613495565b60155460ff1615611366573360009081526013602052604090205460ff16801561134a575033600090815260076020526040902060010154600160481b900460ff165b6113665760405162461bcd60e51b8152600401610f5990616341565b61136e6134bf565b61137760018055565b565b600354600160a81b900460ff16156113a45760405163726994c960e11b815260040160405180910390fd5b600080806113b484860186616378565b9250925092506113c583838361383d565b5050505050565b336001600160a01b037f000000000000000000000000000000000000000000000000000000000000000016146114145760405162461bcd60e51b8152600401610f599061626a565b60005b8281101561159f5781601360008686858181106114365761143661632b565b905060200201602081019061144b9190615d6c565b6001600160a01b03166001600160a01b0316815260200190815260200160002060006101000a81548160ff02191690831515021790555081600760008686858181106114995761149961632b565b90506020020160208101906114ae9190615d6c565b6001600160a01b03166001600160a01b0316815260200190815260200160002060010160096101000a81548160ff02191690831515021790555042601460008686858181106114ff576114ff61632b565b90506020020160208101906115149190615d6c565b6001600160a01b031681526020810191909152604001600020558383828181106115405761154061632b565b90506020020160208101906115559190615d6c565b6001600160a01b03167fa2c3276770fbba49137d4f6145f5306d181eb450e016bee9df0e78c729554e574260405161158f91815260200190565b60405180910390a2600101611417565b50505050565b336001600160a01b037f000000000000000000000000000000000000000000000000000000000000000016146115ed5760405162461bcd60e51b8152600401610f599061626a565b6001600160a01b038116600090815260208052604090205460ff166116465760405162461bcd60e51b815260206004820152600f60248201526e139bdd08189b1858dadb1a5cdd1959608a1b6044820152606401610f59565b6001600160a01b038116600090815260208080526040808320805460ff191690556022909152812061167791615d02565b6001600160a01b03811660008181526023602052604080822091909155517fb0f3f98903c1dc0453c31fdf6ad57acd46eb8362d620b39fe97cd40ed418a1f9906116c49042815260200190565b60405180910390a250565b336001600160a01b037f000000000000000000000000000000000000000000000000000000000000000016146117175760405162461bcd60e51b8152600401610f599061626a565b6019805460ff19168215159081179091556003805460ff60a01b1916600160a01b8302179055604080519182524260208301527f9eeb4b9f799bdd59acc73da7d310956e92987d5c5a48df700cb6756ec04f765591015b60405180910390a150565b336001600160a01b037f000000000000000000000000000000000000000000000000000000000000000016146117c15760405162461bcd60e51b8152600401610f599061626a565b601a8290556019805464ffffffff00191661010063ffffffff84169081029190911790915560408051848152602081019290925242908201527f61e549be3b5edc2df8704d2c434dc3e53aca861eb86865c9c5016e98fd44e0d0906060015b60405180910390a15050565b336001600160a01b037f000000000000000000000000000000000000000000000000000000000000000016146118745760405162461bcd60e51b8152600401610f599061626a565b633b9aca008110156118bc5760405162461bcd60e51b8152602060048201526011602482015270135a5b9a5b5d5b480c4c0c0c081554d115607a1b6044820152606401610f59565b6016819055604080518281524260208201527f29ec658c8f9beaadb8924fd66e1640e4c0be03fa5eb514db23b8146d2552648c910161176e565b336001600160a01b037f0000000000000000000000000000000000000000000000000000000000000000161461193e5760405162461bcd60e51b8152600401610f599061626a565b60005b838110156113c557600085858381811061195d5761195d61632b565b90506020020160208101906119729190615d6c565b6001600160a01b0316141580156119e157507f00000000000000000000000000000000000000000000000000000000000000006001600160a01b03168585838181106119c0576119c061632b565b90506020020160208101906119d59190615d6c565b6001600160a01b031614155b8015611a4557507f00000000000000000000000000000000000000000000000000000000000000006001600160a01b0316858583818110611a2457611a2461632b565b9050602002016020810190611a399190615d6c565b6001600160a01b031614155b8015611a96575060206000868684818110611a6257611a6261632b565b9050602002016020810190611a779190615d6c565b6001600160a01b0316815260208101919091526040016000205460ff16155b15611c0457600160206000878785818110611ab357611ab361632b565b9050602002016020810190611ac89190615d6c565b6001600160a01b03166001600160a01b0316815260200190815260200160002060006101000a81548160ff021916908315150217905550828260226000888886818110611b1757611b1761632b565b9050602002016020810190611b2c9190615d6c565b6001600160a01b03168152602081019190915260400160002091611b51919083616452565b504260236000878785818110611b6957611b6961632b565b9050602002016020810190611b7e9190615d6c565b6001600160a01b03168152602081019190915260400160002055848482818110611baa57611baa61632b565b9050602002016020810190611bbf9190615d6c565b6001600160a01b03167feba43d9b7419114df0e69d033a007455749f4063b29b94104e431bd72859c839848442604051611bfb93929190616511565b60405180910390a25b600101611941565b6001600160a01b03811660009081526020808052604080832054602283528184206023909352908320548254606093859360ff169290918290611c4e906163c8565b80601f0160208091040260200160405190810160405280929190818152602001828054611c7a906163c8565b8015611cc75780601f10611c9c57610100808354040283529160200191611cc7565b820191906000526020600020905b815481529060010190602001808311611caa57829003601f168201915b505050505091509250925092509193909250565b600354600090606090600160a01b900460ff161580611cfd575060195460ff16155b80611d115750600354600160a81b900460ff165b15611d2e5750506040805160208101909152600080825290611f09565b600354600090611d4f9062093a8090600160401b900463ffffffff1661654a565b4210158015611d6e5750600654633b9aca006001600160401b03909116115b600354909150600090611d92906212750090600160601b900463ffffffff1661654a565b4210158015611db75750600554631dcd6500600160c01b9091046001600160401b0316115b601954909150600160481b900460ff1615611e6857600354601954600160201b90910463ffffffff908116600160281b909204161015611e6357600082611e0b5781611e04576000611e0e565b6002611e0e565b60015b6019546040805160ff8416602082015263ffffffff600160281b840481169282019290925261010090920416606082015290915060019060800160405160208183030381529060405294509450505050611f09565b611ef0565b8115611eb7576019546040805160016020820181905260009282019290925261010090920463ffffffff166060830152906080015b604051602081830303815290604052935093505050611f09565b8015611ef057601954604080516002602082015260009181019190915261010090910463ffffffff166060820152600190608001611e9d565b6000604051806020016040528060008152509350935050505b9250929050565b611f18613a98565b6113776000613ac5565b336001600160a01b037f00000000000000000000000000000000000000000000000000000000000000001614611f6a5760405162461bcd60e51b8152600401610f599061626a565b6001600160a01b038316611fb25760405162461bcd60e51b815260206004820152600f60248201526e496e76616c6964206164647265737360881b6044820152606401610f59565b7f00000000000000000000000000000000000000000000000000000000000000006001600160a01b0316836001600160a01b03161415801561202657507f00000000000000000000000000000000000000000000000000000000000000006001600160a01b0316836001600160a01b031614155b61206b5760405162461bcd60e51b815260206004820152601660248201527521b0b73737ba10313630b1b5b634b9ba1030b236b4b760511b6044820152606401610f59565b6001600160a01b038316600090815260208052604090205460ff16156120c95760405162461bcd60e51b8152602060048201526013602482015272105b1c9958591e48189b1858dadb1a5cdd1959606a1b6044820152606401610f59565b6001600160a01b038316600090815260208080526040808320805460ff19166001179055602290915290206120ff828483616452565b506001600160a01b03831660008181526023602052604090819020429081905590517feba43d9b7419114df0e69d033a007455749f4063b29b94104e431bd72859c839916121509186918691616511565b60405180910390a2505050565b612165613495565b61216d613b15565b60155460ff16156121cc573360009081526013602052604090205460ff1680156121b0575033600090815260076020526040902060010154600160481b900460ff165b6121cc5760405162461bcd60e51b8152600401610f5990616341565b6121d68282613b39565b6121df60018055565b5050565b600960205281600052604060002081600281106121ff57600080fd5b60089182820401919006600402915091509054906101000a900463ffffffff1681565b6022602052600090815260409020805461223b906163c8565b80601f0160208091040260200160405190810160405280929190818152602001828054612267906163c8565b80156122b45780601f10612289576101008083540402835291602001916122b4565b820191906000526020600020905b81548152906001019060200180831161229757829003601f168201915b505050505081565b6000808080806122cf6201518042616579565b6000908152602c6020908152604080832054602d835281842054602e845282852054338652602f90945291909320549297509550935091505090919293565b336001600160a01b037f000000000000000000000000000000000000000000000000000000000000000016146123565760405162461bcd60e51b8152600401610f599061626a565b6001600160a01b03811660009081526021602052604090205460ff166123b05760405162461bcd60e51b815260206004820152600f60248201526e139bdd081dda1a5d195b1a5cdd1959608a1b6044820152606401610f59565b6001600160a01b03811660008181526021602052604090819020805460ff19169055517fe6fc5891768574fd26826ed63eceef2bb1178336a5c9d45b74984e50843a13ce906116c49042815260200190565b336001600160a01b037f0000000000000000000000000000000000000000000000000000000000000000161461244a5760405162461bcd60e51b8152600401610f599061626a565b600654600160401b90046001600160401b031661249d5760405162461bcd60e51b81526020600482015260116024820152704e6f206c6566746f7665722066756e647360781b6044820152606401610f59565b600680546fffffffffffffffff0000000000000000198116909155600160401b90046001600160401b0316600060015b60035463ffffffff600160201b90910481169082161161258d5763ffffffff81166000908152600860205260409020546001600160a01b0316801580159061253857506001600160a01b038116600090815260076020526040902060010154600160401b900460ff16155b801561256757506001600160a01b038116600090815260076020526040902060010154600160581b900460ff16155b1561257a57826125768161658d565b9350505b50806125858161658d565b9150506124cd565b5063ffffffff8116156126705760006125ac63ffffffff831684616579565b905060015b60035463ffffffff600160201b90910481169082161161266d5763ffffffff81166000908152600860205260409020546001600160a01b0316801580159061261c57506001600160a01b038116600090815260076020526040902060010154600160401b900460ff16155b801561264b57506001600160a01b038116600090815260076020526040902060010154600160581b900460ff16155b1561265a5761265a8184613f32565b50806126658161658d565b9150506125b1565b50505b6040805183815263ffffffff8316602082015242918101919091527f840080afed76729be4622230b5df964a9cc86c0b8c685d4ad4f6c6bf485baed390606001611820565b336001600160a01b037f000000000000000000000000000000000000000000000000000000000000000016146126fd5760405162461bcd60e51b8152600401610f599061626a565b6024805460ff8082161560ff1990921682179092556040805191909216151581524260208201527f4a06a74034bc357c7fafe7949efb72d2e886364c5f086d424ab853d67bb0d92791015b60405180910390a1565b336001600160a01b037f0000000000000000000000000000000000000000000000000000000000000000161461279a5760405162461bcd60e51b8152600401610f599061626a565b6017805460ff191690556003805460ff60a81b191690556127b9614319565b6040514281527f3e10b46f9c4daa09ffe0fbd5131f7a3bd8b2e6e570cef8d38c3fd8d3b2d5524290602001612748565b336001600160a01b037f000000000000000000000000000000000000000000000000000000000000000016146128315760405162461bcd60e51b8152600401610f599061626a565b6001600160a01b0382166000818152601360209081526040808320805460ff191686151590811790915560078352818420600101805469ff0000000000000000001916600160481b9092029190911790556014825291829020429081905591519182527fa2c3276770fbba49137d4f6145f5306d181eb450e016bee9df0e78c729554e5791015b60405180910390a25050565b336001600160a01b037f0000000000000000000000000000000000000000000000000000000000000000161461290c5760405162461bcd60e51b8152600401610f599061626a565b6000861161295c5760405162461bcd60e51b815260206004820152601a60248201527f496e76616c696420726567697374726174696f6e206c696d69740000000000006044820152606401610f59565b600085116129ac5760405162461bcd60e51b815260206004820152601860248201527f496e76616c6964207769746864726177616c206c696d697400000000000000006044820152606401610f59565b633b9aca00841015612a005760405162461bcd60e51b815260206004820152601960248201527f53696e676c65207769746864726177616c20746f6f206c6f77000000000000006044820152606401610f59565b60008311612a475760405162461bcd60e51b8152602060048201526014602482015273125b9d985b1a59081d9bdb1d5b59481b1a5b5a5d60621b6044820152606401610f59565b6003821015612a985760405162461bcd60e51b815260206004820152601960248201527f4661696c757265207468726573686f6c6420746f6f206c6f77000000000000006044820152606401610f59565b610e10811015612adf5760405162461bcd60e51b815260206004820152601260248201527110dbdbdb191bdddb881d1bdbc81cda1bdc9d60721b6044820152606401610f59565b6040805160e08101825288151580825260208083018a90528284018990526060808401899052608080850189905260a080860189905260c09095018790526025805460ff191690941790935560268b905560278a905560288990556029889055602a879055602b869055845193840185528a84529083018990528284018890528201869052810184905290517f3cf8a4668330ebfe3ded687ede9eb5d82a1b0105b4b3b7f0376bf40f9eb305fc91612b9d918a9190869086906165b0565b60405180910390a150505050505050565b336001600160a01b037f00000000000000000000000000000000000000000000000000000000000000001614612bf65760405162461bcd60e51b8152600401610f599061626a565b6015805460ff1916821515908117909155604080519182524260208301527fd2d89cefa075ce24837dff7180d4f54de5bc5cbf12beb8a774d4844f6ff74aec910161176e565b6001600160a01b038116600090815260208052604081205460ff1615612c6457506001919050565b60245460ff168015612c8f57506001600160a01b03821660009081526021602052604090205460ff16155b15612c9c57506001919050565b506000919050565b336001600160a01b037f00000000000000000000000000000000000000000000000000000000000000001614612cec5760405162461bcd60e51b8152600401610f599061626a565b6017805460ff191660011790556003805460ff60a81b1916600160a81b179055612d14614366565b7fbcd8e986e105f13da777f7388098505da80a6ec23119b3d7efb070f3b874869482824260405161182093929190616511565b600b8160058110612d5757600080fd5b60049182820401919006600802915054906101000a90046001600160401b031681565b6001600160a01b0381166000908152601f6020908152604080832054601e909252822054601d54919290918190612db79063ffffffff168461654a565b9050804210158015612dcb5750601b5460ff165b91509193509193565b612ddc613495565b60155460ff1615612e3b573360009081526013602052604090205460ff168015612e1f575033600090815260076020526040902060010154600160481b900460ff165b612e3b5760405162461bcd60e51b8152600401610f5990616341565b60175460ff16612e855760405162461bcd60e51b81526020600482015260156024820152744e6f7420696e20656d657267656e6379206d6f646560581b6044820152606401610f59565b33600090815260076020526040902054600160c01b90046001600160401b031680612eeb5760405162461bcd60e51b8152602060048201526016602482015275139bc81dda5d1a191c985dd8589b1948185b5bdd5b9d60521b6044820152606401610f59565b33600090815260076020526040812080546001600160c01b0316905560185461271090612f1890846165f6565b612f229190616579565b90506000612f30828461660d565b9050612f666001600160a01b037f00000000000000000000000000000000000000000000000000000000000000001633836143a3565b612fba6001600160a01b037f0000000000000000000000000000000000000000000000000000000000000000167f0000000000000000000000000000000000000000000000000000000000000000846143a3565b6040805182815242602082015233917fdf273cb619d95419a9cd0ec88123a0538c85064229baa6363788f743fff90deb910160405180910390a26040805183815260016020820152428183015290517f840080afed76729be4622230b5df964a9cc86c0b8c685d4ad4f6c6bf485baed39181900360600190a150505061137760018055565b336001600160a01b037f000000000000000000000000000000000000000000000000000000000000000016146130875760405162461bcd60e51b8152600401610f599061626a565b60325460ff166130d95760405162461bcd60e51b815260206004820152601b60248201527f4369726375697420627265616b6572206e6f74207472697070656400000000006044820152606401610f59565b602b546031546130e9919061654a565b42101561312b5760405162461bcd60e51b815260206004820152601060248201526f10dbdbdb191bdddb881b9bdd081b595d60821b6044820152606401610f59565b6032805460ff191690556000603055613142614319565b6040514281527fcdce3dd4437cfe68002ed06c2f62be3eae06c268cb56d71b3c98825f4f9d7d3490602001612748565b336001600160a01b037f000000000000000000000000000000000000000000000000000000000000000016146131ba5760405162461bcd60e51b8152600401610f599061626a565b6001600160a01b0381166132025760405162461bcd60e51b815260206004820152600f60248201526e496e76616c6964206164647265737360881b6044820152606401610f59565b6001600160a01b03811660009081526021602052604090205460ff16156132615760405162461bcd60e51b8152602060048201526013602482015272105b1c9958591e481dda1a5d195b1a5cdd1959606a1b6044820152606401610f59565b6001600160a01b03811660008181526021602052604090819020805460ff19166001179055517fa11cc21b0ad957c5712c33442823fc681b65eff6b567cd247273afd1fe2e6478906116c49042815260200190565b336001600160a01b037f000000000000000000000000000000000000000000000000000000000000000016146132fe5760405162461bcd60e51b8152600401610f599061626a565b60028160ff1611156133525760405162461bcd60e51b815260206004820152601860248201527f496e76616c69642073757370656e73696f6e206c6576656c00000000000000006044820152606401610f59565b6001600160a01b03821660008181526007602052604090206001908101805460ff60581b1916600160581b60ff8616908102919091179091557f6f351e36c7babe44a5305e86f0248d29b31c4ecd9861b0ae6621b74c3c6615d291146133e157604051806040016040528060118152602001701058d8dbdd5b9d081cdd5cdc195b991959607a1b815250613409565b6040518060400160405280600e81526020016d15d85c9b9a5b99c81a5cdcdd595960921b8152505b426040516128b8929190616620565b602554603254603054603154602b54600094859485948594859460ff9485169490931692613446908261654a565b945094509450945094509091929394565b61345f613a98565b6001600160a01b03811661348957604051631e4fbdf760e01b815260006004820152602401610f59565b61349281613ac5565b50565b6002600154036134b857604051633ee5aeb560e01b815260040160405180910390fd5b6002600155565b600354600160a81b900460ff16156134ea5760405163726994c960e11b815260040160405180910390fd5b60175460ff161561354d5760405162461bcd60e51b815260206004820152602760248201527f55736520656d657267656e6379576974686472617720696e20656d657267656e6044820152666379206d6f646560c81b6064820152608401610f59565b33600090815260076020526040902060010154600160581b900460ff16156135ab5760405162461bcd60e51b81526020600482015260116024820152701058d8dbdd5b9d081cdd5cdc195b991959607a1b6044820152606401610f59565b336000908152601160205260409020546135c8906201518061654a565b42106135ee57336000908152601060209081526040808320839055601190915290204290555b33600090815260076020526040902054600160c01b90046001600160401b0316806136545760405162461bcd60e51b8152602060048201526016602482015275139bc81dda5d1a191c985dd8589b1948185b5bdd5b9d60521b6044820152606401610f59565b64012a05f2008111156136b55760405162461bcd60e51b8152602060048201526024808201527f416d6f756e742065786365656473207065722d7472616e73616374696f6e206c6044820152631a5b5a5d60e21b6064820152608401610f59565b601654336000908152601060205260409020546136d390839061654a565b11156137215760405162461bcd60e51b815260206004820152601f60248201527f4461696c79207769746864726177616c206c696d6974206578636565646564006044820152606401610f59565b336000908152600f602052604090205461373d90610e1061654a565b4210156137845760405162461bcd60e51b815260206004820152601560248201527415da5d1a191c985dd85b081c985d19481b1a5b5a5d605a1b6044820152606401610f59565b33600090815260076020908152604080832080546001600160c01b031690556010909152812080548392906137ba90849061654a565b9091555050336000818152600f60205260409020429055613806907f00000000000000000000000000000000000000000000000000000000000000006001600160a01b031690836143a3565b6040805182815242602082015233917fdf273cb619d95419a9cd0ec88123a0538c85064229baa6363788f743fff90deb91016116c4565b60006138498284616642565b60035490915063ffffffff600160201b909104811690821611156138795750600354600160201b900463ffffffff165b6040805160ff8616815263ffffffff858116602083015283168183015242606082015290517f679ce80379e80604047c7be62236b7e630e938e2a4f422fcda7adf411c13d2b99181900360800190a18360ff166001036138e2576138dd8382614402565b6138f7565b8360ff166002036138f7576138f783826145d4565b6019805468ffffffff00000000001916600160281b63ffffffff84811691820292909217909255600354600160201b9004161161159f576019805469ffffffffff00000000001916905560ff84166001036139e957600380546bffffffff00000000000000001916600160401b4263ffffffff908116918202929092179283905560065460408051600181526001600160401b039092166020830152600160201b90940490921682840152606082015290517fee911652a8050f39ea81bad719fda6a283406eb9fd5a6235dda1da1baff355929181900360800190a16006805467ffffffffffffffff1916905561159f565b8360ff1660020361159f576003805463ffffffff60601b1916600160601b4263ffffffff90811691820292909217928390556005546040805160028152600160c01b9092046001600160401b03166020830152600160201b9094049092169282019290925260608101919091527fee911652a8050f39ea81bad719fda6a283406eb9fd5a6235dda1da1baff355929060800160405180910390a1600580546001600160c01b0316905550505050565b6000546001600160a01b031633146113775760405163118cdaa760e01b8152336004820152602401610f59565b600080546001600160a01b038381166001600160a01b0319831681178455604051919092169283917f8be0079c531659141344cd1fd0a4f28419497f9722a3daafe3b4186f6b6457e09190a35050565b60025460ff16156113775760405163d93c066560e01b815260040160405180910390fd5b600354600160a81b900460ff1615613b645760405163726994c960e11b815260040160405180910390fd5b60035461c35063ffffffff90911610613b8f5760405162aaa60160e01b815260040160405180910390fd5b33600090815260126020526040902054421015613bbf5760405163a74c1c5f60e01b815260040160405180910390fd5b60008161ffff16118015613bd8575060058161ffff1611155b613c135760405162461bcd60e51b815260206004820152600c60248201526b24b73b30b634b2103a34b2b960a11b6044820152606401610f59565b3360009081526007602052604090205463ffffffff1615613c6b5760405162461bcd60e51b8152602060048201526012602482015271105b1c9958591e481c9959da5cdd195c995960721b6044820152606401610f59565b6001600160a01b03821660009081526007602052604090205463ffffffff16151580613c9e57506001600160a01b038216155b613cdc5760405162461bcd60e51b815260206004820152600f60248201526e24b73b30b634b21039b837b739b7b960891b6044820152606401610f59565b613ce8610e104261654a565b33600090815260126020526040812091909155600b613d0860018461665f565b61ffff1660058110613d1c57613d1c61632b565b60048082049290920154915460039091166008026101000a9091046001600160401b031691506001600160601b0316613d55828261654a565b1015613d7457604051637883ad3d60e11b815260040160405180910390fd5b613da96001600160a01b037f000000000000000000000000000000000000000000000000000000000000000016333084614895565b6003805460009190600490613dca90600160201b900463ffffffff1661658d565b82546101009290920a63ffffffff8181021990931682841691909102179092556001600160a01b038616600090815260076020526040902054919250613e149133911685846148ce565b6000613e1e614cf7565b336000818152600760205260409020805463ffffffff60601b1916600160601b63ffffffff851602179055909150613e569082614e3a565b6001600160a01b03851615613e6e57613e6e85614fc2565b613e788584615414565b60405161ffff851681526001600160a01b0386169063ffffffff84169033907f0b433c284dbe5891de4d6f33fdc7aed80ed70cdd48b50bcfd3fd7a38713236ee9060200160405180910390a463ffffffff8281166000818152600a602090815260408083205485168352600882529182902054915193851684526001600160a01b039091169233917f394121f5bd2f28750cbe3528fc442f7e4b1dd7b994e5b604fd0009624d59e211910160405180910390a45050505050565b6001600160a01b038216600090815260076020526040902060010154600160401b900460ff1680613f8757506001600160a01b038216600090815260076020526040902060010154600160581b900460ff1615155b15613f90575050565b6001600160a01b038216600090815260076020526040812054600b90613fc390600190600160501b900461ffff1661665f565b61ffff1660058110613fd757613fd761632b565b600491828204019190066008029054906101000a90046001600160401b03166001600160401b03169050600060048261401091906165f6565b6001600160a01b038516600090815260076020526040902054909150600160801b90046001600160401b0316614046848261654a565b10156140c9576001600160a01b0384166000908152600760209081526040918290205482516060808252600d908201526c746f74616c4561726e696e677360981b60808201526001600160401b03600160801b90920482169281019290925281830152905160008051602061679a8339815191529181900360a00190a150505050565b6001600160a01b03841660009081526007602052604090205481906140ff908590600160801b90046001600160401b031661654a565b10614228576001600160a01b03841660009081526007602052604081205461413790600160801b90046001600160401b03168361660d565b6001600160a01b038616600090815260076020526040902080549192508291601890614174908490600160c01b90046001600160401b031661667a565b82546101009290920a6001600160401b038181021990931691831602179091556001600160a01b038716600081815260076020908152604091829020805467ffffffffffffffff60801b1916600160801b958916959095029490941784556001939093018054600160401b68ff000000000000000019909116179055518581529092507f2574cbc589c373c3542b5c7355f7a5091875a01b2b16ddd89be1a7c909fc0f86910160405180910390a2506142dd565b6001600160a01b03841660009081526007602052604090208054849190601890614263908490600160c01b90046001600160401b031661667a565b82546101009290920a6001600160401b038181021990931691831602179091556001600160a01b0386166000908152600760205260409020805486935090916010916142b8918591600160801b90041661667a565b92506101000a8154816001600160401b0302191690836001600160401b031602179055505b5050506001600160a01b03166000908152600760205260409020600101805467ffffffff000000001916600160201b4263ffffffff1602179055565b614321615677565b6002805460ff191690557f5db9ee0a495bf2e6ff9c91a7834c1ba4fdd244a5e8aa4e537bd38aeae4b073aa335b6040516001600160a01b039091168152602001612748565b61436e613b15565b6002805460ff191660011790557f62e78cea01bee320cd4e420270b5ea74000d11b0c9f74754ebdbfc544b05a25861434e3390565b6040516001600160a01b038381166024830152604482018390526112fa91859182169063a9059cbb906064015b604051602081830303815290604052915060e01b6020820180516001600160e01b03838183161783525050505061569a565b600080614410846001616642565b90505b8263ffffffff168163ffffffff16116144ce5763ffffffff81166000908152600860205260409020546001600160a01b0316801580159061447957506001600160a01b0381166000908152600760205260409020546004600160501b90910461ffff1610155b80156144a857506001600160a01b038116600090815260076020526040902060010154600160401b900460ff16155b156144bb57826144b78161658d565b9350505b50806144c68161658d565b915050614413565b508063ffffffff166000036144e257505050565b6006546000906145029063ffffffff8416906001600160401b031661669a565b6001600160401b03169050600061451a856001616642565b90505b8363ffffffff168163ffffffff16116113c55763ffffffff81166000908152600860205260409020546001600160a01b0316801580159061458357506001600160a01b0381166000908152600760205260409020546004600160501b90910461ffff1610155b80156145b257506001600160a01b038116600090815260076020526040902060010154600160401b900460ff16155b156145c1576145c18184613f32565b50806145cc8161658d565b91505061451d565b600080806145e3856001616642565b90505b8363ffffffff168163ffffffff16116146e15763ffffffff81166000908152600860205260409020546001600160a01b031680158061464757506001600160a01b038116600090815260076020526040902060010154600160401b900460ff165b1561465257506146cf565b6001600160a01b038116600090815260076020526040902060010154600160501b900460ff1660020361469157836146898161658d565b9450506146cd565b6001600160a01b0381166000908152600760205260409020600190810154600160501b900460ff1690036146cd57826146c98161658d565b9350505b505b806146d98161658d565b9150506145e6565b5060008063ffffffff84161561473a5760055463ffffffff85169060649061471a90600160c01b90046001600160401b0316603c6166c0565b614724919061669a565b61472e919061669a565b6001600160401b031691505b63ffffffff83161561478f5760055463ffffffff84169060649061476f90600160c01b90046001600160401b031660286166c0565b614779919061669a565b614783919061669a565b6001600160401b031690505b600061479c876001616642565b90505b8563ffffffff168163ffffffff161161488c5763ffffffff81166000908152600860205260409020546001600160a01b031680158061480057506001600160a01b038116600090815260076020526040902060010154600160401b900460ff165b1561480b575061487a565b6001600160a01b038116600090815260076020526040902060010154600160501b900460ff166002811480156148415750600085115b15614855576148508286613f32565b614877565b8060ff1660011480156148685750600084115b15614877576148778285613f32565b50505b806148848161658d565b91505061479f565b50505050505050565b6040516001600160a01b03848116602483015283811660448301526064820183905261159f9186918216906323b872dd906084016143d0565b604051806101a001604052808263ffffffff168152602001600063ffffffff168152602001600061ffff1681526020018361ffff168152602001600063ffffffff16815260200160006001600160401b0316815260200160006001600160401b031681526020018463ffffffff1681526020014263ffffffff168152602001600015158152602001600115158152602001600060ff168152602001600060ff1681525060076000866001600160a01b03166001600160a01b0316815260200190815260200160002060008201518160000160006101000a81548163ffffffff021916908363ffffffff16021790555060208201518160000160046101000a81548163ffffffff021916908363ffffffff16021790555060408201518160000160086101000a81548161ffff021916908361ffff160217905550606082015181600001600a6101000a81548161ffff021916908361ffff160217905550608082015181600001600c6101000a81548163ffffffff021916908363ffffffff16021790555060a08201518160000160106101000a8154816001600160401b0302191690836001600160401b0316021790555060c08201518160000160186101000a8154816001600160401b0302191690836001600160401b0316021790555060e08201518160010160006101000a81548163ffffffff021916908363ffffffff1602179055506101008201518160010160046101000a81548163ffffffff021916908363ffffffff1602179055506101208201518160010160086101000a81548160ff0219169083151502179055506101408201518160010160096101000a81548160ff02191690831515021790555061016082015181600101600a6101000a81548160ff021916908360ff16021790555061018082015181600101600b6101000a81548160ff021916908360ff16021790555090505083600860008363ffffffff1663ffffffff16815260200190815260200160002060006101000a8154816001600160a01b0302191690836001600160a01b03160217905550600161c350614bd6919061660d565b60035463ffffffff1610614bfc5760405162aaa60160e01b815260040160405180910390fd5b6003805463ffffffff16906000614c128361658d565b91906101000a81548163ffffffff021916908363ffffffff160217905550506000600b600184614c42919061665f565b61ffff1660058110614c5657614c5661632b565b60048082049290920154915460039091166008026101000a9091046001600160401b031691506001600160601b0316614c8f828261654a565b1015614cae57604051637883ad3d60e11b815260040160405180910390fd5b60048054829190600090614ccc9084906001600160601b03166166eb565b92506101000a8154816001600160601b0302191690836001600160601b031602179055505050505050565b60006001815b63ffffffff828116108015614d19575061c3508163ffffffff16105b15614e21576000614d2b83600261670b565b90506000614d3a84600261670b565b614d45906001616642565b9050614d56600163ffffffff61672b565b63ffffffff168263ffffffff16101580614d8a5750614d7a600163ffffffff61672b565b63ffffffff168163ffffffff1610155b15614da857604051637883ad3d60e11b815260040160405180910390fd5b63ffffffff8481166000908152600960205260408120549091169003614dd057509392505050565b63ffffffff848116600090815260096020526040812054600160201b90049091169003614dff57949350505050565b83614e098161658d565b9450508280614e179061658d565b9350505050614cfd565b60405163a2a66ebf60e01b815260040160405180910390fd5b6000614e47600283616748565b905060015b60035463ffffffff600160201b90910481169082161161159f5763ffffffff81166000908152600860205260409020546001600160a01b03168015801590614ebb57506001600160a01b03811660009081526007602052604090205463ffffffff848116600160601b90920416145b15614faf57614ecb60028561675f565b63ffffffff16600003614f1a576001600160a01b03851660009081526007602090815260408083205463ffffffff878116855260099093529220805463ffffffff191691909216179055614f62565b6001600160a01b03851660009081526007602090815260408083205463ffffffff878116855260099093529220805467ffffffff00000000191691909216600160201b021790555b6001600160a01b0390811660009081526007602090815260408083205493881683528083205463ffffffff9081168452600a909252909120805463ffffffff19169190921617905561159f565b5080614fba8161658d565b915050614e4c565b6001600160a01b03811660009081526007602052604090208054600160401b900461ffff16906008614ff383616782565b825461ffff9182166101009390930a9283029190920219909116179055506001600160a01b0381166000908152600760205260408120600101805463ffffffff428116600160201b0267ffffffff000000001983168117909355918216911617905b60008263ffffffff161180156150715750601e8163ffffffff16105b156152bf5763ffffffff8083166000908152600860205260409020546001600160a01b0316906150a39060019061672b565b6001600160a01b03821660009081526007602052604090205463ffffffff918216600160201b90910490911610615149576001600160a01b0381166000908152600760209081526040918290205482516060808252600890820152677465616d53697a6560c01b608082015263ffffffff600160201b90920482169281019290925281830152905160008051602061679a8339815191529181900360a00190a1506152bf565b6001600160a01b03811660009081526007602052604090208054600160201b900463ffffffff1690600461517c8361658d565b82546101009290920a63ffffffff8181021990931691831602179091556001600160a01b0383166000908152600760205260409020600101805467ffffffff000000001916600160201b42909316929092029190911790819055600160501b900460ff1690506151eb8261570b565b6001600160a01b03821660009081526007602052604090206001015460ff828116600160501b9092041614615287576001600160a01b03821660008181526007602090815260409182902060010154825160ff8681168252600160501b90920490911691810191909152428183015290517fac0a8a3e707a73f1f1e24b50123f328971c7ae3e1a4ab42e68bd6d69d6a37ff39181900360600190a25b6001600160a01b03821660009081526007602052604090206001015463ffffffff169350826152b58161658d565b9350505050615055565b601e8163ffffffff161080156152db575060008263ffffffff16115b156112fa57604080518181526019818301527f496e73756666696369656e742075706c696e6520636861696e00000000000000606082015242602082015290516001600160a01b038516917f6f351e36c7babe44a5305e86f0248d29b31c4ecd9861b0ae6621b74c3c6615d2919081900360800190a23360009081526007602052604090205461271090600b9061537f90600190600160501b900461ffff1661665f565b61ffff16600581106153935761539361632b565b600491828204019190066008029054906101000a90046001600160401b03166101f46153bf91906166c0565b6153c9919061669a565b600680546008906153eb908490600160401b90046001600160401b031661667a565b92506101000a8154816001600160401b0302191690836001600160401b03160217905550505050565b806001600160a01b0383161580159061545057506001600160a01b038316600090815260076020526040902060010154600160581b900460ff16155b1561548a576000612710615466610fa0856165f6565b6154709190616579565b905061547c8482613f32565b615486818361660d565b9150505b600d54600160901b900460ff16156155815760006127106154ad846101f46165f6565b6154b79190616579565b600d549091506001600160401b03166154d0828261654a565b101561552e57600d546040805160608082526008908201526718db1d58941bdbdb60c21b60808201526001600160401b039283166020820152808201929092525160008051602061679a8339815191529181900360a00190a161557f565b600d805482919060009061554c9084906001600160401b031661667a565b92506101000a8154816001600160401b0302191690836001600160401b03160217905550808261557c919061660d565b91505b505b6000610bb86103e861559381806162b7565b61559d91906162b7565b6155a791906162b7565b61ffff166155b76103e8846165f6565b6155c19190616579565b90506000610bb86103e86155d581806162b7565b6155df91906162b7565b6155e991906162b7565b61ffff166155f96103e8856165f6565b6156039190616579565b90506000610bb86103e861561781806162b7565b61562191906162b7565b61562b91906162b7565b61ffff1661563b6103e8866165f6565b6156459190616579565b905060008183615655868861660d565b61565f919061660d565b615669919061660d565b905061488c848484846158ba565b60025460ff1661137757604051638dfc202b60e01b815260040160405180910390fd5b600080602060008451602086016000885af1806156bd576040513d6000823e3d81fd5b50506000513d915081156156d55780600114156156e2565b6001600160a01b0384163b155b1561159f57604051635274afe760e01b81526001600160a01b0385166004820152602401610f59565b6001600160a01b0381166000908152600760205260408120805460019091015463ffffffff600160201b80840482169461ffff600160401b90950494909416939204169061575c6276a7008361654a565b42111561582d576001600160a01b038516600090815260076020526040902060010154600160501b900460ff161561582d576001600160a01b0385166000818152600760205260409020600101547f8039c596008ffc957f48eb805a930583415e464bb81a75dc85d8b322c47f625590600160501b900460ff166157e663ffffffff86164261660d565b6040805160ff909316835260208301919091520160405180910390a2505050506001600160a01b03166000908152600760205260409020600101805460ff60501b19169055565b6101f48463ffffffff161015801561584a575060148361ffff1610155b156158575750600261587c565b60fa8463ffffffff16101580156158735750600a8361ffff1610155b1561587c575060015b6001600160a01b039094166000908152600760205260409020600101805460ff909516600160501b0260ff60501b1990951694909417909355505050565b600554600160401b90046001600160401b03166158d7858261654a565b101561598657600554604080516060808252600990820152681b195d995b141bdbdb60ba1b6080820152600160401b9092046001600160401b0390811660208401529082015260008051602061679a8339815191529060a00160405180910390a16006805485919060089061595d908490600160401b90046001600160401b031661667a565b92506101000a8154816001600160401b0302191690836001600160401b031602179055506159d0565b600580548591906008906159ab908490600160401b90046001600160401b031661667a565b92506101000a8154816001600160401b0302191690836001600160401b031602179055505b600554600160801b90046001600160401b03166159ed848261654a565b1015615a9d57600554604080516060808252600a90820152691d5c1b1a5b99541bdbdb60b21b6080820152600160801b9092046001600160401b0390811660208401529082015260008051602061679a8339815191529060a00160405180910390a160068054849190600890615a74908490600160401b90046001600160401b031661667a565b92506101000a8154816001600160401b0302191690836001600160401b03160217905550615ae7565b60058054849190601090615ac2908490600160801b90046001600160401b031661667a565b92506101000a8154816001600160401b0302191690836001600160401b031602179055505b600554600160c01b90046001600160401b0316615b04838261654a565b1015615bb457600554604080516060808252600a90820152691b195859195c941bdbdb60b21b6080820152600160c01b9092046001600160401b0390811660208401529082015260008051602061679a8339815191529060a00160405180910390a160068054839190600890615b8b908490600160401b90046001600160401b031661667a565b92506101000a8154816001600160401b0302191690836001600160401b03160217905550615bfe565b60058054839190601890615bd9908490600160c01b90046001600160401b031661667a565b92506101000a8154816001600160401b0302191690836001600160401b031602179055505b6006546001600160401b0316615c14828261654a565b1015615cba576006546040805160608082526007908201526619da1c141bdbdb60ca1b60808201526001600160401b039283166020820152808201929092525160008051602061679a8339815191529181900360a00190a160068054829190600890615c91908490600160401b90046001600160401b031661667a565b92506101000a8154816001600160401b0302191690836001600160401b0316021790555061159f565b60068054829190600090615cd89084906001600160401b031661667a565b92506101000a8154816001600160401b0302191690836001600160401b0316021790555050505050565b508054615d0e906163c8565b6000825580601f10615d1e575050565b601f01602090049060005260206000209081019061349291905b80821115615d4c5760008155600101615d38565b5090565b80356001600160a01b0381168114615d6757600080fd5b919050565b600060208284031215615d7e57600080fd5b615d8782615d50565b9392505050565b803563ffffffff81168114615d6757600080fd5b600060208284031215615db457600080fd5b615d8782615d8e565b80358015158114615d6757600080fd5b803561ffff81168114615d6757600080fd5b60008060008060008060c08789031215615df857600080fd5b615e0187615dbd565b9550615e0f60208801615dcd565b9450615e1d60408801615dcd565b9350615e2b60608801615dcd565b925060808701359150615e4060a08801615d8e565b90509295509295509295565b60008083601f840112615e5e57600080fd5b5081356001600160401b03811115615e7557600080fd5b6020830191508360208260051b8501011115611f0957600080fd5b60008060208385031215615ea357600080fd5b82356001600160401b03811115615eb957600080fd5b615ec585828601615e4c565b90969095509350505050565b60008083601f840112615ee357600080fd5b5081356001600160401b03811115615efa57600080fd5b602083019150836020828501011115611f0957600080fd5b60008060208385031215615f2557600080fd5b82356001600160401b03811115615f3b57600080fd5b615ec585828601615ed1565b600080600060408486031215615f5c57600080fd5b83356001600160401b03811115615f7257600080fd5b615f7e86828701615e4c565b9094509250615f91905060208501615dbd565b90509250925092565b600060208284031215615fac57600080fd5b615d8782615dbd565b60008060408385031215615fc857600080fd5b82359150615fd860208401615d8e565b90509250929050565b600060208284031215615ff357600080fd5b5035919050565b6000806000806040858703121561601057600080fd5b84356001600160401b038082111561602757600080fd5b61603388838901615e4c565b9096509450602087013591508082111561604c57600080fd5b5061605987828801615ed1565b95989497509550505050565b6000815180845260005b8181101561608b5760208185018101518683018201520161606f565b506000602082860101526020601f19601f83011685010191505092915050565b83151581526060602082015260006160c66060830185616065565b9050826040830152949350505050565b82151581526040602082015260006160f16040830184616065565b949350505050565b60008060006040848603121561610e57600080fd5b61611784615d50565b925060208401356001600160401b0381111561613257600080fd5b61613e86828701615ed1565b9497909650939450505050565b6000806040838503121561615e57600080fd5b61616783615d50565b9150615fd860208401615dcd565b6000806040838503121561618857600080fd5b61619183615d8e565b946020939093013593505050565b602081526000615d876020830184616065565b600080604083850312156161c557600080fd5b6161ce83615d50565b9150615fd860208401615dbd565b600080600080600080600060e0888a0312156161f757600080fd5b61620088615dbd565b9960208901359950604089013598606081013598506080810135975060a0810135965060c00135945092505050565b803560ff81168114615d6757600080fd5b6000806040838503121561625357600080fd5b61625c83615d50565b9150615fd86020840161622f565b60208082526019908201527f4f6e6c79205472657a6f722061646d696e20616c6c6f77656400000000000000604082015260600190565b634e487b7160e01b600052601160045260246000fd5b61ffff8181168382160190808211156162d2576162d26162a1565b5092915050565b841515815260c0810160208083018660005b600381101561630c57815161ffff16835291830191908301906001016162eb565b5050505083608083015263ffffffff831660a083015295945050505050565b634e487b7160e01b600052603260045260246000fd5b60208082526019908201527f4b594320766572696669636174696f6e20726571756972656400000000000000604082015260600190565b60008060006060848603121561638d57600080fd5b6163968461622f565b92506163a460208501615d8e565b9150615f9160408501615d8e565b634e487b7160e01b600052604160045260246000fd5b600181811c908216806163dc57607f821691505b6020821081036163fc57634e487b7160e01b600052602260045260246000fd5b50919050565b601f8211156112fa576000816000526020600020601f850160051c8101602086101561642b5750805b601f850160051c820191505b8181101561644a57828155600101616437565b505050505050565b6001600160401b03831115616469576164696163b2565b61647d8361647783546163c8565b83616402565b6000601f8411600181146164b157600085156164995750838201355b600019600387901b1c1916600186901b1783556113c5565b600083815260209020601f19861690835b828110156164e257868501358255602094850194600190920191016164c2565b50868210156164ff5760001960f88860031b161c19848701351681555b505060018560011b0183555050505050565b604081528260408201528284606083013760006060848301015260006060601f19601f8601168301019050826020830152949350505050565b8082018082111561655d5761655d6162a1565b92915050565b634e487b7160e01b600052601260045260246000fd5b60008261658857616588616563565b500490565b600063ffffffff8083168181036165a6576165a66162a1565b6001019392505050565b8415158152610100810160208083018660005b60058110156165e0578151835291830191908301906001016165c3565b5050505060c082019390935260e0015292915050565b808202811582820484141761655d5761655d6162a1565b8181038181111561655d5761655d6162a1565b6040815260006166336040830185616065565b90508260208301529392505050565b63ffffffff8181168382160190808211156162d2576162d26162a1565b61ffff8281168282160390808211156162d2576162d26162a1565b6001600160401b038181168382160190808211156162d2576162d26162a1565b60006001600160401b03808416806166b4576166b4616563565b92169190910492915050565b6001600160401b038181168382160280821691908281146166e3576166e36162a1565b505092915050565b6001600160601b038181168382160190808211156162d2576162d26162a1565b63ffffffff8181168382160280821691908281146166e3576166e36162a1565b63ffffffff8281168282160390808211156162d2576162d26162a1565b600063ffffffff808416806166b4576166b4616563565b600063ffffffff8084168061677657616776616563565b92169190910692915050565b600061ffff8083168181036165a6576165a66162a156fe83737177a6421eb29d7037a07114ddec9131edcd61a91d0672b2409404ffc172a2646970667358221220a307bb74663dcff920d9692187729c7cf726c46b17551be05eaa37061da2e0d764736f6c63430008160033",
  "linkReferences": {},
  "deployedLinkReferences": {}
}