{
  "_format": "hh-sol-artifact-1",
  "contractName": "InternalAdminManager",
  "sourceName": "contracts/modules/InternalAdminManager.sol",
  "abi": [
    {
      "inputs": [],
      "name": "AccessControlBadConfirmation",
      "type": "error"
    },
    {
      "inputs": [
        {
          "internalType": "address",
          "name": "account",
          "type": "address"
        },
        {
          "internalType": "bytes32",
          "name": "neededRole",
          "type": "bytes32"
        }
      ],
      "name": "AccessControlUnauthorizedAccount",
      "type": "error"
    },
    {
      "inputs": [],
      "name": "AdminAlreadyExists",
      "type": "error"
    },
    {
      "inputs": [],
      "name": "AdminNotFound",
      "type": "error"
    },
    {
      "inputs": [],
      "name": "EmptyAdminList",
      "type": "error"
    },
    {
      "inputs": [],
      "name": "EnforcedPause",
      "type": "error"
    },
    {
      "inputs": [],
      "name": "ExpectedPause",
      "type": "error"
    },
    {
      "inputs": [],
      "name": "IndexOutOfBounds",
      "type": "error"
    },
    {
      "inputs": [],
      "name": "InvalidAddress",
      "type": "error"
    },
    {
      "inputs": [],
      "name": "InvalidInitialization",
      "type": "error"
    },
    {
      "inputs": [],
      "name": "MaxAdminsReached",
      "type": "error"
    },
    {
      "inputs": [],
      "name": "NotInitializing",
      "type": "error"
    },
    {
      "inputs": [],
      "name": "UnauthorizedAccess",
      "type": "error"
    },
    {
      "anonymous": false,
      "inputs": [
        {
          "indexed": true,
          "internalType": "address",
          "name": "admin",
          "type": "address"
        },
        {
          "indexed": false,
          "internalType": "string",
          "name": "action",
          "type": "string"
        }
      ],
      "name": "AdminActivityTracked",
      "type": "event"
    },
    {
      "anonymous": false,
      "inputs": [
        {
          "indexed": true,
          "internalType": "address",
          "name": "oldEmergency",
          "type": "address"
        },
        {
          "indexed": true,
          "internalType": "address",
          "name": "newEmergency",
          "type": "address"
        }
      ],
      "name": "EmergencyAdminUpdated",
      "type": "event"
    },
    {
      "anonymous": false,
      "inputs": [
        {
          "indexed": false,
          "internalType": "uint64",
          "name": "version",
          "type": "uint64"
        }
      ],
      "name": "Initialized",
      "type": "event"
    },
    {
      "anonymous": false,
      "inputs": [
        {
          "indexed": true,
          "internalType": "address",
          "name": "admin",
          "type": "address"
        },
        {
          "indexed": false,
          "internalType": "uint256",
          "name": "index",
          "type": "uint256"
        },
        {
          "indexed": true,
          "internalType": "address",
          "name": "addedBy",
          "type": "address"
        }
      ],
      "name": "InternalAdminAdded",
      "type": "event"
    },
    {
      "anonymous": false,
      "inputs": [
        {
          "indexed": true,
          "internalType": "address",
          "name": "admin",
          "type": "address"
        },
        {
          "indexed": false,
          "internalType": "uint256",
          "name": "index",
          "type": "uint256"
        },
        {
          "indexed": true,
          "internalType": "address",
          "name": "removedBy",
          "type": "address"
        }
      ],
      "name": "InternalAdminRemoved",
      "type": "event"
    },
    {
      "anonymous": false,
      "inputs": [
        {
          "indexed": true,
          "internalType": "address",
          "name": "oldAdmin",
          "type": "address"
        },
        {
          "indexed": true,
          "internalType": "address",
          "name": "newAdmin",
          "type": "address"
        },
        {
          "indexed": false,
          "internalType": "uint256",
          "name": "index",
          "type": "uint256"
        },
        {
          "indexed": true,
          "internalType": "address",
          "name": "replacedBy",
          "type": "address"
        }
      ],
      "name": "InternalAdminReplaced",
      "type": "event"
    },
    {
      "anonymous": false,
      "inputs": [
        {
          "indexed": false,
          "internalType": "uint256",
          "name": "totalAdmins",
          "type": "uint256"
        },
        {
          "indexed": true,
          "internalType": "address",
          "name": "updatedBy",
          "type": "address"
        }
      ],
      "name": "MassAdminUpdate",
      "type": "event"
    },
    {
      "anonymous": false,
      "inputs": [
        {
          "indexed": true,
          "internalType": "address",
          "name": "oldContract",
          "type": "address"
        },
        {
          "indexed": true,
          "internalType": "address",
          "name": "newContract",
          "type": "address"
        }
      ],
      "name": "OrphiContractUpdated",
      "type": "event"
    },
    {
      "anonymous": false,
      "inputs": [
        {
          "indexed": false,
          "internalType": "address",
          "name": "account",
          "type": "address"
        }
      ],
      "name": "Paused",
      "type": "event"
    },
    {
      "anonymous": false,
      "inputs": [
        {
          "indexed": true,
          "internalType": "bytes32",
          "name": "role",
          "type": "bytes32"
        },
        {
          "indexed": true,
          "internalType": "bytes32",
          "name": "previousAdminRole",
          "type": "bytes32"
        },
        {
          "indexed": true,
          "internalType": "bytes32",
          "name": "newAdminRole",
          "type": "bytes32"
        }
      ],
      "name": "RoleAdminChanged",
      "type": "event"
    },
    {
      "anonymous": false,
      "inputs": [
        {
          "indexed": true,
          "internalType": "bytes32",
          "name": "role",
          "type": "bytes32"
        },
        {
          "indexed": true,
          "internalType": "address",
          "name": "account",
          "type": "address"
        },
        {
          "indexed": true,
          "internalType": "address",
          "name": "sender",
          "type": "address"
        }
      ],
      "name": "RoleGranted",
      "type": "event"
    },
    {
      "anonymous": false,
      "inputs": [
        {
          "indexed": true,
          "internalType": "bytes32",
          "name": "role",
          "type": "bytes32"
        },
        {
          "indexed": true,
          "internalType": "address",
          "name": "account",
          "type": "address"
        },
        {
          "indexed": true,
          "internalType": "address",
          "name": "sender",
          "type": "address"
        }
      ],
      "name": "RoleRevoked",
      "type": "event"
    },
    {
      "anonymous": false,
      "inputs": [
        {
          "indexed": false,
          "internalType": "address",
          "name": "account",
          "type": "address"
        }
      ],
      "name": "Unpaused",
      "type": "event"
    },
    {
      "inputs": [],
      "name": "ADMIN_MANAGER_ROLE",
      "outputs": [
        {
          "internalType": "bytes32",
          "name": "",
          "type": "bytes32"
        }
      ],
      "stateMutability": "view",
      "type": "function"
    },
    {
      "inputs": [],
      "name": "DEFAULT_ADMIN_ROLE",
      "outputs": [
        {
          "internalType": "bytes32",
          "name": "",
          "type": "bytes32"
        }
      ],
      "stateMutability": "view",
      "type": "function"
    },
    {
      "inputs": [],
      "name": "EMERGENCY_ROLE",
      "outputs": [
        {
          "internalType": "bytes32",
          "name": "",
          "type": "bytes32"
        }
      ],
      "stateMutability": "view",
      "type": "function"
    },
    {
      "inputs": [],
      "name": "MAX_INTERNAL_ADMINS",
      "outputs": [
        {
          "internalType": "uint256",
          "name": "",
          "type": "uint256"
        }
      ],
      "stateMutability": "view",
      "type": "function"
    },
    {
      "inputs": [],
      "name": "SUPER_ADMIN_ROLE",
      "outputs": [
        {
          "internalType": "bytes32",
          "name": "",
          "type": "bytes32"
        }
      ],
      "stateMutability": "view",
      "type": "function"
    },
    {
      "inputs": [
        {
          "internalType": "address",
          "name": "_admin",
          "type": "address"
        }
      ],
      "name": "addInternalAdmin",
      "outputs": [],
      "stateMutability": "nonpayable",
      "type": "function"
    },
    {
      "inputs": [
        {
          "internalType": "address",
          "name": "",
          "type": "address"
        }
      ],
      "name": "adminActionCount",
      "outputs": [
        {
          "internalType": "uint256",
          "name": "",
          "type": "uint256"
        }
      ],
      "stateMutability": "view",
      "type": "function"
    },
    {
      "inputs": [
        {
          "internalType": "address",
          "name": "",
          "type": "address"
        }
      ],
      "name": "adminIndex",
      "outputs": [
        {
          "internalType": "uint256",
          "name": "",
          "type": "uint256"
        }
      ],
      "stateMutability": "view",
      "type": "function"
    },
    {
      "inputs": [
        {
          "internalType": "address",
          "name": "",
          "type": "address"
        }
      ],
      "name": "adminLastActivity",
      "outputs": [
        {
          "internalType": "uint256",
          "name": "",
          "type": "uint256"
        }
      ],
      "stateMutability": "view",
      "type": "function"
    },
    {
      "inputs": [
        {
          "internalType": "address[]",
          "name": "_admins",
          "type": "address[]"
        }
      ],
      "name": "bulkAddInternalAdmins",
      "outputs": [],
      "stateMutability": "nonpayable",
      "type": "function"
    },
    {
      "inputs": [
        {
          "internalType": "address",
          "name": "_admin",
          "type": "address"
        }
      ],
      "name": "checkIsInternalAdmin",
      "outputs": [
        {
          "internalType": "bool",
          "name": "",
          "type": "bool"
        }
      ],
      "stateMutability": "view",
      "type": "function"
    },
    {
      "inputs": [],
      "name": "emergencyAdmin",
      "outputs": [
        {
          "internalType": "address",
          "name": "",
          "type": "address"
        }
      ],
      "stateMutability": "view",
      "type": "function"
    },
    {
      "inputs": [],
      "name": "emergencyClearAllAdmins",
      "outputs": [],
      "stateMutability": "nonpayable",
      "type": "function"
    },
    {
      "inputs": [],
      "name": "emergencyPause",
      "outputs": [],
      "stateMutability": "nonpayable",
      "type": "function"
    },
    {
      "inputs": [],
      "name": "emergencyUnpause",
      "outputs": [],
      "stateMutability": "nonpayable",
      "type": "function"
    },
    {
      "inputs": [],
      "name": "getAdminManagerInfo",
      "outputs": [
        {
          "internalType": "uint256",
          "name": "totalAdmins",
          "type": "uint256"
        },
        {
          "internalType": "uint256",
          "name": "maxAdmins",
          "type": "uint256"
        },
        {
          "internalType": "address[]",
          "name": "admins",
          "type": "address[]"
        },
        {
          "internalType": "address",
          "name": "currentEmergencyAdmin",
          "type": "address"
        },
        {
          "internalType": "address",
          "name": "currentOrphiContract",
          "type": "address"
        },
        {
          "internalType": "uint256",
          "name": "lastUpdate",
          "type": "uint256"
        }
      ],
      "stateMutability": "view",
      "type": "function"
    },
    {
      "inputs": [
        {
          "internalType": "address",
          "name": "_admin",
          "type": "address"
        }
      ],
      "name": "getAdminStats",
      "outputs": [
        {
          "internalType": "bool",
          "name": "isAdmin",
          "type": "bool"
        },
        {
          "internalType": "uint256",
          "name": "lastActivity",
          "type": "uint256"
        },
        {
          "internalType": "uint256",
          "name": "actionCount",
          "type": "uint256"
        },
        {
          "internalType": "uint256",
          "name": "index",
          "type": "uint256"
        }
      ],
      "stateMutability": "view",
      "type": "function"
    },
    {
      "inputs": [],
      "name": "getAllInternalAdmins",
      "outputs": [
        {
          "internalType": "address[]",
          "name": "",
          "type": "address[]"
        }
      ],
      "stateMutability": "view",
      "type": "function"
    },
    {
      "inputs": [
        {
          "internalType": "uint256",
          "name": "_index",
          "type": "uint256"
        }
      ],
      "name": "getInternalAdminAt",
      "outputs": [
        {
          "internalType": "address",
          "name": "",
          "type": "address"
        }
      ],
      "stateMutability": "view",
      "type": "function"
    },
    {
      "inputs": [],
      "name": "getInternalAdminCount",
      "outputs": [
        {
          "internalType": "uint256",
          "name": "",
          "type": "uint256"
        }
      ],
      "stateMutability": "view",
      "type": "function"
    },
    {
      "inputs": [],
      "name": "getRandomInternalAdmin",
      "outputs": [
        {
          "internalType": "address",
          "name": "",
          "type": "address"
        }
      ],
      "stateMutability": "view",
      "type": "function"
    },
    {
      "inputs": [
        {
          "internalType": "bytes32",
          "name": "role",
          "type": "bytes32"
        }
      ],
      "name": "getRoleAdmin",
      "outputs": [
        {
          "internalType": "bytes32",
          "name": "",
          "type": "bytes32"
        }
      ],
      "stateMutability": "view",
      "type": "function"
    },
    {
      "inputs": [
        {
          "internalType": "bytes32",
          "name": "role",
          "type": "bytes32"
        },
        {
          "internalType": "address",
          "name": "account",
          "type": "address"
        }
      ],
      "name": "grantRole",
      "outputs": [],
      "stateMutability": "nonpayable",
      "type": "function"
    },
    {
      "inputs": [
        {
          "internalType": "bytes32",
          "name": "role",
          "type": "bytes32"
        },
        {
          "internalType": "address",
          "name": "account",
          "type": "address"
        }
      ],
      "name": "hasRole",
      "outputs": [
        {
          "internalType": "bool",
          "name": "",
          "type": "bool"
        }
      ],
      "stateMutability": "view",
      "type": "function"
    },
    {
      "inputs": [
        {
          "internalType": "address",
          "name": "_superAdmin",
          "type": "address"
        },
        {
          "internalType": "address",
          "name": "_emergencyAdmin",
          "type": "address"
        },
        {
          "internalType": "address",
          "name": "_orphiContract",
          "type": "address"
        }
      ],
      "name": "initialize",
      "outputs": [],
      "stateMutability": "nonpayable",
      "type": "function"
    },
    {
      "inputs": [
        {
          "internalType": "uint256",
          "name": "",
          "type": "uint256"
        }
      ],
      "name": "internalAdmins",
      "outputs": [
        {
          "internalType": "address",
          "name": "",
          "type": "address"
        }
      ],
      "stateMutability": "view",
      "type": "function"
    },
    {
      "inputs": [
        {
          "internalType": "address",
          "name": "",
          "type": "address"
        }
      ],
      "name": "isInternalAdmin",
      "outputs": [
        {
          "internalType": "bool",
          "name": "",
          "type": "bool"
        }
      ],
      "stateMutability": "view",
      "type": "function"
    },
    {
      "inputs": [],
      "name": "lastAdminUpdate",
      "outputs": [
        {
          "internalType": "uint256",
          "name": "",
          "type": "uint256"
        }
      ],
      "stateMutability": "view",
      "type": "function"
    },
    {
      "inputs": [],
      "name": "orphiContract",
      "outputs": [
        {
          "internalType": "address",
          "name": "",
          "type": "address"
        }
      ],
      "stateMutability": "view",
      "type": "function"
    },
    {
      "inputs": [],
      "name": "paused",
      "outputs": [
        {
          "internalType": "bool",
          "name": "",
          "type": "bool"
        }
      ],
      "stateMutability": "view",
      "type": "function"
    },
    {
      "inputs": [
        {
          "internalType": "address",
          "name": "_admin",
          "type": "address"
        }
      ],
      "name": "removeInternalAdmin",
      "outputs": [],
      "stateMutability": "nonpayable",
      "type": "function"
    },
    {
      "inputs": [
        {
          "internalType": "bytes32",
          "name": "role",
          "type": "bytes32"
        },
        {
          "internalType": "address",
          "name": "callerConfirmation",
          "type": "address"
        }
      ],
      "name": "renounceRole",
      "outputs": [],
      "stateMutability": "nonpayable",
      "type": "function"
    },
    {
      "inputs": [
        {
          "internalType": "address",
          "name": "_oldAdmin",
          "type": "address"
        },
        {
          "internalType": "address",
          "name": "_newAdmin",
          "type": "address"
        }
      ],
      "name": "replaceInternalAdmin",
      "outputs": [],
      "stateMutability": "nonpayable",
      "type": "function"
    },
    {
      "inputs": [
        {
          "internalType": "bytes32",
          "name": "role",
          "type": "bytes32"
        },
        {
          "internalType": "address",
          "name": "account",
          "type": "address"
        }
      ],
      "name": "revokeRole",
      "outputs": [],
      "stateMutability": "nonpayable",
      "type": "function"
    },
    {
      "inputs": [
        {
          "internalType": "bytes4",
          "name": "interfaceId",
          "type": "bytes4"
        }
      ],
      "name": "supportsInterface",
      "outputs": [
        {
          "internalType": "bool",
          "name": "",
          "type": "bool"
        }
      ],
      "stateMutability": "view",
      "type": "function"
    },
    {
      "inputs": [
        {
          "internalType": "address",
          "name": "_admin",
          "type": "address"
        },
        {
          "internalType": "string",
          "name": "_action",
          "type": "string"
        }
      ],
      "name": "trackAdminActivity",
      "outputs": [],
      "stateMutability": "nonpayable",
      "type": "function"
    },
    {
      "inputs": [
        {
          "internalType": "address",
          "name": "_newEmergencyAdmin",
          "type": "address"
        }
      ],
      "name": "updateEmergencyAdmin",
      "outputs": [],
      "stateMutability": "nonpayable",
      "type": "function"
    },
    {
      "inputs": [
        {
          "internalType": "address",
          "name": "_newOrphiContract",
          "type": "address"
        }
      ],
      "name": "updateOrphiContract",
      "outputs": [],
      "stateMutability": "nonpayable",
      "type": "function"
    },
    {
      "inputs": [
        {
          "internalType": "address",
          "name": "_caller",
          "type": "address"
        }
      ],
      "name": "validateInternalAdmin",
      "outputs": [
        {
          "internalType": "bool",
          "name": "",
          "type": "bool"
        }
      ],
      "stateMutability": "view",
      "type": "function"
    },
    {
      "inputs": [],
      "name": "version",
      "outputs": [
        {
          "internalType": "string",
          "name": "",
          "type": "string"
        }
      ],
      "stateMutability": "pure",
      "type": "function"
    }
  ],
  "bytecode": "0x6080806040523461001657611e8a908161001c8239f35b600080fdfe608060408181526004908136101561001657600080fd5b600091823560e01c93846301ffc9a7146114b757508363054f7623146114835783630e675baa1461142157836314c57e931461138f5783631606cbdf1461135957836317f6c656146101df57836320df43591461131f578363248a9ca3146112e9578363292a4a83146111ba5783632f2ff15d1461119257836336568abe146111335783634314241b146110a85783634460bdd61461106e57836346892abb14610f7c57836347de6bca14610f4c5783634a4e3bd514610eab57836351858e2714610e3257836354fd4d5014610d7d5783635c975abb14610d3b57836364d36c2f14610d1d57836370905dce14610cf7578363883fb2c714610cdb57836391d1485414610c8a5783639ceddc8914610c5e5783639d727f1314610b75578363a20b147d14610b3f578363a217fddf14610b25578363a3b8250614610abe578363c0c53b8b1461088b578363ca14cfb814610851578363cad74b851461081b578363cf1be74d146107b5578363d547741f1461076a578363de4fd30e1461072f578363e2454dcc1461056c578363e77767c9146103a8578363ea455cd41461022857508263ee06f69f14610202578263f1d0bf9c146101e457505063f39b9211146101df57600080fd5b6115c3565b346101fe57816003193601126101fe576020905160158152f35b5080fd5b346101fe57816003193601126101fe576020906001600160a01b03600354169051908152f35b9250346101fe57602090816003193601126103a457610245611592565b9161024e611824565b610256611daf565b6001600160a01b03809316918285526001825260ff81862054161561039557828552600282528085205493855460001990818101908111610382578083918803610333575b505086548015610320577faa8cbe8290e9f80b7f3e1d28cde76748e42eb8bbd1a155950c2514aae7095ee7959697985001906102d682611602565b909182549160031b1b1916905586558386526001825280862060ff19815416905560028252858181205560068252858181205560078252858181205542600555519384523393a380f35b60248860318b634e487b7160e01b835252fd5b61033c90611602565b90549060031b1c166103708161035189611602565b9091906001600160a01b038084549260031b9316831b921b1916179055565b8752600284528583882055813861029b565b60248860118b634e487b7160e01b835252fd5b859051630f43215f60e11b8152fd5b8280fd5b90346103a457806003193601126103a4576103c1611592565b6024359067ffffffffffffffff9081831161056857366023840112156105685782850135918211610568573660248385010111610568576001600160a01b039081600354163314801561051d575b156104c0571693848652600160205260ff848720541661042d578580f35b6006602052428487205560076020528386209081549060001982146104ad5750916024939160017fe9040778dc350e2ec874f78ea654a30a20638f84b36c25dfbf5983d4797107a396940190558083519485936020855282602086015201848401378181018301879052601f01601f19168101030190a281808080808580f35b876011602492634e487b7160e01b835252fd5b60648660208751917f08c379a0000000000000000000000000000000000000000000000000000000008352820152600c60248201527f556e617574686f72697a656400000000000000000000000000000000000000006044820152fd5b507f10727a1f9dcafcdc62117a955136b7425444d71bf08083d4aa5892e20e27814d8752600080516020611e5e83398151915260205284872033885260205260ff858820541661040f565b8580fd5b346103a4576020908160031936011261072b5767ffffffffffffffff908035828111610568573660238201121561056857808201359283116105685760249060053660248660051b84010111610727576105c4611791565b6105cc611daf565b84156106ff5787548581018091116106ec576015106106dd57875b8581106106235788887f0dbd07b52325cb377fe5090ac2b3c297987a385d631c2a3530c2ec8a7f8059e38942600555835492519283523392a280f35b8381831b840101356001600160a01b0381168082036106d95780156106ca57808b526001808a5260ff8b8d2054166106bb579060019392916106668d5493611767565b818d52808b528b8d209060ff1982541617905560028a52818b8d205560068a52428b8d20558a519182527f3dd8b7ecde4b699d939fd87f41d6d93b2c3dd2cd6e6a7b9ae2bea59631e744318a3393a3016105e7565b878b516308a07bb960e41b8152fd5b868a5163e6c4247b60e01b8152fd5b8a80fd5b83875163f1eb89af60e01b8152fd5b602489601187634e487b7160e01b835252fd5b8387517f67b04156000000000000000000000000000000000000000000000000000000008152fd5b8780fd5b8380fd5b50346101fe5760203660031901126101fe5760ff816020936001600160a01b03610757611592565b1681526001855220541690519015158152f35b90346103a457806003193601126103a4576107b191356107ac600161078d6115ad565b93838752600080516020611e5e833981519152602052862001546118dc565b6119cf565b5080f35b346103a45760203660031901126103a457803592548310156107f457506001600160a01b036107e5602093611602565b92905490519260031b1c168152f35b90517f4e23d035000000000000000000000000000000000000000000000000000000008152fd5b50346101fe5760203660031901126101fe57806020926001600160a01b03610841611592565b1681526007845220549051908152f35b50346101fe57816003193601126101fe57602090517f10727a1f9dcafcdc62117a955136b7425444d71bf08083d4aa5892e20e27814d8152f35b90346103a45760603660031901126103a4576108a5611592565b6108ad6115ad565b91604435906001600160a01b03808316809303610aba577ff0c57e16840df040f15088dc2f81fe391c3923bec73e23a9662efc9c229c6a009485549460ff86851c16159567ffffffffffffffff811680159081610ab2575b6001149081610aa8575b159081610a9f575b50610a775767ffffffffffffffff198116600117885586610a58575b50828116158015610a4e575b610a3f5790610973859392610952611e04565b61095a611e04565b61096381611b0f565b5061096d81611baf565b50611c6b565b5061097d81611a53565b50169573ffffffffffffffffffffffffffffffffffffffff199087828254161790556003541617600355426005555193857fd33e3f943e596f2b7b99ed1a5330e4ff9e1a603b1c0bf9866f8c83e8ddb065f28180a3847f8354fef0c8a16399b0c9916cf5a64e93e339fc5631638f7db11da9d71020312c8180a36109ff578280f35b805468ff000000000000000019169055600181527fc7f505b2f371ae2175ee4913f4499e1f2633a7b5936321eed1cdaeb6115181d290602090a181808280f35b87845163e6c4247b60e01b8152fd5b508282161561093f565b68ffffffffffffffffff19166801000000000000000117875589610933565b8885517ff92ee8a9000000000000000000000000000000000000000000000000000000008152fd5b9050158b610917565b303b15915061090f565b889150610905565b8680fd5b8234610b225780600319360112610b225754906001600160a01b0380915416906003541660055490610b0e610af161164c565b60c0875197889788526015602089015287015260c0860190611555565b926060850152608084015260a08301520390f35b80fd5b50346101fe57816003193601126101fe5751908152602090f35b50346101fe5760203660031901126101fe57806020926001600160a01b03610b65611592565b1681526002845220549051908152f35b90346103a45760208060031936011261072b57610b90611592565b91610b99611824565b610ba1611daf565b6001600160a01b038316928315610c4f578386526001835260ff8287205416610c40578554946015861015610c32575090610bfd7f3dd8b7ecde4b699d939fd87f41d6d93b2c3dd2cd6e6a7b9ae2bea59631e744319392611767565b83865260018252808620600160ff1982541617905560028252848187205560068252428187205542600555519384523393a380f35b825163f1eb89af60e01b8152fd5b8482516308a07bb960e41b8152fd5b84825163e6c4247b60e01b8152fd5b50346101fe57816003193601126101fe576020906001600160a01b03610c826116ea565b915191168152f35b346103a457816003193601126103a4578160209360ff92610ca96115ad565b90358252600080516020611e5e83398151915286526001600160a01b0383832091168252855220541690519015158152f35b50346101fe57816003193601126101fe57602091549051908152f35b9134610b225780600319360112610b2257506001600160a01b0360209254169051908152f35b50346101fe57816003193601126101fe576020906005549051908152f35b50346101fe57816003193601126101fe5760209060ff7fcd5ed15c6e187e77e9aee88184c21f4f2182ab5827cb3b7e07fbedcd63f03300541690519015158152f35b346103a457826003193601126103a4578151908282019082821067ffffffffffffffff831117610e1f57508252600581526020907f312e302e300000000000000000000000000000000000000000000000000000006020820152825193849260208452825192836020860152825b848110610e0957505050828201840152601f01601f19168101030190f35b8181018301518882018801528795508201610deb565b846041602492634e487b7160e01b835252fd5b50346101fe57816003193601126101fe5760207f62e78cea01bee320cd4e420270b5ea74000d11b0c9f74754ebdbfc544b05a25891610e6f611880565b610e77611daf565b7fcd5ed15c6e187e77e9aee88184c21f4f2182ab5827cb3b7e07fbedcd63f03300805460ff1916600117905551338152a180f35b346103a457826003193601126103a457610ec3611880565b7fcd5ed15c6e187e77e9aee88184c21f4f2182ab5827cb3b7e07fbedcd63f033009081549060ff821615610f25575060ff19169055513381527f5db9ee0a495bf2e6ff9c91a7834c1ba4fdd244a5e8aa4e537bd38aeae4b073aa90602090a180f35b83517f8dfc202b000000000000000000000000000000000000000000000000000000008152fd5b346103a45760203660031901126103a45735918054831015610b2257506001600160a01b036107e5602093611602565b50346101fe57816003193601126101fe57610f95611880565b8154825b818110611020575050815482805580610fdf575b5042600555518181527f0dbd07b52325cb377fe5090ac2b3c297987a385d631c2a3530c2ec8a7f8059e360203392a280f35b8280527f290decd9548b62a8d60345a988386fc84ba6bc95484008f6362f93160ef3e563908101905b8181106110155750610fad565b838155600101611008565b806001600160a01b03611034600193611602565b90549060031b1c1685526007602083815285872060ff19815416905560028152868681205560068152868681205552848481205501610f99565b50346101fe57816003193601126101fe57602090517f7613a25ecc738585a232ad50a301178f12b3ba8887d13e138b523c4269c476898152f35b346103a45760203660031901126103a4576110c1611592565b906110ca611791565b6001600160a01b038092169283156111265750506003548273ffffffffffffffffffffffffffffffffffffffff19821617600355167f8354fef0c8a16399b0c9916cf5a64e93e339fc5631638f7db11da9d71020312c8380a380f35b5163e6c4247b60e01b8152fd5b9250346101fe57806003193601126101fe5761114d6115ad565b90336001600160a01b0383160361116a57506107b19192356119cf565b8390517f6697b232000000000000000000000000000000000000000000000000000000008152fd5b90346103a457806003193601126103a4576107b191356111b5600161078d6115ad565b611d27565b346103a457816003193601126103a4576111d2611592565b916111db6115ad565b926111e4611824565b6111ec611daf565b6001600160a01b03809116918286526020916001835260ff8288205416156112da5785169384156112cc578487526001835260ff82882054166112be5750907f20906a301d658e6dca6f773034f2848f6941e0eb6dcf567a3b00b526fcdc7b059183875260028252611265818820549661035188611602565b8387526001825280872060ff19908181541690556006835287828120556007835287828120558588526001835260018289209182541617905560028252858188205560068252428188205542600555519485523394a480f35b90516308a07bb960e41b8152fd5b905163e6c4247b60e01b8152fd5b848251630f43215f60e11b8152fd5b346103a45760203660031901126103a45781602093600192358152600080516020611e5e83398151915285522001549051908152f35b50346101fe57816003193601126101fe57602090517fbf233dd2aafeb4d50879c4aa5c81e96d92f6e6945c906a58f9f2d1c1631b4b268152f35b50346101fe5760203660031901126101fe57806020926001600160a01b0361137f611592565b1681526006845220549051908152f35b346103a45760203660031901126103a4576113a8611592565b6113b0611791565b6001600160a01b0391828216938415611126575090818473ffffffffffffffffffffffffffffffffffffffff196113f9945495861695161790556113f38361190f565b50611a53565b507fd33e3f943e596f2b7b99ed1a5330e4ff9e1a603b1c0bf9866f8c83e8ddb065f28380a380f35b50346101fe576020806003193601126103a4576080926001600160a01b03611447611592565b1681526001825260ff83822054169260068352808220546007845281808420549360028652205493825195151586528501528301526060820152f35b50346101fe57816003193601126101fe576114b3906114a061164c565b9051918291602083526020830190611555565b0390f35b9150346103a45760203660031901126103a457357fffffffff0000000000000000000000000000000000000000000000000000000081168091036103a457602092507f7965db0b00000000000000000000000000000000000000000000000000000000811490811561152b575b5015158152f35b7f01ffc9a70000000000000000000000000000000000000000000000000000000091501483611524565b90815180825260208080930193019160005b828110611575575050505090565b83516001600160a01b031685529381019392810192600101611567565b600435906001600160a01b03821682036115a857565b600080fd5b602435906001600160a01b03821682036115a857565b346115a85760203660031901126115a8576001600160a01b036115e4611592565b166000526001602052602060ff604060002054166040519015158152f35b906000918254811015611638578280527f290decd9548b62a8d60345a988386fc84ba6bc95484008f6362f93160ef3e563019190565b602483634e487b7160e01b81526032600452fd5b60405190600080548084526020808501918380527f290decd9548b62a8d60345a988386fc84ba6bc95484008f6362f93160ef3e5639184905b8282106116ca5750505050839003601f01601f191683019067ffffffffffffffff8211848310176116b65750604052565b80634e487b7160e01b602492526041600452fd5b83546001600160a01b031685529384019360019384019390910190611685565b60005480156117615760405190602082019042825244604084015243606084015260608352608083019183831067ffffffffffffffff84111761174b576001600160a01b03936117409360405251902006611602565b90549060031b1c1690565b634e487b7160e01b600052604160045260246000fd5b50600090565b600054906801000000000000000082101561174b5761035182600161178f9401600055611602565b565b3360009081527f1bb2c9017acf0fa0e0be596646f477a7b3f104bdd8321c4e00ff770f062ffc3a60205260409020547f7613a25ecc738585a232ad50a301178f12b3ba8887d13e138b523c4269c476899060ff16156117ed5750565b604490604051907fe2517d3f0000000000000000000000000000000000000000000000000000000082523360048301526024820152fd5b3360009081527f6c08179525669fd141bfd8dcf6862f9194b1108a5ccf897ddb92b300c239b51e60205260409020547f10727a1f9dcafcdc62117a955136b7425444d71bf08083d4aa5892e20e27814d9060ff16156117ed5750565b3360009081527f762c7c328dd70a077c65c77b60e4c38eed3d2f6aa056d4d0fa114aeff8234b5660205260409020547fbf233dd2aafeb4d50879c4aa5c81e96d92f6e6945c906a58f9f2d1c1631b4b269060ff16156117ed5750565b80600052600080516020611e5e83398151915260205260406000203360005260205260ff60406000205416156117ed5750565b6001600160a01b031660008181527f762c7c328dd70a077c65c77b60e4c38eed3d2f6aa056d4d0fa114aeff8234b5660205260408120549091907fbf233dd2aafeb4d50879c4aa5c81e96d92f6e6945c906a58f9f2d1c1631b4b2690600080516020611e5e8339815191529060ff16156119c957818452602052604083208284526020526040832060ff1981541690557ff6391f5c32d9c69d2a47ea670b442974b53935d1edc7fd64eb21e047a839171b339380a4600190565b50505090565b90600091808352600080516020611e5e833981519152806020526001600160a01b036040852093169283855260205260ff6040852054166000146119c957818452602052604083208284526020526040832060ff1981541690557ff6391f5c32d9c69d2a47ea670b442974b53935d1edc7fd64eb21e047a839171b339380a4600190565b6001600160a01b031660008181527f762c7c328dd70a077c65c77b60e4c38eed3d2f6aa056d4d0fa114aeff8234b5660205260408120549091907fbf233dd2aafeb4d50879c4aa5c81e96d92f6e6945c906a58f9f2d1c1631b4b2690600080516020611e5e8339815191529060ff166119c9578184526020526040832082845260205260408320600160ff198254161790557f2f8788117e7eff1d82e926ec794901d17c78024a50270940304540a733656f0d339380a4600190565b6001600160a01b031660008181527fb7db2dd08fcb62d0c9e08c51941cae53c267786a0b75803fb7960902fc8ef97d6020526040812054909190600080516020611e5e8339815191529060ff16611baa578280526020526040822081835260205260408220600160ff1982541617905533917f2f8788117e7eff1d82e926ec794901d17c78024a50270940304540a733656f0d8180a4600190565b505090565b6001600160a01b031660008181527f1bb2c9017acf0fa0e0be596646f477a7b3f104bdd8321c4e00ff770f062ffc3a60205260408120549091907f7613a25ecc738585a232ad50a301178f12b3ba8887d13e138b523c4269c4768990600080516020611e5e8339815191529060ff166119c9578184526020526040832082845260205260408320600160ff198254161790557f2f8788117e7eff1d82e926ec794901d17c78024a50270940304540a733656f0d339380a4600190565b6001600160a01b031660008181527f6c08179525669fd141bfd8dcf6862f9194b1108a5ccf897ddb92b300c239b51e60205260408120549091907f10727a1f9dcafcdc62117a955136b7425444d71bf08083d4aa5892e20e27814d90600080516020611e5e8339815191529060ff166119c9578184526020526040832082845260205260408320600160ff198254161790557f2f8788117e7eff1d82e926ec794901d17c78024a50270940304540a733656f0d339380a4600190565b90600091808352600080516020611e5e833981519152806020526001600160a01b036040852093169283855260205260ff604085205416156000146119c9578184526020526040832082845260205260408320600160ff198254161790557f2f8788117e7eff1d82e926ec794901d17c78024a50270940304540a733656f0d339380a4600190565b60ff7fcd5ed15c6e187e77e9aee88184c21f4f2182ab5827cb3b7e07fbedcd63f033005416611dda57565b60046040517fd93c0665000000000000000000000000000000000000000000000000000000008152fd5b60ff7ff0c57e16840df040f15088dc2f81fe391c3923bec73e23a9662efc9c229c6a005460401c1615611e3357565b60046040517fd7e6bcf8000000000000000000000000000000000000000000000000000000008152fdfe02dd7bc7dec4dceedda775e58dd541e08a116c6c53815c0bd028192f7b626800a164736f6c6343000816000a",
  "linkReferences": {},
  "deployedLinkReferences": {}
}