{
  "_format": "hh-sol-artifact-1",
  "contractName": "InternalAdminManager",
  "sourceName": "contracts/modules/InternalAdminManager.sol",
  "abi": [
    {
      "inputs": [],
      "name": "AccessControlBadConfirmation",
      "type": "error"
    },
    {
      "inputs": [
        {
          "internalType": "address",
          "name": "account",
          "type": "address"
        },
        {
          "internalType": "bytes32",
          "name": "neededRole",
          "type": "bytes32"
        }
      ],
      "name": "AccessControlUnauthorizedAccount",
      "type": "error"
    },
    {
      "inputs": [],
      "name": "AdminAlreadyExists",
      "type": "error"
    },
    {
      "inputs": [],
      "name": "AdminNotFound",
      "type": "error"
    },
    {
      "inputs": [],
      "name": "EmptyAdminList",
      "type": "error"
    },
    {
      "inputs": [],
      "name": "EnforcedPause",
      "type": "error"
    },
    {
      "inputs": [],
      "name": "ExpectedPause",
      "type": "error"
    },
    {
      "inputs": [],
      "name": "IndexOutOfBounds",
      "type": "error"
    },
    {
      "inputs": [],
      "name": "InvalidAddress",
      "type": "error"
    },
    {
      "inputs": [],
      "name": "InvalidInitialization",
      "type": "error"
    },
    {
      "inputs": [],
      "name": "MaxAdminsReached",
      "type": "error"
    },
    {
      "inputs": [],
      "name": "NotInitializing",
      "type": "error"
    },
    {
      "inputs": [],
      "name": "UnauthorizedAccess",
      "type": "error"
    },
    {
      "anonymous": false,
      "inputs": [
        {
          "indexed": true,
          "internalType": "address",
          "name": "admin",
          "type": "address"
        },
        {
          "indexed": false,
          "internalType": "string",
          "name": "action",
          "type": "string"
        }
      ],
      "name": "AdminActivityTracked",
      "type": "event"
    },
    {
      "anonymous": false,
      "inputs": [
        {
          "indexed": true,
          "internalType": "address",
          "name": "oldEmergency",
          "type": "address"
        },
        {
          "indexed": true,
          "internalType": "address",
          "name": "newEmergency",
          "type": "address"
        }
      ],
      "name": "EmergencyAdminUpdated",
      "type": "event"
    },
    {
      "anonymous": false,
      "inputs": [
        {
          "indexed": false,
          "internalType": "uint64",
          "name": "version",
          "type": "uint64"
        }
      ],
      "name": "Initialized",
      "type": "event"
    },
    {
      "anonymous": false,
      "inputs": [
        {
          "indexed": true,
          "internalType": "address",
          "name": "admin",
          "type": "address"
        },
        {
          "indexed": false,
          "internalType": "uint256",
          "name": "index",
          "type": "uint256"
        },
        {
          "indexed": true,
          "internalType": "address",
          "name": "addedBy",
          "type": "address"
        }
      ],
      "name": "InternalAdminAdded",
      "type": "event"
    },
    {
      "anonymous": false,
      "inputs": [
        {
          "indexed": true,
          "internalType": "address",
          "name": "admin",
          "type": "address"
        },
        {
          "indexed": false,
          "internalType": "uint256",
          "name": "index",
          "type": "uint256"
        },
        {
          "indexed": true,
          "internalType": "address",
          "name": "removedBy",
          "type": "address"
        }
      ],
      "name": "InternalAdminRemoved",
      "type": "event"
    },
    {
      "anonymous": false,
      "inputs": [
        {
          "indexed": true,
          "internalType": "address",
          "name": "oldAdmin",
          "type": "address"
        },
        {
          "indexed": true,
          "internalType": "address",
          "name": "newAdmin",
          "type": "address"
        },
        {
          "indexed": false,
          "internalType": "uint256",
          "name": "index",
          "type": "uint256"
        },
        {
          "indexed": true,
          "internalType": "address",
          "name": "replacedBy",
          "type": "address"
        }
      ],
      "name": "InternalAdminReplaced",
      "type": "event"
    },
    {
      "anonymous": false,
      "inputs": [
        {
          "indexed": false,
          "internalType": "uint256",
          "name": "totalAdmins",
          "type": "uint256"
        },
        {
          "indexed": true,
          "internalType": "address",
          "name": "updatedBy",
          "type": "address"
        }
      ],
      "name": "MassAdminUpdate",
      "type": "event"
    },
    {
      "anonymous": false,
      "inputs": [
        {
          "indexed": true,
          "internalType": "address",
          "name": "oldContract",
          "type": "address"
        },
        {
          "indexed": true,
          "internalType": "address",
          "name": "newContract",
          "type": "address"
        }
      ],
      "name": "OrphiContractUpdated",
      "type": "event"
    },
    {
      "anonymous": false,
      "inputs": [
        {
          "indexed": false,
          "internalType": "address",
          "name": "account",
          "type": "address"
        }
      ],
      "name": "Paused",
      "type": "event"
    },
    {
      "anonymous": false,
      "inputs": [
        {
          "indexed": true,
          "internalType": "bytes32",
          "name": "role",
          "type": "bytes32"
        },
        {
          "indexed": true,
          "internalType": "bytes32",
          "name": "previousAdminRole",
          "type": "bytes32"
        },
        {
          "indexed": true,
          "internalType": "bytes32",
          "name": "newAdminRole",
          "type": "bytes32"
        }
      ],
      "name": "RoleAdminChanged",
      "type": "event"
    },
    {
      "anonymous": false,
      "inputs": [
        {
          "indexed": true,
          "internalType": "bytes32",
          "name": "role",
          "type": "bytes32"
        },
        {
          "indexed": true,
          "internalType": "address",
          "name": "account",
          "type": "address"
        },
        {
          "indexed": true,
          "internalType": "address",
          "name": "sender",
          "type": "address"
        }
      ],
      "name": "RoleGranted",
      "type": "event"
    },
    {
      "anonymous": false,
      "inputs": [
        {
          "indexed": true,
          "internalType": "bytes32",
          "name": "role",
          "type": "bytes32"
        },
        {
          "indexed": true,
          "internalType": "address",
          "name": "account",
          "type": "address"
        },
        {
          "indexed": true,
          "internalType": "address",
          "name": "sender",
          "type": "address"
        }
      ],
      "name": "RoleRevoked",
      "type": "event"
    },
    {
      "anonymous": false,
      "inputs": [
        {
          "indexed": false,
          "internalType": "address",
          "name": "account",
          "type": "address"
        }
      ],
      "name": "Unpaused",
      "type": "event"
    },
    {
      "inputs": [],
      "name": "ADMIN_MANAGER_ROLE",
      "outputs": [
        {
          "internalType": "bytes32",
          "name": "",
          "type": "bytes32"
        }
      ],
      "stateMutability": "view",
      "type": "function"
    },
    {
      "inputs": [],
      "name": "DEFAULT_ADMIN_ROLE",
      "outputs": [
        {
          "internalType": "bytes32",
          "name": "",
          "type": "bytes32"
        }
      ],
      "stateMutability": "view",
      "type": "function"
    },
    {
      "inputs": [],
      "name": "EMERGENCY_ROLE",
      "outputs": [
        {
          "internalType": "bytes32",
          "name": "",
          "type": "bytes32"
        }
      ],
      "stateMutability": "view",
      "type": "function"
    },
    {
      "inputs": [],
      "name": "MAX_INTERNAL_ADMINS",
      "outputs": [
        {
          "internalType": "uint256",
          "name": "",
          "type": "uint256"
        }
      ],
      "stateMutability": "view",
      "type": "function"
    },
    {
      "inputs": [],
      "name": "SUPER_ADMIN_ROLE",
      "outputs": [
        {
          "internalType": "bytes32",
          "name": "",
          "type": "bytes32"
        }
      ],
      "stateMutability": "view",
      "type": "function"
    },
    {
      "inputs": [
        {
          "internalType": "address",
          "name": "_admin",
          "type": "address"
        }
      ],
      "name": "addInternalAdmin",
      "outputs": [],
      "stateMutability": "nonpayable",
      "type": "function"
    },
    {
      "inputs": [
        {
          "internalType": "address",
          "name": "",
          "type": "address"
        }
      ],
      "name": "adminActionCount",
      "outputs": [
        {
          "internalType": "uint256",
          "name": "",
          "type": "uint256"
        }
      ],
      "stateMutability": "view",
      "type": "function"
    },
    {
      "inputs": [
        {
          "internalType": "address",
          "name": "",
          "type": "address"
        }
      ],
      "name": "adminIndex",
      "outputs": [
        {
          "internalType": "uint256",
          "name": "",
          "type": "uint256"
        }
      ],
      "stateMutability": "view",
      "type": "function"
    },
    {
      "inputs": [
        {
          "internalType": "address",
          "name": "",
          "type": "address"
        }
      ],
      "name": "adminLastActivity",
      "outputs": [
        {
          "internalType": "uint256",
          "name": "",
          "type": "uint256"
        }
      ],
      "stateMutability": "view",
      "type": "function"
    },
    {
      "inputs": [
        {
          "internalType": "address[]",
          "name": "_admins",
          "type": "address[]"
        }
      ],
      "name": "bulkAddInternalAdmins",
      "outputs": [],
      "stateMutability": "nonpayable",
      "type": "function"
    },
    {
      "inputs": [
        {
          "internalType": "address",
          "name": "_admin",
          "type": "address"
        }
      ],
      "name": "checkIsInternalAdmin",
      "outputs": [
        {
          "internalType": "bool",
          "name": "",
          "type": "bool"
        }
      ],
      "stateMutability": "view",
      "type": "function"
    },
    {
      "inputs": [],
      "name": "emergencyAdmin",
      "outputs": [
        {
          "internalType": "address",
          "name": "",
          "type": "address"
        }
      ],
      "stateMutability": "view",
      "type": "function"
    },
    {
      "inputs": [],
      "name": "emergencyClearAllAdmins",
      "outputs": [],
      "stateMutability": "nonpayable",
      "type": "function"
    },
    {
      "inputs": [],
      "name": "emergencyPause",
      "outputs": [],
      "stateMutability": "nonpayable",
      "type": "function"
    },
    {
      "inputs": [],
      "name": "emergencyUnpause",
      "outputs": [],
      "stateMutability": "nonpayable",
      "type": "function"
    },
    {
      "inputs": [],
      "name": "getAdminManagerInfo",
      "outputs": [
        {
          "internalType": "uint256",
          "name": "totalAdmins",
          "type": "uint256"
        },
        {
          "internalType": "uint256",
          "name": "maxAdmins",
          "type": "uint256"
        },
        {
          "internalType": "address[]",
          "name": "admins",
          "type": "address[]"
        },
        {
          "internalType": "address",
          "name": "currentEmergencyAdmin",
          "type": "address"
        },
        {
          "internalType": "address",
          "name": "currentOrphiContract",
          "type": "address"
        },
        {
          "internalType": "uint256",
          "name": "lastUpdate",
          "type": "uint256"
        }
      ],
      "stateMutability": "view",
      "type": "function"
    },
    {
      "inputs": [
        {
          "internalType": "address",
          "name": "_admin",
          "type": "address"
        }
      ],
      "name": "getAdminStats",
      "outputs": [
        {
          "internalType": "bool",
          "name": "isAdmin",
          "type": "bool"
        },
        {
          "internalType": "uint256",
          "name": "lastActivity",
          "type": "uint256"
        },
        {
          "internalType": "uint256",
          "name": "actionCount",
          "type": "uint256"
        },
        {
          "internalType": "uint256",
          "name": "index",
          "type": "uint256"
        }
      ],
      "stateMutability": "view",
      "type": "function"
    },
    {
      "inputs": [],
      "name": "getAllInternalAdmins",
      "outputs": [
        {
          "internalType": "address[]",
          "name": "",
          "type": "address[]"
        }
      ],
      "stateMutability": "view",
      "type": "function"
    },
    {
      "inputs": [
        {
          "internalType": "uint256",
          "name": "_index",
          "type": "uint256"
        }
      ],
      "name": "getInternalAdminAt",
      "outputs": [
        {
          "internalType": "address",
          "name": "",
          "type": "address"
        }
      ],
      "stateMutability": "view",
      "type": "function"
    },
    {
      "inputs": [],
      "name": "getInternalAdminCount",
      "outputs": [
        {
          "internalType": "uint256",
          "name": "",
          "type": "uint256"
        }
      ],
      "stateMutability": "view",
      "type": "function"
    },
    {
      "inputs": [],
      "name": "getRandomInternalAdmin",
      "outputs": [
        {
          "internalType": "address",
          "name": "",
          "type": "address"
        }
      ],
      "stateMutability": "view",
      "type": "function"
    },
    {
      "inputs": [
        {
          "internalType": "bytes32",
          "name": "role",
          "type": "bytes32"
        }
      ],
      "name": "getRoleAdmin",
      "outputs": [
        {
          "internalType": "bytes32",
          "name": "",
          "type": "bytes32"
        }
      ],
      "stateMutability": "view",
      "type": "function"
    },
    {
      "inputs": [
        {
          "internalType": "bytes32",
          "name": "role",
          "type": "bytes32"
        },
        {
          "internalType": "address",
          "name": "account",
          "type": "address"
        }
      ],
      "name": "grantRole",
      "outputs": [],
      "stateMutability": "nonpayable",
      "type": "function"
    },
    {
      "inputs": [
        {
          "internalType": "bytes32",
          "name": "role",
          "type": "bytes32"
        },
        {
          "internalType": "address",
          "name": "account",
          "type": "address"
        }
      ],
      "name": "hasRole",
      "outputs": [
        {
          "internalType": "bool",
          "name": "",
          "type": "bool"
        }
      ],
      "stateMutability": "view",
      "type": "function"
    },
    {
      "inputs": [
        {
          "internalType": "address",
          "name": "_superAdmin",
          "type": "address"
        },
        {
          "internalType": "address",
          "name": "_emergencyAdmin",
          "type": "address"
        },
        {
          "internalType": "address",
          "name": "_orphiContract",
          "type": "address"
        }
      ],
      "name": "initialize",
      "outputs": [],
      "stateMutability": "nonpayable",
      "type": "function"
    },
    {
      "inputs": [
        {
          "internalType": "uint256",
          "name": "",
          "type": "uint256"
        }
      ],
      "name": "internalAdmins",
      "outputs": [
        {
          "internalType": "address",
          "name": "",
          "type": "address"
        }
      ],
      "stateMutability": "view",
      "type": "function"
    },
    {
      "inputs": [
        {
          "internalType": "address",
          "name": "",
          "type": "address"
        }
      ],
      "name": "isInternalAdmin",
      "outputs": [
        {
          "internalType": "bool",
          "name": "",
          "type": "bool"
        }
      ],
      "stateMutability": "view",
      "type": "function"
    },
    {
      "inputs": [],
      "name": "lastAdminUpdate",
      "outputs": [
        {
          "internalType": "uint256",
          "name": "",
          "type": "uint256"
        }
      ],
      "stateMutability": "view",
      "type": "function"
    },
    {
      "inputs": [],
      "name": "orphiContract",
      "outputs": [
        {
          "internalType": "address",
          "name": "",
          "type": "address"
        }
      ],
      "stateMutability": "view",
      "type": "function"
    },
    {
      "inputs": [],
      "name": "paused",
      "outputs": [
        {
          "internalType": "bool",
          "name": "",
          "type": "bool"
        }
      ],
      "stateMutability": "view",
      "type": "function"
    },
    {
      "inputs": [
        {
          "internalType": "address",
          "name": "_admin",
          "type": "address"
        }
      ],
      "name": "removeInternalAdmin",
      "outputs": [],
      "stateMutability": "nonpayable",
      "type": "function"
    },
    {
      "inputs": [
        {
          "internalType": "bytes32",
          "name": "role",
          "type": "bytes32"
        },
        {
          "internalType": "address",
          "name": "callerConfirmation",
          "type": "address"
        }
      ],
      "name": "renounceRole",
      "outputs": [],
      "stateMutability": "nonpayable",
      "type": "function"
    },
    {
      "inputs": [
        {
          "internalType": "address",
          "name": "_oldAdmin",
          "type": "address"
        },
        {
          "internalType": "address",
          "name": "_newAdmin",
          "type": "address"
        }
      ],
      "name": "replaceInternalAdmin",
      "outputs": [],
      "stateMutability": "nonpayable",
      "type": "function"
    },
    {
      "inputs": [
        {
          "internalType": "bytes32",
          "name": "role",
          "type": "bytes32"
        },
        {
          "internalType": "address",
          "name": "account",
          "type": "address"
        }
      ],
      "name": "revokeRole",
      "outputs": [],
      "stateMutability": "nonpayable",
      "type": "function"
    },
    {
      "inputs": [
        {
          "internalType": "bytes4",
          "name": "interfaceId",
          "type": "bytes4"
        }
      ],
      "name": "supportsInterface",
      "outputs": [
        {
          "internalType": "bool",
          "name": "",
          "type": "bool"
        }
      ],
      "stateMutability": "view",
      "type": "function"
    },
    {
      "inputs": [
        {
          "internalType": "address",
          "name": "_admin",
          "type": "address"
        },
        {
          "internalType": "string",
          "name": "_action",
          "type": "string"
        }
      ],
      "name": "trackAdminActivity",
      "outputs": [],
      "stateMutability": "nonpayable",
      "type": "function"
    },
    {
      "inputs": [
        {
          "internalType": "address",
          "name": "_newEmergencyAdmin",
          "type": "address"
        }
      ],
      "name": "updateEmergencyAdmin",
      "outputs": [],
      "stateMutability": "nonpayable",
      "type": "function"
    },
    {
      "inputs": [
        {
          "internalType": "address",
          "name": "_newOrphiContract",
          "type": "address"
        }
      ],
      "name": "updateOrphiContract",
      "outputs": [],
      "stateMutability": "nonpayable",
      "type": "function"
    },
    {
      "inputs": [
        {
          "internalType": "address",
          "name": "_caller",
          "type": "address"
        }
      ],
      "name": "validateInternalAdmin",
      "outputs": [
        {
          "internalType": "bool",
          "name": "",
          "type": "bool"
        }
      ],
      "stateMutability": "view",
      "type": "function"
    },
    {
      "inputs": [],
      "name": "version",
      "outputs": [
        {
          "internalType": "string",
          "name": "",
          "type": "string"
        }
      ],
      "stateMutability": "pure",
      "type": "function"
    }
  ],
  "bytecode": "0x6080806040523461001657611bda908161001c8239f35b600080fdfe608060408181526004908136101561001657600080fd5b600091823560e01c93846301ffc9a71461129457508363054f7623146112605783630e675baa146111fe57836314c57e93146111875783631606cbdf1461115057836317f6c656146101df57836320df435914611128578363248a9ca3146110f2578363292a4a8314610fc35783632f2ff15d14610f9b57836336568abe14610f555783634314241b14610ee85783634460bdd614610ec057836346892abb14610dff57836347de6bca14610dd75783634a4e3bd514610d6157836351858e2714610cfa57836354fd4d5014610c5e5783635c975abb14610c2e57836364d36c2f14610c1057836370905dce14610bea578363883fb2c714610bce57836391d1485414610b7c5783639ceddc8914610b4f5783639d727f1314610a76578363a20b147d14610a3f578363a217fddf14610a25578363a3b82506146109bd578363c0c53b8b146107ed578363ca14cfb8146107c5578363cad74b851461078e578363cf1be74d14610742578363d547741f146106f7578363de4fd30e146106ba578363e2454dcc14610531578363e77767c9146103aa578363ea455cd41461022957508263ee06f69f14610202578263f1d0bf9c146101e457505063f39b9211146101df57600080fd5b611355565b346101fe57816003193601126101fe576020905160158152f35b5080fd5b346101fe57816003193601126101fe5760035490516001600160a01b039091168152602090f35b9250346101fe57602090816003193601126103a657610246611324565b9161024f611537565b61025761196a565b6001600160a01b03928316808552600182528285205490929060ff161561039757828552600282528085205493855460001990818101908111610384578083918803610336575b505086548015610323577faa8cbe8290e9f80b7f3e1d28cde76748e42eb8bbd1a155950c2514aae7095ee7959697985001906102d982611394565b909182549160031b1b1916905586558386526001825280862060ff19815416905560028252858181205560068252858181205560078252858181205542600555519384523393a380f35b634e487b7160e01b885260318952602488fd5b61033f90611394565b90549060031b1c166103728161035489611394565b90919060018060a01b038084549260031b9316831b921b1916179055565b8752600284528583882055813861029e565b634e487b7160e01b885260118952602488fd5b51630f43215f60e11b81528590fd5b8280fd5b90346103a657806003193601126103a6576103c3611324565b602435906001600160401b039081831161052d573660238401121561052d578285013591821161052d57366024838501011161052d576003546001600160a01b0391908216331480156104f4575b156104c2571693848652600160205260ff848720541661042f578580f35b6006602052428487205560076020528386209081549060001982146104af5750916024939160017fe9040778dc350e2ec874f78ea654a30a20638f84b36c25dfbf5983d4797107a396940190558083519485936020855282602086015201848401378181018301879052601f01601f19168101030190a281808080808580f35b634e487b7160e01b885260119052602487fd5b845162461bcd60e51b8152602081880152600c60248201526b155b985d5d1a1bdc9a5e995960a21b6044820152606490fd5b50600080516020611b658339815191528752600080516020611b0583398151915260205284872033885260205260ff8588205416610411565b8580fd5b346103a657602090816003193601126106b6576001600160401b0390803582811161052d573660238201121561052d578082013592831161052d5760249060053660248660051b840101116106b2576105886114e1565b61059061196a565b84156106a257875485810180911161068f5760151061067f57875b8581106105d5578888600080516020611a058339815191528942600555835492519283523392a280f35b80821b83018401356001600160a01b03811680820361067b57801561066b57808b526001808a5260ff8b8d20541661065b579060019392916106188d54936114bc565b818d52808b528b8d209060ff1982541617905560028a52818b8d205560068a52428b8d20558a51918252600080516020611ae58339815191528a3393a3016105ab565b8a516308a07bb960e41b81528890fd5b895163e6c4247b60e01b81528790fd5b8a80fd5b865163f1eb89af60e01b81528490fd5b634e487b7160e01b895260118552602489fd5b86516333d820ab60e11b81528490fd5b8780fd5b8380fd5b50346101fe5760203660031901126101fe5760209160ff9082906001600160a01b036106e4611324565b1681526001855220541690519015158152f35b90346103a657806003193601126103a65761073e9135610739600161071a61133f565b93838752600080516020611b05833981519152602052862001546115a7565b611664565b5080f35b346103a65760203660031901126103a65780359254831015610780575061076a602092611394565b905491519160018060a01b039160031b1c168152f35b9051634e23d03560e01b8152fd5b50346101fe5760203660031901126101fe5760209181906001600160a01b036107b5611324565b1681526007845220549051908152f35b50346101fe57816003193601126101fe5760209051600080516020611b658339815191528152f35b90346103a65760603660031901126103a657610807611324565b61080f61133f565b916044356001600160a01b0381811692918390036109b957600080516020611b858339815191528054909581841c60ff16159590916001600160401b038116801590816109b1575b60011490816109a7575b15908161099e575b5061098e576001600160401b03198116600117885586610973575b50828116158015610969575b61095957906108c48593926108a3611995565b6108ab611995565b6108b48161175b565b506108be816117e9565b5061186f565b506108ce816116d5565b50169560018060a01b0319908782825416179055600354161760035542600555519385600080516020611a858339815191528180a384600080516020611a458339815191528180a361091e578280f35b805460ff60401b19169055600181527fc7f505b2f371ae2175ee4913f4499e1f2633a7b5936321eed1cdaeb6115181d290602090a181808280f35b835163e6c4247b60e01b81528890fd5b5082821615610890565b6001600160481b0319166001600160401b0117875589610884565b845163f92ee8a960e01b81528990fd5b9050158b610869565b303b159150610861565b889150610857565b8680fd5b8234610a225780600319360112610a22575490546003546005546001600160a01b0392831692909116610a0e6109f16113c1565b60c0875197889788526015602089015287015260c08601906112e7565b926060850152608084015260a08301520390f35b80fd5b50346101fe57816003193601126101fe5751908152602090f35b50346101fe5760203660031901126101fe5760209181906001600160a01b03610a66611324565b1681526002845220549051908152f35b90346103a6576020806003193601126106b657610a91611324565b91610a9a611537565b610aa261196a565b6001600160a01b038316928315610b3f578386526001835260ff8287205416610b2f578554946015861015610b21575090610aec600080516020611ae583398151915293926114bc565b83865260018252808620600160ff1982541617905560028252848187205560068252428187205542600555519384523393a380f35b825163f1eb89af60e01b8152fd5b81516308a07bb960e41b81528590fd5b815163e6c4247b60e01b81528590fd5b50346101fe57816003193601126101fe57602090610b6b611441565b90516001600160a01b039091168152f35b346103a657816003193601126103a6578160209360ff92610b9b61133f565b90358252600080516020611b0583398151915286528282206001600160a01b039091168252855220549151911615158152f35b50346101fe57816003193601126101fe57602091549051908152f35b346103a657826003193601126103a6575490516001600160a01b03909116815260209150f35b50346101fe57816003193601126101fe576020906005549051908152f35b50346101fe57816003193601126101fe5760209060ff600080516020611b45833981519152541690519015158152f35b346103a657826003193601126103a657815190818301906001600160401b03821183831017610ce75750825260058152602090640312e302e360dc1b6020820152825193849260208452825192836020860152825b848110610cd157505050828201840152601f01601f19168101030190f35b8181018301518882018801528795508201610cb3565b634e487b7160e01b855260419052602484fd5b50346101fe57816003193601126101fe5760207f62e78cea01bee320cd4e420270b5ea74000d11b0c9f74754ebdbfc544b05a25891610d3761156f565b610d3f61196a565b600080516020611b45833981519152805460ff1916600117905551338152a180f35b346103a657826003193601126103a657610d7961156f565b600080516020611b458339815191529081549060ff821615610dc9575060ff19169055513381527f5db9ee0a495bf2e6ff9c91a7834c1ba4fdd244a5e8aa4e537bd38aeae4b073aa90602090a180f35b8351638dfc202b60e01b8152fd5b346103a65760203660031901126103a65735918054831015610a22575061076a602092611394565b50346101fe57816003193601126101fe57610e1861156f565b8154825b818110610e74575050815482805580610e50575b504260055551818152600080516020611a0583398151915260203392a280f35b82805260208320908101905b818110610e695750610e30565b838155600101610e5c565b80610e80600192611394565b838060a01b0391549060031b1c1685526007602083815285872060ff19815416905560028152868681205560068152868681205552848481205501610e1c565b50346101fe57816003193601126101fe5760209051600080516020611ac58339815191528152f35b346103a65760203660031901126103a657610f01611324565b90610f0a6114e1565b6001600160a01b03918216928315610f48575050600380546001600160a01b03198116841790915516600080516020611a458339815191528380a380f35b5163e6c4247b60e01b8152fd5b9250346101fe57806003193601126101fe57610f6f61133f565b90336001600160a01b03831603610f8c575061073e919235611664565b5163334bd91960e11b81528390fd5b90346103a657806003193601126103a65761073e9135610fbe600161071a61133f565b6118f5565b346103a657816003193601126103a657610fdb611324565b91610fe461133f565b92610fed611537565b610ff561196a565b60018060a01b03809116918286526020916001835260ff8288205416156110e25785169384156110d4578487526001835260ff82882054166110c65750907f20906a301d658e6dca6f773034f2848f6941e0eb6dcf567a3b00b526fcdc7b05918387526002825261106d818820549661035488611394565b8387526001825280872060ff19908181541690556006835287828120556007835287828120558588526001835260018289209182541617905560028252858188205560068252428188205542600555519485523394a480f35b90516308a07bb960e41b8152fd5b905163e6c4247b60e01b8152fd5b8151630f43215f60e11b81528590fd5b346103a65760203660031901126103a65781602093600192358152600080516020611b0583398151915285522001549051908152f35b50346101fe57816003193601126101fe5760209051600080516020611a258339815191528152f35b50346101fe5760203660031901126101fe5760209181906001600160a01b03611177611324565b1681526006845220549051908152f35b346103a65760203660031901126103a6576111a0611324565b6111a86114e1565b6001600160a01b03818116939092908415610f48575080546001600160a01b03198116851790915591909116906111e8906111e2836115da565b506116d5565b50600080516020611a858339815191528380a380f35b50346101fe576020806003193601126103a6576080926001600160a01b03611224611324565b1681526001825260ff83822054169260068352808220546007845281808420549360028652205493825195151586528501528301526060820152f35b50346101fe57816003193601126101fe576112909061127d6113c1565b90519182916020835260208301906112e7565b0390f35b9150346103a65760203660031901126103a6573563ffffffff60e01b81168091036103a65760209250637965db0b60e01b81149081156112d6575b5015158152f35b6301ffc9a760e01b149050836112cf565b90815180825260208080930193019160005b828110611307575050505090565b83516001600160a01b0316855293810193928101926001016112f9565b600435906001600160a01b038216820361133a57565b600080fd5b602435906001600160a01b038216820361133a57565b3461133a57602036600319011261133a576001600160a01b03611376611324565b166000526001602052602060ff604060002054166040519015158152f35b9060009182548110156113ad5782805260208320019190565b634e487b7160e01b83526032600452602483fd5b6040519060008054808452602080850191838052602084209184905b8282106114215750505050839003601f01601f19168301906001600160401b0382118483101761140d5750604052565b634e487b7160e01b81526041600452602490fd5b83546001600160a01b0316855293840193600193840193909101906113dd565b60005480156114b657604051906020820142815244604084015243606084015260608352608083019280841060018060401b038511176114a05761148b9360405251902006611394565b905460039190911b1c6001600160a01b031690565b634e487b7160e01b600052604160045260246000fd5b50600090565b60005490600160401b8210156114a0576103548260016114df9401600055611394565b565b336000908152600080516020611aa58339815191526020526040902054600080516020611ac58339815191529060ff16156115195750565b6044906040519063e2517d3f60e01b82523360048301526024820152fd5b336000908152600080516020611a658339815191526020526040902054600080516020611b658339815191529060ff16156115195750565b3360009081526000805160206119e58339815191526020526040902054600080516020611a258339815191529060ff16156115195750565b80600052600080516020611b0583398151915260205260406000203360005260205260ff60406000205416156115195750565b6001600160a01b031660008181526000805160206119e58339815191526020526040812054909190600080516020611a2583398151915290600080516020611b058339815191529060ff161561165e57818452602052604083208284526020526040832060ff198154169055600080516020611b25833981519152339380a4600190565b50505090565b90600091808352600080516020611b0583398151915280602052604084209260018060a01b03169283855260205260ff60408520541660001461165e57818452602052604083208284526020526040832060ff198154169055600080516020611b25833981519152339380a4600190565b6001600160a01b031660008181526000805160206119e58339815191526020526040812054909190600080516020611a2583398151915290600080516020611b058339815191529060ff1661165e578184526020526040832082845260205260408320600160ff198254161790556000805160206119c5833981519152339380a4600190565b6001600160a01b031660008181527fb7db2dd08fcb62d0c9e08c51941cae53c267786a0b75803fb7960902fc8ef97d6020526040812054909190600080516020611b058339815191529060ff166117e4578280526020526040822081835260205260408220600160ff1982541617905533916000805160206119c58339815191528180a4600190565b505090565b6001600160a01b03166000818152600080516020611aa58339815191526020526040812054909190600080516020611ac583398151915290600080516020611b058339815191529060ff1661165e578184526020526040832082845260205260408320600160ff198254161790556000805160206119c5833981519152339380a4600190565b6001600160a01b03166000818152600080516020611a658339815191526020526040812054909190600080516020611b6583398151915290600080516020611b058339815191529060ff1661165e578184526020526040832082845260205260408320600160ff198254161790556000805160206119c5833981519152339380a4600190565b90600091808352600080516020611b0583398151915280602052604084209260018060a01b03169283855260205260ff6040852054161560001461165e578184526020526040832082845260205260408320600160ff198254161790556000805160206119c5833981519152339380a4600190565b60ff600080516020611b45833981519152541661198357565b60405163d93c066560e01b8152600490fd5b60ff600080516020611b858339815191525460401c16156119b257565b604051631afcd79f60e31b8152600490fdfe2f8788117e7eff1d82e926ec794901d17c78024a50270940304540a733656f0d762c7c328dd70a077c65c77b60e4c38eed3d2f6aa056d4d0fa114aeff8234b560dbd07b52325cb377fe5090ac2b3c297987a385d631c2a3530c2ec8a7f8059e3bf233dd2aafeb4d50879c4aa5c81e96d92f6e6945c906a58f9f2d1c1631b4b268354fef0c8a16399b0c9916cf5a64e93e339fc5631638f7db11da9d71020312c6c08179525669fd141bfd8dcf6862f9194b1108a5ccf897ddb92b300c239b51ed33e3f943e596f2b7b99ed1a5330e4ff9e1a603b1c0bf9866f8c83e8ddb065f21bb2c9017acf0fa0e0be596646f477a7b3f104bdd8321c4e00ff770f062ffc3a7613a25ecc738585a232ad50a301178f12b3ba8887d13e138b523c4269c476893dd8b7ecde4b699d939fd87f41d6d93b2c3dd2cd6e6a7b9ae2bea59631e7443102dd7bc7dec4dceedda775e58dd541e08a116c6c53815c0bd028192f7b626800f6391f5c32d9c69d2a47ea670b442974b53935d1edc7fd64eb21e047a839171bcd5ed15c6e187e77e9aee88184c21f4f2182ab5827cb3b7e07fbedcd63f0330010727a1f9dcafcdc62117a955136b7425444d71bf08083d4aa5892e20e27814df0c57e16840df040f15088dc2f81fe391c3923bec73e23a9662efc9c229c6a00a264697066735822122084bfc6cb08f57c6891508ce454cc89bcd677db7ff8ee00a9f99fb1e62798174464736f6c63430008160033",
  "linkReferences": {},
  "deployedLinkReferences": {}
}