{
  "_format": "hh-sol-artifact-1",
  "contractName": "CommissionLibrary",
  "sourceName": "contracts/libraries/CommissionLibrary.sol",
  "abi": [
    {
      "inputs": [],
      "name": "BASIS_POINTS",
      "outputs": [
        {
          "internalType": "uint256",
          "name": "",
          "type": "uint256"
        }
      ],
      "stateMutability": "view",
      "type": "function"
    },
    {
      "inputs": [],
      "name": "GLOBAL_HELP_POOL_RATE",
      "outputs": [
        {
          "internalType": "uint256",
          "name": "",
          "type": "uint256"
        }
      ],
      "stateMutability": "view",
      "type": "function"
    },
    {
      "inputs": [],
      "name": "GLOBAL_UPLINE_RATE",
      "outputs": [
        {
          "internalType": "uint256",
          "name": "",
          "type": "uint256"
        }
      ],
      "stateMutability": "view",
      "type": "function"
    },
    {
      "inputs": [],
      "name": "LEADER_BONUS_RATE",
      "outputs": [
        {
          "internalType": "uint256",
          "name": "",
          "type": "uint256"
        }
      ],
      "stateMutability": "view",
      "type": "function"
    },
    {
      "inputs": [],
      "name": "LEVEL_BONUS_RATE",
      "outputs": [
        {
          "internalType": "uint256",
          "name": "",
          "type": "uint256"
        }
      ],
      "stateMutability": "view",
      "type": "function"
    },
    {
      "inputs": [],
      "name": "SPONSOR_COMMISSION_RATE",
      "outputs": [
        {
          "internalType": "uint256",
          "name": "",
          "type": "uint256"
        }
      ],
      "stateMutability": "view",
      "type": "function"
    }
  ],
  "bytecode": "0x608080604052346100195760f5908161001f823930815050f35b600080fdfe60806040526004361015601157600080fd5b6000803560e01c80631c1e7d381460a357806358c23d5914608c578063599c422114607157806396395e61146075578063d2581b091460715763e1f1c4a714605857600080fd5b80600319360112606e5760206040516127108152f35b80fd5b60a3565b5080600319360112606e576020604051610bb88152f35b5080600319360112606e576020604051610fa08152f35b600036600319011260ba5760206040516103e88152f35b600080fdfea26469706673582212206cc60ce25a5d4339ac839892ec7c616e382da611576f0c4201b860786c74379164736f6c63430008160033",
  "linkReferences": {},
  "deployedLinkReferences": {}
}