{
  "_format": "hh-sol-artifact-1",
  "contractName": "CompensationLogic",
  "sourceName": "contracts/libraries/CompensationLogic.sol",
  "abi": [
    {
      "inputs": [],
      "name": "BASIS_POINTS",
      "outputs": [
        {
          "internalType": "uint256",
          "name": "",
          "type": "uint256"
        }
      ],
      "stateMutability": "view",
      "type": "function"
    },
    {
      "inputs": [],
      "name": "CLUB_POOL_BP",
      "outputs": [
        {
          "internalType": "uint256",
          "name": "",
          "type": "uint256"
        }
      ],
      "stateMutability": "view",
      "type": "function"
    },
    {
      "inputs": [],
      "name": "DIRECT_BONUS_BP",
      "outputs": [
        {
          "internalType": "uint256",
          "name": "",
          "type": "uint256"
        }
      ],
      "stateMutability": "view",
      "type": "function"
    },
    {
      "inputs": [],
      "name": "EARNINGS_CAP_BASIS_POINTS",
      "outputs": [
        {
          "internalType": "uint256",
          "name": "",
          "type": "uint256"
        }
      ],
      "stateMutability": "view",
      "type": "function"
    },
    {
      "inputs": [],
      "name": "GHP_PERCENTAGE_BP",
      "outputs": [
        {
          "internalType": "uint256",
          "name": "",
          "type": "uint256"
        }
      ],
      "stateMutability": "view",
      "type": "function"
    }
  ],
  "bytecode": "0x6080806040523461001a576101009081610020823930815050f35b600080fdfe6080806040526004361015601257600080fd5b600090813560e01c9081632e02f56c1460b0575080635f43023014609957806376a0d3f7146082578063b94c2a6014606b5763e1f1c4a714605257600080fd5b8060031936011260685760206040516127108152f35b80fd5b50806003193601126068576020604051610bb88152f35b50806003193601126068576020604051610fa08152f35b508060031936011260685760206040516175308152f35b90508160031936011260c657806101f460209252f35b5080fdfea2646970667358221220775b03f88bf8eaa8e693ad192cd1dbaacee48cf60dcca0315d1c4b6df44283e564736f6c63430008160033",
  "linkReferences": {},
  "deployedLinkReferences": {}
}