{
  "_format": "hh-sol-artifact-1",
  "contractName": "OrphiCrowdFund",
  "sourceName": "contracts/OrphiCrowdFund.sol",
  "abi": [
    {
      "inputs": [
        {
          "internalType": "address",
          "name": "target",
          "type": "address"
        }
      ],
      "name": "AddressEmptyCode",
      "type": "error"
    },
    {
      "inputs": [
        {
          "internalType": "address",
          "name": "implementation",
          "type": "address"
        }
      ],
      "name": "ERC1967InvalidImplementation",
      "type": "error"
    },
    {
      "inputs": [],
      "name": "ERC1967NonPayable",
      "type": "error"
    },
    {
      "inputs": [],
      "name": "EnforcedPause",
      "type": "error"
    },
    {
      "inputs": [],
      "name": "ExpectedPause",
      "type": "error"
    },
    {
      "inputs": [],
      "name": "FailedCall",
      "type": "error"
    },
    {
      "inputs": [],
      "name": "InvalidInitialization",
      "type": "error"
    },
    {
      "inputs": [],
      "name": "NotInitializing",
      "type": "error"
    },
    {
      "inputs": [
        {
          "internalType": "address",
          "name": "owner",
          "type": "address"
        }
      ],
      "name": "OwnableInvalidOwner",
      "type": "error"
    },
    {
      "inputs": [
        {
          "internalType": "address",
          "name": "account",
          "type": "address"
        }
      ],
      "name": "OwnableUnauthorizedAccount",
      "type": "error"
    },
    {
      "inputs": [],
      "name": "ReentrancyGuardReentrantCall",
      "type": "error"
    },
    {
      "inputs": [],
      "name": "UUPSUnauthorizedCallContext",
      "type": "error"
    },
    {
      "inputs": [
        {
          "internalType": "bytes32",
          "name": "slot",
          "type": "bytes32"
        }
      ],
      "name": "UUPSUnsupportedProxiableUUID",
      "type": "error"
    },
    {
      "anonymous": false,
      "inputs": [
        {
          "indexed": true,
          "internalType": "address",
          "name": "recipient",
          "type": "address"
        },
        {
          "indexed": false,
          "internalType": "uint96",
          "name": "amount",
          "type": "uint96"
        },
        {
          "indexed": false,
          "internalType": "uint8",
          "name": "bonusType",
          "type": "uint8"
        }
      ],
      "name": "BonusDistributed",
      "type": "event"
    },
    {
      "anonymous": false,
      "inputs": [
        {
          "indexed": false,
          "internalType": "uint64",
          "name": "version",
          "type": "uint64"
        }
      ],
      "name": "Initialized",
      "type": "event"
    },
    {
      "anonymous": false,
      "inputs": [
        {
          "indexed": true,
          "internalType": "address",
          "name": "previousOwner",
          "type": "address"
        },
        {
          "indexed": true,
          "internalType": "address",
          "name": "newOwner",
          "type": "address"
        }
      ],
      "name": "OwnershipTransferred",
      "type": "event"
    },
    {
      "anonymous": false,
      "inputs": [
        {
          "indexed": true,
          "internalType": "address",
          "name": "user",
          "type": "address"
        },
        {
          "indexed": false,
          "internalType": "uint8",
          "name": "newLevel",
          "type": "uint8"
        },
        {
          "indexed": false,
          "internalType": "uint96",
          "name": "amount",
          "type": "uint96"
        }
      ],
      "name": "PackageUpgraded",
      "type": "event"
    },
    {
      "anonymous": false,
      "inputs": [
        {
          "indexed": false,
          "internalType": "address",
          "name": "account",
          "type": "address"
        }
      ],
      "name": "Paused",
      "type": "event"
    },
    {
      "anonymous": false,
      "inputs": [
        {
          "indexed": true,
          "internalType": "uint8",
          "name": "poolType",
          "type": "uint8"
        },
        {
          "indexed": false,
          "internalType": "uint96",
          "name": "amount",
          "type": "uint96"
        }
      ],
      "name": "PoolDistributed",
      "type": "event"
    },
    {
      "anonymous": false,
      "inputs": [
        {
          "indexed": false,
          "internalType": "address",
          "name": "account",
          "type": "address"
        }
      ],
      "name": "Unpaused",
      "type": "event"
    },
    {
      "anonymous": false,
      "inputs": [
        {
          "indexed": true,
          "internalType": "address",
          "name": "implementation",
          "type": "address"
        }
      ],
      "name": "Upgraded",
      "type": "event"
    },
    {
      "anonymous": false,
      "inputs": [
        {
          "indexed": true,
          "internalType": "address",
          "name": "user",
          "type": "address"
        },
        {
          "indexed": true,
          "internalType": "address",
          "name": "referrer",
          "type": "address"
        },
        {
          "indexed": false,
          "internalType": "uint8",
          "name": "packageLevel",
          "type": "uint8"
        },
        {
          "indexed": false,
          "internalType": "uint96",
          "name": "amount",
          "type": "uint96"
        }
      ],
      "name": "UserRegistered",
      "type": "event"
    },
    {
      "anonymous": false,
      "inputs": [
        {
          "indexed": true,
          "internalType": "address",
          "name": "user",
          "type": "address"
        },
        {
          "indexed": false,
          "internalType": "uint96",
          "name": "amount",
          "type": "uint96"
        }
      ],
      "name": "Withdrawal",
      "type": "event"
    },
    {
      "inputs": [],
      "name": "UPGRADE_INTERFACE_VERSION",
      "outputs": [
        {
          "internalType": "string",
          "name": "",
          "type": "string"
        }
      ],
      "stateMutability": "view",
      "type": "function"
    },
    {
      "inputs": [
        {
          "internalType": "uint256",
          "name": "",
          "type": "uint256"
        }
      ],
      "name": "adminIds",
      "outputs": [
        {
          "internalType": "address",
          "name": "",
          "type": "address"
        }
      ],
      "stateMutability": "view",
      "type": "function"
    },
    {
      "inputs": [
        {
          "internalType": "address",
          "name": "",
          "type": "address"
        },
        {
          "internalType": "uint256",
          "name": "",
          "type": "uint256"
        }
      ],
      "name": "binaryMatrix",
      "outputs": [
        {
          "internalType": "address",
          "name": "",
          "type": "address"
        }
      ],
      "stateMutability": "view",
      "type": "function"
    },
    {
      "inputs": [
        {
          "internalType": "address",
          "name": "user",
          "type": "address"
        },
        {
          "internalType": "bool",
          "name": "status",
          "type": "bool"
        }
      ],
      "name": "blacklistUser",
      "outputs": [],
      "stateMutability": "nonpayable",
      "type": "function"
    },
    {
      "inputs": [],
      "name": "clubPool",
      "outputs": [
        {
          "internalType": "uint96",
          "name": "balance",
          "type": "uint96"
        },
        {
          "internalType": "uint32",
          "name": "lastDistribution",
          "type": "uint32"
        },
        {
          "internalType": "uint32",
          "name": "interval",
          "type": "uint32"
        }
      ],
      "stateMutability": "view",
      "type": "function"
    },
    {
      "inputs": [
        {
          "internalType": "address",
          "name": "",
          "type": "address"
        },
        {
          "internalType": "uint256",
          "name": "",
          "type": "uint256"
        }
      ],
      "name": "directReferrals",
      "outputs": [
        {
          "internalType": "address",
          "name": "",
          "type": "address"
        }
      ],
      "stateMutability": "view",
      "type": "function"
    },
    {
      "inputs": [],
      "name": "distributePools",
      "outputs": [],
      "stateMutability": "nonpayable",
      "type": "function"
    },
    {
      "inputs": [
        {
          "internalType": "uint256",
          "name": "amount",
          "type": "uint256"
        }
      ],
      "name": "emergencyWithdraw",
      "outputs": [],
      "stateMutability": "nonpayable",
      "type": "function"
    },
    {
      "inputs": [
        {
          "internalType": "address",
          "name": "user",
          "type": "address"
        }
      ],
      "name": "getBinaryMatrix",
      "outputs": [
        {
          "internalType": "address[2]",
          "name": "",
          "type": "address[2]"
        }
      ],
      "stateMutability": "view",
      "type": "function"
    },
    {
      "inputs": [
        {
          "internalType": "address",
          "name": "user",
          "type": "address"
        }
      ],
      "name": "getDirectReferrals",
      "outputs": [
        {
          "internalType": "address[]",
          "name": "",
          "type": "address[]"
        }
      ],
      "stateMutability": "view",
      "type": "function"
    },
    {
      "inputs": [],
      "name": "getPoolBalances",
      "outputs": [
        {
          "internalType": "uint96",
          "name": "",
          "type": "uint96"
        },
        {
          "internalType": "uint96",
          "name": "",
          "type": "uint96"
        },
        {
          "internalType": "uint96",
          "name": "",
          "type": "uint96"
        }
      ],
      "stateMutability": "view",
      "type": "function"
    },
    {
      "inputs": [
        {
          "internalType": "address",
          "name": "user",
          "type": "address"
        }
      ],
      "name": "getUplineChain",
      "outputs": [
        {
          "internalType": "address[30]",
          "name": "",
          "type": "address[30]"
        }
      ],
      "stateMutability": "view",
      "type": "function"
    },
    {
      "inputs": [
        {
          "internalType": "address",
          "name": "user",
          "type": "address"
        }
      ],
      "name": "getUserInfo",
      "outputs": [
        {
          "components": [
            {
              "internalType": "bool",
              "name": "isRegistered",
              "type": "bool"
            },
            {
              "internalType": "bool",
              "name": "isBlacklisted",
              "type": "bool"
            },
            {
              "internalType": "address",
              "name": "referrer",
              "type": "address"
            },
            {
              "internalType": "uint96",
              "name": "balance",
              "type": "uint96"
            },
            {
              "internalType": "uint96",
              "name": "totalInvestment",
              "type": "uint96"
            },
            {
              "internalType": "uint96",
              "name": "totalEarnings",
              "type": "uint96"
            },
            {
              "internalType": "uint96",
              "name": "earningsCap",
              "type": "uint96"
            },
            {
              "internalType": "uint32",
              "name": "directReferrals",
              "type": "uint32"
            },
            {
              "internalType": "uint32",
              "name": "teamSize",
              "type": "uint32"
            },
            {
              "internalType": "uint8",
              "name": "packageLevel",
              "type": "uint8"
            },
            {
              "internalType": "uint8",
              "name": "rank",
              "type": "uint8"
            },
            {
              "internalType": "uint8",
              "name": "withdrawalRate",
              "type": "uint8"
            }
          ],
          "internalType": "struct OrphiCrowdFund.User",
          "name": "",
          "type": "tuple"
        }
      ],
      "stateMutability": "view",
      "type": "function"
    },
    {
      "inputs": [],
      "name": "helpPool",
      "outputs": [
        {
          "internalType": "uint96",
          "name": "balance",
          "type": "uint96"
        },
        {
          "internalType": "uint32",
          "name": "lastDistribution",
          "type": "uint32"
        },
        {
          "internalType": "uint32",
          "name": "interval",
          "type": "uint32"
        }
      ],
      "stateMutability": "view",
      "type": "function"
    },
    {
      "inputs": [
        {
          "internalType": "address",
          "name": "_usdt",
          "type": "address"
        },
        {
          "internalType": "address",
          "name": "_priceFeed",
          "type": "address"
        },
        {
          "internalType": "address[16]",
          "name": "_adminIds",
          "type": "address[16]"
        }
      ],
      "name": "initialize",
      "outputs": [],
      "stateMutability": "nonpayable",
      "type": "function"
    },
    {
      "inputs": [],
      "name": "leaderPool",
      "outputs": [
        {
          "internalType": "uint96",
          "name": "balance",
          "type": "uint96"
        },
        {
          "internalType": "uint32",
          "name": "lastDistribution",
          "type": "uint32"
        },
        {
          "internalType": "uint32",
          "name": "interval",
          "type": "uint32"
        }
      ],
      "stateMutability": "view",
      "type": "function"
    },
    {
      "inputs": [],
      "name": "owner",
      "outputs": [
        {
          "internalType": "address",
          "name": "",
          "type": "address"
        }
      ],
      "stateMutability": "view",
      "type": "function"
    },
    {
      "inputs": [
        {
          "internalType": "uint8",
          "name": "",
          "type": "uint8"
        }
      ],
      "name": "packages",
      "outputs": [
        {
          "internalType": "uint96",
          "name": "price",
          "type": "uint96"
        },
        {
          "internalType": "uint16",
          "name": "directBonus",
          "type": "uint16"
        },
        {
          "internalType": "uint16",
          "name": "levelBonus",
          "type": "uint16"
        },
        {
          "internalType": "uint16",
          "name": "uplineBonus",
          "type": "uint16"
        },
        {
          "internalType": "uint16",
          "name": "leaderBonus",
          "type": "uint16"
        },
        {
          "internalType": "uint16",
          "name": "helpBonus",
          "type": "uint16"
        },
        {
          "internalType": "uint16",
          "name": "clubBonus",
          "type": "uint16"
        }
      ],
      "stateMutability": "view",
      "type": "function"
    },
    {
      "inputs": [],
      "name": "paused",
      "outputs": [
        {
          "internalType": "bool",
          "name": "",
          "type": "bool"
        }
      ],
      "stateMutability": "view",
      "type": "function"
    },
    {
      "inputs": [],
      "name": "priceFeed",
      "outputs": [
        {
          "internalType": "contract IPriceFeed",
          "name": "",
          "type": "address"
        }
      ],
      "stateMutability": "view",
      "type": "function"
    },
    {
      "inputs": [],
      "name": "proxiableUUID",
      "outputs": [
        {
          "internalType": "bytes32",
          "name": "",
          "type": "bytes32"
        }
      ],
      "stateMutability": "view",
      "type": "function"
    },
    {
      "inputs": [
        {
          "internalType": "uint256",
          "name": "amount",
          "type": "uint256"
        }
      ],
      "name": "recoverUSDT",
      "outputs": [],
      "stateMutability": "nonpayable",
      "type": "function"
    },
    {
      "inputs": [
        {
          "internalType": "address",
          "name": "referrer",
          "type": "address"
        },
        {
          "internalType": "uint8",
          "name": "packageLevel",
          "type": "uint8"
        },
        {
          "internalType": "bool",
          "name": "useUSDT",
          "type": "bool"
        }
      ],
      "name": "register",
      "outputs": [],
      "stateMutability": "payable",
      "type": "function"
    },
    {
      "inputs": [],
      "name": "renounceOwnership",
      "outputs": [],
      "stateMutability": "nonpayable",
      "type": "function"
    },
    {
      "inputs": [
        {
          "internalType": "address",
          "name": "newOwner",
          "type": "address"
        }
      ],
      "name": "transferOwnership",
      "outputs": [],
      "stateMutability": "nonpayable",
      "type": "function"
    },
    {
      "inputs": [
        {
          "internalType": "address",
          "name": "user",
          "type": "address"
        },
        {
          "internalType": "uint8",
          "name": "rank",
          "type": "uint8"
        }
      ],
      "name": "updateUserRank",
      "outputs": [],
      "stateMutability": "nonpayable",
      "type": "function"
    },
    {
      "inputs": [
        {
          "internalType": "address",
          "name": "user",
          "type": "address"
        },
        {
          "internalType": "uint8",
          "name": "rate",
          "type": "uint8"
        }
      ],
      "name": "updateWithdrawalRate",
      "outputs": [],
      "stateMutability": "nonpayable",
      "type": "function"
    },
    {
      "inputs": [
        {
          "internalType": "uint8",
          "name": "newLevel",
          "type": "uint8"
        },
        {
          "internalType": "bool",
          "name": "useUSDT",
          "type": "bool"
        }
      ],
      "name": "upgradePackage",
      "outputs": [],
      "stateMutability": "payable",
      "type": "function"
    },
    {
      "inputs": [
        {
          "internalType": "address",
          "name": "newImplementation",
          "type": "address"
        },
        {
          "internalType": "bytes",
          "name": "data",
          "type": "bytes"
        }
      ],
      "name": "upgradeToAndCall",
      "outputs": [],
      "stateMutability": "payable",
      "type": "function"
    },
    {
      "inputs": [
        {
          "internalType": "address",
          "name": "",
          "type": "address"
        },
        {
          "internalType": "uint256",
          "name": "",
          "type": "uint256"
        }
      ],
      "name": "uplineChain",
      "outputs": [
        {
          "internalType": "address",
          "name": "",
          "type": "address"
        }
      ],
      "stateMutability": "view",
      "type": "function"
    },
    {
      "inputs": [],
      "name": "usdt",
      "outputs": [
        {
          "internalType": "contract IERC20",
          "name": "",
          "type": "address"
        }
      ],
      "stateMutability": "view",
      "type": "function"
    },
    {
      "inputs": [
        {
          "internalType": "address",
          "name": "",
          "type": "address"
        }
      ],
      "name": "users",
      "outputs": [
        {
          "internalType": "bool",
          "name": "isRegistered",
          "type": "bool"
        },
        {
          "internalType": "bool",
          "name": "isBlacklisted",
          "type": "bool"
        },
        {
          "internalType": "address",
          "name": "referrer",
          "type": "address"
        },
        {
          "internalType": "uint96",
          "name": "balance",
          "type": "uint96"
        },
        {
          "internalType": "uint96",
          "name": "totalInvestment",
          "type": "uint96"
        },
        {
          "internalType": "uint96",
          "name": "totalEarnings",
          "type": "uint96"
        },
        {
          "internalType": "uint96",
          "name": "earningsCap",
          "type": "uint96"
        },
        {
          "internalType": "uint32",
          "name": "directReferrals",
          "type": "uint32"
        },
        {
          "internalType": "uint32",
          "name": "teamSize",
          "type": "uint32"
        },
        {
          "internalType": "uint8",
          "name": "packageLevel",
          "type": "uint8"
        },
        {
          "internalType": "uint8",
          "name": "rank",
          "type": "uint8"
        },
        {
          "internalType": "uint8",
          "name": "withdrawalRate",
          "type": "uint8"
        }
      ],
      "stateMutability": "view",
      "type": "function"
    },
    {
      "inputs": [
        {
          "internalType": "uint96",
          "name": "amount",
          "type": "uint96"
        }
      ],
      "name": "withdraw",
      "outputs": [],
      "stateMutability": "nonpayable",
      "type": "function"
    },
    {
      "stateMutability": "payable",
      "type": "receive"
    }
  ],
  "bytecode": "0x60a0806040523461002a5730608052613b0d908161003082396080518181816114eb01526116200152f35b600080fdfe6080604052600436101561001b575b361561001957600080fd5b005b60003560e01c806305ad393514612d5b57806306defffb146120dd5780630e7bfadf146119f15780630ef5dcfd146119335780632d052432146118645780632f48ab7d1461183d5780634f1ef286146115a357806352375bb11461156557806352d1902d146114d05780635312ea8e1461146b57806355e14d22146114365780635c975abb146113f45780635dbc0297146111de5780636386c1c714610fe15780636c2db77b14610f9c578063715018a614610f21578063741bef1a14610efa57806388d844f414610eb557806388f24e0914610e0d5780638da5cb5b14610dc757806395979de614610b405780639740041e14610ae6578063a87430ba14610a16578063ad3cb1cc1461097a578063b317d69d146108cd578063cf7a7e6414610888578063d2c8e0e5146107d5578063dcbf77031461069d578063dee4dea014610357578063df76fe2914610287578063e4a1f4d114610206578063ee0da086146101b95763f2fde38b0361000e57346101b45760203660031901126101b4576100196101a7612db5565b6101af61399f565b61302d565b600080fd5b346101b45760403660031901126101b4576101d2612db5565b602435906001600160a01b03809116600052600460205260406000209160028110156101b457602092015416604051908152f35b346101b45760203660031901126101b45760ff610221612eb9565b16600052600160205260e060406000205461ffff604051916001600160601b0381168352818160601c166020840152818160701c166040840152818160801c166060840152818160901c166080840152818160a01c1660a084015260b01c1660c0820152f35b346101b45760403660031901126101b4576102a0612db5565b6102a8612ea9565b60009160005b60108110610329575b506001600160a01b0390836100199490156102fd575b6102d690612f78565b16600052600060205260036040600020019061ff0082549160081b169061ff001916179055565b507f9016d09d72d40fdae2fd8ceac6b6234c7706214fd39c1cd1e609a0528c19930054821633146102cd565b336001600160a01b0382600a01541614610345576001016102ae565b50600192506001600160a01b036102b7565b346101b4576020806003193601126101b457600435906001600160601b038083168084036101b4576103876130cb565b61038f613125565b3360005260008352604060002090815460ff9081808216918261068f575b50501561064b5760018301805493858516809411610607576103f26064876103df8660038396015460101c168c612ff6565b1604986103ec8a82613014565b95613014565b166001600160601b0319809516179055838216908115908115610497575b5050505050600092168092811561048e575b600080809381933390f115610482577f1dddbbe3387bb8b425be68ce12f5d8279ebcd18c7b1ccf5dcd2c8c3ab9cc050b906040519283523392a260017f9b779b17422d0df92223018b32b4d1fa46e071723d6817e2486d003becc55f0055005b6040513d6000823e3d90fd5b506108fc610422565b336000526000875280600360406000200154169460088610806105e4575b156105b457506001610530916104ca87613a02565b3360005260008a5260406000209160038301911660ff19825416179055016104f88588835460601c16612fdb565b77ffffffffffffffffffffffff000000000000000000000000196bffffffffffffffffffffffff60601b83549260601b169116179055565b8260021b916c03fffffffffffffffffffffffc831604600414171561059e576105949261058861058d9233600052600088526104f86bfffffffffffffffffffffffc6002604060002001921688835460601c16612fdb565b613a02565b90336133ab565b8380808080610410565b634e487b7160e01b600052601160045260246000fd5b94505050503360005260008452600160406000200191836105d9845493828516612fdb565b169116179055610594565b50816105ef87613a02565b166000526001885286604060002054168410156104b5565b6064876040519062461bcd60e51b82526004820152601460248201527f496e73756666696369656e742062616c616e63650000000000000000000000006044820152fd5b6064856040519062461bcd60e51b82526004820152600c60248201527f496e76616c6964207573657200000000000000000000000000000000000000006044820152fd5b60081c1615905081886103ad565b346101b45760403660031901126101b4576106b6612db5565b6106be612ea9565b6000805b601081106107af575b508015610777575b6106dc90612f78565b60ff81166046811015908161076b575b5015610727576001600160a01b036100199216600052600060205260036040600020019062ff000082549160101b169062ff00001916179055565b606460405162461bcd60e51b815260206004820152600c60248201527f496e76616c6964207261746500000000000000000000000000000000000000006044820152fd5b605091501115836106ec565b506106dc6001600160a01b037f9016d09d72d40fdae2fd8ceac6b6234c7706214fd39c1cd1e609a0528c1993005416331490506106d3565b336001600160a01b0382600a015416146107cb576001016106c2565b50506001836106cb565b346101b4576020806003193601126101b4576001600160a01b0390816107f9612db5565b1660005260028152604060002060405191828183549182815201908193600052826000209060005b8181106108725750505083610837910384612e87565b60405192818401908285525180915260408401929160005b82811061085c5785850386f35b835187168552938101939281019260010161084f565b8254881684529284019260019283019201610821565b346101b45760003660031901126101b457600754604080516001600160601b038316815263ffffffff606084811c8216602084015260809490941c1691810191909152f35b346101b4576020806003193601126101b4576108e7612db5565b90604051916108f583612e6a565b6103c080933690376001600160a01b0380911660005260036020526040600020916040519283826000915b601e8310610961575050505061093583612e6a565b60405192600090845b601e831061094a578686f35b83806001928785511681520192019201919061093e565b6001918291878654168152019301910190918390610920565b346101b45760003660031901126101b45760405161099781612e4e565b600581526020907f352e302e3000000000000000000000000000000000000000000000000000000060208201526040518092602082528251908160208401526000935b8285106109fd575050604092506000838284010152601f80199101168101030190f35b84810182015186860160400152938101938593506109da565b346101b45760203660031901126101b4576101806001600160a01b0380610a3b612db5565b16600052600060205260ff60406000209182549260018101546001600160601b03809160036002850154940154946040519787811615158952878160081c16151560208a015260101c166040880152818116606088015260601c16608086015280821660a08601528160601c1660c085015263ffffffff8160c01c1660e085015260e01c610100840152818116610120840152818160081c1661014084015260101c16610160820152f35b346101b45760403660031901126101b457610aff612db5565b602435906001600160a01b0380911660005260036020526040600020601e8310156101b457602092610b3091612ef4565b90549060031b1c16604051908152f35b60403660031901126101b457610b54612eb9565b610b5c612ec9565b610b646130cb565b610b6c613125565b610b79601a544311612f15565b43601a553360005260206000815260ff6040600020541615610d8357336000526000815260ff60406000205460081c16610d3f57336000526000815260ff600360406000200154169160ff841692831180610d34575b15610cf057610be06001918561317a565b923360005260008352604060002090600382019060ff198254161790550191610c1b6001600160601b03936104f88386835460601c16612fdb565b828116928160021b93806c03fffffffffffffffffffffffc8616046004149015171561059e577f08c55c9cdb3bcb948578fbc7d81c0f651db05b0fa6aa25a97bf61816997e9f34936104f8610c97926000610cc796338252526bfffffffffffffffffffffffc6002604060002001931690835460601c16612fdb565b610ca28482336133ab565b6040805160ff90951685526001600160601b0390911660208501523393918291820190565b0390a260017f9b779b17422d0df92223018b32b4d1fa46e071723d6817e2486d003becc55f0055005b6064826040519062461bcd60e51b82526004820152600f60248201527f496e76616c6964207570677261646500000000000000000000000000000000006044820152fd5b506008831115610bcf565b6064906040519062461bcd60e51b82526004820152600b60248201527f426c61636b6c69737465640000000000000000000000000000000000000000006044820152fd5b6064906040519062461bcd60e51b82526004820152600e60248201527f4e6f7420726567697374657265640000000000000000000000000000000000006044820152fd5b346101b45760003660031901126101b45760206001600160a01b037f9016d09d72d40fdae2fd8ceac6b6234c7706214fd39c1cd1e609a0528c1993005416604051908152f35b346101b4576020806003193601126101b457610e27612db5565b60408051610e3481612e4e565b3690376001600160a01b0380911660005260046020526040600020916040519283826000915b60028310610e9c5750505050610e6f83612e4e565b60405192600090845b60028310610e8557604086f35b838060019287855116815201920192019190610e78565b6001918291878654168152019301910190918390610e5a565b346101b45760003660031901126101b457600654604080516001600160601b038316815263ffffffff606084811c8216602084015260809490941c1691810191909152f35b346101b45760003660031901126101b45760206001600160a01b0360095416604051908152f35b346101b45760003660031901126101b457610f3a61399f565b60006001600160a01b037f9016d09d72d40fdae2fd8ceac6b6234c7706214fd39c1cd1e609a0528c1993008054906001600160a01b031982169055167f8be0079c531659141344cd1fd0a4f28419497f9722a3daafe3b4186f6b6457e08280a3005b346101b45760003660031901126101b457600554604080516001600160601b038316815263ffffffff606084811c8216602084015260809490941c1691810191909152f35b346101b45760203660031901126101b4576001600160a01b03611002612db5565b600061016060405161101381612e31565b8281528260208201528260408201528260608201528260808201528260a08201528260c08201528260e08201528261010082015282610120820152826101408201520152166000526000602052610180604060002060ff61016060405161107981612e31565b82600385549582871615158452828760081c16151560208501526001600160a01b038760101c1660408501526001600160601b036001820154818116606087015260601c16608085015260028101546001600160601b03811660a08601526001600160601b038160601c1660c086015263ffffffff8160c01c1660e086015260e01c6101008501520154818116610120840152818160081c1661014084015260101c1682820152826040519416151584526020810151151560208501526001600160a01b0360408201511660408501526001600160601b0360608201511660608501526001600160601b0360808201511660808501526001600160601b0360a08201511660a08501526001600160601b0360c08201511660c085015263ffffffff60e08201511660e085015263ffffffff6101008201511661010085015282610120820151166101208501528261014082015116610140850152015116610160820152f35b346101b45760003660031901126101b4576000805b601081106113ce575b508015611396575b61120d90612f78565b63ffffffff8042166005549060609183611230818360801c168284871c16612fc3565b16821015611338575b5060065483611251818360801c168284871c16612fc3565b168210156112da575b5060075492611272818560801c168286861c16612fc3565b16111561127b57005b63ffffffff60601b6fffffffffffffffffffffffffffffffff199160037f720f16148d6c70bef37c97275fd67d61483575c5f6f20dfd980d69c036a29d5460206040516001600160601b0388168152a242901b16911617600755600080f35b60027f720f16148d6c70bef37c97275fd67d61483575c5f6f20dfd980d69c036a29d5460206040516001600160601b0385168152a26fffffffffffffffffffffffffffffffff191642831b63ffffffff60601b16176006558361125a565b60017f720f16148d6c70bef37c97275fd67d61483575c5f6f20dfd980d69c036a29d5460206040516001600160601b0385168152a26fffffffffffffffffffffffffffffffff191642831b63ffffffff60601b161760055583611239565b5061120d6001600160a01b037f9016d09d72d40fdae2fd8ceac6b6234c7706214fd39c1cd1e609a0528c199300541633149050611204565b336001600160a01b0382600a015416146113ea576001016111f3565b50506001816111fc565b346101b45760003660031901126101b457602060ff7fcd5ed15c6e187e77e9aee88184c21f4f2182ab5827cb3b7e07fbedcd63f0330054166040519015158152f35b346101b45760203660031901126101b45760043560108110156101b4576001600160a01b03602091600a015416604051908152f35b346101b45760203660031901126101b457600080808060043561148c61399f565b6001600160a01b037f9016d09d72d40fdae2fd8ceac6b6234c7706214fd39c1cd1e609a0528c19930054168282156114c7575bf11561048257005b506108fc6114bf565b346101b45760003660031901126101b4576001600160a01b037f000000000000000000000000000000000000000000000000000000000000000016300361153b5760206040517f360894a13ba1a3210667c828492db98dca3e2076cc3735a920a3ca505d382bbc8152f35b60046040517fe07c8dba000000000000000000000000000000000000000000000000000000008152fd5b346101b45760003660031901126101b45760606001600160601b03806005541690806006541690600754169060405192835260208301526040820152f35b60403660031901126101b4576115b7612db5565b602490813567ffffffffffffffff81116101b457366023820112156101b45780600401356115e481612ed8565b926115f26040519485612e87565b81845260209182850193368783830101116101b45781600092888693018737860101526001600160a01b03807f00000000000000000000000000000000000000000000000000000000000000001680301490811561180f575b5061153b5761165861399f565b8116936040517f52d1902d0000000000000000000000000000000000000000000000000000000081528381600481895afa600091816117e0575b506116ae57868660405190634c9c8ce360e01b82526004820152fd5b8590877f360894a13ba1a3210667c828492db98dca3e2076cc3735a920a3ca505d382bbc918281036117b25750843b1561179c5750816001600160a01b0319825416179055604051907fbc7cd75a20ee27fd9adebab32041f755214dbc6bffa90cc0225b39da2e5c2d3b600080a2815115611768575060006100199481925190845af4903d1561175f573d61174281612ed8565b906117506040519283612e87565b8152600081943d92013e613a6d565b60609250613a6d565b93505050503461177457005b807fb398979f0000000000000000000000000000000000000000000000000000000060049252fd5b8260405190634c9c8ce360e01b82526004820152fd5b604051907faa1d49a40000000000000000000000000000000000000000000000000000000082526004820152fd5b9091508481813d8311611808575b6117f88183612e87565b810103126101b457519088611692565b503d6117ee565b9050817f360894a13ba1a3210667c828492db98dca3e2076cc3735a920a3ca505d382bbc541614158761164b565b346101b45760003660031901126101b45760206001600160a01b0360085416604051908152f35b346101b45760403660031901126101b45761187d612db5565b611885612ec9565b60009160005b60108110611905575b506001600160a01b0390836100199490156118d9575b6118b390612f78565b16600052600060205260406000209061ff00825491151560081b169061ff001916179055565b507f9016d09d72d40fdae2fd8ceac6b6234c7706214fd39c1cd1e609a0528c19930054821633146118aa565b336001600160a01b0382600a015416146119215760010161188b565b50600192506001600160a01b03611894565b346101b45760203660031901126101b45761194c61399f565b600060206001600160a01b0360448160085416917f9016d09d72d40fdae2fd8ceac6b6234c7706214fd39c1cd1e609a0528c199300541660405194859384927fa9059cbb000000000000000000000000000000000000000000000000000000008452600484015260043560248401525af18015610482576119c957005b6100199060203d6020116119ea575b6119e28183612e87565b810190612f60565b503d6119d8565b60603660031901126101b457611a05612db5565b611a0d612ea9565b6044359182151583036101b457611a226130cb565b611a2a613125565b611a37601a544311612f15565b43601a5533600052600060205260ff6040600020541661209957600160ff831610158061208b575b15612047576001600160a01b038116159283159384612026575b15611fe257611a88908361317a565b926001600160601b0384166c03fffffffffffffffffffffffc8560021b16046004146001600160601b03851615171561059e57604051611ac781612e31565b60018152600060208201526001600160a01b0383166040820152600060608201526001600160601b0385166080820152600060a08201526bfffffffffffffffffffffffc8560021b1660c0820152600060e0820152600061010082015260ff8416610120820152600061014082015260466101608201523360005260006020526040600020918151151560ff80198554169116178355611b8060208301511515849061ff00825491151560081b169061ff001916179055565b604082015175ffffffffffffffffffffffffffffffffffffffff00001975ffffffffffffffffffffffffffffffffffffffff000085549260101b169116178355611d5c6001840192611c316001600160601b03606083015116946001600160601b031995868254161781556001600160601b0360808401511677ffffffffffffffffffffffff000000000000000000000000196bffffffffffffffffffffffff60601b83549260601b169116179055565b60028501936001600160601b0360a08301511690855416178455611c966001600160601b0360c083015116859077ffffffffffffffffffffffff000000000000000000000000196bffffffffffffffffffffffff60601b83549260601b169116179055565b60e0810151845463ffffffff60c01b191660c09190911b63ffffffff60c01b1617845563ffffffff9361010082015181547bffffffffffffffffffffffffffffffffffffffffffffffffffffffff1660e09190911b7fffffffff00000000000000000000000000000000000000000000000000000000161790556101208101516003958601805461014084015161ffff1990911660ff9384161760089190911b61ff001617815591610160905b0151825462ff00001916911660101b62ff000016179055565b611de0575b50506001600160a01b037f71def7d796f49533ee52ddbc96692742dfdf822ce8b6e59e1102742a3a15cdfd91611d988486336133ab565b6040805160ff9590951685526001600160601b0395909516602085015216923392a360017f9b779b17422d0df92223018b32b4d1fa46e071723d6817e2486d003becc55f0055005b6001600160a01b038394929593166000526002602052604060002080549068010000000000000000821015611fcc5781611e22916001611e4094018155612dcb565b33906001600160a01b038084549260031b9316831b921b1916179055565b6001600160a01b0384166000526000602052600260406000200181815460c01c1691821461059e576001611e8e920163ffffffff60c01b1963ffffffff60c01b83549260c01b169116179055565b33600052600360205260406000206001600160a01b0384166001600160a01b031982541617905560015b60ff8116601e811015611f97573360005285602052604060002090600019019060ff821161059e576001600160a01b0391611ef291612ef4565b905490871b1c16600052846020526001600160a01b03604060002054168015611f565760ff91611f4f60019233600052611f30836040600020612ef4565b9091906001600160a01b038084549260031b9316831b921b1916179055565b0116611eb8565b5050917f71def7d796f49533ee52ddbc96692742dfdf822ce8b6e59e1102742a3a15cdfd9193506001600160a01b03905b611f9181336132bc565b91611d61565b5050917f71def7d796f49533ee52ddbc96692742dfdf822ce8b6e59e1102742a3a15cdfd9193506001600160a01b0390611f87565b634e487b7160e01b600052604160045260246000fd5b606460405162461bcd60e51b815260206004820152601060248201527f496e76616c6964207265666572726572000000000000000000000000000000006044820152fd5b506001600160a01b038216600052600060205260ff60406000205416611a79565b606460405162461bcd60e51b815260206004820152600f60248201527f496e76616c6964207061636b61676500000000000000000000000000000000006044820152fd5b50600860ff83161115611a5f565b606460405162461bcd60e51b815260206004820152601260248201527f416c7265616479207265676973746572656400000000000000000000000000006044820152fd5b346101b4576102403660031901126101b4576120f7612db5565b6024356001600160a01b0381168091036101b45736606312156101b4576040519061020082019267ffffffffffffffff9383811085821117611fcc57604052826102443681116101b4576044915b818310612d3b575050507ff0c57e16840df040f15088dc2f81fe391c3923bec73e23a9662efc9c229c6a005493841680159081612d2b575b6001149081612d21575b159081612d18575b50612cee576001600160a01b0390600167ffffffffffffffff198616177ff0c57e16840df040f15088dc2f81fe391c3923bec73e23a9662efc9c229c6a005560ff8560401c1615612caf575b6121e3613a14565b6121eb613a14565b6121f43361302d565b6121fc613a14565b612204613a14565b61220c613a14565b60017f9b779b17422d0df92223018b32b4d1fa46e071723d6817e2486d003becc55f0055612238613a14565b166001600160a01b031960085416176008556001600160a01b031960095416176009558060005b60108110612c9157505060405161227581612df9565b6801a055690d9db800008152610fa060208201526103e860408201526103e860608201526103e86080820152610bb860a08201526101f460c0820152600160005260016020526040600020906001600160601b038151169082549161ffff60901b61ffff60601b602084015160601b16604084015161ffff60701b61ffff60801b606087015160801b16926080870151956001600160c01b031961ffff60b01b60c061ffff60a01b60a08c015160a01b169a015160b01b16991617179160701b1617179160901b16171717905560405161234e81612df9565b6802b5e3af16b18800008152610fa060208201526103e860408201526103e860608201526103e86080820152610bb860a08201526101f460c0820152600260005260016020526040600020906001600160601b038151169082549161ffff60601b602083015160601b1661ffff60701b604084015160701b1661ffff60801b606085015160801b169161ffff60901b608086015160901b16936001600160c01b031961ffff60b01b60c061ffff60a01b60a08a015160a01b1698015160b01b16971617171717171717905560405161242581612df9565b68056bc75e2d631000008152610fa060208201526103e860408201526103e860608201526103e86080820152610bb860a08201526101f460c0820152600360005260016020526040600020906001600160601b038151169082549161ffff60601b602083015160601b1661ffff60701b604084015160701b1661ffff60801b606085015160801b169161ffff60901b608086015160901b16936001600160c01b031961ffff60b01b60c061ffff60a01b60a08a015160a01b1698015160b01b1697161717171717171790556040516124fc81612df9565b680ad78ebc5ac62000008152610fa060208201526103e860408201526103e860608201526103e86080820152610bb860a08201526101f460c0820152600460005260016020526040600020906001600160601b038151169082549161ffff60601b602083015160601b1661ffff60701b604084015160701b1661ffff60801b606085015160801b169161ffff60901b608086015160901b16936001600160c01b031961ffff60b01b60c061ffff60a01b60a08a015160a01b1698015160b01b1697161717171717171790556040516125d381612df9565b681043561a88293000008152610fa060208201526103e860408201526103e860608201526103e86080820152610bb860a08201526101f460c0820152600560005260016020526040600020906001600160601b038151169082549161ffff60601b602083015160601b1661ffff60701b604084015160701b1661ffff60801b606085015160801b169161ffff60901b608086015160901b16936001600160c01b031961ffff60b01b60c061ffff60a01b60a08a015160a01b1698015160b01b1697161717171717171790556040516126aa81612df9565b681b1ae4d6e2ef5000008152610fa060208201526103e860408201526103e860608201526103e86080820152610bb860a08201526101f460c0820152600660005260016020526040600020906001600160601b038151169082549161ffff60601b602083015160601b1661ffff60701b604084015160701b1661ffff60801b606085015160801b169161ffff60901b608086015160901b16936001600160c01b031961ffff60b01b60c061ffff60a01b60a08a015160a01b1698015160b01b16971617171717171717905560405161278181612df9565b683635c9adc5dea000008152610fa060208201526103e860408201526103e860608201526103e86080820152610bb860a08201526101f460c0820152600760005260016020526040600020906001600160601b038151169082549161ffff60601b602083015160601b1661ffff60701b604084015160701b1661ffff60801b606085015160801b169161ffff60901b608086015160901b16936001600160c01b031961ffff60b01b60c061ffff60a01b60a08a015160a01b1698015160b01b16971617171717171717905560405161285881612df9565b686c6b935b8bbd4000008152610fa060208201526103e860408201526103e860608201526103e86080820152610bb860a08201526101f460c0820152600860005260016020526040600020906001600160601b038151169082549161ffff60601b602083015160601b1661ffff60701b604084015160701b1661ffff60801b606085015160801b169161ffff60901b608086015160901b16936001600160c01b031961ffff60b01b60c061ffff60a01b60a08a015160a01b1698015160b01b16971617171717171717905572278d0000000000000000000000000000000000604062278d008163ffffffff4216815161295081612e15565b6000815281602082015262093a8094859101526001600160a01b03196005549463ffffffff60601b4260601b16958672093a80000000000000000000000000000000009384921617176005558380516129a881612e15565b600081528460208201520152846001600160a01b03196006541617176006558151906129d382612e15565b60008252602082015201526001600160a01b031960075416171760075560005b6010811015612c0657806001600160a01b03612a1160019385612f04565b5116612a1e575b016129f3565b612c01604051612a2d81612e31565b83815260006020820152600060408201526000606082015260006080820152600060a08201526001600160601b0360c0820152600060e082015260006101008201526008610120820152600561014082015260506101608201526001600160a01b03612a998487612f04565b5116600052600060205260ff61016060036040600020845115158480198354169116178155612ae160208601511515829061ff00825491151560081b169061ff001916179055565b6040850151815475ffffffffffffffffffffffffffffffffffffffff000060109290921b9190911675ffffffffffffffffffffffffffffffffffffffff000019909116178155606080860151898301805460808901516bffffffffffffffffffffffff60601b90851b81166001600160601b039485166001600160c01b0319909316929092179190911790915560a088015160c0808a015160e0808c01516101008d01517fffffffff00000000000000000000000000000000000000000000000000000000921b91909116921b63ffffffff60c01b16929094169390941b90911691909117171760028201556101208501519101805461014086015161ff0090861660081b1692851685199091161761ff00191691909117815592611d43565b612a18565b60ff8360401c1615612c1457005b68ff0000000000000000197ff0c57e16840df040f15088dc2f81fe391c3923bec73e23a9662efc9c229c6a0054167ff0c57e16840df040f15088dc2f81fe391c3923bec73e23a9662efc9c229c6a00557fc7f505b2f371ae2175ee4913f4499e1f2633a7b5936321eed1cdaeb6115181d2602060405160018152a1005b60019060206001600160a01b0384511693019281600a01550161225f565b68ffffffffffffffffff19851668010000000000000001177ff0c57e16840df040f15088dc2f81fe391c3923bec73e23a9662efc9c229c6a00556121db565b60046040517ff92ee8a9000000000000000000000000000000000000000000000000000000008152fd5b9050158561218f565b303b159150612187565b604086901c60ff1615915061217d565b82356001600160a01b03811681036101b457815260209283019201612145565b346101b45760403660031901126101b457612d74612db5565b602435906001600160a01b038091166000526002602052604060002080548310156101b457602092612da591612dcb565b9190546040519260031b1c168152f35b600435906001600160a01b03821682036101b457565b8054821015612de35760005260206000200190600090565b634e487b7160e01b600052603260045260246000fd5b60e0810190811067ffffffffffffffff821117611fcc57604052565b6060810190811067ffffffffffffffff821117611fcc57604052565b610180810190811067ffffffffffffffff821117611fcc57604052565b6040810190811067ffffffffffffffff821117611fcc57604052565b6103c0810190811067ffffffffffffffff821117611fcc57604052565b90601f8019910116810190811067ffffffffffffffff821117611fcc57604052565b6024359060ff821682036101b457565b6004359060ff821682036101b457565b6024359081151582036101b457565b67ffffffffffffffff8111611fcc57601f01601f191660200190565b601e821015612de3570190600090565b906010811015612de35760051b0190565b15612f1c57565b606460405162461bcd60e51b815260206004820152600e60248201527f4d45562070726f74656374696f6e0000000000000000000000000000000000006044820152fd5b908160209103126101b4575180151581036101b45790565b15612f7f57565b606460405162461bcd60e51b815260206004820152600e60248201527f4e6f7420617574686f72697a65640000000000000000000000000000000000006044820152fd5b91909163ffffffff8080941691160191821161059e57565b9190916001600160601b038080941691160191821161059e57565b9190916001600160601b038080941691160291821691820361059e57565b6001600160601b03918216908216039190821161059e57565b6001600160a01b0380911690811561309a577f9016d09d72d40fdae2fd8ceac6b6234c7706214fd39c1cd1e609a0528c199300805490836001600160a01b03198316179055167f8be0079c531659141344cd1fd0a4f28419497f9722a3daafe3b4186f6b6457e0600080a3565b60246040517f1e4fbdf700000000000000000000000000000000000000000000000000000000815260006004820152fd5b7f9b779b17422d0df92223018b32b4d1fa46e071723d6817e2486d003becc55f0060028154146130fb5760029055565b60046040517f3ee5aeb5000000000000000000000000000000000000000000000000000000008152fd5b60ff7fcd5ed15c6e187e77e9aee88184c21f4f2182ab5827cb3b7e07fbedcd63f03300541661315057565b60046040517fd93c0665000000000000000000000000000000000000000000000000000000008152fd5b60ff166000526020600181526001600160601b036040600020541691600014613266576000816001600160a01b03600854166064604051809481937f23b872dd0000000000000000000000000000000000000000000000000000000083523360048401523060248401528860448401525af190811561048257600091613249575b5015613205575090565b6064906040519062461bcd60e51b82526004820152601460248201527f55534454207472616e73666572206661696c65640000000000000000000000006044820152fd5b6132609150823d84116119ea576119e28183612e87565b386131fb565b662386f26fc100003410613278575090565b6064906040519062461bcd60e51b82526004820152601960248201527f4d696e696d756d20302e303120424e42207265717569726564000000000000006044820152fd5b6001600160a01b03808316600052600460205280604060002054161560001461331d575061330061331b926001600160a01b03166000526004602052604060002090565b906001600160a01b03166001600160a01b0319825416179055565b565b80600161333d856001600160a01b03166000526004602052604060002090565b0154166133835750600161336761331b936001600160a01b03166000526004602052604060002090565b01906001600160a01b03166001600160a01b0319825416179055565b6133a361331b936001600160a01b03166000526004602052604060002090565b5416906132bc565b92909160ff16600052600160205260406000209061ffff604051926133cf84612df9565b546001600160601b0381168452818160601c166020850152818160701c166040850152818160801c166060850152818160901c166080850152818160a01c1660a085015260b01c1660c08301526001600160a01b03841660005260006020526001600160a01b0360406000205460101c166138ae575b61ffff604083015116936001600160a01b03811660005260006020526001600160601b03612710816134896001600160a01b0360406000205460101c169888612ff6565b16041691604051938461014081011067ffffffffffffffff61014087011117611fcc57610140850160405261012c855260646020860152606460408601526032606086015260326080860152603260a0860152603260c0860152603260e0860152603261010086015260326101208601526000965b600a60ff891610808061389c575b15613683576001600160a01b038216600052600060205260406000205460ff81169081613674575b50613573575b506001600160a01b0316600052600060205260ff6001600160a01b0360406000205460101c16971660ff811461059e57600101966134fe565b15612de3576001600160a01b03906103e86001600160601b036135a461ffff611fe08d60051b168b01511689612ff6565b160482821660005260006020526040600020600290818101908154906001600160601b038216906135d58683612fdb565b6001600160601b03808560601c16911611156135f8575b5050505050509061353a565b6136278660016001600160601b039301938454948461361984828916612fdb565b168519809716179055612fdb565b1691161790556001600160601b036040519216825260208201527f2c93b07003bbb07c4d91a84e6628cde652fa94de37e653365f64ae9b3517bfe3604084841692a23880808080806135ec565b60ff915060081c161538613534565b505094935094509050601e6001600160601b03612710816136ac61ffff60608901511687612ff6565b1604160460005b601e60ff821610613762575050506127106001600160601b0361373e819361ffff60c08486816136e98560808d01511687612ff6565b16041697856136fd6005549a828c16612fdb565b168619809a161760055585878161371a8660a08601511688612ff6565b160416898761372e60065493828516612fdb565b1691161760065501511690612ff6565b160416906001600160601b0361375960075493828516612fdb565b16911617600755565b600160ff916001600160a01b038516600052600380602052846001600160a01b03613791846040600020612ef4565b905490841b1c169182151580613885575b8061386a575b6137b7575b50505001166136b3565b8260005260006020526040600020906002820180546001600160601b0381166137e08682612fdb565b6001600160601b03808460601c1691161115613800575b505050506137ad565b6001600160601b036138437f2c93b07003bbb07c4d91a84e6628cde652fa94de37e653365f64ae9b3517bfe3978b60409801938454948461361984828916612fdb565b1691161790558151906001600160601b03891682526020820152a2388481808080806137f7565b508260005260006020528560406000205460081c16156137a8565b5082600052600060205285604060002054166137a2565b506001600160a01b038216151561350c565b6001600160601b03612710816138cc61ffff60208701511687612ff6565b1604166001600160a01b03851660005260006020526001600160a01b0360406000205460101c169081600052604060002060028101918254926001600160601b0384169361391a8386612fdb565b6001600160601b03808360601c169116111561393c575b505050505050613445565b7f2c93b07003bbb07c4d91a84e6628cde652fa94de37e653365f64ae9b3517bfe3946001600160601b0361398185600160409801938454948461361984828916612fdb565b169116179055815190815260016020820152a2388080808080613931565b6001600160a01b037f9016d09d72d40fdae2fd8ceac6b6234c7706214fd39c1cd1e609a0528c199300541633036139d257565b60246040517f118cdaa7000000000000000000000000000000000000000000000000000000008152336004820152fd5b60ff60019116019060ff821161059e57565b60ff7ff0c57e16840df040f15088dc2f81fe391c3923bec73e23a9662efc9c229c6a005460401c1615613a4357565b60046040517fd7e6bcf8000000000000000000000000000000000000000000000000000000008152fd5b90613aac5750805115613a8257805190602001fd5b60046040517fd6bda275000000000000000000000000000000000000000000000000000000008152fd5b81511580613af7575b613abd575090565b6024906001600160a01b03604051917f9996b315000000000000000000000000000000000000000000000000000000008352166004820152fd5b50803b15613ab556fea164736f6c6343000816000a",
  "linkReferences": {},
  "deployedLinkReferences": {}
}